:100000000C944C000C9456000C9456000C94560022
:100010000C9456000C9456000C9456000C94560008
:100020000C9456000C9456000C9456000C945600F8
:100030000C9456000C9456000C9456000C945600E8
:100040000C9456000C9456000C9456000C945600D8
:100050000C9456000C9456000C9456000C945600C8
:100060000C9456000C9456000C9456000C945600B8
:100070000C9456000C9456000C9456000C945600A8
:100080000C9456000C9456000C9456000C94560098
:100090000C9456000C94560011241FBECFEFD4E0F0
:1000A000DEBFCDBF0E943D010C9457010C940000AF
:1000B0009C016230710571F16330710520F461308B
:1000C000710539F41BC06330710529F06430710586
:1000D00061F080E00895FC01F07095A1832F809578
:1000E000892385A384A1832B07C0FC01F07085A11F
:1000F000832B85A384A1832B84A30AC0FC01F07009
:1001000084A1932F9095892384A385A1892385A316
:1001100081E00895FC01F07084A1932F90958923CC
:1001200084A385A1832B85A381E0089583E090E4D7
:1001300064E070E00E94580080E090E864E070E0C5
:100140000E94580083E090E164E070E00E94580053
:1001500083E090E864E070E00E94580083E090E261
:1001600064E070E00E94580080E090E464E070E099
:100170000E94580080E090E264E070E00E94580025
:1001800080E090E164E070E00E94580080E098E038
:1001900064E070E00E94580080E094E064E070E069
:1001A0000E94580080E092E064E070E00E945800F5
:1001B00080E091E064E070E00E945800089529B169
:1001C000332727FD30952227330F221F3327C901FC
:1001D00008950E9496000895DC01B07095962C91C8
:1001E0009597392F892F8095822395968C93959793
:1001F000FB01F07095A1872F8095892385A39596A3
:100200008C919597832B95968C9385A1872B85A3AD
:10021000089580E092E060E070E80E94EC0080E0E9
:1002200092E063E070E10E94EC0080E092E063E025
:1002300070E80E94EC0080E094E063E070E40E94CB
:10024000EC0080E094E063E070E20E94EC0080E06B
:1002500090E160E070E80E94EC0080E090E163E0F3
:1002600070E80E94EC00089586E090E861E070E09C
:100270000E9458000E94960008950E9447010E9423
:10028000340102C00E9409014F9BFECFFBCFE1E683
:10029000F0E080E880831082A89584B7877F84BFD0
:1002A000E0E6F0E080818861808310820895F89410
:0202B000FFCF7E
:00000001FF
