:1000000007C2000024C2000022C2000020C200007B
:100010001EC200001CC200001AC2000018C200006C
:1000200016C2000014C200000C94372D0C94942EBC
:100030000EC200000CC200000AC2000008C200008C
:1000400006C200000C940A1C02C2000000C200009C
:10005000FEC10000FCC10000FAC10000F8C10000B0
:10006000F6C10000F4C10000F2C10000F0C10000C0
:10007000EEC10000ECC10000EAC10000E8C10000D0
:10008000E6C10000E4C10000E2C10000E0C10000E0
:10009000DEC10000DCC100001E034C00550046001C
:1000A0004100200057006500620073006500720087
:1000B00076006500720000001803440065006100CE
:1000C0006E002000430061006D0065007200610059
:1000D00000000403090409025D00030100803208E6
:1000E0000B00020202FF0009040000010202FF00EF
:1000F0000524001001042402000524060001070560
:1001000085030800FF09040100020A00000007053A
:1001100002024000050705810240000509040200B3
:100120000208065000070583024000050705040287
:1001300040000512011001EF020108EB03692001E4
:10014000000102DC01746578742F706C61696E00C7
:10015000696E6465782E68746D00485454502F3170
:100160002E3120343034204E6F7420466F756E640B
:100170000D0A5365727665723A204C55464120311E
:1001800033303330330D0A436F6E6E656374696FBD
:100190006E3A20636C6F73650D0A4D494D452D769F
:1001A000657273696F6E3A20312E300D0A436F6E9F
:1001B00074656E742D547970653A20746578742F67
:1001C000706C61696E0D0A0D0A4572726F7220348F
:1001D00030343A2046696C65204E6F7420466F7546
:1001E0006E643A202F00485454502F312E31203263
:1001F0003030204F4B0D0A5365727665723A204CB1
:10020000554641203133303330330D0A436F6E6E23
:10021000656374696F6E3A20636C6F73650D0A4D88
:10022000494D452D76657273696F6E3A20312E30D7
:100230000D0A436F6E74656E742D547970653A20A3
:1002400000474554000D0A0D0A000D0A2A20437587
:100250007272656E742054435020436F6E6E6563F6
:1002600074696F6E733A202A0D0A000D0A20203D32
:100270003D20417661696C61626C6520436F6D6DF4
:10028000616E64733A203D3D0D0A202020202063DA
:1002900029204C6973742041637469766520544346
:1002A0005020436F6E6E656374696F6E730D0A2024
:1002B000203D3D3D3D3D3D3D3D3D3D3D3D3D3D3D8B
:1002C0003D3D3D3D3D3D3D3D3D3D0D0A0D0A3E0060
:1002D0002A2A2A2A2A2A2A2A2A2A2A2A2A2A2A2A7E
:1002E0002A2A2A2A2A2A2A2A2A2A2A2A2A2A2A2A6E
:1002F0002A2A2A2A2A2A2A2A2A2A2A2A0D0A2A20A5
:100300002020202020204C55464120754950205760
:100310006562736572766572202854454C4E45546B
:100320002920202020202020202A0D0A2A2A2A2ABB
:100330002A2A2A2A2A2A2A2A2A2A2A2A2A2A2A2A1D
:100340002A2A2A2A2A2A2A2A2A2A2A2A2A2A2A2A0D
:100350002A2A2A2A2A2A2A2A0D0A00496E76616C3C
:10036000696420436F6D6D616E642E0D0A00257502
:10037000292025642E25642E25642E256420284CF2
:100380006F63616C20506F7274202575203C3D3E78
:100390002052656D6F746520506F72742025752929
:1003A0000D0A000101010002020100020101000327
:1003B0000101000401010006010100110101000713
:1003C0000101000A0101000B0101000C0101000DF7
:1003D0000101000E010100110101001401010001E1
:1003E00001020002010200030102000401020005F3
:1003F00001020001010101020101010301010104E7
:1004000001010101010201020102010301020100D7
:1004100011241FBECFEFD0E2DEBFCDBF13E0A0E0BE
:10042000B1E0EAE5FFE700E00BBF02C007900D92E4
:10043000A837B107D9F71BBE1DE0A8E7B3E001C09C
:100440001D92A83DB107E1F733D00C94AB3FD8CD56
:1004500084B7877F84BF88E10FB6F89480936000EB
:10046000109260000FBE90E080E80FB6F894809381
:100470006100909361000FBE209A289A84B1866033
:1004800084B923982B9A8DB581608DBD20988CE519
:100490008CBD8DB183608DB98EB183608EB98AB108
:1004A000806F8AB98BB18F708BB983E00C94F92C73
:1004B000CFDF8BB18F7080618BB978948091FB0313
:1004C000823011F47DD001C034D00E942932F6CFA1
:1004D000923029F0933041F09130E9F417C08DE566
:1004E00090E0E6EDF0E01BC0813041F0813018F083
:1004F000823089F406C0E2EDF0E005C0E8EBF0E000
:1005000002C0E8E9F0E0849190E009C082E190E067
:10051000E3E3F1E004C080E090E0E0E0F0E0DA0145
:100520001196FC93EE9308959BB19F70982B9BB905
:1005300008958091FB03813049F4F3D58CE491E078
:100540000E94D83680E091E00C94B532089580E3A3
:10055000EBDF8AC580E1E8CFCF938CE491E00E9485
:10056000B136C82F80E091E00E949732282F30E00A
:100570008C2F90E0282339232115310511F080E2DA
:1005800001C080E9D1DFCF9108958CE491E00E9411
:10059000DC3380E091E00C945832CF93DF93EC0190
:1005A00080EDC2DFCE01D0D0C82F80E2BDDF8C2F1E
:1005B000DF91CF9108959BB19F70982B9BB90895BF
:1005C0008091FB03823009F4ACC5089580E3F3CF3A
:1005D00080E1F1CF0F931F93CF93DF93CDB7DEB7B9
:1005E000C650D2400FB6F894DEBF0FBECDBF80E339
:1005F000E2DF81E0BE016F5F7F4FAE01495F5F4F79
:1006000020E032E00E94D32E882381F469817A8130
:100610008AEE91E0AE01495F5F4F0E9469388823FE
:1006200029F481E00E940532882311F080E933C06B
:100630008AEE91E00E942D39882329F589E090E027
:10064000A0E0B0E08B839C83AD83BE838AEE91E013
:100650004EE051E061E070E09E012D5F3F4F04E00D
:1006600010E00E94A339882371F48AEE91E042E001
:1006700051E061E071E02EEF33E006E010E00E940F
:100680004E3A882331F080E996DF80E00E940532FF
:1006900003C0EAD480E28FDFCA5FDD4F0FB6F89463
:1006A000DEBF0FBECDBFDF91CF911F910F91089597
:1006B0000E94522C80E97FDFFFCF80E97CCF0F932F
:1006C0001F93CF93DF93EC01862F48A15F8D6E8D32
:1006D0007D8D0BA11AA1403090E8590790E0690781
:1006E00090E0790768F080910C02807F85608093AC
:1006F0000C0281E2809316021092170280E01FC064
:10070000882321F0CE019801DDD203C0CE019801EB
:100710008CD120E030E089E0000F111F221F331F31
:100720008A95D1F78C899D89AE89BF89801B910BF1
:10073000A20BB30B8C8B9D8BAE8BBF8B81E0DF91BB
:10074000CF911F910F910895CF92DF92EF92FF9278
:100750000F931F93CF93DF93CDB7DEB728970FB6D4
:10076000F894DEBF0FBECDBF8C01FC01838D8D31AF
:1007700009F4AFC08E3178F4833009F455C0843069
:1007800020F4882309F4E2C0E7C08231B9F08A314D
:1007900009F0E2C0C1C0883209F4B8C0893238F427
:1007A0008E3109F4D3C0853209F0D6C064C08A32D4
:1007B00009F4A9C08F3209F0CFC0C8C0F801C78CB6
:1007C000D68C848D90E083709070009709F085C07E
:1007D000858D882309F081C07601F5E2CF16D1041A
:1007E00018F024E2E22EF12C8CE192E0B70140E017
:1007F00050E00E94EE25C6018E199F0960E070E06E
:100800000E94A9258091E8008E778093E800A701D7
:1008100060E070E0F80184899589A689B789841B16
:10082000950BA60BB70B8DC0F801C78CEC2CF2E131
:10083000FC1510F492E1E92E8AE092E06E2D70E052
:1008400040E050E00E94EE258C2D90E08E19910939
:1008500060E070E00E94A9258091E8008E77809387
:10086000E800F80184899589A689B7898E199109CC
:10087000A109B10966C08FEF9FE7A0E0B0E08D83CA
:100880009E83AF83B88780E092E0A0E0B0E08983E8
:100890009A83AB83BC83CE01059664E070E040E0B0
:1008A00050E00E943D26CE01019664E070E040E0F9
:1008B00050E00E943D268091E8008E778093E8000A
:1008C000F80184899589A689B7890897A109B10992
:1008D00038C0F801848D82FD08C080910C02807FB1
:1008E000856080930C0284E23EC08ED3882371F52C
:1008F00080910C02807F846080930C02109216021B
:10090000109217023EC0C80160E002C0C80161E059
:10091000D6DE8823B1F12AC01092F1001092F100C6
:100920001092F1001092F1008091E8008E77809390
:10093000E800F80184899589A689B7890497A109F7
:10094000B109848B958BA68BB78B10C0F801148AE4
:10095000158A168A178A0AC080910C02807F8560EA
:1009600080930C0280E280931602CACF80910C0221
:10097000807F80930C02109216021092170281E081
:1009800001C080E028960FB6F894DEBF0FBECDBF41
:10099000DF91CF911F910F91FF90EF90DF90CF905B
:1009A00008958EB19EB193609EB99EB18C6F936095
:1009B00089238EB90895F5DF87ED8EBD0DB407FE4E
:1009C000FDCF1EBC0DB407FEFDCF0EB407FEF9CF60
:1009D000E8CF9C013695279556E0969587955A95D0
:1009E000E1F78EBD0DB407FEFDCF220F220F220FBF
:1009F000272B2EBD0DB407FEFDCF6EBD0DB407FE37
:100A0000FDCF08952EB123602EB920E480309207E7
:100A100058F480FF05C08EB183608D7F8EB9089534
:100A20008EB183608E7F8EB908953F924F925F9210
:100A30006F927F928F929F92AF92BF92CF92DF92EE
:100A4000EF92FF920F931F93CF93DF930F92CDB747
:100A5000DEB72C01B22EC32EDB01CA01F9E0880FEC
:100A6000991FAA1FBB1FFA95D1F71AE0B695A79553
:100A7000979587951A95D1F77C018A01102F002749
:100A8000110F1370BFDF83E58EBD0DB407FEFDCFE0
:100A9000C70160E070E09DDF8EDF84E88EBD0DB49D
:100AA00007FEFDCF80E090E0B80193DF0E946D2843
:100AB000882309F0F4C0A80174E0569547957A950B
:100AC000E1F70B2D1C2DCC24DD2433243801E5E087
:100AD000660C771CEA95E1F7BB24B394C1C060E2D1
:100AE000A62E4601860C971C8091E80085FD0CC05F
:100AF0008091E8008B778093E80049830E946D28FD
:100B00004981882309F0CBC0403409F03BC053DF52
:100B1000332011F086E801C083E88EBD0DB407FED6
:100B2000FDCFC70160E070E054DF0894E11CF11CC8
:100B30008EB180958370823009F43B24C70162DF57
:100B400080E48816910478F436DF332011F085E5CF
:100B500001C083E58EBD0DB407FEFDCFC70160E087
:100B600070E037DF28DF332011F087E801C084E828
:100B70008EBD0DB407FEFDCF80E090E060E070E038
:100B800028DF40E08091F1008EBD0DB407FEFDCF5F
:100B90008091F1008EBD0DB407FEFDCF8091F10074
:100BA0008EBD0DB407FEFDCF8091F1008EBD0DB45A
:100BB00007FEFDCF8091F1008EBD0DB407FEFDCF85
:100BC0008091F1008EBD0DB407FEFDCF8091F10044
:100BD0008EBD0DB407FEFDCF8091F1008EBD0DB42A
:100BE00007FEFDCF8091F1008EBD0DB407FEFDCF55
:100BF0008091F1008EBD0DB407FEFDCF8091F10014
:100C00008EBD0DB407FEFDCF8091F1008EBD0DB4F9
:100C100007FEFDCF8091F1008EBD0DB407FEFDCF24
:100C20008091F1008EBD0DB407FEFDCF8091F100E3
:100C30008EBD0DB407FEFDCF8091F1008EBD0DB4C9
:100C400007FEFDCFF20180AD882349F54F5FAA94DE
:100C500009F04ACF0150104080EE9FEFC80ED91E18
:100C60000115110509F03BCFA6DE332011F086E80F
:100C700001C083E88EBD0DB407FEFDCFC70160E063
:100C800070E0A7DE98DE8091E80085FD05C08091C8
:100C9000E8008B778093E8008EB183608EB90F9067
:100CA000DF91CF911F910F91FF90EF90DF90CF9048
:100CB000BF90AF909F908F907F906F905F904F907C
:100CC0003F900895BF92CF92DF92EF92FF920F93E1
:100CD0001F93CF93DF936C017901DB01CA01E9E037
:100CE000880F991FAA1FBB1FEA95D1F7FAE0B695A6
:100CF000A79597958795FA95D1F78C01EA01DC2F96
:100D0000CC27DD0FD3707EDE82ED8EBD0DB407FEE5
:100D1000FDCFC801BE015DDE1EBC0DB407FEFDCFD8
:100D20001EBC0DB407FEFDCF1EBC0DB407FEFDCFEB
:100D30001EBC0DB407FEFDCF0E946D28882309F06C
:100D4000C1C034E0D695C7953A95E1F742EDB42E8F
:100D5000A9C0D0E28091E80085FD0AC08091E8003A
:100D60008E778093E8000E946D28882309F0AAC03E
:100D7000C034E9F40F5F1F4FC80144DEBEBC0DB4A0
:100D800007FEFDCFC80160E070E023DE1EBC0DB49D
:100D900007FEFDCF1EBC0DB407FEFDCF1EBC0DB47B
:100DA00007FEFDCF1EBC0DB407FEFDCFC0E01EBC8C
:100DB0000DB407FEFDCF8EB58093F1001EBC0DB4BF
:100DC00007FEFDCF8EB58093F1001EBC0DB407FE6B
:100DD000FDCF8EB58093F1001EBC0DB407FEFDCF94
:100DE0008EB58093F1001EBC0DB407FEFDCF8EB50D
:100DF0008093F1001EBC0DB407FEFDCF8EB580932D
:100E0000F1001EBC0DB407FEFDCF8EB58093F1003E
:100E10001EBC0DB407FEFDCF8EB58093F1001EBC45
:100E20000DB407FEFDCF8EB58093F1001EBC0DB44E
:100E300007FEFDCF8EB58093F1001EBC0DB407FEFA
:100E4000FDCF8EB58093F1001EBC0DB407FEFDCF23
:100E50008EB58093F1001EBC0DB407FEFDCF8EB59C
:100E60008093F1001EBC0DB407FEFDCF8EB58093BC
:100E7000F1001EBC0DB407FEFDCF8EB58093F100CE
:100E80001EBC0DB407FEFDCF8EB58093F100F601B8
:100E900080AD8823B9F4CF5FD15009F05BCF0894BF
:100EA000E108F108E114F10409F053CF8091E80062
:100EB00085FD05C08091E8008E778093E8008EB1B3
:100EC00083608EB9DF91CF911F910F91FF90EF90CA
:100ED000DF90CF90BF9008958F929F92AF92BF9274
:100EE000CF92DF92EF92FF920F931F93CF93DF93F6
:100EF000DC01CB014A015901AC01BD01E9E0440F1D
:100F0000551F661F771FEA95D1F7FAE0769567952A
:100F100057954795FA95D1F76A018C01102F002754
:100F2000110F1370C801D4E096958795DA95E1F713
:100F3000C82FCA0167DD82ED8EBD0DB407FEFDCF5F
:100F4000C601B80146DD1EBC0DB407FEFDCF1EBCB8
:100F50000DB407FEFDCF1EBC0DB407FEFDCF1EBCB9
:100F60000DB407FEFDCF3BC0750100E2C034F1F4C3
:100F70000894C11CD11CC60145DDDEBD0DB407FEC1
:100F8000FDCFC60160E070E024DD1EBC0DB407FE9D
:100F9000FDCF1EBC0DB407FEFDCF1EBC0DB407FE79
:100FA000FDCF1EBC0DB407FEFDCFC0E0F70180E110
:100FB0001EBC0DB407FEFDCF9EB591938150C1F7C5
:100FC00080E190E0E80EF91ECF5F015079F680E0F5
:100FD00092E0A80EB91E08948108910801C0D2EDD4
:100FE0008114910409F0C0CF8EB183608EB9DF9176
:100FF000CF911F910F91FF90EF90DF90CF90BF9016
:10100000AF909F908F9008958EB183608E7F8EB940
:101010008FE98EBD0DB407FEFDCF1EBC0DB407FEDB
:10102000FDCF9EB58EB183608EB99F31B1F48EB184
:1010300083608D7F8EB98FE98EBD0DB407FEFDCF25
:101040001EBC0DB407FEFDCF9EB58EB183608EB978
:1010500081E09F3119F080E0089580E008959BB110
:101060009F70982B9BB90895CF930E94211C88E70D
:1010700093E062E370E00E94DF1B8CE793E068EE90
:1010800073E00E94DF1B0E9461100E94D919C09179
:10109000FB03C13049F5C093FE031092FF03C093D8
:1010A000000410920104C093020410920304A8D318
:1010B0009AE09093BB071092BC071092BD0782E0A4
:1010C0008093BE078FEF8093B7078093B807809314
:1010D000B9071092BA079093B3071092B407109211
:1010E000B507C093B60701C0BDD18091FE038093C0
:1010F00080038091FF03809381038091000480939B
:101100008203809101048093830380910204809381
:1011100084038091030480938503BFD452D6CF917A
:1011200008950F931F93CF93DF938091FB03823039
:1011300019F48EB38B3049F08091FB03813009F0B4
:10114000C5C08EB3843009F0C1C08091FB038130EB
:1011500091F48CE491E00E941B37882309F445C088
:1011600080ED7DDF8CE491E06FEB77E047E456E0C3
:101170000E94323710C08AEE91E00E94ED3A882337
:10118000A1F180ED6CDF8AEE91E06FEB77E047E450
:1011900056E00E940A3B80914706909148060097CE
:1011A00011F18091CB079091CC078830910529F0FF
:1011B00026E088309207B9F40CC081E00E94431108
:1011C0008091470690914806009769F00E94D21AD4
:1011D00008C00E94311A80914706909148060097F6
:1011E00011F00E94351C80E23ADFC0E0D0E001E758
:1011F00010E0C09FC001C19F900DD09F900D1124A1
:101200008A5A994F909355068093540683E00E9422
:1012100043118091470690914806009721F00E9463
:10122000D21A0E94351C2196C330D10511F788E7E8
:1012300093E00E94F41B009709F43CC088E793E018
:101240000E94EA1B80ED0BDFC0E0D0E001E710E078
:10125000C09FC001C19F900DD09F900D11248A5A4C
:10126000994F909355068093540682E00E94431153
:101270008091470690914806009721F00E94D21A6B
:101280000E94351C2196C330D10511F78DEA9DE0EF
:10129000909351068093500685E0F5D780914706DC
:1012A00090914806009721F00E94D21A0E94351CA6
:1012B00080E2D5DE8CE793E00E94F41B009731F0CA
:1012C0008CE793E00E94EA1B0E94F519DF91CF9111
:1012D0001F910F910895E0915406F0915506848175
:1012E000958127E18030920729F020E58030920730
:1012F00011F4DBC369C50895E0915006F0915106E1
:101300008481958123E48030920729F024E48030A1
:10131000920711F4BAC08DC208950F931F93CF9313
:10132000DF93EC01142F05C0898190E00296C80F6D
:10133000D91F08810F3FC1F768831983CE01029638
:10134000B901412F50E00E94793CC10FD11D0A83A1
:10135000812F8E5FDF91CF911F910F910895FC0136
:10136000CA0112C0261751F42181BF016E5F7F4F61
:10137000422F50E00E94793C81E00895218130E0C5
:101380002E5F3F4FE20FF31F20812F3F59F780E080
:101390000895CF93DF93FC01862FDA0190EFEF01E0
:1013A00019929A95E9F791E09083918396E0928360
:1013B000138246E654E564E273E144835583668311
:1013C00077831186108620E830E0338722874091AA
:1013D000BB075091BC076091BD077091BE07448761
:1013E00055876687778715964D915D916D917C91B4
:1013F0001897408B518B628B738B51964D915D91F9
:101400006D917C915497448B558B668B778BEF0154
:101410006C96AEEFB3E00D9009929150E1F7DF01C9
:10142000A451BF4F43E652E863E573E64D935D93E5
:101430006D937C931397DF01A051BF4F95E39C936D
:10144000DF01AF50BF4F91E09C93DF01AE50BF4F23
:101450008C93ED50FF4F8FEF808384EF90E0DF910E
:10146000CF91089584E293E060E073E474D600972E
:1014700059F020E034E4FC013583248311860A9678
:1014800062E370E00C94DF1B0895AF92BF92CF929D
:10149000DF92EF92FF920F931F93CF93DF9300D0D1
:1014A00000D00F92CDB7DEB70091500610915106D3
:1014B000A801475F5F4FE0905206F0905306D801B5
:1014C00019968C911997813009F443C0813038F016
:1014D000823009F488C0833009F001C1B1C0C8016D
:1014E0000E96FC0180E1DF011D928A95E9F7F80173
:1014F00086859785A089B1898093BB079093BC07A7
:10150000A093BD07B093BE07C70161E042DF6C0145
:10151000FE013396A0E4B2E083E00D900192815089
:10152000E1F7C70180519F4F67E343E09E012D5FC4
:101530003F4FF3DEB601680F711D80915206909106
:1015400053060E94F218C8010A960E94EA1B81E025
:1015500072C080914F0681FF77C0F7018481958129
:10156000A681B7818636F4E59F07F4E2AF07F3E181
:10157000BF0709F0B4C080EFC82ED12CCE0CDF1C01
:10158000C60165E3AE014E5F5F4FE9DE882309F4D3
:10159000A6C0BA8022E0B21609F0A1C0F701808986
:1015A0009189A289B389F80186879787A08BB18B2F
:1015B000A8014E5E5F4FC60161E0D1DEA8014A5E20
:1015C0005F4FC60163E0CBDEA801465E5F4FC601F8
:1015D00066E3C5DEC8010A960E94EA1BD801199687
:1015E000BC9219977CC0C70163E0D3DE5C01E0EFD9
:1015F000F0E0EE0EFF1E9801225F3F4FC70162E34D
:1016000044E08BDEC82E9801265E3F4FC70166E39B
:1016100044E083DE682F70E06C0D711D6A0D7B1D48
:1016200080915206909153060E94F218C8010A96C2
:101630000E94EA1B83E0D80119968C9319974FC03A
:1016400080914F0681FD0AC0C8010A960E94F41BD2
:10165000009709F444C0F801118641C0F701848164
:101660009581A681B7818636F4E59F07F4E2AF073E
:10167000F3E1BF07A1F5C70180519F4F65E3AE01BC
:101680004F5F5F4F6CDE882351F18981853039F5DA
:10169000F80186859785A089B1898093BB079093CF
:1016A000BC07A093BD07B093BE0782899389A48924
:1016B000B5898093B7079093B807A093B907B09303
:1016C000BA0786899789A08DB18D8093B3079093CF
:1016D000B407A093B507B093B60784E081870F9055
:1016E0000F900F900F900F90DF91CF911F910F915E
:1016F000FF90EF90DF90CF90BF90AF900895DF9272
:10170000EF92FF920F931F93CF93DF93FC01D62E9E
:1017100060EFEF0119926A95E9F7D08261E0618389
:1017200066E062831382E482F58206831783118662
:101730001086138612868091BB079091BC07A091FA
:10174000BD07B091BE07848B958BA68BB78BE90143
:1017500088819981AA81BB81808B918BA28BB38B6D
:10176000EF016C96DA0186E00D9009928150E1F765
:10177000DF01A451BF4F43E652E863E573E64D93A2
:101780005D936D937C931397DF01A051BF4F85E369
:101790008C93DF01AF50BF4F81E08C93DF01AE50DF
:1017A000BF4FDC92ED50FF4F8FEF808384EF90E0CE
:1017B000DF91CF911F910F91FF90EF90DF900895EF
:1017C0008823D1F09091BE078917C1F0982F9770A8
:1017D00021E030E002C0220F331F9A95E2F7869590
:1017E00086958695E82FF0E0EC5FFB4F9081922381
:1017F00081E029F480E0089581E0089581E0089572
:1018000080E093E48AD484E293E060E074E4A3D4BB
:10181000009739F020E033E4DC0115963C932E93D9
:1018200014978FE1E4E0F4E0DF011D928A95E9F777
:101830000895AF92BF92CF92DF92EF92FF920F93F3
:101840001F93CF93DF93CDB7DEB764970FB6F894AD
:10185000DEBF0FBECDBFC0905206D0905306809120
:101860004F0681FF09C180EFA82EB12CAC0CBD1C26
:10187000C50165E3AE014F5F5F4F71DD882309F459
:10188000FBC08091B7079091B807A091B907B091BC
:10189000BA078A879B87AC87BD878091B3079091F1
:1018A000B407A091B507B091B6078E839F83A88730
:1018B000B987DE011E96F6017C9686E001900D92B6
:1018C0008150E1F7F601E480F58006811781C501BA
:1018D00062E3AE014E5F5F4F42DD882361F4809189
:1018E000200390912103A0912203B09123038A83C6
:1018F0009B83AC83BD838981833009F441C08730E9
:1019000009F4A1C0813009F0B7C08D8159DF882367
:10191000B9F08091BB079091BC07A091BD07B09131
:10192000BE078A839B83AC83BD8391E09D83892F0F
:101930009C8B46DF9C89882319F09F5F9E3FB1F7FF
:10194000C60162E0AE01425F5F4F9E012E5F3F4FD6
:10195000D6DE6C01C50161E044E09E01265F3F4F89
:10196000DCDCE82EC50163E044E09E012A5F3F4FC6
:10197000D4DC082F10E00E0D111D0C0D1D1D41C0F3
:101980008D811EDF8823A1F5C60165E0AE01425FAF
:101990005F4F9E012E5F3F4FB2DE6C01C50161E0DB
:1019A00044E09E01265F3F4FB8DCE82EC50163E0AE
:1019B00044E09E012A5F3F4FB0DC082F10E00E0D7F
:1019C000111D0C0D1D1D8D81E82FE695E695E69500
:1019D000F0E0EC5FFB4F282F277081E090E002C021
:1019E000880F991F2A95E2F79081982B908309C060
:1019F000C60166E0AE01425F5F4F20E233E07FDE6A
:101A00008C01809123049091240490935506809337
:101A1000540683E038D4E0915006F091510680914D
:101A2000240390912503A0912603B091270380837E
:101A30009183A283B3838091520690915306B8019B
:101A40000E94F21819C0E0915006F091510683816E
:101A5000E82FE695E695E695F0E0EC5FFB4F282F42
:101A6000277081E090E002C0880F991F2A95E2F765
:101A7000809590818923808364960FB6F894DEBFA9
:101A80000FBECDBFDF91CF911F910F91FF90EF90CF
:101A9000DF90CF90BF90AF90089580E090E53DD368
:101AA00080E065E274E00C94111FAF92BF92CF9278
:101AB000DF92EF92FF920F931F93CF93DF93C0912A
:101AC0005406D091550680914F06282F85FD04C0FD
:101AD00087FD02C084FF03C083E08C8F8D8F26FFBB
:101AE00012C01C8E1D8EFE01E659FF4F1082FE01B2
:101AF000E559FF4F1082118212821382FE01E159D3
:101B0000FF4F1182108220FF19C08E0105591F4F0F
:101B1000FE01E159FF4F80819181A0E0B0E0F80122
:101B20004081518162817381840F951FA61FB71F69
:101B300080839183A283B3838D8D8C8F22FF0CC011
:101B4000FE01E559FF4F4081518162817381CE01D1
:101B5000805B9F4F0E94472420914F0630E022FD7A
:101B60000BC0C90183709070009731F4C90188746B
:101B70009070009709F41AC18C8D813009F46AC005
:101B8000813038F0823009F4DCC0833009F00EC1B6
:101B9000FEC0009154061091550680915206909116
:101BA000530621FF03C163E472E00E94763C7C018E
:101BB00080E090E063E472E00E94763CEC01C701B3
:101BC00061E472E00E94523C009721F080E2809331
:101BD0004F06ECC02EE1E22EF12CE00EF11EBE010C
:101BE0006F5F7F4FC70142E350E00E94A83CD701DE
:101BF0000D900020E9F71197AE192A2F30E0F80177
:101C0000E20FF31F858D8F3211F0AA2361F4C80112
:101C1000820F931F42E350E0421B530B4E9660E548
:101C200071E00E94623CC801805B9F4FB70141E0B8
:101C30000E94271FF801E659FF4F91E0811190E0C3
:101C4000908381E0D8015C968C935C975D968C9331
:101C50005D97ACC0A0905406B0905506C091520656
:101C6000D09153068501025E1F4FC8016EE270E0FD
:101C70000E94943C6C01F501E659FF4F8081882356
:101C8000C1F4CE016AE571E00E945B3CCE01B8016F
:101C90000E94893CFE01DF010D900020E9F7BD01A3
:101CA000615070406E1B7F0BCE010E94F21883E0E2
:101CB00046C0CE0166EE71E00E945B3CC114D104C7
:101CC00039F198EFE92E92E0F92E00E010E0089447
:101CD000C11CD11CD7016D917C91C6010E949F3C13
:101CE000009769F4F801EE0FFF1FEE0FFF1FE85099
:101CF000FD4F62817381CE010E94893C0EC00F5F4F
:101D00001F4FE4E0F0E0EE0EFF1E0A30110511F760
:101D1000CE0165E471E00E94473CCE0165E472E0CB
:101D20000E94473CDE010D900020E9F7BD016150A3
:101D300070406C1B7D0BCE010E94F21882E0F50111
:101D400024C00091540610915506E0905206F09080
:101D50005306D8015296CD90DC905397E801C159B3
:101D6000DF4FC801805B9F4FB701A6019E010E9413
:101D70000A2368817981C7010E94F21888819981BC
:101D8000C816D90699F083E0F801858F0FC0CE01FF
:101D9000805B9F4F0E943C24FE01E659FF4F10825A
:101DA00080E180934F0684E08C8F8D8FDF91CF91FF
:101DB0001F910F91FF90EF90DF90CF90BF90AF9069
:101DC000089580E097E1A9C14F925F926F927F9250
:101DD0008F929F92AF92BF92DF92EF92FF920F93FA
:101DE0001F93CF93DF93E0905406F0905506009137
:101DF00052061091530680914F0690E086FF04C072
:101E0000D7015C961C925C9780FF03C0E7012D8D83
:101E10002C8F82FD0BC09C01237030702115310581
:101E200029F488749070009709F4C5C0F701848D77
:101E3000813061F0813030F08230D9F0833009F0A8
:101E4000BAC029C0C80160ED72E0A4C0C8016BE649
:101E500072E00E945B3CD8010D900020E9F7BD01C3
:101E600061507040601B710BC8010E94F21882E043
:101E7000A0C08091470690914806009709F49BC046
:101E8000F8018081D7015E968C935E9783E05C9623
:101E90008C935C9790C0868D833609F078C0C8011A
:101EA0006AE472E00E945B3CD8010D900020E9F7E3
:101EB0002D01089441085108401A510AAA24BB2454
:101EC000DD2481E7882E912C9EE6692E93E0792E01
:101ED000A89CD001A99CB00DB89CB00D1124AA5AA1
:101EE000B94F59968C915997882309F445C0D394DA
:101EF000CDB7DEB762970FB6F894DEBF0FBECDBF89
:101F0000EDB7FEB73196C801840D951D9A8389837C
:101F100073826282D48215828C9186831782119695
:101F20008C9111978087118612968C9112978287D7
:101F3000138613968C9113978487158614968D912A
:101F40009C911597982789279827978786871696B3
:101F50008D919C911797982789279827918B808B33
:101F60000E94E33C480E591EEDB7FEB772960FB6BD
:101F7000F894FEBF0FBEEDBF0894A11CB11CF3E0A6
:101F8000AF16B10409F0A4CFC801B2010FC0C80157
:101F90006BE573E00E945B3CD8010D900020E9F7EF
:101FA000BD0161507040601B710BC8010E94F218A6
:101FB00081E0E7018D8FDF91CF911F910F91FF900D
:101FC000EF90DF90BF90AF909F908F907F906F9039
:101FD0005F904F9008959C0141505040460F571F0D
:101FE000FB010EC0B081A0E08181BD01680F711DB1
:101FF000260F371F2617370710F42F5F3F4F3296F3
:10200000E417F50778F3E417F50749F4908180E0C9
:10201000280F391F2817390710F42F5F3F4FC901C8
:102020000895FC014381460F40934E06872F992760
:102030002281280F20934D06A181A0934C06508148
:1020400050934B0630E02817390748F48A2F8F5FEA
:1020500080934C06882319F45F5F50934B06842FBE
:1020600090E070708617970798F480914D068F5F07
:1020700080934D06882361F480914C068F5F809396
:102080004C06882329F480914B068F5F80934B0682
:102090000895BC0180915406909155060896C1DFC1
:1020A000E0915406F091550680914B06808780910F
:1020B0004C06818780914D06828780914E068387EA
:1020C000089580E0E82FF0E0EE0FFF1FE755F84F8E
:1020D000118210828F5F8530A8F340E081E790E0A5
:1020E000242F30E0289FF001299FF00D389FF00D3C
:1020F0001124EA5AF94F118E4F5F433088F380E084
:1021000094E090938A038093890381E0809388030D
:102110001092B20D1092B10D089540E013C0E42F5B
:10212000F0E0542F5F5FEE0FFF1FE755F84F20815F
:1021300031812115310529F44093880391838083EF
:102140000895452F453058F3409388030895982704
:10215000892798270895CF92DF92EF92FF920F93ED
:102160001F93CF93DF937C016B010091B10D109110
:10217000B20DC0918903D0918A0321968DE7C030BA
:10218000D80710F0C0E0D0E1CE01E1DF0817190751
:10219000A1F3D0938A03C09389038091B10D9091EC
:1021A000B20D009799F4109288038DEA9DE0DC2728
:1021B000CD27DC27D093B20DC093B10DD092B40DD2
:1021C000C092B30DE114F10481F406C081E0809364
:1021D000880380E090E019C01092AD0D1092AE0D12
:1021E0001092AF0D1092B00D0DC0F70140815181DA
:1021F000628173814093AD0D5093AE0D6093AF0D2E
:102200007093B00D20E42093B50DDF91CF911F9115
:102210000F91FF90EF90DF90CF90089580E090E0D5
:102220006DEC77E044E150E0D6DE009709F08FCF07
:102230008FEF9FEF08959C01AB0180E090E0B90122
:10224000CADE85CFCF93DF938091CF07D82F80E070
:10225000C82F8091D007C80FD11DCE010E9769ED10
:1022600077E048E050E0B7DEAE014451504061EE07
:1022700077E0B1DE009711F06ADF02C08FEF9FEFC9
:10228000DF91CF910895AF92BF92CF92DF92EF92FC
:10229000FF920F931F93CF93DF93C0915406D09179
:1022A0005506843009F466C225EF37E030935306B3
:1022B0002093520630934A0620934906833099F4BE
:1022C000898D8F70833009F07CC788899989009740
:1022D00009F077C71092AC0D1092AB0D1092480622
:1022E000109247068DC0823009F08EC080918E0317
:1022F0008F5F80938E03882399F480918D038F5F85
:1023000080938D03882361F480918C038F5F809389
:102310008C03882329F480918B038F5F80938B0338
:1023200010924806109247061092AC0D1092AB0D19
:10233000898D873011F0853041F48A8D8F5F8A8FC7
:10234000883709F03EC7198E3CC7882309F439C77E
:10235000288939892115310509F44EC09A8D292F14
:1023600021502A8F992309F02CC79B8D983031F08A
:10237000282F2150223048F4953039F4198E80E806
:1023800080934F060E946B09D7C5953048F423E02F
:1023900030E0092E02C0220F331F0A94E2F701C079
:1023A00020E32A8F9F5F9B8F90E08F709070833027
:1023B0009105E1F0843091054CF48130910509F4E8
:1023C000C5C38230910509F0FCC60DC08630910569
:1023D00009F4C1C58830910509F4BDC58430910563
:1023E00009F0EFC6B8C51092EE07B3C384E080933E
:1023F0004F060E946B09D5C58F70833009F0E1C686
:1024000088E080934F068DC5853019F5E091500620
:10241000F091510684819581009709F4D2C61092FB
:102420005506109254062C5030403093530620939A
:10243000520630934A06209349061092AC0D109232
:10244000AB0D109248061092470688E080934F0625
:102450008FC18091CD07853409F0B3C61091CF07A5
:1024600000E08091D007080F111D809147069091E0
:1024700048068017910708F4A4C6109348060093F5
:1024800047068091D30790E08F739070009709F012
:1024900098C68091D407882309F093C66091BB0742
:1024A0007091BC07E0912003F09121036E177F0724
:1024B00061F48091BD079091BE0720912203309175
:1024C00023038217930709F448C08091D6074091EF
:1024D000DD075091DE07813181F5809124039091D1
:1024E00025034817590749F58091DF079091E007C8
:1024F000209126033091270382179307F1F48091EE
:10250000D9079091DA078E179F0709F06DC02091C7
:10251000DB073091DC078091220390912303281779
:10252000390709F061C08FEF8093D9078093DA07EC
:102530008093DB078093DC0757C04617570709F0E5
:1025400040C62091DF073091E0078091BD07909150
:10255000BE072817390709F034C660DE2FEF8F3F1A
:10256000920709F02EC68091D607863009F459C12A
:102570008131D1F1813009F024C68091E1078830A2
:1025800009F01FC61092E1078091E3079091E407DC
:102590002FEF873F920710F0099601C0089690939D
:1025A000E4078093E307EFEBF7E08091D907909180
:1025B000DA07A091DB07B091DC078093DD079093E9
:1025C000DE07A093DF07B093E0078091BB079091EF
:1025D000BC07A091BD07B091BE07828F938FA48FD7
:1025E000B58F80E4868BCBC50C5110401093480604
:1025F000009347068DEA9DE0909351068093500624
:102600004091E3075091E4076091E1077091E20780
:10261000A0912003B0912103C0912203D091230304
:102620000091240310912503E0902603F0902703E6
:10263000C090D907D090DA07A090DB07B090DC07F4
:1026400031C084819581009739F14817590721F5E8
:1026500086819781009719F068177907E9F420813E
:1026600031812A173B0731F4828193818C179D07B2
:1026700009F469C02017310731F4828193818E15E6
:102680009F0509F460C0C216D30631F4828193819C
:10269000A816B90609F457C0CF014E96909351067B
:1026A00080935006E0915006F09151068DE0EB3C8E
:1026B000F80738F2E9EEF7E0DF015C978CE10D9066
:1026C00001928150E1F783E08093E1078093E20774
:1026D0001092E4071092E30781EE97E064E270E065
:1026E000AADD809590959093E4078093E307EFEB44
:1026F000F7E08091D9079091DA07A091DB07B091BC
:10270000DC078093DD079093DE07A093DF07B0938B
:10271000E0078091BB079091BC07A091BD07B091E5
:10272000BE07828F938FA48FB58F88E390E090933C
:10273000480680934706108A88E3818B80E4868B65
:1027400081E0878B1CC5109255061092540682E0DA
:1027500080934F0689EE97E090935306809352063C
:1027600090934A06809349061092AC0D1092AB0DDF
:102770000E947C098091AB0D9091AC0D009709F4FB
:1027800020C59C01245E3F4F3093480620934706A6
:102790003093CF072093D007E0915006F091510677
:1027A00020852093D50721E12093D6070896982706
:1027B000892798279093E6078093E5071092E8070A
:1027C0001092E707848195819093E2078093E10757
:1027D000868197819093E4078093E3078091BB07FC
:1027E0009091BC07A091BD07B091BE078093D90717
:1027F0009093DA07A093DB07B093DC078081918187
:10280000A281B3818093DD079093DE07A093DF0759
:10281000B093E00785EF97E09093530680935206BC
:10282000AEC410DD2FEF8F3F920709F0CAC420918C
:10283000E3073091E4074091E1075091E207E0910E
:10284000D907F091DA07A091DB07B091DC07C6E564
:10285000D6E0698D6623A9F08C819D812817390700
:1028600081F48E819F814817590759F48881998195
:10287000E817F90731F48A819B81A817B90709F491
:1028800081C1CF58DF4F87E0C833D80711F308F371
:102890008091EE078F738230B9F4309390032093C8
:1028A0008F0340E00DC0E42FF0E0EE0FFF1FE7556F
:1028B000F84F808191814F5F2817390709F47DC057
:1028C000453088F3409388038091EE0782FD79C4F8
:1028D00084E18093EE0788E290E09093480680932D
:1028E000470680E58093ED078091E8079091EC071B
:1028F0009093E8073091E7079091EB079093E707F3
:102900003093EB072091E6079091EA079093E60752
:102910002093EA079091E507909388034091E90797
:102920004093E5079093E9078F5F8093EC07882336
:1029300079F4832F8F5F8093EB07882349F4822FEC
:102940008F5F8093EA07882319F49F5F9093E907CC
:102950008091E1079091E2079093900380938F0319
:102960002091E3073091E4073093E2072093E107D9
:102970009093E4078093E3078091D9079091DA0759
:10298000A091DB07B091DC078093DD079093DE0711
:10299000A093DF07B093E0078091BB079091BC073D
:1029A000A091BD07B091BE078093D9079093DA0735
:1029B000A093DB07B093DC07C8C31092880340E004
:1029C000C0E0D0E021E730E026C0842F90E0829F75
:1029D000F001839FF00D929FF00D1124EA5AF94FF8
:1029E000818D882321F440938803EF0118C087303C
:1029F00089F4209721F0928D8A8D891758F4842FBD
:102A000090E0829FE001839FD00D929FD00D112412
:102A1000CA5AD94F4F5F4330C0F240938803209782
:102A200009F4CFC3D0935506C093540683E08A8F30
:102A3000888F1E8A84E08F8B1B8E8091E307909194
:102A4000E4079D838C838091E1079091E2079F8347
:102A50008E838091D9079091DA07A091DB07B0911E
:102A6000DC0788839983AA83BB8381E0898F809167
:102A70008B038C8780918C038D8780918D038E874B
:102A800080918E038F8781E090E0998B888B809175
:102A9000E8078B878091E7078A878091E607898717
:102AA0008091E507888781E090E0F3DA8091ED0777
:102AB000282F30E0207F3070213531050CF446C0DE
:102AC00082958F7090E00597880F991F880F991F46
:102AD0003091910320E031C0E154F84F36A93323FF
:102AE00029F4209388031092910330C0313011F4FF
:102AF0002F5F23C03230E9F447A94430D1F420934A
:102B000088033093910390AD80E021AD30E0282B15
:102B1000392B3093900320938F03C90125E0853B27
:102B2000920710F084EB95E09B8B8A8B9D8B8C8BAE
:102B30000DC047A9442331F0240FE22FF0E0E8173D
:102B4000F90754F2209388033093910380E1809336
:102B5000EE078091EE0782608093EE0782E080931B
:102B6000F50784E08093F60785E08093F70784EB10
:102B70008093F8078CE290E0909348068093470694
:102B800080E690C2D0935506C093540610924F062B
:102B90004091EE0750E042FF03C0198E80E22EC242
:102BA0008091ED0782958F70880F880F809388033E
:102BB0009801281B31092451304030934806209356
:102BC00047066F70623031F4CA018F7390708231A2
:102BD000910501F12115310529F4CA018370907026
:102BE0000097C1F09091E5078885981709F050C2C9
:102BF0009091E6078985981709F04AC29091E707F6
:102C00008A85981709F044C29091E8078B85981738
:102C100009F03EC244FF49C0688979896115710590
:102C200009F443C0CE010C96FCD93091E90780919C
:102C30004B063817D1F52091EA0780914C062817EA
:102C4000A1F59091EB0780914D06981771F5809151
:102C5000EC0740914E06841741F53C872D879E87EF
:102C60008F878B8D8823D1F42E89888D9A8D891B2F
:102C7000922F969596959695891B280F2E8B87FDFA
:102C800081959F89392F36953695931B980F9F8B89
:102C9000822F869586958695890F888F81E080930F
:102CA0004F06888D8A8F198A188A498D50E0CA018B
:102CB0008F7090708430910509F4A5C1853091051D
:102CC00064F48230910589F1833091050CF0ADC038
:102CD0008130910509F075C211C08630910509F463
:102CE000CFC1863091050CF4ADC18730910509F450
:102CF000CFC18830910509F064C27AC180914F0636
:102D000080FF5FC283E0898F80E480934F06198A39
:102D1000188A8091470690914806009709F4FDC0F3
:102D200022E420934F06B5D9F8C080914F0680FF6A
:102D300071C08091EE078F73823109F06BC0809172
:102D4000ED07282F30E0207F3070213531050CF45D
:102D500046C082958F7090E00597880F991F880F65
:102D6000991F3091910320E031C0E154F84F36A90A
:102D7000332329F4209388031092910330C031301B
:102D800011F42F5F23C03230E9F447A94430D1F465
:102D9000209388033093910390AD80E021AD30E023
:102DA000282B392B3093900320938F03C90125E002
:102DB000853B920710F084EB95E09B8B8A8B9D8B73
:102DC0008C8B0DC047A9442331F0240FE22FF0E093
:102DD000E817F90754F2209388033093910383E0B6
:102DE000898F8091E50788878091E60789878091A0
:102DF000E7078A878091E8078B8781E090E049D9CF
:102E000082E480934F06198A188A1092480610921D
:102E1000470683C080E280934F060E946B09E091D1
:102E20005406F0915506118E4FCD8091EE0780FF2C
:102E300024C044FD22C088899989009709F0C1C146
:102E40008091470690914806019623D920914F061C
:102E5000822F806180934F068091470690914806AB
:102E6000009719F0226120934F060E946B0981E0C0
:102E700090E0998B888B88E06CC085FF1CC0909196
:102E8000F30780E02091F40730E0282B392B809164
:102E9000520690915306820F931F9093530680938E
:102EA00052068091470690914806821B930B90939F
:102EB0004806809347068091470690914806009700
:102EC00041F044FD06C020914F06226020934F063A
:102ED000E0D89091EF0780E02091F007820F911DDC
:102EE0009093900380938F032C893D89281739078D
:102EF00010F0009721F43093900320938F0380917A
:102F00008F03909190039B8B8A8B80914F0690E06A
:102F100083709070009709F454C11092AC0D109218
:102F2000AB0D0E946B0920914F0625FF07C0109240
:102F3000AC0D1092AB0D198E84E1ABC024FF0DC017
:102F40001092AC0D1092AB0D81E090E0998B888BC4
:102F500084E0898F1B8E81E19CC08091AB0D9091A4
:102F6000AC0D0097E9F020FF02C0198A188A288961
:102F700039892115310581F42A893B8928173907B8
:102F800020F43093AC0D2093AB0D8091AB0D90915C
:102F9000AC0D998B888B04C03093AC0D2093AB0D96
:102FA0001B8E8091490690914A0690935306809318
:102FB00052068091AB0D9091AC0D009759F0888925
:102FC0009989009739F08896909348068093470630
:102FD00088E10BC080914F0681FFF3C088E290E04A
:102FE000909348068093470680E18093EE0759C08E
:102FF00080914F0680FFE5C0198E80E180934F06D7
:103000000E946B09DEC080914706909148060097A8
:1030100009F03FD89091EE0780914F0690FF0BC0CA
:1030200080FF06C087E0898F1A8E198A188A18C017
:1030300086E0898F15C080FF1CC085E0898F198AC2
:10304000188ABFC08091470690914806009709F002
:1030500020D88091EE0780FF0CC087E0898F1A8E00
:1030600081E090E016D880E180934F060E946B09C2
:103070000FC08091470690914806009749F4A1C07F
:1030800080914F0680FF9DC087E0898F1A8E99C07E
:1030900080E18093EE0788E290E090934806809369
:1030A000470680E58093ED0788858093E907898549
:1030B0008093EA078A858093EB078B858093EC07E2
:1030C0008C858093E5078D858093E6078E858093B8
:1030D000E7078F858093E80786E08093D6078C8189
:1030E0009D819093E2078093E1078E819F81909369
:1030F000E4078093E3078091BB079091BC07A09100
:10310000BD07B091BE078093D9079093DA07A093CB
:10311000DB07B093DC0788819981AA81BB8180930A
:10312000DD079093DE07A093DF07B093E007898D5A
:1031300084FF05C01092F0071092EF0706C085E0EB
:103140008093EF0784EB8093F00780E48093D507AA
:1031500080914706909148069093CF078093D007BF
:103160001092F4071092F3071092F2071092F107F1
:1031700069D8809590959093F2078093F10785E444
:103180008093CD071092CE071092D4071092D307E8
:103190008091860390918703019690938703809393
:1031A00086039093D1078093D2071092D80710928C
:1031B000D70734D8809590959093D8078093D707F8
:1031C00004C0109248061092470610924F06DF91F5
:1031D000CF911F910F91FF90EF90DF90CF90BF9014
:1031E000AF900895FC012091490630914A0689EA82
:1031F0009DE0821B930BAB01861797070CF4AC0183
:10320000141615065CF44093AB0D5093AC0DE21709
:10321000F30721F0C901BF010C94793C0895EF92A6
:10322000FF920F931F93CF93DF93109292036091BD
:10323000200370912103A0912203B0912303C09138
:10324000DB07D091DC070091DD071091DE0740E03D
:10325000E0E0F0E08BE0E82EF12C2AC0842F90E033
:103260008E9DF0018F9DF00D9E9DF00D1124ED5669
:10327000FC4F808191818617970729F42281338141
:103280002A173B07A1F0C817D90789F482819381D7
:103290000817190761F440939203EF012496A5EDF6
:1032A000B7E086E00D9009928150E1F778C04F5F5A
:1032B0004830A0F210929203209120033091210314
:1032C0004091220350912303A0E06BE070E016C010
:1032D0008A2F90E0869FF001879FF00D969FF00D5A
:1032E0001124ED56FC4F808191818217930729F4B8
:1032F000828193818417950719F0AF5FA83040F35E
:10330000A0939203A830B9F50091EB03402F50E051
:10331000C0E0B0E0A0E06BE070E018C08A2F90E061
:10332000869FF001879FF00D969FF00D1124ED56BA
:10333000FC4FE2859A012E1B31098C2F90E08217F9
:1033400093071CF4C02FCE1BBA2FAF5FA83030F309
:10335000C093EC03B093ED03B09392032B2F30E0B6
:103360008BE090E0289FF001299FF00D389FF00D31
:103370001124ED56FC4F4091DB075091DC07609122
:10338000DD077091DE07DF014D935D936D937D93B3
:10339000C5EDD7E086E009900D928150E1F780916C
:1033A000EB038287DF91CF911F910F91FF90EF90F8
:1033B0000895109292038BE090E012C0242F30E029
:1033C000289FF001299FF00D389FF00D1124ED5634
:1033D000FC4F10821182128213824F5F409392033E
:1033E00040919203483050F308958091EB038F5F32
:1033F0008093EB03109292032BE030E06091200366
:1034000070912103A0912203B091230325C0842F42
:1034100090E0829FF001839FF00D929FF00D1124A8
:10342000ED56FC4F808191818617970791F4828138
:1034300093818A179B0769F48091EB0390E0528592
:10344000851B91098837910524F010821182128220
:1034500013824F5F40939203409192034830B8F239
:103460000895CF93DF93809147069091480610927C
:103470004806109247068A32910508F490C0809160
:10348000D3079091D40721E08030920731F022E0F9
:103490008030920709F083C06BC02091E50730911E
:1034A000E6078091BB079091BC072817390709F000
:1034B00076C02091E7073091E8078091BD07909191
:1034C000BE072817390709F06AC0A9DE80E092E03C
:1034D0009093D4078093D307EFEDF7E0DF011A97BD
:1034E00086E00D9001928150E1F7A5EDB7E0E0E8AC
:1034F000F3E086E001900D928150E1F7A5ECB7E092
:10350000E0E8F3E086E001900D928150E1F7AFEB47
:10351000B7E0ED01A09686E0FD0109900D92815083
:10352000E1F78091DB079091DC07A091DD07B09176
:10353000DE078093E5079093E607A093E707B09333
:10354000E8078091BB079091BC07A091BD07B0919F
:10355000BE07848F958FA68FB78F88E096E09587FA
:1035600084878AE290E0909348068093470617C0CC
:103570002091E5073091E6078091BB079091BC0749
:103580002817390761F42091E7073091E807809107
:10359000BD079091BE072817390709F440DEDF9177
:1035A000CF9108958091DD079091DE07209124034B
:1035B0003091250382179307A9F44091DF075091BA
:1035C000E00720912603309127034217530751F457
:1035D000AFEBB7E0E8E2F3E086E001900D928150B6
:1035E000E1F7D4C02091BB073091BC0728273927C9
:1035F0008091B7079091B807282339232115310509
:1036000091F48091BD079091BE072091DF07309122
:10361000E007822793272091B9073091BA078223C8
:103620009323009749F08091B3079091B407A0913C
:10363000B507B091B60708C08091DD079091DE070D
:10364000A091DF07B091E0078093EE039093EF0322
:10365000A093F003B093F103109292032091EE0334
:103660003091EF034091F0035091F103A0E0E0E0CE
:10367000F0E06BE070E016C08A2F90E0869FF001CA
:10368000879FF00D969FF00D1124ED56FC4F808121
:1036900091812817390729F48281938148175907A6
:1036A00019F0AF5FA83040F3A0939203A83009F05F
:1036B00065C08FEB97E06FEF70E046E050E00E944E
:1036C000823CAFEDB7E086E0FD0111928A95E9F703
:1036D0005A97E0E8F3E086E001900D928150E1F71F
:1036E000A5EDB7E0E0E8F3E086E001900D928150AF
:1036F000E1F78091EE039091EF03A091F003B09178
:10370000F1038093E5079093E607A093E707B09352
:10371000E8078091BB079091BC07A091BD07B091CD
:10372000BE078093DB079093DC07A093DD07B0937F
:10373000DE0780E091E09093D4078093D3079093C5
:10374000CE078093CD0788E090E09093D0078093D8
:10375000CF0786E08093D10784E08093D20788E08A
:1037600096E09093CC078093CB0785EF97E09093FA
:103770005306809352068AE290E01CC0AFEBB7E09C
:10378000349686E001900D928150E1F7A5ECB7E008
:10379000E0E8F3E086E001900D928150E1F788E0E7
:1037A00090E09093CC078093CB078091470690914F
:1037B00048060E9690934806809347060895CF9347
:1037C000DF93EC017B836A8349D099838883DF91FF
:1037D000CF910895FC018081918122813381820FF4
:1037E000931F918380830895CF93DF93EC0136D0AC
:1037F00028813981AC01421B530B9A0181E090E092
:103800004A815B812417350710F480E090E0DF9156
:10381000CF9108951F920F920FB60F9211248F939C
:103820009F938091F2039091F30301969093F30399
:103830008093F2039F918F910F900FBE0F901F9076
:1038400018958DE490E090938900809388008DE036
:103850008093810082E080936F000895F8948091B6
:10386000F2039091F303789408958091D6074091E4
:10387000470650914806863009F08EC085E04A3EE2
:10388000580709F089C080E193E09093480680933F
:10389000470683E08093CF0782E08093D0071092A1
:1038A000F2071092F1070E94221180959095909353
:1038B000F2078093F1071092D8071092D7070E9461
:1038C0000E11809590959093D8078093D70780919B
:1038D000FB034091470650914806813039F48CE44F
:1038E00091E06FEB77E00E94913706C08AEE91E09D
:1038F0006FEB77E00E94843B80E193E09093480671
:103900008093470683E08093CF0782E08093D007BF
:103910009091520680915306E92FF82FDF01A652AD
:10392000BD4F8AED92E00D9001920197E1F785EE8F
:1039300097E06AED72E00E94111080914B0680932F
:10394000E50780914C068093E60780914D068093B1
:10395000E70780914E068093E8071092F2071092D5
:10396000F1070E942211809590959093F207809321
:10397000F1071092D8071092D7070E940E11809578
:1039800090959093D8078093D7078091FB0340913F
:1039900047065091480602C08091FB03813031F404
:1039A0008CE491E06FEB77E00C9491378AEE91E034
:1039B0006FEB77E00C94843B80E0089580E00895FD
:1039C0000F93FB01CA01B901402F50E09F010E94F3
:1039D0006C0780E00F910895DC01ED91FC91119747
:1039E000309791F08081882379F026813781129673
:1039F0008D919C9113972817390731F48181DEDF6F
:103A000080FF04C083E0089589E0089580E0089570
:103A1000CF92DF92EF92FF920F93CF93DF93EC015F
:103A20006A017B018E8D9F8DA8A1B9A1841795078E
:103A3000A607B707A1F0411551056105710579F099
:103A4000BE016E5D7F4F8981A701960101E0B8DF5D
:103A5000882339F4CE8EDF8EE8A2F9A203C080E07D
:103A600001C081E0DF91CF910F91FF90EF90DF9047
:103A7000CF9008950F93CF93DF93EC019A01AB01A0
:103A8000BC016E5D7F4F898101E09ADF882351F58B
:103A9000FE01E05EFD4F808191812AEA8535920723
:103AA00019F5FE01E85AFF4F80819181A281B3810F
:103AB000B070863421E4920724E5A20720E0B20723
:103AC000A9F0CC58DF4F488159816A817B817070A1
:103AD00081E0463491E4590794E5690790E079075D
:103AE00031F404C083E003C082E001C080E0DF91D4
:103AF000CF910F9108950F931F93FB01028D138DAA
:103B000020E030E0833059F484899589A0E0B0E06A
:103B1000DC0199278827082B192B2A2B3B2BB8016E
:103B2000C9011F910F9108950F931F93CF93DF93B6
:103B3000EC01DB01CA010297A109B1094A855B8545
:103B40006C857D85425050406040704084179507D9
:103B5000A607B70798F42A8130E040E050E0BC01A6
:103B6000CD010E94FD3B8B019C018A8D9B8DAC8D0C
:103B7000BD8D080F191F2A1F3B1F03C000E010E076
:103B80009801B801C901DF91CF911F910F9108955C
:103B9000BF92CF92DF92EF92FF920F931F93CF933A
:103BA000DF93EC016A017B0142305105610571052B
:103BB00008F4A0C08A859B85AC85BD854817590748
:103BC0006A077B0708F096C08881823009F456C0E6
:103BD000833009F46EC0813009F091C08A011695D6
:103BE0000795040F151FA801452F5527469560E03E
:103BF00070E08A899B89AC89BD89480F591F6A1F6B
:103C00007B1FCE0105DF882309F079C0F801F17030
:103C1000EC0FFD1FB2A00F5F1F4FA801452F5527C6
:103C2000469560E070E08A899B89AC89BD89480F20
:103C3000591F6A1F7B1FCE01EBDE882309F05FC08E
:103C40006B2D70E0F801F170EC0FFD1F92A180E088
:103C5000682B792B81E0C822DD24C114D10439F00E
:103C6000C4E076956795CA95E1F78B011FC08B017B
:103C700020E030E01F702070307044C0452F562F78
:103C8000672F77278A899B89AC89BD89480F591F7F
:103C90006A1F7B1FCE01BCDE882389F5F601EE0F7B
:103CA000FF1FF170EC0FFD1F02A113A120E030E017
:103CB00029C0E7E07695679557954795EA95D1F73E
:103CC0008A899B89AC89BD89480F591F6A1F7B1F50
:103CD000CE019EDE882399F4F601EE0FFF1FEE0F52
:103CE000FF1FF170EC0FFD1F02A113A124A135A14C
:103CF0003F7008C001E010E020E030E003C00FEFAB
:103D00001FEF9801B801C901DF91CF911F910F9169
:103D1000FF90EF90DF90CF90BF9008950F931F9387
:103D2000CF93DF938C01DC0115961C921E921497A1
:103D300016964D915D916D917C9119974130510589
:103D40006105710509F467C0CD91DC918A859B8579
:103D5000AC85BD85481759076A077B0708F05BC02B
:103D60004115510561057105D9F48881833049F405
:103D70004E895F89688D798D411551056105710501
:103D800079F4F8011286138614861586888599853C
:103D9000009709F440C08E899F89A88DB98D2DC0E8
:103DA0008A81882301F5D8018D919C91F1DEAB01C8
:103DB000BC014F3FBFEF5B07BFEF6B07BFEF7B0758
:103DC00041F1423051056105710528F1D801ED91AD
:103DD000FC9182859385A485B585481759076A07A4
:103DE0007B0708F318C0F8014287538764877587FB
:103DF000CE019ADEDC01CB01F80186879787A08B84
:103E0000B18BA296D8015396DC93CE93529780E063
:103E100003C081E001C082E0DF91CF911F910F913B
:103E20000895882391F4E091F403F091F50330971D
:103E300009F010826115710511F0FB011082709379
:103E4000F5036093F40380E008958BE008952F92CA
:103E50003F924F925F926F927F928F929F92AF921A
:103E6000BF92CF92DF92EF92FF920F931F93CF9367
:103E7000DF93CDB7DEB7E5970FB6F894DEBF0FBE80
:103E8000CDBF9CA38BA34B014DAB009709F46CC332
:103E9000DC0111961C921E92FB01808190E0C0977C
:103EA0008A30910540F421812A3329F422E030E060
:103EB000820E931E02C080E090E0009709F0ADC131
:103EC000A090F403B090F503A114B10409F4A7C1C4
:103ED000BE86AD86D5018C91882329F011968C91F0
:103EE0006DDD80FF5CC3F5011082118280E064DD2E
:103EF00080FD97C1C50140E050E0BA01BBDD8130D3
:103F0000B9F4F501EC51FE4F8081882309F48DC18D
:103F1000F501E851FE4F208131814281538129A76B
:103F20003AA74BA75CA7C501BA01A901A3DD04C04C
:103F300019A61AA61BA61CA6833009F474C18823EF
:103F400009F073C1D5019D968D919C919E97B2E029
:103F500080309B0709F069C1F50180AD91AD9C01EE
:103F600040E050E02DA33EA34FA358A721153105F3
:103F70004105510551F4EA5BFF4F80819181A28197
:103F8000B3818DA39EA3AFA3B8A72DA13EA14FA13E
:103F900058A5D5011E962D933D934D935C93519753
:103FA000D2964C91D29713964C931397842F8150AD
:103FB000823008F03AC19F960C919F9712960C930D
:103FC0001297002309F431C1202F30E0C901019775
:103FD00082239323009709F028C1D3962D903C901B
:103FE000D49719963C922E921897C1018F709070B9
:103FF000009709F01AC1D5968D919C91D6972C0106
:1040000066247724411451046104710439F4F501E4
:10401000EE5BFF4F4080518062807380F501C0A845
:10402000D1A8C114D10409F400C1242F30E040E02C
:1040300050E06DA17EA18FA198A50E94FD3B6DA7C8
:104040007EA78FA798AB960140E050E029AB3AAB32
:104050004BAB5CAB6101E4E0D694C794EA95E1F721
:10406000EE24FF24C20ED31EE41EF51EC60ED71E7C
:10407000E81EF91E4C145D046E047F0408F4D5C0DC
:10408000C301B2016C197D098E099F09202F30E010
:1040900040E050E00E941C3C89019A010115110585
:1040A0002105310509F4C1C0063F4FE0140740E087
:1040B000240740E0340758F0063F5FEF150750E053
:1040C000250750E0350730F492E0492E05C044241E
:1040D000439402C083E0482E0E5F1F4F2F4F3F4F87
:1040E000D5011A960D931D932D933C931D9789A589
:1040F0009AA5ABA5BCA5C80ED91EEA1EFB1ED5010C
:104100005A96CD92DD92ED92FC925D9749A55AA503
:104110006BA57CA589A99AA9ABA9BCA9480F591F71
:104120006A1F7B1FD50152964D935D936D937C93CF
:104130005597B3E04B16D9F42114310409F075C03A
:10414000F501E25BFF4F80819181A281B381F5018E
:10415000868B978BA08FB18FB901A801440F551F93
:10416000661F771F440F551F661F771F2CC0211431
:10417000310409F45AC08DA59EA5AFA5B8A9840F36
:10418000951FA61FB71FF501868B978BA08FB18F48
:10419000B901A801440F551F661F771FF2E04F16A3
:1041A00091F0400F511F621F731F769567955795C9
:1041B0004795D901C80181709070A070B070480F08
:1041C000591F6A1F7B1F41505E4F6F4F7F4F39E071
:1041D00076956795579547953A95D1F78DA19EA10C
:1041E000AFA1B8A584179507A607B707F0F0D501CA
:1041F0004C928091F6039091F70301969093F70308
:104200008093F60317969C938E931697F501168E5E
:10421000178E10A211A21482C2C10BE0A6C10CE03D
:10422000A4C103E0A2C101E0A0C10DE09EC18C3594
:1042300019F40894811C911C1B8A1C8A1D8A1E8AF1
:10424000D4018C91803238F4CE010D9667DD082FB1
:1042500018A21F8E78C190E2292E25E0F22E2401AB
:10426000F40180810894811C911C8F32C1F38C353C
:10427000B1F3C9A0DAA0F6018CE090E001C0219270
:104280000197E9F760E070E0A0E0B0E008E010E03E
:1042900030E001C0D401F201EA0FFB1F20814D0183
:1042A0000894811C911C213208F460C02F3209F45B
:1042B0005FC02C3509F45CC02E3219F0601771070D
:1042C00070F00830110509F039C12E3209F036C1FD
:1042D000330F330F68E070E00BE010E0DBCF27FD19
:1042E0003360822F81588F3118F08F558D31F8F45B
:1042F000F201E80DF91D4081842F80548F3320F0A6
:1043000080548D3708F01AC1C801019768177907E2
:1043100008F014C182E0882E912C8A0E9B1EF601B3
:10432000E60FF71F208341836E5F7F4FB3CF422F8D
:1043300050E0EEE2F3E08191882329F090E08417C9
:104340009507C9F7FBC0822F81548A3110F432607F
:1043500006C0822F81568A3110F431602052F60156
:10436000E60FF71F20836F5F7F4F94CF44E001C0BB
:1043700040E06115710509F4E1C0D6018C91853EDC
:1043800009F4FC920830110511F4330F330F832F19
:1043900090E09C01237030702130310509F44061B8
:1043A0008C7090708430910509F44860F601438761
:1043B000CE010D96B3DC882309F0A0C04B8D5C8D37
:1043C0006D8D7E8D8D859E8523DB882309F096C0BB
:1043D000EF8DF8A19081992309F48FC0938593FD07
:1043E0000CC0A9A1BAA12CE030E02150304009F462
:1043F00085C041919D914917C1F3C988DA88089415
:10440000C11CD11CC114D10409F477C08B8D9C8DC3
:10441000AD8DBE8D0097A105B10509F46EC01FE0FA
:10442000A12EB12CAC20BD20A114B10409F050C0C4
:104430000196A11DB11D8B8F9C8FAD8FBE8F4F89B3
:10444000588D698D7A8DED85FE8541155105610583
:10445000710539F480859185C816D90608F04DC0DC
:1044600037C0828190E001979601A4E036952795A8
:10447000AA95E1F782239323009751F5CF0188DBBA
:10448000AB01BC01423051056105710590F14F3F10
:10449000FFEF5F07FFEF6F07FFEF7F0761F18D858C
:1044A0009E85DC011A960D911D912D913C911D97D1
:1044B000401751076207730700F54F8B588F698FBC
:1044C0007A8F32DBDC01CB018B8F9C8FAD8FBE8F5F
:1044D000DA8AC98A2D853E852E5D3F4FC50145E0AC
:1044E000880F991F4A95E1F7280F391F38A32F8F9E
:1044F00065CF82E003C081E001C084E0E9A1FAA1B8
:104500009385882331F0082F0430E9F492FF18C016
:104510001AC092FD17C06F8D78A1FB01838584FFBF
:104520000FC0840C951CED85FE858081E4DADC01EA
:10453000CB018B8B9C8BAD8BBE8B91CE06E003C0E9
:1045400005E001C0082FCF8CD8A0002371F4C1145E
:10455000D10441F0D6011B968C911B9784FF29C092
:1045600004E003C006E001C009E0802FE5960FB625
:10457000F894DEBF0FBECDBFDF91CF911F910F9199
:10458000FF90EF90DF90CF90BF90AF909F908F9073
:104590007F906F905F904F903F902F900895CE0145
:1045A00001969AA389A3F40180818F3209F03FCE4E
:1045B00040CE8DA98170ABA1BCA114968C93AD8423
:1045C000BE84F5018081B60196DADC01CB01EBA156
:1045D000FCA186879787A08BB18BF601848D958D82
:1045E000A68DB78DEBA1FCA182879387A487B587A1
:1045F0001682178210861186168A178A108E118EDF
:10460000B182A082D50116968D919C9117979383C4
:104610008283ABCF2F923F924F925F926F927F92A5
:104620008F929F92BF92CF92DF92EF92FF920F9361
:104630001F93CF93DF93EC01E62E072F4A01290148
:10464000D9011D921C92C8D9B82E882309F001C146
:104650008C8187FDF9C080FFFAC04A855B856C8537
:104660007D858E819F81A885B985481B590B6A0B72
:104670007B0BC401A0E0B0E0481759076A077B072D
:1046800008F44A016E2C702E212CF2E03F2ED7C088
:104690000E811F8128853985D901C8019170A070CC
:1046A000B0700097A105B10509F071C088819981AA
:1046B000B901A801E9E07695679557954795EA9580
:1046C000D1F7FC01C280CA94C42219F50115110565
:1046D0002105310529F48E859F85A889B98907C0F0
:1046E0004A895B896C897D8953DADC01CB01823090
:1046F0009105A105B105D8F08F3FFFEF9F07FFEFB0
:10470000AF07FFEFBF0709F44FC08A8B9B8BAC8BC1
:10471000BD8B088119814A895B896C897D89C801B3
:1047200003DADC01CB010097A105B10521F48C81EE
:1047300080688C8389C09C01AD012C0D311D411D09
:10474000511D7401EF2CFF24E694E114F104D9F01B
:10475000D80112968C911297DD24B7016C0D7D1D46
:1047600090E08617970718F47C01EC18FD08F80113
:104770008181B3010E2D24D98823B1F49701322F02
:104780002227330F42C02E8B3F8B488F598FCE800C
:10479000DF80E884F9844E895F89688D798D88810E
:1047A000998136D9882331F08C8180688C83BB2431
:1047B000B3944FC0C60191709101281B390BC901F8
:1047C00094018815990508F49C018E819F81917050
:1047D000829648815981480F591FFA01D301C901B6
:1047E00005C0619171916D937D930297823091051F
:1047F000C0F7C9018E7FF301E80FF91F840F951FE1
:1048000020FF03C0DC018C918083620E731EA9011E
:1048100060E070E08E819F81A885B985840F951F27
:10482000A61FB71F8E839F83A887B987F201808157
:104830009181820F931F91838083821A930A81143E
:10484000910409F025CF05C0A2E0BA2E02C0F7E01E
:10485000BF2E8B2DDF91CF911F910F91FF90EF9085
:10486000DF90CF90BF909F908F907F906F905F90E0
:104870004F903F902F900895CF93DF93EC01ACD8E9
:10488000882311F419821882DF91CF9108952F9215
:104890003F924F925F926F927F928F929F92AF92D0
:1048A000BF92CF92DF92EF92FF921F93CF93DF934D
:1048B000CDB7DEB728970FB6F894DEBF0FBECDBFD9
:1048C0001C014D835E836F83788786D8182F4D81B6
:1048D0005E816F817885882309F022C1D101149609
:1048E0008C91149787FD1BC11A968D919D910D9007
:1048F000BC91A02D6A017B018C159D05AE05BF05FD
:1049000010F46C017D01F10186819781A085B1854C
:104910001682178210861186C114D104E104F104B5
:1049200009F4E0C020813181F90182809924AA2410
:10493000BB2449E0880C991CAA1CBB1C4A95D1F7E2
:104940000097A105B105E9F12C013D01089441084A
:10495000510861087108C701B6016150704080407C
:104960009040A50194010E941C3C29833A834B830B
:104970005C83C301B201A50194010E941C3C8981A2
:104980009A81AB81BC8182179307A407B507C8F051
:1049900088279927DC0188199909AA09BB0984216C
:1049A0009521A621B721F10186839783A087B1873E
:1049B000C81AD90AEA0AFB0A4289538964897589A7
:1049C0000CC0D1011E964D915D916D917C915197D6
:1049D000F101428B538B648B758B41155105610539
:1049E000710509F47FC044C0D1018D919C91D0D84C
:1049F000AB01BC014F3FBFEF5B07BFEF6B07BFEFE2
:104A00007B0731F4F10184818068848311E088C0E0
:104A1000423051056105710560F0D101ED91FC91C5
:104A200082859385A485B585481759076A077B0752
:104A300028F0F10184818068848371C0D10152968D
:104A40004D935D936D937C93559716968D919D91A3
:104A50000D90BC91A02D880D991DAA1DBB1DF101C3
:104A600086839783A087B187C818D908EA08FB080E
:104A70008C149D04AE04BF0408F4B6CFF101868106
:104A80009781A085B1858C0D9D1DAE1DBF1D8683B0
:104A90009783A087B187D701C6019170A070B070CD
:104AA0000097A105B105F1F0808191813DD8DC012D
:104AB000CB010097A105B10549F4D10114968C9161
:104AC0001497806814968C93149729C029E0F69463
:104AD000E794D794C7942A95D1F7C80ED91EEA1E39
:104AE000FB1E03C0CC24DD247601F1018681978171
:104AF000A085B1859170A070B0700097A105B10537
:104B000079F086899789A08DB18DC816D906EA06F5
:104B1000FB0631F0C68AD78AE08EF18E01C012E022
:104B2000812F28960FB6F894DEBF0FBECDBFDF9160
:104B3000CF911F91FF90EF90DF90CF90BF90AF90FB
:104B40009F908F907F906F905F904F903F902F90AD
:104B50000895DF92EF92FF920F931F93CF93DF930D
:104B6000EC018B01BAD2D82E882379F501151105F5
:104B700029F0F80120813181C21BD30BEE24FF24E0
:104B800020C08091E80085FD16C08091E8008E77F6
:104B90008093E8000115110551F0F80180819181A1
:104BA0008E0D9F1D9183808335E0D32E0EC095D24C
:104BB000882339F009C01092F10021970894E11C74
:104BC000F11C2097F1F601C0D82E8D2DDF91CF91E9
:104BD0001F910F91FF90EF90DF900895AF92BF92D9
:104BE000CF92DF92EF92FF921F93CF93DF93EC016E
:104BF0007B016A0172D2182F8823A1F5C114D10458
:104C000039F0F60120813181E21AF30AC20FD31F75
:104C1000AA24BB2422C08091E80085FD15C08091A4
:104C2000E8008E778093E800C114D10449F0F601C2
:104C3000808191818A0D9B1D9183808315E012C034
:104C40004CD2882351F00DC089918093F1000894D3
:104C5000E108F1080894A11CB11CE114F104D9F693
:104C600001C0182F812FDF91CF911F91FF90EF90FE
:104C7000DF90CF90BF90AF900895AF92BF92CF9248
:104C8000DF92FF920F931F93CF93DF93EC016B01A1
:104C90005A0123D2F82E8823D9F5860101501040FD
:104CA0000C0F1D1FA114B10439F0F50120813181D1
:104CB000C21AD30A021B130BC0E0D0E024C08091BB
:104CC000E80085FD16C08091E8008E778093E800AB
:104CD000A114B10451F0F501808191818C0F9D1FC9
:104CE0009183808345E0F42E13C0F7D1882359F0D7
:104CF0000EC0F80180818093F100015010400894AB
:104D0000C108D1082196C114D104C9F601C0F82EFA
:104D10008F2DDF91CF911F910F91FF90DF90CF905A
:104D2000BF90AF900895AF92BF92CF92DF92EF9273
:104D3000FF921F93CF93DF93EC017B016A01CDD1EA
:104D4000182F8823A1F5C114D10439F0F601208170
:104D50003181E21AF30AC20FD31FAA24BB2422C056
:104D60008091E80085FD15C08091E8008B778093E5
:104D7000E800C114D10449F0F601808191818A0DC7
:104D80009B1D9183808315E012C0A7D1882351F029
:104D90000DC08091F10089930894E108F10808940E
:104DA000A11CB11CE114F104D9F601C0182F812F08
:104DB000DF91CF911F91FF90EF90DF90CF90BF9048
:104DC000AF9008952091D60D3091D70D2617370753
:104DD00020F4B901FC0120E035C061157105D1F75F
:104DE0002091E8002E772093E800F4CF8EB388233B
:104DF000F1F18530C1F18091E80083FD36C08091EA
:104E0000E80082FD2AC08091E80080FF1BC08091ED
:104E1000F2009091F30006C021912093F1006150BF
:104E2000704001966115710519F088309105A0F365
:104E300021E08830910509F020E08091E8008E772C
:104E40008093E8006115710589F6222379F605C083
:104E50008EB3882361F0853061F08091E80082FF95
:104E6000F7CF80E0089583E0089581E0089582E01F
:104E7000089583E008956115710529F42091E800F3
:104E80002B772093E800382F292F25C08EB3882355
:104E9000A9F1853079F18091E80083FD2DC08091E2
:104EA000E80082FFF3CFE32FF22F08C08091F100DA
:104EB00081933E2F2F2F6150704041F03E2F2F2FB6
:104EC0008091F2009091F300009781F78091E800C3
:104ED0008B778093E80061157105C1F605C08EB32C
:104EE000882361F0853061F08091E80080FFF7CF82
:104EF00080E0089583E0089581E0089582E00895B8
:104F000083E008952091D60D3091D70D26173707ED
:104F100020F4B901FC0120E037C061157105D1F71B
:104F20002091E8002E772093E800F4CF8EB38823F9
:104F300009F43FC08530C9F18091E80083FD37C096
:104F40008091E80082FD2BC08091E80080FF1CC0AA
:104F50008091F2009091F30007C024912093F1001A
:104F600031966150704001966115710519F08830D5
:104F7000910598F321E08830910509F020E08091B7
:104F8000E8008E778093E8006115710579F6222399
:104F900069F605C08EB3882361F0853061F0809199
:104FA000E80082FFF7CF80E0089583E0089581E074
:104FB000089582E0089583E00895982F2AC0909381
:104FC000E900981739F07091EC002091ED005091B4
:104FD000F00003C0242F762F50E021FF19C030913C
:104FE000EB003E7F3093EB003091ED003D7F30933E
:104FF000ED003091EB0031603093EB007093EC00EA
:105000002093ED005093F0002091EE0027FF08C0A0
:105010009F5F9730A0F28F708093E90081E0089540
:1050200080E008950F931F93CF93DF93162FEC0129
:1050300000E02AC09881992329F16B81E981FA81E6
:105040002C81892F8F70873018F56295660F660F57
:10505000607C991F9927991F692B223010F096E0E8
:1050600001C092E028E030E040E003C04F5F220F33
:10507000331F2E173F07D0F34295407F492B9DDF0A
:10508000882331F00F5F25960117A1F681E001C05A
:1050900080E0DF91CF911F910F9108958091D00D05
:1050A00087FF11C003C08EB38823B1F08091E80060
:1050B00082FFF9CF8091E8008B778093E800089514
:1050C0008EB3882349F08091E80080FFF9CF80916A
:1050D000E8008E778093E80008958091E400909135
:1050E000E50045E601C0C9012091EC0020FF22C087
:1050F0002091E80020FD14C02EB3222399F0253022
:1051000099F02091EB0025FD11C02091E400309131
:10511000E5002817390741F3415029F784E0089545
:1051200080E0089582E0089583E0089581E0089585
:1051300080E008952091E80022FFDECFF9CF809132
:105140009E0090E0817090702091A0002D7F2093B0
:10515000A00020919E00226020939E0020919E003E
:1051600021FDFCCF20919E00216020939E00109293
:10517000CE0D2091A00030E0207230704091A00050
:105180004F7D4093A00040919F004F7D40939F0032
:105190004AE050919F0055FF0BC040919F004F7D0A
:1051A00040939F0040919F004D7F40939F0008C017
:1051B000EFECF7E03197F1F700C00000415049F7FC
:1051C0002115310529F02091A00020622093A00034
:1051D000009729F480919E008E7F80939E0080919D
:1051E000A00082608093A000089540919E0050E04E
:1051F000417050702091A00030E02072307090918A
:10520000A0009F7D9093A00090919F009F7D909320
:105210009F0090919E00916090939E0029C0909174
:105220009F0095FF06C090919F009F7D90939F00E7
:1052300081509EB39130F9F09091FB039230D9F4F4
:105240009091A60094FF09C01092F5008091A600ED
:105250008F7E8093A60082E00FC09091A60091FF00
:1052600007C08091A6008D7F8093A60083E004C0D4
:105270008823A9F601C081E04115510529F49091D8
:105280009E009E7F90939E002115310529F09091FC
:10529000A00090629093A00008950F931F93CF9366
:1052A000DF93CDB7DEB728970FB6F894DEBF0FBEF9
:1052B000CDBF8EB3853009F496C0863068F4823055
:1052C000B9F1833018F48823A1F0FFC08330C9F10D
:1052D000843009F0FAC060C0873009F49AC0873082
:1052E00008F48BC0883009F4B3C0893009F0EDC0F0
:1052F000D3C00091F8031091F9030115110509F4C9
:10530000E4C081E072DF682F882329F08091FA03DE
:105310008EBB81E0CDC0015010401093F903009383
:10532000F8030115110509F0D0C08091FA0307C0F8
:1053300088EE93E09093F9038093F80383E08EBBAB
:10534000C4C08091F8039091F9039C012150304032
:105350003093F9032093F803009739F08FEC97E02E
:105360000197F1F700C00000B0C077988091D80095
:1053700080618093D8008091DD008B7F8093DD0079
:105380008091D70080618093D7008091DD0082609A
:105390008093DD0084E0D3CF80919F0080FF95C093
:1053A00080919F008E7F80939F0080919F008D7FD2
:1053B00080939F008091DF008D7F8093DF0080913C
:1053C000DE0082608093DE0080919E008160809389
:1053D0009E0005D21EBA84E690E09093F903809374
:1053E000F80385E056C0ABDE1EBA88EC90E09093DF
:1053F000F9038093F80386E04CC080E060E040E071
:1054000020E430E001E065D1882309F44DC087E055
:1054100096CFA0EDBDE0EDE3F3E088E001900D92C2
:105420008150E1F71092A700CE010196EED6682FC9
:10543000882309F03CC0888580934D0380DE1EBA26
:1054400088EC90E09093F9038093F80388E021C002
:1054500020914D0380E060E040E030E001E039D190
:10546000882311F1A0EDBDE0E5E4F3E088E00190D0
:105470000D928150E1F780E090E0C7D6682F882335
:10548000B1F41EBA84E690E09093F9038093F80398
:1054900089E08093FA0319C081E08093A1008AE03B
:1054A0008EBB0E94EA0211C060E084E001C083E08C
:1054B0009EB3913051F00E945D038091DD008160C8
:1054C0008093DD000E94E80207D228960FB6F89478
:1054D000DEBF0FBECDBFDF91CF911F910F91089519
:1054E000DF92EF92FF920F931F93CF93DF93EC0124
:1054F0008B018091AA008F7C80618093AA00A5D146
:10550000D82E882379F50115110529F0F80120819D
:105510003181C21BD30BEE24FF2420C08091A60052
:1055200085FD16C08091A6008E778093A600011598
:10553000110551F0F801808191818E0D9F1D91839D
:10554000808324E0D22E0EC080D1882339F009C098
:105550008091AF0021970894E11CF11C2097F1F68F
:1055600001C0D82E8D2DDF91CF911F910F91FF900B
:10557000EF90DF900895AF92BF92CF92DF92FF92AB
:105580000F931F93CF93DF935C01EB016A0180912E
:10559000AA008F7C80628093AA0057D1F82E8823BE
:1055A000B1F5C114D10441F0F60100811181C01B95
:1055B000D10B0A0D1B1D01C08501AA24BB2423C0E9
:1055C0008091A60085FD16C08091A6008B77809300
:1055D000A600C114D10451F0F601808191818A0D99
:1055E0009B1D9183808344E0F42E11C02ED188232B
:1055F00051F00CC0F80181918F018093AF00219789
:105600000894A11CB11C2097D9F601C0F82E8F2D4B
:10561000DF91CF911F910F91FF90DF90CF90BF90BE
:10562000AF900895AF92BF92CF92DF92FF920F9307
:105630001F93CF93DF935C01EB016A018091AA0075
:105640008F7C80618093AA0000D1F82E8823B1F569
:10565000C114D10441F0F60100811181C01BD10BAE
:105660000A0D1B1D01C08501AA24BB2423C0809103
:10567000A60085FD16C08091A6008E778093A600B7
:10568000C114D10451F0F601808191818A0D9B1DD6
:105690009183808364E0F62E11C0D7D0882351F027
:1056A0000CC08091AF00F80181938F01219708947D
:1056B000A11CB11C2097D9F601C0F82E8F2DDF91C7
:1056C000CF911F910F91FF90DF90CF90BF90AF903F
:1056D00008950F93582F5F7087FF02C080E101C0CB
:1056E00080E2573008F057C0662309F480E04F701D
:1056F0006295660F660F607C642B682B452F0260F5
:105700004093A7004517A9F404C07F5F880F991F35
:1057100003C088E090E070E08217930710F47530C2
:10572000A1F7872F8295807F802BF62F70E0E0E035
:1057300008C0F091AA008091AB00E091AD0070919B
:10574000AE0081FF20C09091A9009E7F9093A90098
:105750009091AB009D7F9093AB009091A9009160D8
:105760009093A900F093AA008093AB00E093AD0062
:105770007093AE008091A90080628093A90080910F
:10578000AC0087FF08C04F5F473009F0B9CF509396
:10579000A70081E001C080E00F910895FF920F9370
:1057A0001F93CF93DF93162FEC01FF240DC0888148
:1057B000882341F029813A816C814B810D8189DFF9
:1057C000882331F0F3942696F11689F781E001C021
:1057D00080E0DF91CF911F910F91FF90089510927B
:1057E000F80080E08093A7001092AE001092A6000F
:1057F0001092AB009091A9009E7F9093A9008F5FBB
:10580000873081F708954091A7009091AA0090E019
:105810009093A7002091AC0027FF0CC03091AA0004
:10582000532F5F7030FF02C020E001C020E8252B1D
:10583000281749F09F5F973059F7842F8F70809316
:10584000A70080E0089581E008958091A2009091E2
:10585000A30045E601C0C9012091AA0020732031B0
:1058600029F42091A60020FF05C016C02091A600B3
:1058700022FD12C02091A60021FD10C02EB32130C0
:1058800079F02091A2003091A3002817390721F365
:10589000415009F783E0089580E0089581E008957C
:1058A00082E00895CFD0DAD0E0EEF0E08081816030
:1058B0008083E8EDF0E080818F77808319BCA7EDCD
:1058C000B0E08C918E7F8C9380818F7E808310924C
:1058D000FB031092CF0D0895CF93C091D700B2D0A3
:1058E000BDD08091D8008F778093D8008091D80068
:1058F00080688093D800C6FF05C08091D800826080
:105900008093D8008091D8008F7D8093D8008091BB
:10591000FB03813059F58091D70080688093D700D0
:1059200019BC1EBA1092CB0D1092CD0D1092CC0D59
:105930008091E0008B7F8093E0008091D8008160AF
:105940008093D80080E060E042E037DB8091E100A6
:105950008E7F8093E1008091E20081608093E2007D
:105960008091E20088608093E20037C08091FB0361
:105970008230C1F58091D7008F778093D7008CE07B
:1059800089BD8EE089BD09B400FEFDCF81E08EBBEC
:105990001092CE0D80E480934D038091D8008064F6
:1059A0008093D8008091DD0081608093DD0080913C
:1059B000DD0084608093DD008091D7008F7E80932E
:1059C000D7006F9A779A8091DE0081608093DE0025
:1059D0008091DE0084608093DE008091E0008E7F05
:1059E0008093E0008091D80080618093D800CF91AF
:1059F00008959091D8009F7E9093D8009091D70001
:105A000091609093D700833091F48091D7008064A7
:105A10008093D7008091D80082608093D8008091D5
:105A2000D90081FF02C081E007C082E005C09091EB
:105A3000D7009F7B9093D7008093FB0381E08093F6
:105A4000CF0D4ACFE8EDF0E080818C7F808310920B
:105A5000DE001092A0001092E20008951092DA0089
:105A60001092DF0010929F001092E10008951F92A3
:105A70000F920FB60F920BB60F9211242F933F93F4
:105A80004F935F936F937F938F939F93AF93BF9346
:105A9000EF93FF938091E10082FF0AC08091E200C2
:105AA00082FF06C08091E1008B7F8093E10084D368
:105AB0008091DA0080FF1DC08091D80080FF19C05E
:105AC0008091DA008E7F8093DA008091D90080FF88
:105AD0000CC08CE089BD8EE089BD09B400FEFDCF0D
