:1000000012C100002FC100002DC100002BC1000053
:1000100029C1000027C1000025C1000023C1000044
:1000200021C100001FC100001CC600001BC1000050
:1000300019C1000017C1000015C1000013C1000064
:1000400011C100000FC100000DC100000BC1000074
:1000500009C1000007C1000005C1000003C1000084
:1000600001C10000FFC00000FDC00000FBC0000097
:10007000F9C00000F7C00000F5C00000F3C00000A8
:10008000F1C00000EFC00000EDC00000EBC00000B8
:10009000E9C00000E7C000001B5B33366D4B65799B
:1000A000626F61726420486F73742044656D6F20C5
:1000B00072756E6E696E672E0D0A1B5B33376D00AD
:1000C0004465766963652041747461636865642E74
:1000D0000D0A000D0A44657669636520556E6174EA
:1000E0007461636865642E0D0A004572726F722038
:1000F00052657472696576696E6720436F6E6669D2
:100100006775726174696F6E20446573637269709C
:10011000746F722E0D0A0041747461636865642007
:10012000446576696365204E6F7420612056616C6A
:100130006964204B6579626F6172642E0D0A004517
:1001400072726F722053657474696E6720446576AD
:1001500069636520436F6E66696775726174696F64
:100160006E2E0D0A00436F756C64206E6F74205301
:10017000657420426F6F742050726F746F636F6C80
:10018000204D6F64652E0D0A004B6579626F6172B8
:100190006420456E756D6572617465642E0D0A008C
:1001A0001B5B33316D486F7374204D6F6465204560
:1001B00072726F720D0A202D2D204572726F72209F
:1001C000436F64652025640D0A1B5B33376D001B8C
:1001D0005B33316D44657620456E756D20457272D6
:1001E0006F720D0A202D2D204572726F7220436FA1
:1001F00064652025640D0A202D2D2053756220454D
:1002000072726F7220436F64652025640D0A202D81
:100210002D20496E2053746174652025640D0A1BDE
:100220005B33376D000011241FBECFEFD0E2DEBF7D
:10023000CDBF11E0A0E0B1E0E2ECFAE100E00BBFDD
:1002400002C007900D92A234B107D9F71BBE11E08E
:10025000A2E4B1E001C01D92A436B107E1F787D056
:100260000C945F0DCDCE9BB19F70982B9BB90895D8
:1002700084B7877F84BF28E10FB6F894209360008D
:10028000109260000FBE90E080E80FB6F894809363
:100290006100909361000FBE83E390E09093CD00E6
:1002A0008093CC0086E08093CA001092C80020930F
:1002B000C900539A5A9A8AB1806F8AB98BB18F70EC
:1002C0008BB9B4D480E090E00C945A0ACF93DF93BA
:1002D000CDB7DEB728970FB6F894DEBF0FBECDBFFF
:1002E00080914F018B30D1F580E091E00E94F809B8
:1002F0008823A1F180E091E0BE016F5F7F4F0E94F3
:10030000B2098981882311F090E101C090E08BB19E
:100310008F7E892B8BB98B81882301F190E299B96B
:10032000982F94509A3110F4835C11C0982F9E51ED
:10033000993010F48D5E0BC0873231F08C3231F081
:10034000883261F48AE003C080E301C080E26091FA
:1003500060017091610190E00E94770A28960FB6C3
:10036000F894DEBF0FBECDBFDF91CF91089580DF3F
:1003700088E990E00E94C20A80E175DF7894A6DFE8
:10038000EDD6FDCF80EC90E00E94C20A80EA6BCFF0
:1003900083ED90E00E94C20A80E165CFCF93DF93A6
:1003A000CDB7DEB7C250D2400FB6F894DEBF0FBE55
:1003B000CDBF80EA58DF81E0BE016F5F7F4FAE01A5
:1003C0004D5F5F4F20E032E0DFD4882319F08AEEE2
:1003D00090E013C069817A8180E091E0AE014D5FC9
:1003E0005F4FF1D6882319F087E191E006C081E0E4
:1003F00090D6882331F08FE391E00E94C20A80E911
:1004000014C080E091E00E94160A882349F085E636
:1004100091E00E94C20A80E926DF80E07AD606C019
:1004200089E891E00E94C20A80E61DDFCE5FDD4FC1
:100430000FB6F894DEBF0FBECDBFDF91CF91089508
:10044000CF93DF930F92CDB7DEB7898387D300D0E8
:1004500000D0EDB7FEB7319620EA31E0ADB7BEB7B8
:1004600012963C932E9311978981828313820E9466
:10047000A30A0F900F900F900F9080E9F4DEFFCF4A
:1004800090914F012DB73EB7285030400FB6F894E9
:100490003EBF0FBE2DBFEDB7FEB731962FEC31E05A
:1004A000ADB7BEB712963C932E93119782831382F9
:1004B00064831582968317820E94A30A2DB73EB7E4
:1004C000285F3F4F0FB6F8943EBF0FBE2DBF80E9A7
:1004D000CACE9C0180E090E050E0440F551F420FCF
:1004E000531FFA01E80FF91FEF56FC4FA081B181AD
:1004F000F901E80FF91FE057FC4F7081761791F46E
:10050000CD018770907021E030E0009711F420E079
:1005100030E0CD01E3E096958795EA95E1F7820F0B
:10052000931F0895079686349105D9F680E090E0F0
:10053000089580919E0090E0817090702091A000BD
:100540002D7F2093A00020919E00226020939E008A
:1005500020919E0021FDFCCF20919E0021602093E0
:100560009E00109245012091A00030E02072307072
:100570004091A0004F7D4093A00040919F004F7D8F
:1005800040939F004AE050919F0055FF0BC040915F
:100590009F004F7D40939F0040919F004D7F40936F
:1005A0009F0008C0EFECF7E03197F1F700C00000C2
:1005B000415049F72115310529F02091A000206212
:1005C0002093A000009729F480919E008E7F809355
:1005D0009E008091A00082608093A00008954091C9
:1005E0009E0050E0417050702091A00030E02072D9
:1005F00030709091A0009F7D9093A00090919F00FB
:100600009F7D90939F0090919E00916090939E009B
:1006100026C090919F0095FF06C090919F009F7DFE
:1006200090939F00815090914F019130D9F090911B
:10063000A60094FF09C01092F5008091A6008F7E5D
:100640008093A60082E00FC09091A60091FF07C0A2
:100650008091A6008D7F8093A60083E004C088234C
:10066000C1F601C081E04115510529F490919E0029
:100670009E7F90939E002115310529F09091A00056
:1006800090629093A00008950F931F93CF93DF93F0
:10069000CDB7DEB728970FB6F894DEBF0FBECDBF3B
:1006A00080914F01853009F499C0863068F482301A
:1006B000C1F1833018F48823A1F004C18330D9F14B
:1006C000843009F0FFC062C0873009F49EC08730D3
:1006D00008F48FC0883009F4B8C0893009F0F2C03E
:1006E000D9C000914201109143010115110509F48F
:1006F000E9C081E074DF682F882331F080914401E4
:1007000080934F0181E0D2C001501040109343010B
:10071000009342010115110509F0D4C080914401F4
:1007200007C088EE93E0909343018093420183E0F9
:1007300080934F01C7C080914201909143019C0179
:10074000215030403093430120934201009739F00B
:100750008FEC97E00197F1F700C00000B3C07798E5
:100760008091D80080618093D8008091DD008B7FDC
:100770008093DD008091D70080618093D7008091C5
:10078000DD0082608093DD0084E0D2CF80919F0005
:1007900080FF98C080919F008E7F80939F00809102
:1007A0009F008D7F80939F008091DF008D7F8093DD
:1007B000DF008091DE0082608093DE0080919E00E9
:1007C000816080939E0066D110924F0184E690E094
:1007D000909343018093420185E059C0AADE1092B4
:1007E0004F0188EC90E0909343018093420186E0B2
:1007F0004EC080E060E040E020E430E001E0C4D0A2
:10080000882309F44FC087E093CFA7E4B1E0E7E184
:10081000F1E088E001900D928150E1F71092A7007D
:10082000CE01019678D3682F882309F03EC08885D1
:10083000809327017EDE10924F0188EC90E0909328
:1008400043018093420188E022C02091270180E08B
:1008500060E040E030E001E097D0882319F1A7E4A0
:10086000B1E0EFE1F1E088E001900D928150E1F715
:1008700080E090E050D3682F8823B9F410924F01A4
:1008800084E690E0909343018093420189E0809355
:10089000440118C081E08093A1008AE080934F0159
:1008A0007DDD10C060E084E001C083E090914F01E5
:1008B000913041F0E5DD8091DD0081608093DD00C5
:1008C00067DD64D128960FB6F894DEBF0FBECDBFAA
:1008D000DF91CF911F910F910895AF92BF92CF9268
:1008E000DF92FF920F931F93CF93DF935C01EB0195
:1008F0006A018091AA008F7C80618093AA0000D158
:10090000F82E8823B1F5C114D10441F0F60100811D
:100910001181C01BD10B0A0D1B1D01C08501AA242A
:10092000BB2423C08091A60085FD16C08091A6003F
:100930008E778093A600C114D10451F0F601808116
:1009400091818A0D9B1D9183808364E0F62E11C0F6
:10095000D7D0882351F00CC08091AF00F80181936B
:100960008F0121970894A11CB11C2097D9F601C0D2
:10097000F82E8F2DDF91CF911F910F91FF90DF9077
:10098000CF90BF90AF9008950F93582F5F7087FF5F
:1009900002C080E101C080E2573008F057C06623F2
:1009A00009F480E04F706295660F660F607C642BDF
:1009B000682B452F02604093A7004517A9F404C097
:1009C0007F5F880F991F03C088E090E070E0821776
:1009D000930710F47530A1F7872F8295807F802BC5
:1009E000F62F70E0E0E008C0F091AA008091AB0023
:1009F000E091AD007091AE0081FF20C09091A90000
:100A00009E7F9093A9009091AB009D7F9093AB0047
:100A10009091A90091609093A900F093AA0080930F
:100A2000AB00E093AD007093AE008091A9008062AE
:100A30008093A9008091AC0087FF08C04F5F4730CA
:100A400009F0B9CF5093A70081E001C080E00F9179
:100A50000895FF920F931F93CF93DF93162FEC010E
:100A6000FF240DC08881882341F029813A816C815F
:100A70004B810D8189DF882331F0F3942696F1169E
:100A800089F781E001C080E0DF91CF911F910F9144
:100A9000FF9008951092F80080E08093A7001092D4
:100AA000AE001092A6001092AB009091A9009E7F1C
:100AB0009093A9008F5F873081F708954091A70038
:100AC0009091AA0090E09093A7002091AC0027FF9E
:100AD0000CC03091AA00532F5F7030FF02C020E09D
:100AE00001C020E8252B281749F09F5F973059F760
:100AF000842F8F708093A70080E0089581E008958F
:100B00008091A2009091A30045E601C0C901209107
:100B1000AA002073203129F42091A60020FF05C0EF
:100B200017C02091A60022FD13C02091A60021FD30
:100B300011C020914F01213079F02091A200309115
:100B4000A3002817390719F3415001F783E00895EE
:100B500080E0089581E0089582E0089575D07CD00A
:100B6000E0EEF0E0808181608083E8EDF0E080815C
:100B70008F77808319BCA7EDB0E08C918E7F8C932A
:100B800080818F7E80831092460108955DD064D06D
:100B90008091D8008F778093D8008091D8008068AA
:100BA0008093D8008091D8008F7D8093D800809169
:100BB000D7008F778093D7008CE089BD8EE089BD08
:100BC00009B400FEFDCF81E080934F0110924501F2
:100BD00080E4809327018091D80080648093D800BE
:100BE0008091DD0081608093DD008091DD00846074
:100BF0008093DD008091D7008F7E8093D7006F9A1D
:100C0000779A8091DE0081608093DE008091DE0023
:100C100084608093DE008091E0008E7F8093E0000E
:100C20008091D80080618093D8000895E8EDF0E0CD
:100C300080818F7E8083E7EDF0E08081816080831A
:100C400081E080934601A2CFE8EDF0E080818C7FC7
:100C500080831092A00008951092DA0010929F00F5
:100C600008951F920F920FB60F920BB60F92112498
:100C70002F933F934F935F936F937F938F939F93A4
:100C8000AF93BF93EF93FF9380919F0085FF0AC0BE
:100C90008091A00085FF06C080919F008F7D80938A
:100CA0009F0010D180919F0081FF15C08091A0000E
:100CB00081FF11C080919F008D7F80939F00809164
:100CC0009F008E7F80939F008091A0008D7F8093F6
:100CD000A0005EDB5BDF8091DF0081FF15C08091AB
:100CE000DE0081FF11C08091DF008D7F8093DF00E7
:100CF00077988091DD0081608093DD0080E0A0DB4B
:100D000047DB81E080934F018091DF0080FF17C0B7
:100D10008091DE0080FF13C08091DF008E7F809382
:100D2000DF008091DE008E7F8093DE002BDB8091E0
:100D3000A00082608093A00082E080934F018091A8
:100D4000DF0082FF0EC08091DE0082FF0AC080912A
:100D5000DF008B7F8093DF0082E060E091DB18DBB7
:100D600015DFFF91EF91BF91AF919F918F917F918F
:100D70006F915F914F913F912F910F900BBE0F900C
:100D80000FBE0F901F901895CF92DF92EF92FF92B7
:100D90000F931F93CF93DF93CDB7DEB729970FB68D
:100DA000F894DEBF0FBECDBF6B018A01790190E8D8
:100DB0009093470196E09093480190E001979260EC
:100DC00090934A018093490110924C0110924B017B
:100DD00089E090E090934E0180934D011092A7001E
:100DE000CE01019698D08823B9F48B819C81F601BD
:100DF00091838083E816F90670F090934E018093FA
:100E00004D01C80188D0882339F4F80191819230CE
:100E100019F086E001C085E029960FB6F894DEBF90
:100E20000FBECDBFDF91CF911F910F91FF90EF903B
:100E3000DF90CF900895AF92BF92CF92DF92EF9262
:100E4000FF920F931F93CF93DF937C018B015A0185
:100E500028C0F801C080D180F601808190E09E0119
:100E60008C179D0708F49C01C601820F931FF8019F
:100E700091838083F70180819181821B930B918301
:100E80008083F80180819181F5010995823049F0D4
:100E9000813069F4F801D182C082F701D183C08327
:100EA00006C0F701C081D181209799F682E0DF91D9
:100EB000CF911F910F91FF90EF90DF90CF90BF9057
:100EC000AF90089508951F93CF93DF93182FC9EE25
:100ED000D3E006C081E083DB8823C9F42197B1F019
:100EE000112329F48091A60083FFF4CF0DC01130A7
:100EF00029F48091A60080FFEDCF06C0123051F793
:100F00008091A60082FFE6CF80E001C084E0DF91FF
:100F1000CF911F910895EF92FF920F931F93CF935C
:100F2000DF93EC01E0909E00FF2481E0E822FF24A3
:100F300000914D0110914E0180919E00816080933F
:100F40009E0081E04CDB882309F0CAC08091AA0092
:100F50008F7C8093AA001092F5008091A6008F7E6E
:100F60008093A6008091A9008F7B8093A90088E0E0
:100F7000E7E4F1E091919093AF008150D9F780912F
:100F8000A60087778093A60080E09DDF882309F084
:100F9000A7C08091A90080648093A90081E01FDB35
:100FA000882309F09DC08091470187FF4FC0809141
:100FB000AA008F7C80618093AA00209761F52EC0E3
:100FC0008091A9008F7B8093A90081E07CDF88233A
:100FD00009F086C08091F6009091F700009741F4E7
:100FE00000E010E005C08091AF00899301501040EF
:100FF0008091F6009091F700009719F00115110506
:1010000091F78091A90080648093A9008091A60047
:101010008E778093A6000115110591F68091AA00A4
:101020008F7C80628093AA008091A9008F7B80933F
:10103000A90082E048DF882309F052C08091A60011
:101040008B778093A60082E03EDF4AC02097A1F113
:101050008091AA008F7C80628093AA008091A90071
:101060008F7B8093A9001CC02EDF8823C9F5FE0169
:1010700007C08191EF018093AF000150104059F0FB
:10108000EF012091F6003091F7008091270190E068
:101090002817390770F38091A6008B778093A600FC
:1010A00082E00115110501F70EDF8823C9F4809154
:1010B000A90080648093A9008091AA008F7C806140
:1010C0008093AA008091A9008F7B8093A90081E082
:1010D000FADE882329F49091A6009E779093A600CB
:1010E0009091A90090649093A900E114F10429F46F
:1010F00090919E009E7F90939E0091E09093A80017
:101100001092A800DF91CF911F910F91FF90EF9067
:101110000895CF93C82F1092470189E0809348012A
:10112000C093490110924A0110924C0110924B0158
:1011300010924E0110924D011092A70080E090E0B5
:10114000EADE882349F4C0934501CC2311F09BE0EB
:1011500001C09AE090934F01CF910895CF93C09131
:10116000A700CF708091AA001092A7008DDAC093DB
:10117000A700CF910895FC018181843019F4858105
:10118000833011F082E0089580E00895FC018181B0
:10119000813221F0843021F481E0089580E00895C7
:1011A00082E00895FC018181853029F4828186DC0A
:1011B000882319F404C0843021F082E0089580E08F
:1011C000089581E008958F929F92AF92BF92CF923F
:1011D000DF92EF92FF920F931F93CF93DF9300D094
:1011E00000D0CDB7DEB78C017A8369835C834B83F3
:1011F0000F96FC0188E0DF011D928A95E9F7EB81EB
:10120000FC818181823009F097C088249924AA2426
:10121000BB24EE24FF24CC24DD24A114B10451F01E
:10122000CE010196BE016D5F7F4F42ED58E003DEB7
:10123000882351F1C114D104B9F5CE010196BE0144
:101240006D5F7F4F4BEB58E0F6DD882309F076C0E9
:10125000AB80BC80F8018485882331F0D5011796D6
:101260009C911797981749F7CE010196BE016D5FC3
:101270007F4F46EC58E0DFDD882309F05FC08B80AC
:101280009C80EE24FF24C9CFEB81FC81828187FF03
:1012900002C06F0101C07F01C114D10409F4BDCFA8
:1012A000E114F10409F4B9CFF60184819581D801E4
:1012B00012969C938E931197828113968C93139719
:1012C00083E0C82E1496CC92C80161E0C2DB88236B
:1012D000B9F1E114F104A1F0F70184819581D801FD
:1012E00018969C938E931797828119968C931997D1
:1012F0001A96CC92C801069661E0ABDB882301F117
:10130000F5018281D80150968C935097F401878122
:10131000908555969C938E93549781E0D5011696AF
:101320009C911697992309F480E0F801818B88E05D
:10133000868B81E0878704C081E003C082E001C022
:1013400080E00F900F900F900F90DF91CF911F9141
:101350000F91FF90EF90DF90CF90BF90AF909F9054
:101360008F900895CF93DF93FC0180914F018B30D4
:10137000D9F587858823C1F180818F708093A7007C
:101380008091A9008F7B8093A90083898823A9F489
:10139000A585B685A852BC4F8C91882329F0209151
:1013A000AF00EB01299302C0EB0120E08585968513
:1013B000622F40E08ED89C0105C02091F60030914C
:1013C000F700EB01CE01B90140E050E086DA882356
:1013D00061F49091A6009E779093A6009091A90049
:1013E00090649093A90001C082E0DF91CF910895AD
:1013F000FC0180914F018B30A9F487858823A1F0EF
:1014000080818F708093A7008091A9008F7B80934B
:10141000A9008091A60081709091A900906490939A
:10142000A900089580E0089580E00895CF93DF93A8
:10143000EC0189898823F9F0888991E2909347012A
:101440009BE09093480110924A01109249018093C9
:101450004B0110924C0110924E0110924D011092CE
:10146000A70080E090E057DD882331F498E09E8B60
:1014700091E09B8B01C080E8DF91CF91089590911E
:10148000C80095FFFCCF8093CE0080E090E00895E7
:101490008091C80087FF08C08091C80087FF07C0FF
:1014A0008091CE0090E008958EEF9FEF08958FEF2A
:1014B0009FEF0895FC01009751F4E0E5F1E0F0930F
:1014C0005F01E0935E01F0936101E09360018EE0C3
:1014D000DF011D928A95E9F783E083838FE39AE029
:1014E0009187808788E49AE09387828708950F9395
:1014F0001F93CF93DF938C01EB018B8181FF1BC086
:1015000082FF0DC02E813F818C819D812817390774
:1015100064F4E881F9810193F983E88306C0E885E2
:10152000F985802F0995009731F48E819F8101966E
:101530009F838E8302C00FEF1FEFC801DF91CF9111
:101540001F910F910895CF93DF93CDB7DEB7FE01C2
:101550003596619171918091600190916101DC01FA
:1015600013962C911397286013962C93AF0139D0C2
:10157000E0916001F09161012381277F2383DF9156
:10158000CF9108950F931F93CF93DF938C01E09138
:101590006001F0916101838181FF1BC0C0E0D0E058
:1015A00007C00995009711F0CFEFDFEF0F5F1F4FD6
:1015B000F80184916091600170916101DB011896DE
:1015C000ED91FC911997882361F78AE009950097BE
:1015D00011F0CFEFDFEFCE01DF91CF911F910F918F
:1015E00008952F923F924F925F926F927F928F92C7
:1015F0009F92AF92BF92CF92DF92EF92FF920F93A2
:101600001F93CF93DF93CDB7DEB72D970FB6F89426
:10161000DEBF0FBECDBF3C017D876C875A01FC0148
:1016200017821682838181FFBBC12E010894411C61
:10163000511CF3019381EC85FD8593FD859193FF0A
:101640008191FD87EC87882309F4A6C1853241F496
:1016500093FD859193FF8191FD87EC87853221F47D
:1016600090E0B30144DFE5CFFF24EE2410E0103218
:10167000B0F48B3269F08C3228F4803251F083322E
:1016800071F40BC08D3239F0803349F411602CC0F5
:101690001260146029C0186027C0106125C017FDB2
:1016A0002EC0282F20532A3098F416FF08C08F2D03
:1016B000880FF82EFF0CFF0CF80EF20E15C08E2DC1
:1016C000880FE82EEE0CEE0CE80EE20E10620CC055
:1016D0008E3221F416FD60C1106406C08C3611F400
:1016E000106802C0883659F4EC85FD8593FD85911C
:1016F00093FF8191FD87EC87882309F0B8CF982F5D
:101700009554933018F09052933038F424E030E040
:10171000A20EB31E3FE339830FC0833631F0833707
:1017200081F0833509F056C021C0F501808189839D
:1017300022E030E0A20EB31E21E0C22ED12C4201E5
:1017400013C092E0292E312C2A0C3B1CF50180801D
:10175000918016FF03C06F2D70E002C06FEF7FEF26
:10176000C40144D16C0151011F7714C082E0282EBE
:10177000312C2A0C3B1CF5018080918016FF03C0A0
:101780006F2D70E002C06FEF7FEFC40124D16C01B8
:101790001068510113FD1AC005C080E290E0B3014A
:1017A000A6DEEA948E2D90E0C816D906B0F30EC0DE
:1017B000F40117FD859117FF81914F0190E0B3016E
:1017C00096DEE110EA940894C108D108C114D1044E
:1017D00079F7DFC0843611F0893649F5F50117FF36
:1017E00007C080819181A281B38124E030E008C0EC
:1017F00080819181AA2797FDA095BA2F22E030E041
:10180000A20EB31E012F0F76B7FF08C0B095A095AA
:10181000909581959F4FAF4FBF4F0068BC01CD01A0
:10182000A2012AE030E0EDD0D82ED4183EC0853792
:1018300021F41F7E2AE030E020C0197F8F36A9F006
:10184000803720F4883509F0A7C00BC0803721F01D
:10185000883709F0A1C001C0106114FF09C01460ED
:1018600007C014FF08C0166006C028E030E005C0BD
:1018700020E130E002C020E132E0F50117FF07C0AF
:10188000608171818281938144E050E006C0608173
:10189000718180E090E042E050E0A40EB51EA2010C
:1018A000B0D0D82ED418012F0F7706FF09C00E7FB5
:1018B000DF1430F404FF06C002FD04C00F7E02C036
:1018C0001D2D01C01F2D802F90E004FF0CC0FE01D4
:1018D000ED0DF11D2081203311F4097E09C002FFB6
:1018E00006C01E5F05C086789070009709F01F5FE4
:1018F000802E992403FD11C000FF0CC0FD2C1E1585
:1019000048F4FE0CF11A1E2D05C080E290E0B301F0
:10191000EEDD1F5F1E15C8F304C01E1510F4E11A9A
:1019200001C0EE2484FE0EC080E390E0B301DFDD51
:1019300082FE1DC081FE03C088E590E010C088E7EC
:1019400090E00DC0C40186789070009781F081FC12
:1019500002C080E201C08BE207FD8DE290E0B3019E
:10196000C6DD05C080E390E0B301C1DDFA94DF1469
:10197000C8F3DA94F201ED0DF11D808190E0B3011E
:10198000B6DDDD20B1F705C080E290E0B301AFDD48
:10199000EA94EE20C9F74DCEF3018681978102C00B
:1019A0008FEF9FEF2D960FB6F894DEBF0FBECDBF21
:1019B000DF91CF911F910F91FF90EF90DF90CF902B
:1019C000BF90AF909F908F907F906F905F904F905F
:1019D0003F902F900895FC010590615070400110D8
:1019E000D8F7809590958E0F9F1F0895FC01615048
:1019F000704001900110D8F7809590958E0F9F1F31
:101A00000895FA01AA27283051F1203181F1E89494
:101A10006F936E7F6E5F7F4F8F4F9F4FAF4FB1E0E1
:101A20003ED0B4E03CD0670F781F891F9A1FA11DDC
:101A3000680F791F8A1F911DA11D6A0F711D811DDD
:101A4000911DA11D20D009F468943F912AE0269FA2
:101A500011243019305D3193DEF6CF010895462F01
:101A60004770405D4193B3E00FD0C9F7F6CF462FE2
:101A70004F70405D4A3318F0495D31FD405241934B
:101A800002D0A9F7EACFB4E0A69597958795779508
:101A90006795BA95C9F700976105710508959B018F
:101AA000AC010A2E06945795479537952795BA9518
:101AB000C9F7620F731F841F951FA01D0895F89426
:021AC000FFCF56
:101AC200810000000001020000000001010000008E
:101AD2000000000000000080060001000008000075
:101AE2000501000000000040800800000000010025
:101AF20000C033000000000200403500000000007A
:021B02000000E1
:00000001FF
