:10000000B9C00000D5C00000D3C00000D1C00000BE
:10001000CFC00000CDC00000CBC00000C9C00000B0
:10002000C7C00000C5C00000B4C300007FC400000A
:10003000BFC00000BDC00000BBC00000B9C00000D0
:10004000B7C00000B5C00000B3C00000B1C00000E0
:10005000AFC00000ADC00000ABC00000A9C00000F0
:10006000A7C00000A5C00000A3C00000A1C0000000
:100070009FC000009DC000009BC0000099C0000010
:1000800097C0000095C0000093C0000091C0000020
:100090008FC000008DC000001C034C0055004600BE
:1000A000410020004400750061006C002000430006
:1000B000440043002000440065006D006F00000014
:1000C00018034400650061006E00200043006100D9
:1000D0006D0065007200610000000403090409025C
:1000E0008300040100C032080B0002020201000973
:1000F0000400000102020100052400100104240292
:10010000060524060001070583030800FF09040112
:1001100000020A0000000705020210000507058121
:1001200002100005080B020202020100090402008D
:100130000102020100052400100104240206052426
:10014000060203070586030800FF09040300020AEC
:1001500000000007050502100005070584021000D5
:100160000512011001EF020108EB034E200100010E
:1001700002DC010011241FBECFEFD0E2DEBFCDBFF5
:1001800011E0A0E0B1E0E4EEFFE000E00BBF02C050
:1001900007900D92A839B107D9F71BBE11E0A8E965
:1001A000B1E001C01D92A63AB107E1F75FD018C7D0
:1001B00027CF9BB19F70982B9BB9089584B7877FF9
:1001C00084BF88E10FB6F8948093600010926000BD
:1001D0000FBE90E080E80FB6F89480936100909392
:1001E00061000FBE84B18F7184B98DB18F7C8DB9E0
:1001F00085B1806E85B98EB180638EB98AB1806F0A
:100200008AB98BB18F708BB9A9C223B18CB180959B
:1002100090E080739070959587952095207E282B8F
:1002200027FD0BC024FD0CC026FD0DC023FD0EC014
:1002300025FD0FC010929801089560E071E00BC099
:100240006EE071E008C06EE171E005C06EE271E041
:1002500002C06FE371E080919801882331F481E05E
:10026000809398018DE691E0F4C50895A7DF80E1C1
:10027000A0DF7894CADF8DE691E07CD682E591E03C
:1002800079D6BC0197FD03C082E591E004D68DE6E6
:1002900091E058D682E591E055D6EED4EBCF80EAD6
:1002A00088CF80E186CFCF938DE691E0AED5C82F81
:1002B00082E591E0AAD5282F30E08C2F90E028230A
:1002C00039232115310511F080E601C080E971DF85
:1002D000CF9108958DE691E0EBD482E591E0E8C4FA
:1002E000923029F0933041F09130E9F417C083E85F
:1002F00090E0EEEDF0E01BC0813041F0813018F06D
:10030000823089F406C0EAEDF0E005C0E0ECF0E0F0
:1003100002C0E8E9F0E0849190E009C082E190E059
:10032000E1E6F1E004C080E090E0E0E0F0E0DA0136
:100330001196FC93EE930895AF92BF92CF92DF9205
:10034000EF92FF921F93CF93DF93EC017B016A0141
:100350008DD1182F8823A1F5C114D10439F0F601ED
:1003600020813181E21AF30AC20FD31FAA24BB24D1
:1003700022C08091E80085FD15C08091E8008E774D
:100380008093E800C114D10449F0F6018081918185
:100390008A0D9B1D9183808315E012C067D188234D
:1003A00051F00DC089918093F1000894E108F108A3
:1003B0000894A11CB11CE114F104D9F601C0182F56
:1003C000812FDF91CF911F91FF90EF90DF90CF9021
:1003D000BF90AF9008952091A4013091A5012617F8
:1003E000370720F4B901FC0120E037C06115710521
:1003F000D1F72091E8002E772093E800F4CF809188
:100400009D01882309F43FC08530C9F18091E8003F
:1004100083FD37C08091E80082FD2BC08091E80009
:1004200080FF1BC08091F2009091F30006C02191E3
:100430002093F1006150704001966115710519F02B
:1004400088309105A0F321E08830910509F020E083
:100450008091E8008E778093E8006115710579F648
:10046000222369F606C080919D01882361F08530C2
:1004700061F08091E80082FFF6CF80E0089583E08C
:10048000089581E0089582E0089583E00895209121
:10049000A4013091A5012617370720F4B901FC010A
:1004A00020E038C061157105D1F72091E8002E7762
:1004B0002093E800F4CF80919D01882309F440C087
:1004C0008530D1F18091E80083FD38C08091E8004B
:1004D00082FD2CC08091E80080FF1CC08091F2005A
:1004E0009091F30007C024912093F1003196615060
:1004F000704001966115710519F08830910598F3E7
:1005000021E08830910509F020E08091E8008E77A5
:100510008093E8006115710571F6222361F606C02B
:1005200080919D01882361F0853061F08091E80021
:1005300082FFF6CF80E0089583E0089581E008957A
:1005400082E0089583E00895982F2AC09093E900EF
:10055000981739F07091EC002091ED005091F00067
:1005600003C0242F762F50E021FF19C03091EB00FB
:100570003E7F3093EB003091ED003D7F3093ED00F6
:100580003091EB0031603093EB007093EC002093DE
:10059000ED005093F0002091EE0027FF08C09F5F10
:1005A0009730A0F28F708093E90081E0089580E099
:1005B00008950F931F93CF93DF93162FEC0100E064
:1005C0002AC09881992329F16B81E981FA812C81D4
:1005D000892F8F70873018F56295660F660F607CE3
:1005E000991F9927991F692B223010F096E001C0BE
:1005F00092E028E030E040E003C04F5F220F331F5D
:100600002E173F07D0F34295407F492B9DDF88236B
:1006100031F00F5F25960117A1F681E001C080E05F
:10062000DF91CF911F910F91089580919E0187FFD7
:1006300013C004C080919D018823B9F08091E80027
:1006400082FFF8CF8091E8008B778093E8000895CF
:1006500080919D01882349F08091E80080FFF8CFC8
:100660008091E8008E778093E80008958091E400FF
:100670009091E50045E601C0C9012091EC0020FF02
:1006800023C02091E80020FD15C020919D01222368
:1006900099F0253099F02091EB0025FD11C02091B3
:1006A000E4003091E5002817390739F3415021F76C
:1006B00084E0089580E0089582E0089583E008953D
:1006C00081E0089580E008952091E80022FFDDCFC9
:1006D000F9CF0F931F93CF93DF934ED055D0C8ED32
:1006E000D0E088818F77888388818068888388813B
:1006F0008F7D8883E7EDF0E080818068808319BC7E
:1007000010929D011092990110929B0110929A01F2
:1007100000EE10E0F80180818B7F8083888181600A
:10072000888380E060E042E00FDFE1EEF0E080816E
:100730008E7F8083E2EEF0E0808181608083808123
:1007400088608083F80180818E7F808388818061CA
:100750008883DF91CF911F910F910895E8EDF0E02C
:1007600080818F7E8083E7EDF0E0808181608083EF
:1007700081E080939C01ADCFE8EDF0E080818C7F3B
:1007800080831092E20008951092DA001092E10046
:1007900008951F920F920FB60F920BB60F9211246D
:1007A0002F933F934F935F936F937F938F939F9379
:1007B000AF93BF93EF93FF938091E10082FF0AC054
:1007C0008091E20082FF06C08091E1008B7F8093E0
:1007D000E10051D28091DA0080FF1DC08091D800E5
:1007E00080FF19C08091DA008E7F8093DA008091BB
:1007F000D90080FF0CC08CE089BD8EE089BD09B4B2
:1008000000FEFDCF81E080939D0149DD04C019BC4D
:1008100010929D0146DD8091E10080FF18C080911B
:10082000E20080FF14C08091E2008E7F8093E2009E
:100830008091E20080618093E2008091D800806224
:100840008093D80019BC85E080939D0114D28091DB
:10085000E10084FF2DC08091E20084FF29C08CE07C
:1008600089BD8EE089BD09B400FEFDCF8091D8001E
:100870008F7D8093D8008091E1008F7E8093E1008E
:100880008091E2008F7E8093E2008091E20081609F
:100890008093E20080919901882321F48091E30004
:1008A00087FF02C084E001C081E080939D01E3D115
:1008B0008091E10083FF27C08091E20083FF23C085
:1008C0008091E100877F8093E10082E080939D0129
:1008D000109299018091E1008E7F8093E1008091D8
:1008E000E2008E7F8093E2008091E200806180933D
:1008F000E20080E060E042E027DE8091F000886066
:100900008093F000B8D1FF91EF91BF91AF919F918B
:100910008F917F916F915F914F913F912F910F90A8
:100920000BBE0F900FBE0F901F9018951F920F9245
:100930000FB60F920BB60F9211242F933F934F9344
:100940005F936F937F938F939F93AF93BF93CF9357
:10095000EF93FF93C091E900CF708091EC0010926B
:10096000E9008091F000877F8093F00078941DD09B
:100970001092E9008091F00088608093F000C093AD
:10098000E900FF91EF91CF91BF91AF919F918F912E
:100990007F916F915F914F913F912F910F900BBE7F
:1009A0000F900FBE0F901F9018951F93CF93DF935A
:1009B000CDB7DEB7AC970FB6F894DEBF0FBECDBF94
:1009C00080E0EEE9F1E09091F10091938F5F883043
:1009D000D1F780DC8091E80083FF35C180919E01D2
:1009E00020919F01253009F484C0263040F4213045
:1009F000A1F1213070F0233009F025C12EC028303C
:100A000009F4F3C0293009F402C1263009F01BC1F2
:100A100093C0803821F0823809F015C108C0809158
:100A20009A0190919B01992371F082600CC0809192
:100A3000A2018F708093E9009091EB0081E095FF17
:100A400080E01092E9009091E800977F9093E80091
:100A50008093F1001092F100D3C0882319F0823006
:100A600009F0F1C090E08F719070009729F082300A
:100A7000910509F0E8C00BC08091A001813009F018
:100A8000E2C0233009F080E080939B012CC080916C
:100A9000A001882341F52091A2012F7009F4D3C051
:100AA0002093E9008091EB0080FF1DC080919F01A1
:100AB000833021F48091EB00806213C08091EB00C1
:100AC00080618093EB0081E090E002C0880F991F65
:100AD0002A95E2F78093EA001092EA008091EB00F9
:100AE00088608093EB001092E9008091E800877F96
:100AF0008AC0882309F0A7C01091A0011F778091B8
:100B0000E3008078812B8093E3008091E800877F69
:100B10008093E8008ADD8091E80080FFFCCF80911F
:100B2000E30080688093E300112311F083E001C0AB
:100B300082E080939D0187C08058823008F083C096
:100B40008091A0019091A10123E08C3D9207A9F52D
:100B500083E08C838AE28B835FB7F894DE0113967F
:100B600080E090E04EE061E2E42FF0E06093570017
:100B7000E49180FF03C0E295EF704F5FEF702E2F7E
:100B800030E0EA3018F0295C3F4F02C0205D3F4F53
:100B900013963C932E9312970196129684319105E9
:100BA00019F75FBF8091E800877F8093E800CE014E
:100BB00003966AE270E00FDC12C06091A201AE0100
:100BC0004F5F5F4F8DDBBC01009709F43CC0809103
:100BD000E800877F8093E80089819A8158DC8091C2
:100BE000E8008B778093E8002EC0803861F5809113
:100BF000E800877F8093E800809199018093F1005D
:100C00008091E8008E778093E8000FDD1CC0882378
:100C1000D1F49091A0019230B0F48091E800877FE8
:100C20008093E8009093990100DD809199018823D9
:100C300021F48091E30087FF02C084E001C081E0DD
:100C400080939D0130DB8091E80083FF0AC0809192
:100C5000E800877F8093E8008091EB0080628093BA
:100C6000EB00AC960FB6F894DEBF0FBECDBFDF91A0
:100C7000CF911F9108950895CF9380919D0188236E
:100C8000A9F08091E9008F709091EC0090FF02C074
:100C9000C0E801C0C0E0C82B1092E9008091E800D4
:100CA00083FF01C082DECF70C093E900CF91089529
:100CB000CF93DF93EC018091E80083FFA3C088818C
:100CC00090E02091A2013091A3012817390709F083
:100CD00099C080919F01813269F0823220F4803284
:100CE00009F090C03CC0823209F46BC0833209F035
:100CF00089C07AC080919E01813A09F083C08091B9
:100D0000E800877F8093E8008091E80080FFFCCFB7
:100D10008C899D89AE89BF898093F100492F5A2F14
:100D20006B2F77274093F100AD016627772740931B
:100D3000F1008B2F9927AA27BB278093F100888D7C
:100D40008093F100898D8093F1008A8D8093F1006A
:100D50008091E8008E778093E80067DC53C0809133
:100D60009E01813209F04EC08091E800877F809318
:100D7000E80005C080919D01882309F443C080915B
:100D8000E80082FFF7CF3091F1002091F1009091BF
:100D9000F1008091F1003C8B2D8B9E8B8F8B80918D
:100DA000F100888F8091F100898F8091F1008A8F06
:100DB0008091E8008B778093E80037DCCE010FD17B
:100DC00021C080919E018132E9F48091E800877F03
:100DD0008093E8002ADC8091A0019091A101998B79
:100DE000888BCE01FCD00EC080919E01813251F4DF
:100DF0008091E800877F8093E80017DCCE01609146
:100E0000A001EDD0DF91CF910895CF93DF93EC0156
:100E10004096FC018BE0DF011D928A95E9F782E0A4
:100E20008C83898783E08E87CE01019661E0C1DBE8
:100E3000882359F0CE01069661E0BBDB882329F0B8
:100E4000CE010B9661E0B5DB01C080E0DF91CF9170
:100E50000895FC01CB0120919D012430C1F4448907
:100E6000558966897789411551056105710589F0B4
:100E700021812F702093E900FC0101900020E9F707
:100E80003197E81BF90BBF0140E050E055CA82E002
:100E9000089582E00895CF93FC01C62F80919D01B3
:100EA0008430E9F44489558966897789411551056B
:100EB00061057105A1F081818F708093E9008091B7
:100EC000E80085FD08C08091E8008E778093E800F7
:100ED000CDDB882329F4C093F10080E001C082E0DB
:100EE000CF910895FC0180919D01843029F54489BA
:100EF0005589668977894115510561057105E1F0CC
:100F000081818F708093E9008091F2009091F300CD
:100F10000097A1F09091E8008091E8008E7780938F
:100F2000E80095FD0DC0A2DB882359F49091E800FC
:100F30009E779093E800089582E0089580E00895F8
:100F400080E0089520919D01243099F4FC014489AA
:100F5000558966897789411551056105710549F003
:100F600021812F702093E9002091E80020FF01C02B
:100F7000B9CF0895FC0180919D01843051F54489D9
:100F8000558966897789411551056105710509F112
:100F900086818F708093E9008091E80082FF1CC0F9
:100FA0008091F2009091F300009721F08091F10080
:100FB00090E002C08FEF9FEF2091F2003091F3009C
:100FC0002115310559F42091E8002B772093E80092
:100FD00008958FEF9FEF08958FEF9FEF0895089585
:040FE000F894FFCFB3
:100FE4004A6F79737469636B2055700D0A004A6FF8
:100FF40079737469636B20446F776E0D0A004A6FCE
:1010040079737469636B204C6566740D0A004A6FCA
:1010140079737469636B2052696768740D0A004AB6
:101024006F79737469636B20507265737365640DB3
:101034000A00028410000001051000000186080067
:10104400000100000000000000000000000081100A
:1010540000000102100000018308000001000000EC
:101064000000000000000000A120000000000200B9
:08107400A101000000000000D2
:00000001FF
