:1000000034C1000051C100004FC100004DC10000CB
:100010004BC1000049C1000047C1000045C10000BC
:1000200043C1000041C100000C94B5093DC100006E
:100030003BC1000039C1000037C1000035C10000DC
:1000400033C1000031C100002FC100002DC10000EC
:100050002BC1000029C1000027C1000025C10000FC
:1000600023C1000021C100001FC100001DC100000C
:100070001BC1000019C1000017C1000015C100001C
:1000800013C1000011C100000FC100000DC100002C
:100090000BC1000009C100001B5B33366D4D6F754D
:1000A000736520486F73742F4465766963652044D7
:1000B000656D6F2072756E6E696E672E0D0A1B5B23
:1000C00033376D001B5B33336D5549442043686102
:1000D0006E676520746F202553206D6F64650D0A6F
:1000E0001B5B33376D0044657669636500486F7349
:1000F000740020034C0055004600410020004D00D4
:100100006F007500730065002000440065006D00FD
:100110006F00000018034400650061006E002000BD
:10012000430061006D00650072006100000004037F
:10013000090409022200010100C032090400000183
:1001400003010200092111010001223A0007058183
:10015000030800051201100100000008EB03412014
:1001600000000102000105010902A1010901A1002D
:10017000050919012903150025019503750181025F
:1001800095017505810105010930093116FFFF262A
:10019000010036FFFF460100950275088106C0C0C8
:1001A0004465766963652041747461636865642E93
:1001B0000D0A000D0A44657669636520556E617409
:1001C0007461636865642E0D0A001B5B33316D48F2
:1001D0006F7374204D6F6465204572726F720D0AE3
:1001E000202D2D204572726F7220436F646520258B
:1001F000640D0A1B5B33376D001B5B33316D446547
:100200007620456E756D204572726F720D0A202D35
:100210002D204572726F7220436F64652025640D36
:100220000A202D2D20537562204572726F72204373
:100230006F64652025640D0A202D2D20496E205302
:10024000746174652025640D0A1B5B33376D00648F
:10025000583A2532642064593A2532642042757434
:10026000746F6E3A25640D0A000011241FBECFEF93
:10027000D0E2DEBFCDBF12E0A0E0B1E0E4E5FBE2FA
:1002800000E00BBF02C007900D92AC30B107D9F768
:100290001BBE12E0ACE0B2E001C01D92A633B10774
:1002A000E1F740D00C94A815ABCE84B7877F84BF0C
:1002B00028E10FB6F89420936000109260000FBE02
:1002C00090E080E80FB6F89480936100909361000D
:1002D0000FBE83E390E09093CD008093CC0086E046
:1002E0008093CA001092C8002093C900539A5A9A6A
:1002F0008AB1806F8AB98BB18F708BB984B18F71DD
:1003000084B98DB18F7C8DB985B1806E85B98EB180
:1003100080638EB96A98729A83E0E9D780E090E0B2
:100320000C945812C2DF88E990E00E94DF128BB172
:100330008F7080618BB9789480911202823011F4B1
:100340006BD104C080E091E00E94EC0F0E94680E27
:10035000F3CF80911202813019F486EE90E002C052
:100360008DEE90E000D000D024EC30E0EDB7FEB789
:1003700032832183948383830E9492128BB18F7086
:1003800080618BB90F900F900F900F90089593306C
:1003900089F0943028F4913049F1923061F505C02C
:1003A0009132D1F0923239F51CC082E290E0E2E362
:1003B000F1E025C0813041F0813018F08230D9F46D
:1003C00006C0EEE2F1E005C0E4E1F1E002C0E2EFD8
:1003D000F0E0849190E013C089E090E0E4E4F1E083
:1003E0000EC08AE390E0E6E6F1E009C082E190E029
:1003F000E4E5F1E004C080E090E0E0E0F0E0DA0164
:100400001196FC93EE9308959BB19F70982B9BB926
:10041000089580EAF9CF80E1F7CF80E6F5DF80E04C
:1004200091E00E94D20F882311F480E9EDDF8091E2
:10043000E20084608093E200089580E091E00C94F3
:10044000980E80910E0190910F01009729F001976D
:1004500090930F0180930E0108950F931F93F9015C
:10046000D80123B18CB1809590E080739070959500
:1004700087952095207E282B8CB18095847027FF4E
:1004800002C09FEF03C024FF02C091E0928323FFCC
:1004900002C091E003C026FF02C09FEF918325FFB9
:1004A00003C0908191609083882319F080818260DD
:1004B000808383E090E011969C938E9381E01F915E
:1004C0000F91089508959BB19F70982B9BB9089543
:1004D00080EA91E00E94DF1280EAF5CF83EB91E0A1
:1004E0000E94DF1280E1EFCFCF93DF93CDB7DEB76D
:1004F000C250D2400FB6F894DEBF0FBECDBF80EA27
:10050000E2DF81E0BE016F5F7F4FAE014D5F5F4F65
:1005100020E032E00E94130B882319F080E191E083
:100520001EC069817A818BEB91E0AE014D5F5F4F18
:100530000E94DD10882319F08CE391E010C081E067
:100540000E94430E882319F080E691E008C08BEBEF
:1005500091E00E941412882331F085E891E00E9416
:10056000B11280E905C088EA91E00E94B11280E6EC
:10057000AADFCE5FDD4F0FB6F894DEBF0FBECDBF52
:10058000DF91CF910895CF93DF930F92CDB7DEB770
:10059000898304D600D000D0EDB7FEB731962AEC9F
:1005A00031E0ADB7BEB712963C932E931197898177
:1005B000828313820E9492120F900F900F900F90DF
:1005C00080E981DFFFCF909121022DB73EB72850FF
:1005D00030400FB6F8943EBF0FBE2DBFEDB7FEB74B
:1005E000319629EF31E0ADB7BEB712963C932E930A
:1005F00011978283138264831582968317820E94E7
:1006000092122DB73EB7285F3F4F0FB6F8943EBF0A
:100610000FBE2DBF80E957CFCF93DF9300D00F924D
:10062000CDB7DEB7809121028B3009F050C08BEB43
:1006300091E00E94F611882309F449C08BEB91E008
:10064000BE016F5F7F4F0E94AE112DB73EB728509D
:1006500030400FB6F8943EBF0FBE2DBFEDB7FEB7CA
:1006600031968FE492E0ADB7BEB712969C938E930D
:1006700011978A81992787FD9095938382838B8137
:10068000992787FD90959583848389818683178236
:100690000E9492128A812DB73EB7285F3F4F0FB656
:1006A000F8943EBF0FBE2DBF18161CF0882321F012
:1006B00002C080E101C080E29B81191614F48068B9
:1006C00002C0911180649981911180EFFCDE0F903E
:1006D0000F900F90DF91CF9108959C0180E090E002
:1006E00050E0440F551F420F531FFA01E80FF91F46
:1006F000EF56FC4FA081B181F901E80FF91FE057D7
:10070000FC4F7081761791F4CD018770907021E0D5
:1007100030E0009711F420E030E0CD01E3E0969561
:100720008795EA95E1F7820F931F0895079686341F
:100730009105D9F680E090E00895AF92BF92CF92F4
:10074000DF92EF92FF921F93CF93DF93EC017B0137
:100750006A01D8D1182F8823B1F5C114D10439F01A
:10076000F60120813181E21AF30AC20FD31FAA24B5
:10077000BB2424C08091E80085FD17C08091E8006B
:100780008E778093E8000E94680EC114D10449F06E
:10079000F601808191818A0D9B1D9183808315E0F4
:1007A00012C0B0D1882351F00DC089918093F1001F
:1007B0000894E108F1080894A11CB11CE114F104AB
:1007C000C9F601C0182F812FDF91CF911F91FF90A3
:1007D000EF90DF90CF90BF90AF90089520911F02CF
:1007E000309120022617370720F4B901FC0120E0E0
:1007F00037C061157105D1F72091E8002E7720935D
:10080000E800F4CF80911802882309F43FC08530B6
:10081000C9F18091E80083FD37C08091E80082FD36
:100820002BC08091E80080FF1BC08091F200909166
:10083000F30006C021912093F100615070400196B1
:100840006115710519F088309105A0F321E0883019
:10085000910509F020E08091E8008E778093E80010
:100860006115710579F6222369F606C08091180298
:10087000882361F0853061F08091E80082FFF6CF37
:1008800080E0089583E0089581E0089582E008956E
:1008900083E008956115710529F42091E8002B7714
:1008A0002093E800382F292F26C080911802882332
:1008B000B1F1853081F18091E80083FD2EC08091F7
:1008C000E80082FFF2CFE32FF22F08C08091F10001
:1008D00081933E2F2F2F6150704041F03E2F2F2FDC
:1008E0008091F2009091F300009781F78091E800E9
:1008F0008B778093E80061157105B9F606C0809189
:100900001802882361F0853061F08091E80080FF53
:10091000F6CF80E0089583E0089581E0089582E0B5
:10092000089583E0089520911F0230912002261738
:10093000370720F4B901FC0120E038C061157105CA
:10094000D1F72091E8002E772093E800F4CF809132
:100950001802882309F440C08530D1F18091E80065
:1009600083FD38C08091E80082FD2CC08091E800B2
:1009700080FF1CC08091F2009091F30007C0249189
:100980002093F10031966150704001966115710518
:1009900019F08830910598F321E08830910509F02D
:1009A00020E08091E8008E778093E8006115710562
:1009B00071F6222361F606C080911802882361F047
:1009C000853061F08091E80082FFF6CF80E00895E5
:1009D00083E0089581E0089582E0089583E008951A
:1009E000982F2AC09093E900981739F07091EC0085
:1009F0002091ED005091F00003C0242F762F50E09D
:100A000021FF19C03091EB003E7F3093EB00309115
:100A1000ED003D7F3093ED003091EB00316030937D
:100A2000EB007093EC002093ED005093F0002091C8
:100A3000EE0027FF08C09F5F9730A0F28F70809371
:100A4000E90081E0089580E008950F931F93CF930C
:100A5000DF93162FEC0100E02AC09881992329F139
:100A60006B81E981FA812C81892F8F70873018F58D
:100A70006295660F660F607C991F9927991F692BF5
:100A8000223010F096E001C092E028E030E040E033
:100A900003C04F5F220F331F2E173F07D0F342953D
:100AA000407F492B9DDF882331F00F5F259601178A
:100AB000A1F681E001C080E0DF91CF911F910F91FD
:100AC00008958091190287FF13C004C08091180215
:100AD0008823B9F08091E80082FFF8CF8091E80088
:100AE0008B778093E800089580911802882349F05D
:100AF0008091E80080FFF8CF8091E8008E778093A6
:100B0000E80008958091E4009091E50045E601C079
:100B1000C9012091EC0020FF23C02091E80020FDB6
:100B200015C020911802222399F0253099F02091C8
:100B3000EB0025FD11C02091E4003091E50028175D
:100B4000390739F3415021F784E0089580E0089592
:100B500082E0089583E0089581E0089580E008959B
:100B60002091E80022FFDDCFF9CF80919E0090E038
:100B7000817090702091A0002D7F2093A000209183
:100B80009E00226020939E0020919E0021FDFCCFBC
:100B900020919E00216020939E00109216022091C9
:100BA000A00030E0207230704091A0004F7D409353
:100BB000A00040919F004F7D40939F004AE05091DC
:100BC0009F0055FF0BC040919F004F7D40939F00B9
:100BD00040919F004D7F40939F0008C0EFECF7E0ED
:100BE0003197F1F700C00000415049F72115310558
:100BF00029F02091A00020622093A000009729F402
:100C000080919E008E7F80939E008091A0008260E4
:100C10008093A000089540919E0050E04170507074
:100C20002091A00030E0207230709091A0009F7D54
:100C30009093A00090919F009F7D90939F00909132
:100C40009E00916090939E002AC090919F0095FF16
:100C500006C090919F009F7D90939F00815090913E
:100C600021029130F9F0909112029230D9F49091D2
:100C7000A60094FF09C01092F5008091A6008F7E17
:100C80008093A60082E00FC09091A60091FF07C05C
:100C90008091A6008D7F8093A60083E004C0882306
:100CA000A1F601C081E04115510529F490919E0003
:100CB0009E7F90939E002115310529F09091A00010
:100CC00090629093A00008950F931F93CF93DF93AA
:100CD000CDB7DEB728970FB6F894DEBF0FBECDBFF5
:100CE00080912102853009F499C0863068F4823001
:100CF000C1F1833018F48823A1F004C18330D9F105
:100D0000843009F0FFC062C0873009F49EC087308C
:100D100008F48FC0883009F4B8C0893009F0F2C0F7
:100D2000D9C000910F02109110020115110509F4AC
:100D3000E9C081E070DF682F882331F080911102D3
:100D40008093210281E0D2C0015010401093100224
:100D500000930F020115110509F0D4C08091110212
:100D600007C088EE93E09093100280930F0283E017
:100D700080932102C7C080910F02909110029C01C4
:100D8000215030403093100220930F02009739F029
:100D90008FEC97E00197F1F700C00000B3C077989F
:100DA0008091D80080618093D8008091DD008B7F96
:100DB0008093DD008091D70080618093D70080917F
:100DC000DD0082608093DD0084E0D2CF80919F00BF
:100DD00080FF98C080919F008E7F80939F008091BC
:100DE0009F008D7F80939F008091DF008D7F809397
:100DF000DF008091DE0082608093DE0080919E00A3
:100E0000816080939E0066D11092210284E690E07A
:100E10009093100280930F0285E059C0A6DE1092D5
:100E2000210288EC90E09093100280930F0286E0FC
:100E30004EC080E060E040E020E430E001E0C4D05B
:100E4000882309F44FC087E093CFA9E1B2E0E2ED37
:100E5000F1E088E001900D928150E1F71092A70037
:100E6000CE01019612D6682F882309F03EC08885EE
:100E70008093E2017ADE1092210288EC90E0909358
:100E8000100280930F0288E022C02091E20180E0EE
:100E900060E040E030E001E097D0882319F1A9E15B
:100EA000B2E0EAEDF1E088E001900D928150E1F7C7
:100EB00080E090E0EAD5682F8823B9F410922102EF
:100EC00084E690E09093100280930F0289E0809373
:100ED000110218C081E08093A1008AE08093210272
:100EE00003DB10C060E084E001C083E09091210248
:100EF000913041F068DB8091DD0081608093DD00FE
:100F0000EDDA66D128960FB6F894DEBF0FBECDBFDE
:100F1000DF91CF911F910F910895AF92BF92CF9221
:100F2000DF92FF920F931F93CF93DF935C01EB014E
:100F30006A018091AA008F7C80618093AA0000D111
:100F4000F82E8823B1F5C114D10441F0F6010081D7
:100F50001181C01BD10B0A0D1B1D01C08501AA24E4
:100F6000BB2423C08091A60085FD16C08091A600F9
:100F70008E778093A600C114D10451F0F6018081D0
:100F800091818A0D9B1D9183808364E0F62E11C0B0
:100F9000D7D0882351F00CC08091AF00F801819325
:100FA0008F0121970894A11CB11C2097D9F601C08C
:100FB000F82E8F2DDF91CF911F910F91FF90DF9031
:100FC000CF90BF90AF9008950F93582F5F7087FF19
:100FD00002C080E101C080E2573008F057C06623AC
:100FE00009F480E04F706295660F660F607C642B99
:100FF000682B452F02604093A7004517A9F404C051
:101000007F5F880F991F03C088E090E070E082172F
:10101000930710F47530A1F7872F8295807F802B7E
:10102000F62F70E0E0E008C0F091AA008091AB00DC
:10103000E091AD007091AE0081FF20C09091A900B9
:101040009E7F9093A9009091AB009D7F9093AB0001
:101050009091A90091609093A900F093AA008093C9
:10106000AB00E093AD007093AE008091A900806268
:101070008093A9008091AC0087FF08C04F5F473084
:1010800009F0B9CF5093A70081E001C080E00F9133
:101090000895FF920F931F93CF93DF93162FEC01C8
:1010A000FF240DC08881882341F029813A816C8119
:1010B0004B810D8189DF882331F0F3942696F11658
:1010C00089F781E001C080E0DF91CF911F910F91FE
:1010D000FF9008951092F80080E08093A70010928E
:1010E000AE001092A6001092AB009091A9009E7FD6
:1010F0009093A9008F5F873081F708954091A700F2
:101100009091AA0090E09093A7002091AC0027FF57
:101110000CC03091AA00532F5F7030FF02C020E056
:1011200001C020E8252B281749F09F5F973059F719
:10113000842F8F708093A70080E0089581E0089548
:101140008091A2009091A30045E601C0C9012091C1
:10115000AA002073203129F42091A60020FF05C0A9
:1011600017C02091A60022FD13C02091A60021FDEA
:1011700011C020912102213079F02091A2003091FC
:10118000A3002817390719F3415001F783E00895A8
:1011900080E0089581E0089582E00895D1D0DCD008
:1011A000E0EEF0E0808181608083E8EDF0E0808116
:1011B0008F77808319BCA7EDB0E08C918E7F8C93E4
:1011C00080818F7E80831092120210921702089500
:1011D000CF93C091D700B4D0BFD08091D8008F7783
:1011E0008093D8008091D80080688093D800C6FF93
:1011F00005C08091D80082608093D8008091D8008B
:101200008F7D8093D80080911202813061F58091AA
:10121000D70080688093D70019BC109218021092F2
:10122000130210921502109214028091E0008B7F3D
:101230008093E0008091D80081608093D80080E0A6
:1012400060E042E0CDDB8091E1008E7F8093E100A1
:101250008091E20081608093E2008091E2008860EA
:101260008093E20038C0809112028230C9F58091EB
:10127000D7008F778093D7008CE089BD8EE089BD41
:1012800009B400FEFDCF81E0809321021092160286
:1012900080E48093E2018091D80080648093D8003C
:1012A0008091DD0081608093DD008091DD008460AD
:1012B0008093DD008091D7008F7E8093D7006F9A56
:1012C000779A8091DE0081608093DE008091DE005D
:1012D00084608093DE008091E0008E7F8093E00048
:1012E0008091D80080618093D800CF91089590912B
:1012F000D8009F7E9093D8009091D70091609093F2
:10130000D700833091F48091D70080648093D70018
:101310008091D80082608093D8008091D90081FFAD
:1013200002C081E007C082E005C09091D7009F7B9A
:101330009093D7008093120281E08093170248CFE8
:10134000E8EDF0E080818C7F80831092DE001092C7
:10135000A0001092E20008951092DA001092DF00CF
:1013600010929F001092E10008951F920F920FB605
:101370000F920BB60F9211242F933F934F935F93CD
:101380006F937F938F939F93AF93BF93EF93FF934D
:101390008091E10082FF0AC08091E20082FF06C0D6
:1013A0008091E1008B7F8093E1004BD88091DA003F
:1013B00080FF1DC08091D80080FF19C08091DA00A5
:1013C0008E7F8093DA008091D90080FF0CC08CE082
:1013D00089BD8EE089BD09B400FEFDCF81E0809318
:1013E000180217D804C019BC1092180214D88091A2
:1013F000E10080FF18C08091E20080FF14C080915E
:10140000E2008E7F8093E2008091E2008061809311
:10141000E2008091D80080628093D80019BC85E0FA
:101420008093180209D38091E10084FF2DC0809140
:10143000E20084FF29C08CE089BD8EE089BD09B43B
:1014400000FEFDCF8091D8008F7D8093D8008091E1
:10145000E1008F7E8093E1008091E2008F7E809397
:10146000E2008091E20081608093E20080911302AB
:10147000882321F48091E30087FF02C084E001C04B
:1014800081E080931802D8D28091E10083FF22C0CE
:101490008091E20083FF1EC08091E100877F8093EE
:1014A000E10082E080931802109213028091E10023
:1014B0008E7F8093E1008091E2008E7F8093E20036
:1014C0008091E20080618093E20080E060E042E091
:1014D00087DAB2D280919F0085FF0AC08091A00078
:1014E00085FF06C080919F008F7D80939F00A4D2CE
:1014F00080919F0081FF16C08091A00081FF12C0E3
:1015000080919F008D7F80939F0080919F008E7FB0
:1015100080939F008091A0008D7F8093A0000E9407
:101520006E0256DE8091DF0081FF16C08091DE00E2
:1015300081FF12C08091DF008D7F8093DF0077985C
:101540008091DD0081608093DD0080E01CD80E94E6
:101550006E0281E0809321028091DF0080FF18C03D
:101560008091DE0080FF14C08091DF008E7F809329
:10157000DF008091DE008E7F8093DE000E94680293
:101580008091A00082608093A00082E0809321027D
:101590008091DF0082FF0FC08091DE0082FF0BC0D0
:1015A0008091DF008B7F8093DF0082E060E00BD8CA
:1015B0000E946E020DDE8091DA0081FF21C08091D1
:1015C000D80081FF1DC08091DA008D7F8093DA0002
:1015D00080911802882311F00E940B028091210251
:1015E000813011F00E946E028091D90081FF02C00B
:1015F00081E001C082E080931202EADD0E94A9012D
:10160000FF91EF91BF91AF919F918F917F916F91DA
:101610005F914F913F912F910F900BBE0F900FBE96
:101620000F901F901895CF92DF92EF92FF920F9339
:101630001F93CF93DF93CDB7DEB729970FB6F894FA
:10164000DEBF0FBECDBF6B018A01790190E8909398
:10165000190296E090931A0290E00197926090939D
:101660001C0280931B0210921E0210921D0289E040
:1016700090E09093200280931F021092A700CE0169
:10168000019603D28823B9F48B819C81F601918362
:101690008083E816F90670F09093200280931F0271
:1016A000C801F3D1882339F4F8019181923019F0FF
:1016B00086E001C085E029960FB6F894DEBF0FBE24
:1016C000CDBFDF91CF911F910F91FF90EF90DF90F1
:1016D000CF900895AF92BF92CF92DF92EF92FF9298
:1016E0000F931F93CF93DF937C018B015A0128C086
:1016F000F801C080D180F601808190E09E018C17B6
:101700009D0708F49C01C601820F931FF801918385
:101710008083F70180819181821B930B9183808369
:10172000F80180819181F5010995823049F081307D
:1017300069F4F801D182C082F701D183C08306C069
:10174000F701C081D181209799F682E0DF91CF9196
:101750001F910F91FF90EF90DF90CF90BF90AF90CF
:1017600008951F93CF93DF93CDB7DEB7AC970FB635
:10177000F894DEBF0FBECDBF80E0E9E1F2E09091CA
:10178000F10091938F5F8830D1F70E941D02809104
:10179000E80083FF39C18091190220911A02253097
:1017A00009F484C0263040F42130A1F1213070F0DA
:1017B000233009F029C12EC0283009F4F6C02930A1
:1017C00009F405C1263009F01FC193C0803821F00B
:1017D000823809F019C108C0809114029091150255
:1017E000992371F082600CC080911D028F708093EC
:1017F000E9009091EB0081E095FF80E01092E90014
:101800009091E800977F9093E8008093F100109208
:10181000F100D6C0882319F0823009F0F5C090E0BD
:101820008F719070009729F08230910509F0ECC01B
:101830000BC080911B02813009F0E6C0233009F013
:1018400080E0809315022CC080911B02882341F513
:1018500020911D022F7009F4D7C02093E9008091D8
:10186000EB0080FF1DC080911A02833021F480912B
:10187000EB00806213C08091EB0080618093EB00ED
:1018800081E090E002C0880F991F2A95E2F78093CB
:10189000EA001092EA008091EB0088608093EB00F0
:1018A0001092E9008091E800877F8DC0882309F0BD
:1018B000ABC010911B021F778091E3008078812BD1
:1018C0008093E3008091E800877F8093E800F9D857
:1018D0008091E80080FFFCCF8091E30080688093D6
:1018E000E300112311F083E001C082E0809318022D
:1018F0008BC08058823008F087C080911B02909185
:101900001C0223E08C3D9207B1F583E08C838AE2D0
:101910008B835FB7F894DE01139680E090E04EE091
:1019200061E2E42FF0E060935700E49180FF03C090
:10193000E295EF704F5FEF702E2F30E0EA3018F035
:10194000295C3F4F02C0205D3F4F13963C932E937E
:101950001297019612968431910519F75FBF809115
:10196000E800877F8093E800CE0103966AE270E08A
:101970000E94EE0314C060911D02AE014F5F5F4FE5
:101980000E94C701BC01009709F43EC08091E800A5
:10199000877F8093E80089819A810E9493048091D7
:1019A000E8008B778093E8002FC0803869F580913C
:1019B000E800877F8093E800809113028093F10014
:1019C0008091E8008E778093E8007BD81DC0882343
:1019D000D9F490911B029230B8F48091E800877F8F
:1019E0008093E800909313026CD8809113028823AF
:1019F00021F48091E30087FF02C084E001C081E010
:101A0000809318020E940D028091E80083FF0AC0B3
:101A10008091E800877F8093E8008091EB008062EE
:101A20008093EB00AC960FB6F894DEBF0FBECDBF2F
:101A3000DF91CF911F91089508951F93CF93DF9366
:101A4000182FC9EED3E006C081E0E5D88823C9F499
:101A50002197B1F0112329F48091A60083FFF4CFE0
:101A60000DC0113029F48091A60080FFEDCF06C093
:101A7000123051F78091A60082FFE6CF80E001C0CE
:101A800084E0DF91CF911F910895EF92FF920F9321
:101A90001F93CF93DF93EC01E0909E00FF2481E041
:101AA000E822FF2400911F021091200280919E00E5
:101AB000816080939E0081E0AED8882309F0CAC07F
:101AC0008091AA008F7C8093AA001092F5008091EB
:101AD000A6008F7E8093A6008091A9008F7B8093C3
:101AE000A90088E0E9E1F2E091919093AF00815084
:101AF000D9F78091A60087778093A60080E09DDFCC
:101B0000882309F0A7C08091A90080648093A90070
:101B100081E081D8882309F09DC08091190287FF58
:101B20004FC08091AA008F7C80618093AA0020978B
:101B300061F52EC08091A9008F7B8093A90081E080
:101B40007CDF882309F086C08091F6009091F70031
:101B5000009741F400E010E005C08091AF00899348
:101B6000015010408091F6009091F700009719F015
:101B70000115110591F78091A90080648093A90057
:101B80008091A6008E778093A6000115110591F62D
:101B90008091AA008F7C80628093AA008091A90026
:101BA0008F7B8093A90082E048DF882309F052C030
:101BB0008091A6008B778093A60082E03EDF4AC02A
:101BC0002097A1F18091AA008F7C80628093AA0067
:101BD0008091A9008F7B8093A9001CC02EDF8823F1
:101BE000C9F5FE0107C08191EF018093AF0001505C
:101BF000104059F0EF012091F6003091F7008091EC
:101C0000E20190E02817390770F38091A6008B77E6
:101C10008093A60082E00115110501F70EDF8823ED
:101C2000C9F48091A90080648093A9008091AA00E2
:101C30008F7C80618093AA008091A9008F7B809324
:101C4000A90081E0FADE882329F49091A6009E770E
:101C50009093A6009091A90090649093A900E1143C
:101C6000F10429F490919E009E7F90939E0091E054
:101C70009093A8001092A800DF91CF911F910F912F
:101C8000FF90EF900895CF93C82F1092190289E02A
:101C900080931A02C0931B0210921C0210921E0223
:101CA00010921D021092200210921F021092A700A3
:101CB00080E090E0EADE882349F4C0931602CC234A
:101CC00011F09BE001C09AE090932102CF9108951A
:101CD000CF93809112028130D1F480911802882331
:101CE00029F18091E9008F709091EC0090FF02C083
:101CF000C0E801C0C0E0C82B1092E9008091E80064
:101D000083FF01C02EDDCF70C093E9000FC080912A
:101D10001202823059F4C091A700CF708091AA00BE
:101D20001092A7000E946406C093A700CF91089567
:101D30006F927F928F929F92AF92BF92CF92DF92DB
:101D4000EF92FF920F931F93CF93DF9300D00F92E8
:101D5000CDB7DEB77C016DB67EB68091E80083FF1B
:101D60000AC1F701808190E020911D0230911E028E
:101D70002817390709F0FFC080911A02833009F44F
:101D80009EC0843030F4813071F0823009F0F3C0AD
:101D9000D5C08A3009F4B9C08B3009F4A1C08930AC
:101DA00009F0E9C04DC080911902813A09F0E3C001
:101DB0009DB68EB61B821A8280911B0200911C0276
:101DC0008983F70140858DB79EB7841B91090FB6B3
:101DD000F8949EBF0FBE8DBFCDB6DEB60894C11C71
:101DE000D11CBC2CAD2CC60160E070E050E093D358
:101DF000402F4150C701BE016F5F7F4F96018E019A
:101E00000E5F1F4F0E942D02F70186819781009778
:101E100021F04085B60150E075D31092E900809121
:101E2000E800877F8093E8006A817B818B2D9A2D63
:101E30000E94EE038091E8008B778093E8003CC01D
:101E400080911902813209F096C09DB68EB600913C
:101E50001F0210912002C0901B02D0901C028DB76F
:101E60009EB7801B910B0FB6F8949EBF0FBE8DBF1F
:101E7000ADB6BEB60894A11CB11C8091E800877F66
:101E80008093E800C501B8010E944A048091E800EF
:101E90008E778093E80081E090E0CC2011F480E020
:101EA00090E04D2D41509501280F391F081B190B4B
:101EB000C7016C2D0E9462029DBE8EBE5CC08091E7
:101EC0001902813A09F057C08091E800877F80931A
:101ED000E8008091E80080FFFCCFF701818542C0D7
:101EE00080911902813209F046C08091E800877F15
:101EF0008093E8000E94610590911B0281E0992384
:101F000009F480E0F701818736C08091190281329F
:101F100091F58091E800877F8093E8000E94610539
:101F200080911B0290911C02807036E096958795F7
:101F30003A95E1F7F701958784871DC080911902D2
:101F4000813AC9F48091E800877F8093E80080910E
:101F5000E80080FFFCCFF7018485958596958795ED
:101F6000969587958093F1008091E8008E77809315
:101F7000E8000E9461050FB6F8947EBE0FBE6DBEEC
:101F80000F900F900F90DF91CF911F910F91FF90C5
:101F9000EF90DF90CF90BF90AF909F908F907F9009
:101FA0006F900895CF93DF93FC010996DC0187E0E1
:101FB000ED0119928A95E9F781E0818784EF91E03C
:101FC0009587848783E08483CF01019661E00E9436
:101FD0002505DF91CF9108954F925F926F927F9286
:101FE0008F929F92AF92BF92CF92DF92EF92FF9229
:101FF0000F931F93CF93DF9300D00F92CDB7DEB72F
:102000007C014DB65EB680911802843009F093C011
:102010008091E4009091E500F7012285338528172F
:10202000390709F488C081818F708093E90080911D
:10203000E80085FF80C07DB66EB640858DB79EB73F
:10204000841B91090FB6F8949EBF0FBE8DBF0DB7CC
:102050001EB70F5F1F4F19821B821A82B02EA12E4E
:10206000C80160E070E050E056D2C701BE016F5F6A
:102070007F4F40E098018E010E5F1F4F0E942D029E
:10208000182FF70184859585009759F081E090E03D
:10209000268537852115310511F080E090E04C014F
:1020A00002C088249924F701C680D780C114D104C6
:1020B00091F04A815B818B2D9A2DB60116D201E0F9
:1020C000009709F400E0F7014085C6016B2D7A2DD9
:1020D00050E018D201C000E08A819B81009711F185
:1020E000112329F4002319F481149104D9F0F70184
:1020F000848595859787868781818F708093E90095
:102100008981882311F08093F1006A817B818B2D76
:102110009A2D40E050E00E949D038091E8008E7768
:102120008093E8008091E4009091E500F7019387A7
:1021300082877DBE6EBE0FB6F8945EBE0FBE4DBEEA
:102140000F900F900F90DF91CF911F910F91FF9003
:10215000EF90DF90CF90BF90AF909F908F907F9047
:102160006F905F904F900895FC018181843019F445
:102170008581833011F082E0089580E00895FC01AC
:102180008181813221F0843021F481E0089580E062
:10219000089582E00895FC018181853031F48281C7
:1021A0000E947E08882319F404C0843021F082E064
:1021B000089580E0089581E008958F929F92AF92F4
:1021C000BF92CF92DF92EF92FF920F931F93CF9324
:1021D000DF9300D000D0CDB7DEB78C017A8369835E
:1021E0005C834B830F96FC0188E0DF011D928A958A
:1021F000E9F7EB81FC818181823009F099C0882464
:102200009924AA24BB24EE24FF24CC24DD24A11489
:10221000B10451F0CE010196BE016D5F7F4F4BECD2
:1022200050E158DA882351F1C114D104B9F5CE0137
:102230000196BE016D5F7F4F44EB50E14BDA88237E
:1022400009F078C0AB80BC80F8018485882331F028
:10225000D50117969C911797981749F7CE010196CB
:10226000BE016D5F7F4F4FEB50E134DA882309F0F8
:1022700061C08B809C80EE24FF24C9CFEB81FC8160
:10228000828187FF02C06F0101C07F01C114D104A8
:1022900009F4BDCFE114F10409F4B9CFF60184814A
:1022A0009581D80112969C938E93119782811396F3
:1022B0008C93139783E0C82E1496CC92C80161E0EA
:1022C0000E9449088823C1F1E114F104A9F0F70143
:1022D00084819581D80118969C938E93179782815B
:1022E00019968C9319971A96CC92C801069661E0BC
:1022F0000E944908882301F1F5018281D801509696
:102300008C935097F4018781908555969C938E937A
:10231000549781E0D50116969C911697992309F45C
:1023200080E0F801818B88E0868B81E0878704C09C
:1023300081E003C082E001C080E00F900F900F9019
:102340000F90DF91CF911F910F91FF90EF90DF9051
:10235000CF90BF90AF909F908F900895CF93DF93D1
:10236000FC01809121028B30E9F587858823D1F12A
:1023700080818F708093A7008091A9008F7B8093CC
:10238000A90083898823B1F4A585B685A852BC4FDE
:102390008C91882329F02091AF00EB01299302C092
:1023A000EB0120E085859685622F40E00E946D0359
:1023B0009C0105C02091F6003091F700EB01CE01A1
:1023C000B90140E050E00E948D07882361F49091AC
:1023D000A6009E779093A6009091A9009064909398
:1023E000A90001C082E0DF91CF910895FC018091A6
:1023F00021028B30A9F487858823A1F080818F701A
:102400008093A7008091A9008F7B8093A900809181
:10241000A60081709091A90090649093A9000895FE
:1024200080E0089580E00895CF93DF93EC018989DF
:102430008823F9F0888991E2909319029BE09093A8
:102440001A0210921C0210921B0280931D0210921D
:102450001E021092200210921F021092A70080E02C
:1024600090E013DB882331F498E09E8B91E09B8B06
:1024700001C080E8DF91CF9108959091C80095FF49
:10248000FCCF8093CE0080E090E008958091C8005A
:1024900087FF08C08091C80087FF07C08091CE00E9
:1024A00090E008958EEF9FEF08958FEF9FEF0895CE
:1024B000FC01009751F4E2E2F2E0F0933102E09384
:1024C0003002F0933302E09332028EE0DF011D927E
:1024D0008A95E9F783E083838DE392E19187808792
:1024E00086E492E1938782870895FB01DC0104C0B2
:1024F0008D910190801921F441505040C8F7881BFC
:10250000990B0895FB01DC0102C001900D9241502E
:102510005040D8F70895DC0101C06D934150504000
:10252000E0F70895CF93DF93CDB7DEB7FE01359680
:10253000619171918091320290913302DC01139686
:102540002C911397286013962C93AF0167D0E091DC
:102550003202F09133022381277F2383DF91CF91D1
:1025600008950F931F93CF93DF938C01E091320274
:10257000F0913302838181FF1AC0C0E0D0E005C032
:102580000995009711F0CFEFDFEFF80181918F01EE
:102590006091320270913302DB011896ED91FC914B
:1025A0001997882369F78AE00995009711F0CFEF12
:1025B000DFEFCE01DF91CF911F910F9108950F931F
:1025C0001F93CF93DF938C01E0913202F09133029D
:1025D000838181FF1BC0C0E0D0E007C00995009750
:1025E00011F0CFEFDFEF0F5F1F4FF8018491609183
:1025F000320270913302DB011896ED91FC9119972C
:10260000882361F78AE00995009711F0CFEFDFEF9B
:10261000CE01DF91CF911F910F9108952F923F929C
:102620004F925F926F927F928F929F92AF92BF92E2
:10263000CF92DF92EF92FF920F931F93CF93DF938E
:10264000CDB7DEB72D970FB6F894DEBF0FBECDBF66
:102650003C017D876C875A01FC01178216828381B9
:1026600081FFBBC12E010894411C511CF3019381D1
:10267000EC85FD8593FD859193FF8191FD87EC8726
:10268000882309F4A6C1853241F493FD859193FF17
:102690008191FD87EC87853221F490E0B301CED1A2
:1026A000E5CFFF24EE2410E01032B0F48B3269F055
:1026B0008C3228F4803251F0833271F40BC08D32A9
:1026C00039F0803349F411602CC01260146029C0C5
:1026D000186027C0106125C017FD2EC0282F205379
:1026E0002A3098F416FF08C08F2D880FF82EFF0CA3
:1026F000FF0CF80EF20E15C08E2D880FE82EEE0C92
:10270000EE0CE80EE20E10620CC08E3221F416FDC3
:1027100060C1106406C08C3611F4106802C088369F
:1027200059F4EC85FD8593FD859193FF8191FD879B
:10273000EC87882309F0B8CF982F9554933018F080
:102740009052933038F424E030E0A20EB31E3FE301
:1027500039830FC0833631F0833781F0833509F038
:1027600056C021C0F5018081898322E030E0A20EAD
:10277000B31E21E0C22ED12C420113C092E0292EBB
:10278000312C2A0C3B1CF5018080918016FF03C080
:102790006F2D70E002C06FEF7FEFC40144D16C0178
:1027A00051011F7714C082E0282E312C2A0C3B1CCB
:1027B000F5018080918016FF03C06F2D70E002C08C
:1027C0006FEF7FEFC40124D16C011068510113FD3C
:1027D0001AC005C080E290E0B30130D1EA948E2D9A
:1027E00090E0C816D906B0F30EC0F40117FD85912C
:1027F00017FF81914F0190E0B30120D1E110EA94DD
:102800000894C108D108C114D10479F7DFC0843617
:1028100011F0893649F5F50117FF07C080819181D4
:10282000A281B38124E030E008C080819181AA2791
:1028300097FDA095BA2F22E030E0A20EB31E012F23
:102840000F76B7FF08C0B095A095909581959F4FE2
:10285000AF4FBF4F0068BC01CD01A2012AE030E0BC
:1028600019D1D82ED4183EC0853721F41F7E2AE016
:1028700030E020C0197F8F36A9F0803720F48835EA
:1028800009F0A7C00BC0803721F0883709F0A1C03C
:1028900001C0106114FF09C0146007C014FF08C014
:1028A000166006C028E030E005C020E130E002C03C
:1028B00020E132E0F50117FF07C06081718182815C
:1028C000938144E050E006C06081718180E090E037
:1028D00042E050E0A40EB51EA201DCD0D82ED418E0
:1028E000012F0F7706FF09C00E7FDF1430F404FFBD
:1028F00006C002FD04C00F7E02C01D2D01C01F2DA9
:10290000802F90E004FF0CC0FE01ED0DF11D208131
:10291000203311F4097E09C002FF06C01E5F05C006
:1029200086789070009709F01F5F802E992403FD30
:1029300011C000FF0CC0FD2C1E1548F4FE0CF11A4E
:102940001E2D05C080E290E0B30178D01F5F1E15F8
:10295000C8F304C01E1510F4E11A01C0EE2484FE71
:102960000EC080E390E0B30169D082FE1DC081FEFD
:1029700003C088E590E010C088E790E00DC0C40176
:1029800086789070009781F081FC02C080E201C0DF
:102990008BE207FD8DE290E0B30150D005C080E3EB
:1029A00090E0B3014BD0FA94DF14C8F3DA94F2014B
:1029B000ED0DF11D808190E0B30140D0DD20B1F735
:1029C00005C080E290E0B30139D0EA94EE20C9F767
:1029D0004DCEF3018681978102C08FEF9FEF2D9638
:1029E0000FB6F894DEBF0FBECDBFDF91CF911F9120
:1029F0000F91FF90EF90DF90CF90BF90AF909F909E
:102A00008F907F906F905F904F903F902F900895A0
:102A1000FC010590615070400110D8F780959095A9
:102A20008E0F9F1F0895FC016150704001900110AE
:102A3000D8F7809590958E0F9F1F08950F931F9341
:102A4000CF93DF938C01EB018B8181FF1BC082FF51
:102A50000DC02E813F818C819D812817390764F438
:102A6000E881F9810193F983E88306C0E885F98557
:102A7000802F0995009731F48E819F8101969F8365
:102A80008E8302C00FEF1FEFC801DF91CF911F911E
:102A90000F910895FA01AA27283051F1203181F1D0
:102AA000E8946F936E7F6E5F7F4F8F4F9F4FAF4F56
:102AB000B1E03ED0B4E03CD0670F781F891F9A1F69
:102AC000A11D680F791F8A1F911DA11D6A0F711D1D
:102AD000811D911DA11D20D009F468943F912AE029
:102AE000269F11243019305D3193DEF6CF01089511
:102AF000462F4770405D4193B3E00FD0C9F7F6CF42
:102B0000462F4F70405D4A3318F0495D31FD405209
:102B1000419302D0A9F7EACFB4E0A695979587959F
:102B200077956795BA95C9F700976105710508957E
:102B30009B01AC010A2E069457954795379527952A
:102B4000BA95C9F7620F731F841F951FA01D0895C2
:042B5000F894FFCF27
:102B54000081080000010C020300000000000000D6
:102B64004572726F722052657472696576696E6718
:102B740020436F6E66696775726174696F6E204475
:102B8400657363726970746F722E0D0041747461A1
:102B94006368656420446576696365204E6F7420BC
:102BA400612056616C6964204D6F7573652E0D004C
:102BB4004572726F722053657474696E6720446540
:102BC4007669636520436F6E6669677572617469BF
:102BD4006F6E2E0D00436F756C64206E6F742053FE
:102BE400657420426F6F742050726F746F636F6CE2
:102BF400204D6F64652E0D004D6F75736520456E15
:102C0400756D6572617465642E0D0002000000002C
:102C140001000000000000020000000000000000AD
:102C2400000080060001000008000005010000000B
:102C34000000408008000000000100A12000000006
:102C4400000200A10100000000000000C0330000E9
:0C2C5400000002004035000000000000FD
:00000001FF
