:10000000DCC10000F9C10000F7C10000F5C100002B
:10001000F3C10000F1C10000EFC10000EDC100001C
:10002000EBC10000E9C100000C94DA0AE5C1000050
:10003000E3C10000E1C10000DFC10000DDC100003C
:10004000DBC10000D9C10000D7C10000D5C100004C
:10005000D3C10000D1C10000CFC10000CDC100005C
:10006000CBC10000C9C10000C7C10000C5C100006C
:10007000C3C10000C1C10000BFC10000BDC100007C
:10008000BBC10000B9C10000B7C10000B5C100008C
:10009000B3C10000B1C100001B5B33366D524E444A
:1000A000495320486F73742044656D6F2072756EDC
:1000B0006E696E672E0D0A1B5B33376D001B5B3359
:1000C000326D446576696365204174746163686567
:1000D000642E0D0A1B5B33376D001B5B33326D0DD5
:1000E0000A44657669636520556E6174746163685E
:1000F00065642E0D0A1B5B33376D004765747469A8
:100100006E6720436F6E66696720446174612E0DCF
:100110000A001B5B33316D436F6E74726F6C204548
:1001200072726F72202847657420436F6E6669672C
:1001300075726174696F6E292E0D0A001B5B333175
:100140006D496E76616C6964204465766963652EDD
:100150000D0A00202D2D204572726F7220436F64AE
:10016000653A2025640D0A1B5B33376D001B5B333A
:10017000316D436F6E74726F6C204572726F7220B6
:100180002853657420436F6E666967757261746980
:100190006F6E292E0D0A202D2D204572726F722050
:1001A000436F64653A2025640D0A1B5B33376D008D
:1001B0001B5B33316D4572726F7220496E697469D1
:1001C000616C697A696E67204465766963652E0D96
:1001D0000A202D2D204572726F7220436F64653A9C
:1001E0002025640D0A1B5B33376D00446576696317
:1001F00065204D6178205472616E7366657220537C
:10020000697A653A20256C752062797465732E0DC4
:100210000A001B5B33316D4572726F722053657437
:1002200074696E6720446576696365205061636B0D
:1002300065742046696C7465722E0D0A202D2D2080
:100240004572726F7220436F64653A2025640D0A0F
:100250001B5B33376D001B5B33316D4572726F7200
:100260002047657474696E672056656E646F7220EE
:1002700049442E0D0A202D2D204572726F722043A5
:100280006F64653A2025640D0A1B5B33376D0044AB
:1002900065766963652056656E646F722049443ADD
:1002A0002030782530386C580D0A00524E4449539E
:1002B0002044657669636520456E756D657261746D
:1002C00065642E0D0A001B5B33316D486F7374201B
:1002D0004D6F6465204572726F720D0A202D2D20BE
:1002E0004572726F7220436F64652025640D0A1B8E
:1002F0005B33376D001B5B33316D44657620456E93
:10030000756D204572726F720D0A202D2D20457279
:10031000726F7220436F64652025640D0A202D2DB5
:1003200020537562204572726F7220436F6465209E
:1003300025640D0A202D2D20496E205374617465AB
:100340002025640D0A1B5B33376D001B5B33316D59
:100350005061636B657420526563657074696F6E7C
:10036000204572726F722E0D0A202D2D204572725B
:100370006F7220436F64653A2025640D0A1B5B335E
:10038000376D002A2A2A5041434B4554202853698F
:100390007A65202564292A2A2A0D0A001B5B33313D
:1003A0006D5061636B657420746F6F206C61726750
:1003B000652E0D0A1B5B33376D0011241FBECFEF76
:1003C000D0E2DEBFCDBF11E0A0E0B1E0E8EAF1E2AB
:1003D00000E00BBF02C007900D92A632B107D9F71B
:1003E0001BBE11E0A6E2B1E001C01D92AC34B10722
:1003F000E1F71ED20C94D21003CE9BB19F70982BC4
:100400009BB9089584B7877F84BF28E10FB6F8941D
:1004100020936000109260000FBE90E080E80FB65D
:10042000F89480936100909361000FBE83E390E0A5
:100430009093CD008093CC0086E08093CA00109208
:10044000C8002093C900539A5A9A8AB1806F8AB91A
:100450008BB18F708BB90E94BF0A80E090E00C9442
:10046000850D8DEB90E00E94090E80EAC6CF8AEDE3
:1004700090E00E94090E80E1C0CF1F93CF93DF93DD
:10048000CDB7DEB72A970FB6F894DEBF0FBECDBF4B
:100490008BEF90E00E94090E0ED2182F882301F1F5
:1004A000813019F482E191E002C08CE391E00E9476
:1004B000090E00D000D0EDB7FEB7319623E531E04C
:1004C000ADB7BEB712963C932E9311971283138249
:1004D0000E94BC0D0F900F900F900F9080E999C073
:1004E00081E00E94380D882379F000D000D0EDB76C
:1004F000FEB731962DE631E0ADB7BEB712963C930C
:100500002E9311978283E3CF80E094E0BE016F5F6A
:100510007F4FA2D2882341F000D000D0EDB7FEB7C4
:10052000319620EB31E041C000D000D08BEE91E05D
:10053000EDB7FEB79283818389819A819483838307
:100540000E94BC0D8DE090E0A0E0B0E08F83988722
:10055000A987BA870F900F900F900F906EE071E00F
:1005600081E090E0AE01495F5F4F24E030E0E6D2E9
:10057000882341F000D000D0EDB7FEB7319622E1DC
:1005800032E013C06CE071E081E090E0AE014D5FBD
:100590005F4F24E030E074D38823D9F000D000D03E
:1005A000EDB7FEB7319626E532E0ADB7BEB712968D
:1005B0003C932E931197828313820E94BC0D0F905F
:1005C0000F900F900F9080E918DF80E00E94380DA7
:1005D00021C000D000D000D08FE892E0EDB7FEB788
:1005E000928381838B819C81AD81BE81838394833F
:1005F000A583B6830E94BC0D8DB79EB706960FB635
:10060000F8949EBF0FBE8DBF8BEA92E00E94090E48
:1006100080E6F3DE2A960FB6F894DEBF0FBECDBF9C
:10062000DF91CF911F910895CF93DF930F92CDB7B4
:10063000DEB789833CD700D000D0EDB7FEB7319646
:1006400026EC32E0ADB7BEB712963C932E931197CD
:100650008981828313820E94BC0D0F900F900F90AE
:100660000F9080E9CADEFFCF909137012DB73EB7DA
:10067000285030400FB6F8943EBF0FBE2DBFEDB7E7
:10068000FEB7319625EF32E0ADB7BEB712963C9378
:100690002E93119782831382648315829683178227
:1006A0000E94BC0D2DB73EB7285F3F4F0FB6F894A0
:1006B0003EBF0FBE2DBF80E9A0CE8F929F92AF921A
:1006C000BF92CF92DF92EF92FF920F931F93CF933F
:1006D000DF9300D0CDB7DEB78DB69EB680913701DF
:1006E0008B3009F091C080E288DECE01019670D394
:1006F0008823B1F000D000D0EDB7FEB731962BE4DF
:1007000033E0ADB7BEB712963C932E931197828318
:1007100013820E94BC0D0F900F900F900F9074C029
:1007200089819A81009709F46FC08091A9008F7B1D
:100730008093A90000D000D083E893E0EDB7FEB726
:100740009283818389819A81948383830E94BC0DE3
:100750000F900F900F900F9069817A81F4E06130D3
:100760007F0750F08CE993E00E94090E89819A81FD
:1007700060E070E053D538C0BDB68DB79EB7861B1C
:10078000970B0FB6F8949EBF0FBE8DBF0DB71EB767
:100790000F5F1F4FC80140E050E08BD5780100E0AB
:1007A00010E080E0C82E81E0D82E18C0D7018D91CE
:1007B0007D0100D000D0EDB7FEB73196ADB7BEB722
:1007C0001296DC92CE921197828313820E94AB0D17
:1007D0000F5F1F4F0F900F900F900F9089819A819C
:1007E0000817190718F3BDBE8091A6008E77809375
:1007F000A6008091A90080648093A90088E091E020
:100800000E94DB0D80E6F9DD0FB6F8949EBE0FBEA8
:100810008DBE0F900F90DF91CF911F910F91FF90A0
:10082000EF90DF90CF90BF90AF909F908F90089502
:10083000E9DD88E990E00E94090E80E1DEDD789430
:100840003CDF0E945D0DFCCFFC018181843049F4C6
:100850008581823031F48681823019F487818F3F1F
:1008600011F082E0089580E00895FC0181818430D8
:1008700049F485818A3031F48681882319F487818F
:10088000882311F082E0089580E00895FC018181C1
:10089000853049F4838190E08370907002978230B4
:1008A000910518F404C0843021F082E0089580E0BE
:1008B000089581E008958F929F92AF92BF92CF9258
:1008C000DF92EF92FF920F931F93CF93DF93CDB7F9
:1008D000DEB7C450D2400FB6F894DEBF0FBECDBF16
:1008E000AE014B5F5F4F5C834B8381E07E010894D8
:1008F000E11CF11CB70120E032E0F5D6853009F4A7
:100900006BC0863019F0882329F002C083E067C0ED
:1009100081E065C0CC24DD24AA24BB2400E010E0E3
:10092000882499248114910449F0C701BE016D5FA8
:100930007F4F46E454E02ED78823D1F0C701BE0193
:100940006D5F7F4FC114D10459F045E354E022D7C5
:10095000882309F043C0AA24BB2400E010E0E2CFC2
:1009600044E254E017D78823C9F58B809C800EC0E1
:10097000EB81FC81828187FF06C083818370833095
:1009800021F46F0103C05F0101C08F010115110542
:1009900049F2A114B10431F2C114D10409F4C2CF57
:1009A000F8012481358181E862E0428101E0D8D4F8
:1009B000F5012481358182E062E04281D1D4F601E3
:1009C0002481358183E863E04281CAD4F6018681BF
:1009D0008093AD0080E003C082E001C084E0CC5F82
:1009E000DD4F0FB6F894DEBF0FBECDBFDF91CF91C4
:1009F0001F910F91FF90EF90DF90CF90BF90AF903D
:100A00009F908F90089521E220932F011092300142
:100A10001092320110923101109234011092330180
:100A200070933601609335011092A70023C721EA25
:100A300020932F0121E02093300110923201109277
:100A4000310110923401109233017093360160939A
:100A500035011092A7000EC70F931F93CF93DF931A
:100A6000CDB7DEB7CC54D0400FB6F894DEBF0FBE82
:100A7000CDBF8B0142E050E060E070E049835A83D3
:100A80006B837C8348E150E060E070E04D835E83DF
:100A90006F8378874091260150912701609128014A
:100AA0007091290149875A876B877C874F5F5F4F19
:100AB0006F4F7F4F40932601509327016093280189
:100AC0007093290141E050E060E070E04D875E875F
:100AD0006F87788B198A1A8A1B8A1C8AA0E0B0E07B
:100AE0008D8B9E8BAF8BB88FCE01019668E170E045
:100AF0008ADF8823B9F4CE01499664E370E097DF7A
:100B0000882381F44DA15EA16FA178A541155105FF
:100B10006105710531F42DAD3EADF80131832083BF
:100B200001C080ECC45BDF4F0FB6F894DEBF0FBE90
:100B3000CDBFDF91CF911F910F9108958F929F921A
:100B4000AF92BF92CF92DF92EF92FF920F931F93DB
:100B5000CF93DF93CDB7DEB760970FB6F894DEBFC3
:100B60000FBECDBF6B017C01942E852EADB6BEB6F7
:100B7000C9014C964DB75EB7481B590B0FB6F89498
:100B80005EBF0FBE4DBF0DB71EB70F5F1F4F45E0D5
:100B900050E060E070E0ADB7BEB711964D935D9345
:100BA0006D937C931497AC0160E070E0F80144838E
:100BB0005583668377838091260190912701A091C8
:100BC0002801B091290180879187A287B387019678
:100BD000A11DB11D8093260190932701A0932801A8
:100BE000B0932901C486D586E686F786C901A0E0C0
:100BF000B0E0808B918BA28BB38B84E190E0A0E07E
:100C0000B0E0848B958BA68BB78B108E118E128ED5
:100C1000138E8DB79EB74D96692D782DA90192D769
:100C2000F80164817581C801EEDE882389F4CE0164
:100C3000019660E170E0FBDE882351F44D855E850E
:100C40006F857889411551056105710509F080ECC2
:100C50000FB6F894BEBE0FBEADBE60960FB6F89448
:100C6000DEBF0FBECDBFDF91CF911F910F91FF90DF
:100C7000EF90DF90CF90BF90AF909F908F900895AE
:100C80002F923F924F925F926F927F929F92AF927C
:100C9000BF92CF92DF92EF92FF920F931F93CF9369
:100CA000DF93CDB7DEB76C970FB6F894DEBF0FBEFB
:100CB000CDBF6B017C01942E052F39012DB63EB6B8
:100CC00048E1442E512C420E531E8DB79EB7841915
:100CD00095090FB6F8949EBF0FBE8DBFADB6BEB6D8
:100CE0000894A11CB11C84E090E0A0E0B0E08983EE
:100CF0009A83AB83BC838CE190E0A0E0B0E08D836D
:100D00009E83AF83B8878091260190912701A0919F
:100D10002801B091290189879A87AB87BC87019602
:100D2000A11DB11D8093260190932701A093280156
:100D3000B0932901CD86DE86EF86F88A198A1A8A51
:100D40001B8A1C8A1D8A1E8A1F8A188E198E1A8E6B
:100D50001B8E1C8ECE0101966CE170E054DE182FC4
:100D60008823C1F4C501B20162DE182F882391F4F3
:100D7000F50184859585A685B7850097A105B10500
:100D800041F4B501685E7F4F892D902FA301DAD61B
:100D900001C010EC812F0FB6F8943EBE0FBE2DBEE1
:100DA0006C960FB6F894DEBF0FBECDBFDF91CF912A
:100DB0001F910F91FF90EF90DF90CF90BF90AF9079
:100DC0009F907F906F905F904F903F902F900895ED
:100DD000FF920F931F93CF93DF93CDB7DEB7AC97FE
:100DE0000FB6F894DEBF0FBECDBF8C0181E08093BB
:100DF000A7008091AA008F7C80618093AA008091D7
:100E0000A9008F7B8093A9008091A60085FD0AC070
:100E1000F801118210828091A90080648093A9005A
:100E2000FF241BC0CE0101966CE270E040E050E070
:100E300040D2F82E882389F48D859E85F801918310
:100E4000808329853A85C901849760E070E0E6D106
:100E50008091A90080648093A9008F2DAC960FB675
:100E6000F894DEBF0FBECDBFDF91CF911F910F91E0
:100E7000FF90089580919E0090E081709070209185
:100E8000A0002D7F2093A00020919E00226020933F
:100E90009E0020919E0021FDFCCF20919E002160AC
:100EA00020939E0010922D012091A00030E020722E
:100EB00030704091A0004F7D4093A00040919F0072
:100EC0004F7D40939F004AE050919F0055FF0BC01B
:100ED00040919F004F7D40939F0040919F004D7F28
:100EE00040939F0008C0EFECF7E03197F1F700C0A6
:100EF0000000415049F72115310529F02091A0004B
:100F000020622093A000009729F480919E008E7F9C
:100F100080939E008091A00082608093A00008953D
:100F200040919E0050E0417050702091A00030E050
:100F3000207230709091A0009F7D9093A0009091BE
:100F40009F009F7D90939F0090919E009160909351
:100F50009E0026C090919F0095FF06C090919F0033
:100F60009F7D90939F008150909137019130D9F0EF
:100F70009091A60094FF09C01092F5008091A60000
:100F80008F7E8093A60082E00FC09091A60091FF13
:100F900007C08091A6008D7F8093A60083E004C0E7
:100FA0008823C1F601C081E04115510529F49091D3
:100FB0009E009E7F90939E002115310529F090910F
:100FC000A00090629093A00008950F931F93CF9379
:100FD000DF93CDB7DEB728970FB6F894DEBF0FBE0C
:100FE000CDBF80913701853009F499C0863068F40F
:100FF0008230C1F1833018F48823A1F004C183301A
:10100000D9F1843009F0FFC062C0873009F49EC076
:10101000873008F48FC0883009F4B8C0893009F0EF
:10102000F2C0D9C000912A0110912B0101151105C0
:1010300009F4E9C081E074DF682F882331F08091E2
:101040002C018093370181E0D2C0015010401093F1
:101050002B0100932A010115110509F0D4C08091DC
:101060002C0107C088EE93E090932B0180932A0116
:1010700083E080933701C7C080912A0190912B01B2
:101080009C012150304030932B0120932A0100977E
:1010900039F08FEC97E00197F1F700C00000B3C082
:1010A00077988091D80080618093D8008091DD008E
:1010B0008B7F8093DD008091D70080618093D70083
:1010C0008091DD0082608093DD0084E0D2CF80914A
:1010D0009F0080FF98C080919F008E7F80939F002B
:1010E00080919F008D7F80939F008091DF008D7F96
:1010F0008093DF008091DE0082608093DE0080912B
:101100009E00816080939E0090D11092370184E60A
:1011100090E090932B0180932A0185E059C0AADECC
:101120001092370188EC90E090932B0180932A0174
:1011300086E04EC080E060E040E020E430E001E086
:101140000FD1882309F44FC087E093CFAFE2B1E01D
:10115000ECE0F1E088E001900D928150E1F710920F
:10116000A700CE01019686D3682F882309F03EC0E0
:10117000888580931C017EDE1092370188EC90E018
:1011800090932B0180932A0188E022C020911C01BA
:1011900080E060E040E030E001E0E2D0882319F137
:1011A000AFE2B1E0E4E1F1E088E001900D9281501E
:1011B000E1F780E090E05ED3682F8823B9F41092C5
:1011C000370184E690E090932B0180932A0189E017
:1011D00080932C0118C081E08093A1008AE0809365
:1011E00037014BD910C060E084E001C083E09091EA
:1011F0003701913041F038DA8091DD0081608093D1
:10120000DD0035D96CD128960FB6F894DEBF0FBE3D
:10121000CDBFDF91CF911F910F910895DF92EF9293
:10122000FF920F931F93CF93DF93EC018B0180917B
:10123000AA008F7C80618093AA000BD1D82E8823CE
:1012400079F50115110529F0F80120813181C21BC2
:10125000D30BEE24FF2420C08091A60085FD16C08C
:101260008091A6008E778093A6000115110551F09C
:10127000F801808191818E0D9F1D9183808324E0F0
:10128000D22E0EC0E6D0882339F009C08091AF007D
:1012900021970894E11CF11C2097F1F601C0D82E8B
:1012A0008D2DDF91CF911F910F91FF90EF90DF90E7
:1012B0000895AF92BF92CF92DF92FF920F931F9348
:1012C000CF93DF935C01EB016A018091AA008F7CD0
:1012D00080618093AA00BDD0F82E8823B1F5C11497
:1012E000D10441F0F60100811181C01BD10B0A0D20
:1012F0001B1D01C08501AA24BB2423C08091A60028
:1013000085FD16C08091A6008E778093A600C1143B
:10131000D10451F0F601808191818A0D9B1D91834A
:10132000808364E0F62E11C094D0882351F00CC065
:101330008091AF00F80181938F0121970894A11C3F
:10134000B11C2097D9F601C0F82E8F2DDF91CF91D7
:101350001F910F91FF90DF90CF90BF90AF900895B5
:101360000F93582F5F7087FF02C080E101C080E2B9
:10137000573008F057C0662309F480E04F7062953B
:10138000660F660F607C642B682B452F02604093CC
:10139000A7004517A9F404C07F5F880F991F03C0F9
:1013A00088E090E070E08217930710F47530A1F7A1
:1013B000872F8295807F802BF62F70E0E0E008C0B9
:1013C000F091AA008091AB00E091AD007091AE0069
:1013D00081FF20C09091A9009E7F9093A9009091D9
:1013E000AB009D7F9093AB009091A900916090938A
:1013F000A900F093AA008093AB00E093AD00709336
:10140000AE008091A90080628093A9008091AC0019
:1014100087FF08C04F5F473009F0B9CF5093A7004E
:1014200081E001C080E00F9108951092F80080E003
:101430008093A7001092AE001092A6001092AB000D
:101440009091A9009E7F9093A9008F5F873081F7CC
:1014500008958091A2009091A30045E601C0C901C2
:101460002091AA002073203129F42091A60020FFAA
:1014700005C017C02091A60022FD13C02091A60030
:1014800021FD11C020913701213079F02091A20077
:101490003091A3002817390719F3415001F783E071
:1014A000089580E0089581E0089582E0089575D060
:1014B0007CD0E0EEF0E0808181608083E8EDF0E0B8
:1014C00080818F77808319BCA7EDB0E08C918E7FEF
:1014D0008C9380818F7E808310922E0108955DD041
:1014E00064D08091D8008F778093D8008091D80005
:1014F00080688093D8008091D8008F7D8093D80039
:101500008091D7008F778093D7008CE089BD8EE0E3
:1015100089BD09B400FEFDCF81E0809337011092B0
:101520002D0180E480931C018091D8008064809319
:10153000D8008091DD0081608093DD008091DD0026
:1015400084608093DD008091D7008F7E8093D700E8
:101550006F9A779A8091DE0081608093DE0080919F
:10156000DE0084608093DE008091E0008E7F8093B7
:10157000E0008091D80080618093D8000895E8ED64
:10158000F0E080818F7E8083E7EDF0E080818160F4
:10159000808381E080932E01A2CFE8EDF0E080818E
:1015A0008C7F80831092A00008951092DA00109230
:1015B0009F0008951F920F920FB60F920BB60F92D5
:1015C00011242F933F934F935F936F937F938F9348
:1015D0009F93AF93BF93EF93FF9380919F0085FFFD
:1015E0000AC08091A00085FF06C080919F008F7D7A
:1015F00080939F0016D180919F0081FF16C080913B
:10160000A00081FF12C080919F008D7F80939F007A
:1016100080919F008E7F80939F008091A0008D7F9E
:101620008093A0000E9437025ADF8091DF0081FF83
:1016300017C08091DE0081FF13C08091DF008D7F95
:101640008093DF0077988091DD0081608093DD00DA
:1016500080E00E9414030E94370281E080933701EA
:101660008091DF0080FF18C08091DE0080FF14C0F1
:101670008091DF008E7F8093DF008091DE008E7F7F
:101680008093DE000E9431028091A00082608093EE
:10169000A00082E0809337018091DF0082FF10C0BC
:1016A0008091DE0082FF0CC08091DF008B7F8093F1
:1016B000DF0082E060E00E9434030E9437020FDF07
:1016C000FF91EF91BF91AF919F918F917F916F911A
:1016D0005F914F913F912F910F900BBE0F900FBED6
:1016E0000F901F901895CF92DF92EF92FF920F9379
:1016F0001F93CF93DF93CDB7DEB729970FB6F8943A
:10170000DEBF0FBECDBF6B018A01790190E89093D7
:101710002F0196E09093300190E0019792609093B2
:10172000320180933101109234011092330189E02B
:1017300090E090933601809335011092A700CE017E
:10174000019698D08823B9F48B819C81F60191830E
:101750008083E816F90670F0909336018093350186
:10176000C80188D0882339F4F8019181923019F0AA
:1017700086E001C085E029960FB6F894DEBF0FBE63
:10178000CDBFDF91CF911F910F91FF90EF90DF9030
:10179000CF900895AF92BF92CF92DF92EF92FF92D7
:1017A0000F931F93CF93DF937C018B015A0128C0C5
:1017B000F801C080D180F601808190E09E018C17F5
:1017C0009D0708F49C01C601820F931FF8019183C5
:1017D0008083F70180819181821B930B91838083A9
:1017E000F80180819181F5010995823049F08130BD
:1017F00069F4F801D182C082F701D183C08306C0A9
:10180000F701C081D181209799F682E0DF91CF91D5
:101810001F910F91FF90EF90DF90CF90BF90AF900E
:10182000089508951F93CF93DF93182FC9EED3E047
:1018300006C081E075DB8823C9F42197B1F011233C
:1018400029F48091A60083FFF4CF0DC0113029F454
:101850008091A60080FFEDCF06C0123051F7809135
:10186000A60082FFE6CF80E001C084E0DF91CF9147
:101870001F910895EF92FF920F931F93CF93DF93E1
:10188000EC01E0909E00FF2481E0E822FF2400911B
:1018900035011091360180919E00816080939E00F9
:1018A00081E03EDB882309F0CAC08091AA008F7CCA
:1018B0008093AA001092F5008091A6008F7E8093FD
:1018C000A6008091A9008F7B8093A90088E0EFE2B9
:1018D000F1E091919093AF008150D9F78091A600EB
:1018E00087778093A60080E09DDF882309F0A7C05A
:1018F0008091A90080648093A90081E011DB882396
:1019000009F09DC080912F0187FF4FC08091AA00F0
:101910008F7C80618093AA00209761F52EC0809112
:10192000A9008F7B8093A90081E07CDF882309F0E8
:1019300086C08091F6009091F700009741F400E096
:1019400010E005C08091AF00899301501040809154
:10195000F6009091F700009719F00115110591F725
:101960008091A90080648093A9008091A6008E7761
:101970008093A6000115110591F68091AA008F7C35
:1019800080628093AA008091A9008F7B8093A90038
:1019900082E048DF882309F052C08091A6008B774F
:1019A0008093A60082E03EDF4AC02097A1F180919B
:1019B000AA008F7C80628093AA008091A9008F7B0F
:1019C0008093A9001CC02EDF8823C9F5FE0107C043
:1019D0008191EF018093AF000150104059F0EF0169
:1019E0002091F6003091F70080911C0190E02817BB
:1019F000390770F38091A6008B778093A60082E070
:101A00000115110501F70EDF8823C9F48091A900A3
:101A100080648093A9008091AA008F7C806180936C
:101A2000AA008091A9008F7B8093A90081E0FADE53
:101A3000882329F49091A6009E779093A600909118
:101A4000A90090649093A900E114F10429F4909105
:101A50009E009E7F90939E0091E09093A80010922C
:101A6000A800DF91CF911F910F91FF90EF90089503
:101A7000CF93C82F10922F0189E080933001C0933B
:101A80003101109232011092340110923301109200
:101A90003601109235011092A70080E090E0EADE56
:101AA000882349F4C0932D01CC2311F09BE001C0A1
:101AB0009AE090933701CF910895CF93C091A700FA
:101AC000CF708091AA001092A7007FDAC093A70080
:101AD000CF9108959091C80095FFFCCF8093CE00E0
:101AE00080E090E008958091C80087FF08C0809151
:101AF000C80087FF07C08091CE0090E008958EEF68
:101B00009FEF08958FEF9FEF0895FC01009751F428
:101B1000E8E3F1E0F0934701E0934601F0934901D7
:101B2000E09348018EE0DF011D928A95E9F783E09A
:101B300083838AE69DE09187808783E79DE0938792
:101B400082870895FB01DC0102C001900D92415093
:101B50005040D8F70895CF93DF93CDB7DEB7FE019D
:101B60003596619171918091480190914901AF0141
:101B70007FD0DF91CF910895CF93DF93CDB7DEB7BC
:101B8000FE013596619171918091480190914901D2
:101B9000DC0113962C911397286013962C93AF01B8
:101BA00067D0E0914801F09149012381277F238389
:101BB000DF91CF9108950F931F93CF93DF938C0103
:101BC000E0914801F0914901838181FF1AC0C0E092
:101BD000D0E005C00995009711F0CFEFDFEFF801D5
:101BE00081918F016091480170914901DB01189644
:101BF000ED91FC911997882369F78AE00995009780
:101C000011F0CFEFDFEFCE01DF91CF911F910F9158
:101C100008950F931F93CF93DF938C01E0914801B8
:101C2000F0914901838181FF1BC0C0E0D0E007C073
:101C30000995009711F0CFEFDFEF0F5F1F4FF8010D
:101C400084916091480170914901DB011896ED91F2
:101C5000FC911997882361F78AE00995009711F0A4
:101C6000CFEFDFEFCE01DF91CF911F910F9108955C
:101C70002F923F924F925F926F927F928F929F929C
:101C8000AF92BF92CF92DF92EF92FF920F931F938A
:101C9000CF93DF93CDB7DEB72D970FB6F894DEBFA5
:101CA0000FBECDBF3C017D876C875A01FC011782B6
:101CB0001682838181FFBBC12E010894411C511CF7
:101CC000F3019381EC85FD8593FD859193FF8191CF
:101CD000FD87EC87882309F4A6C1853241F493FD82
:101CE000859193FF8191FD87EC87853221F490E007
:101CF000B301CED1E5CFFF24EE2410E01032B0F4D2
:101D00008B3269F08C3228F4803251F0833271F4D6
:101D10000BC08D3239F0803349F411602CC0126051
:101D2000146029C0186027C0106125C017FD2EC09F
:101D3000282F20532A3098F416FF08C08F2D880FC3
:101D4000F82EFF0CFF0CF80EF20E15C08E2D880F2A
:101D5000E82EEE0CEE0CE80EE20E10620CC08E3295
:101D600021F416FD60C1106406C08C3611F41068B1
:101D700002C0883659F4EC85FD8593FD859193FF6B
:101D80008191FD87EC87882309F0B8CF982F95546F
:101D9000933018F09052933038F424E030E0A20EE3
:101DA000B31E3FE339830FC0833631F0833781F0B0
:101DB000833509F056C021C0F5018081898322E076
:101DC00030E0A20EB31E21E0C22ED12C420113C07E
:101DD00092E0292E312C2A0C3B1CF5018080918049
:101DE00016FF03C06F2D70E002C06FEF7FEFC401DC
:101DF00044D16C0151011F7714C082E0282E312C90
:101E00002A0C3B1CF5018080918016FF03C06F2DCA
:101E100070E002C06FEF7FEFC40124D16C01106845
:101E2000510113FD1AC005C080E290E0B30130D12A
:101E3000EA948E2D90E0C816D906B0F30EC0F401D6
:101E400017FD859117FF81914F0190E0B30120D1DB
:101E5000E110EA940894C108D108C114D10479F7BB
:101E6000DFC0843611F0893649F5F50117FF07C048
:101E700080819181A281B38124E030E008C080811B
:101E80009181AA2797FDA095BA2F22E030E0A20EFB
:101E9000B31E012F0F76B7FF08C0B095A09590959F
:101EA00081959F4FAF4FBF4F0068BC01CD01A2018C
:101EB0002AE030E019D1D82ED4183EC0853721F45D
:101EC0001F7E2AE030E020C0197F8F36A9F08037CE
:101ED00020F4883509F0A7C00BC0803721F088377F
:101EE00009F0A1C001C0106114FF09C0146007C04F
:101EF00014FF08C0166006C028E030E005C020E1ED
:101F000030E002C020E132E0F50117FF07C0608138
:101F100071818281938144E050E006C060817181CB
:101F200080E090E042E050E0A40EB51EA201DCD0BB
:101F3000D82ED418012F0F7706FF09C00E7FDF14AB
:101F400030F404FF06C002FD04C00F7E02C01D2D48
:101F500001C01F2D802F90E004FF0CC0FE01ED0D8D
:101F6000F11D2081203311F4097E09C002FF06C053
:101F70001E5F05C086789070009709F01F5F802E65
:101F8000992403FD11C000FF0CC0FD2C1E1548F460
:101F9000FE0CF11A1E2D05C080E290E0B30178D04E
:101FA0001F5F1E15C8F304C01E1510F4E11A01C00E
:101FB000EE2484FE0EC080E390E0B30169D082FE7F
:101FC0001DC081FE03C088E590E010C088E790E066
:101FD0000DC0C40186789070009781F081FC02C02A
:101FE00080E201C08BE207FD8DE290E0B30150D0AA
:101FF00005C080E390E0B3014BD0FA94DF14C8F33E
:10200000DA94F201ED0DF11D808190E0B30140D032
:10201000DD20B1F705C080E290E0B30139D0EA9449
:10202000EE20C9F74DCEF3018681978102C08FEF74
:102030009FEF2D960FB6F894DEBF0FBECDBFDF9198
:10204000CF911F910F91FF90EF90DF90CF90BF90B5
:10205000AF909F908F907F906F905F904F903F9048
:102060002F900895FC010590615070400110D8F741
:10207000809590958E0F9F1F0895FC0161507040D0
:1020800001900110D8F7809590958E0F9F1F0895AD
:102090000F931F93CF93DF938C01EB018B8181FF13
:1020A0001BC082FF0DC02E813F818C819D8128172E
:1020B000390764F4E881F9810193F983E88306C064
:1020C000E885F985802F0995009731F48E819F81ED
:1020D00001969F838E8302C00FEF1FEFC801DF912F
:1020E000CF911F910F910895FA01AA27283051F13D
:1020F000203181F1E8946F936E7F6E5F7F4F8F4F39
:102100009F4FAF4FB1E03ED0B4E03CD0670F781F97
:10211000891F9A1FA11D680F791F8A1F911DA11D7C
:102120006A0F711D811D911DA11D20D009F46894B5
:102130003F912AE0269F11243019305D3193DEF65D
:10214000CF010895462F4770405D4193B3E00FD013
:10215000C9F7F6CF462F4F70405D4A3318F0495DFE
:1021600031FD4052419302D0A9F7EACFB4E0A695E1
:102170009795879577956795BA95C9F70097610503
:10218000710508959B01AC010A2E06945795479559
:1021900037952795BA95C9F7620F731F841F951F4E
:0821A000A01D0895F894FFCF83
:1021A80030782530327820000D0A0D0080060001B5
:1021B8000000080000050100000000004080080041
:0621C80000000001000010
:00000001FF
