:10000000A1C00000BCC00000BAC00000B8C0000021
:10001000B6C00000B4C00000B2C00000B0C0000014
:10002000AEC00000ACC0000095C20000A8C0000037
:10003000A6C00000A4C00000A2C00000A0C0000034
:100040009EC000009CC000009AC0000098C0000044
:1000500096C0000094C0000092C0000090C0000054
:100060008EC000008CC000008AC0000088C0000064
:1000700086C0000084C0000082C0000080C0000074
:100080007EC000007CC000007AC0000078C0000084
:1000900076C0000074C0000005010904A101090137
:1000A000A100050109300931159C256475089502E8
:1000B0008182C00509090209011500250175019514
:1000C000028102750695018101C012011001000034
:1000D0000008EB0343200100010200010902220095
:1000E000010100C0320904000001030000000921E1
:1000F00011010001223200070581030800010403F9
:10010000090418034400650061006E0020004300EC
:1001100061006D00650072006100000026034C0064
:1001200055004600410020004A006F00790073002E
:100130007400690063006B002000440065006D00DE
:100140006F00000011241FBECFEFD0E2DEBFCDBF95
:1001500011E0A0E0B1E0EAEBFBE000E00BBF02C081
:1001600007900D92A030B107D9F711E0A0E0B1E0FF
:1001700001C01D92AF30B107E1F7DAD01CC540CF06
:100180008BB18F70806A8BB908958BB18F7080614D
:100190008BB90895FC0123B18CB1809590E08073F8
:1001A0009070959587952095207E282B3CB13095B1
:1001B000347083E0DF011D928A95E9F727FF02C0C2
:1001C0008CE903C024FF02C084E68183922F26FFBE
:1001D00002C08CE903C023FF02C084E6808395FF40
:1001E00002C082E08283332319F08281816082839E
:1001F000909101019227809100018327982B09F0AB
:1002000091E02093010130930001892F08950F930D
:100210001F93DF93CF9300D00F92CDB7DEB78091BD
:1002200006018430D1F481E08093E9008091E800F8
:1002300080FF13C08E010F5F1F4FC801ABDFC801E5
:1002400063E070E078D48091E8008E778093E800D6
:1002500083E0F80111928A95E9F70F900F900F90C3
:10026000CF91DF911F910F9108950F931F93DF930B
:10027000CF9300D00F92CDB7DEB7809108018130C7
:10028000B9F480910701813A99F48E010F5F1F4FF5
:10029000C80180DF8091E800877F8093E800C80173
:1002A00063E070E08AD38091E8008B778093E80068
:1002B0000F900F900F90CF91DF911F910F910895A4
:1002C00081E061EC42E07DD080FD02C090E901C098
:1002D00090E68BB18F70982B9BB9089584B7877F78
:1002E00084BF88E10FB6F89480936000109260009C
:1002F0000FBE80E090E020E80FB6F89420936100F4
:10030000809361000FBE84B18F7184B98DB18F7CF1
:100310008DB985B1806E85B98EB180638EB98AB191
:10032000806F8AB98BB18F708BB96A98729AFCC052
:10033000D5DF8BB18F7080618BB9789468DF28D45A
:10034000FDCFDA019330B1F0943028F4913041F0D0
:10035000923079F50AC0913211F1923251F524C0F0
:10036000EAECF0E022E130E028C0ECEDF0E022E23F
:1003700030E023C0813049F0813018F08230C9F478
:100380000AC0EEEFF0E0849103C0E2E0F1E0849176
:10039000282F30E012C0ECE1F1E08491F9CFEEEECD
:1003A000F0E029E030E009C0E8E9F0E022E330E0E5
:1003B00004C0E0E0F0E020E030E0ED93FC93C90100
:1003C00008958093E9008091EB0081608093EB00B9
:1003D0001092ED006093EC004093ED008091EE00F0
:1003E000881F8827881F08958091070188239CF41F
:1003F00004C0809106018823B9F08091E80082FF53
:10040000F8CF8091E8008B778093E8000895809181
:100410000601882349F08091E80080FFF8CF8091A1
:10042000E8008E778093E80008954091E4005091B1
:10043000E50024E68091EC0080FF05C08091E80093
:1004400080FF05C022C08091E80082FD1EC080911F
:100450000601882311F482E00895853011F483E0C9
:1004600008958091EB0085FF02C081E0089580919E
:10047000E4009091E50084179507E1F2222311F43E
:1004800084E008952150AC01D5CF80E0089555D087
:100490005CD08091D800982F9F779093D800806887
:1004A0008093D8008CE089BD89B5826089BD09B48C
:1004B00000FEFDCF8091D8008F7D8093D800809181
:1004C000D70080688093D700109206011092040133
:1004D00010920301109202018091E0008B7F8093C3
:1004E000E0008091D80081608093D80080E060E0D7
:1004F00042E067DF8091E1008E7F8093E100809190
:10050000E20081608093E2008091E2008860809345
:10051000E2008091E0008E7F8093E0008091D8001F
:1005200080618093D8000895E7EDF0E080818160DC
:10053000808381E080930501AACFE8EDF0E080811F
:100540008C7F80831092E20008951092DA0010925E
:10055000E10008951F920F920FB60F920BB60F9203
:1005600011242F933F934F935F936F937F938F93B8
:100570009F93AF93BF93EF93FF938091DA0080FF37
:1005800015C08091D80080FF11C08091DA008E7F65
:100590008093DA008091D90080FF05C081E08093CC
:1005A0000601EEDD03C010920601EFDD8091E1004F
:1005B00080FF1DC08091E20080FF19C08091E100A2
:1005C0008E7F8093E1008091E2008E7F8093E20035
:1005D0008091E20080618093E2008091D800806287
:1005E0008093D80019BC85E080930601E5D1809105
:1005F000E10084FF2EC08091E20084FF2AC08CE0DD
:1006000089BD89B5826089BD09B400FEFDCF8091A6
:10061000D8008F7D8093D8008091E1008F7E8093F9
:10062000E1008091E2008F7E8093E2008091E20001
:1006300081608093E20080910401882331F48091ED
:10064000E30087FD02C081E001C084E080930601E1
:10065000B3D18091E10083FF22C08091E20083FF4B
:100660001EC08091E100877F8093E10082E080934B
:100670000601109204018091E1008E7F8093E100D9
:100680008091E2008E7F8093E2008091E2008061A1
:100690008093E20080E060E042E093DE8DD18091C3
:1006A000E10082FF0AC08091E20082FF06C08091D3
:1006B000E1008B7F8093E1007FD1FF91EF91BF91AB
:1006C000AF919F918F917F916F915F914F913F91EA
:1006D0002F910F900BBE0F900FBE0F901F9018958B
:1006E0000F931F93DF93CF93CDB7DEB7AC970FB6C1
:1006F000F894DEBF0FBECDBFE7E0F1E08091F100DE
:10070000819321E0EF30F207C9F7AFDD8091E80077
:1007100083FF39C18091070130910801353009F418
:1007200087C0363040F43130C9F1313070F03330A9
:1007300009F029C133C0383009F4F7C0393009F461
:1007400006C1363009F01FC199C0803821F08238C7
:1007500009F019C108C0909102018091030188231A
:1007600099F0926011C080910B0187708093E9002D
:100770008091EB0090E025E0969587952A95E1F72A
:10078000982F91701092E9008091E800877F809304
:10079000E8009093F1001092F100D2C0882319F084
:1007A000823009F0F0C090E08F719070009721F0D6
:1007B000029709F0E8C00CC080910901813009F06E
:1007C000E2C010920301333069F5809303012AC01F
:1007D00080910901882331F520910B01277009F4DC
:1007E000D2C02093E9008091EB0080FF1BC0333022
:1007F00021F48091EB00806213C08091EB00806156
:100800008093EB0081E090E002C0880F991F2A9549
:10081000E2F78093EA001092EA008091EB00886092
:100820008093EB001092E9008091E800877F8BC0F5
:10083000882309F0A8C0109109011F770FB7F89419
:100840008091E800877F8093E800CEDD8091E8000A
:1008500080FFFCCF112311F482E001C083E080937C
:1008600006018091E3008078182B1093E3008091BB
:10087000E30080688093E3000FBF85C0805882301A
:1008800008F081C08091090190910A0123E08C3D1C
:10089000920799F57FB7F894DE0115966EE040E077
:1008A00050E011E2E62FF0E010935700849140FFF2
:1008B00003C082958F706F5F8F70282F30E08A3071
:1008C00018F0C901C79602C0C901C0968D939D93C7
:1008D0004F5F5F4F4431510529F77FBF8AE28B8319
:1008E00083E08C838091E800877F8093E800CE01CD
:1008F00003966AE270E061D012C060910B01AE0114
:100900004F5F5F4F1EDDBC01009709F43CC0809132
:10091000E800877F8093E80089819A81ACD080913C
:10092000E8008B778093E8002EC0803861F58091D5
:10093000E800877F8093E800809104018093F100B4
:100940008091E8008E778093E8004EDD1CC08823FC
:10095000D1F4909109019230B0F48091E800877F42
:100960008093E800909304013FDD80910401882387
:1009700031F48091E30087FD02C081E001C084E092
:10098000809306019DDC8091E80083FF0AC080917E
:10099000EB0080628093EB008091E800877F80937A
:1009A000E800AC960FB6F894DEBF0FBECDBFCF9176
:1009B000DF911F910F91089508959C0140910D01C1
:1009C00050910E014617570718F4F90190E03DC009
:1009D0006115710511F0AB01F8CF8091E8008E77B9
:1009E0008093E80040E050E0F0CF8091060188233A
:1009F000F1F18530F1F18091E80083FF02C081E0E0
:100A000008958091E80082FD2CC08091E80080FF6D
:100A10001CC02091F2003091F30007C081918093B7
:100A2000F100415050402F5F3F4F4115510519F0E3
:100A30002830310598F390E02830310509F491E031
:100A40008091E8008E778093E8004115510569F6A2
:100A5000992359F606C080910601882341F085301C
:100A600041F08091E80082FFF6CF80E0089582E0B7
:100A7000089583E008959C0140910D0150910E016D
:100A80004617570710F460E040C06115710511F07A
:100A9000AB01F9CF8091E8008E778093E80040E0C9
:100AA00050E0F1CF80910601882309F440C08530E1
:100AB00009F43FC08091E80083FF02C081E00895FF
:100AC0008091E80082FD2DC08091E80080FF1DC06C
:100AD0008091F2009091F30009C0F9012F5F3F4F20
:100AE000E491E093F10041505040019641155105C9
:100AF00019F08830910588F360E0089709F461E007
:100B00008091E8008E778093E8004115510551F6F9
:100B1000662341F606C080910601882341F08530A6
:100B200041F08091E80082FFF6CF80E0089582E0F6
:100B3000089583E00895FF920F931F93CF93DF935F
:100B4000182F092FEB0171DCF82E8823D1F4812FA7
:100B5000902F9C01890113C08091E80085FD09C098
:100B60008091E8008E778093E8005FDC882339F07D
:100B700009C0F80181918F018093F100219720979E
:100B800059F78F2DDF91CF911F910F91FF9008950D
:100B90001F9380910601882361F01091E900109263
:100BA000E9008091E80083FF01C09ADD177010937F
:0A0BB000E9001F910895F894FFCFAB
:00000001FF
