:1000000090C00000ABC00000A9C00000A7C0000065
:10001000A5C00000A3C00000A1C000009FC0000058
:100020009DC000009BC000000EC2000097C00000F1
:1000300095C0000093C0000091C000008FC0000078
:100040008DC000008BC0000089C0000087C0000088
:1000500085C0000084C0000081C000007FC0000097
:100060007DC000007BC0000079C0000077C00000A8
:1000700075C0000073C0000071C000006FC00000B8
:100080006DC000006BC0000069C0000067C00000C8
:1000900065C0000063C000001201100102000008EA
:1000A000EB03442001000102DC0109023E000201D1
:1000B00000C0320904000001020201000524001002
:1000C0000104240206052406000107058203080036
:1000D000FF09040100020A000000070504021000E5
:1000E00001070583021000010403090418034400FA
:1000F000650061006E002000430061006D00650036
:100100007200610000001A034C004500440020000A
:100110004E006F007400690066006900650072009F
:10012000000011241FBECFEFD0E2DEBFCDBF11E033
:10013000A0E0B1E0E4E6FEE000E00BBF02C0079003
:100140000D92A631B107D9F711E0A6E1B1E001C0E7
:100150001D92A533B107E1F760D082C651CF1F923F
:100160000F920FB60F9211242F938F939F9380912C
:1001700016018F5F80931601809116018F3111F463
:10018000109216019091160180911701981710F0A6
:1001900028E101C02CE19091160180911801981777
:1001A00008F0277F9091160180911901981708F0A7
:1001B0002F7E88B1837E282B28B99F918F912F9114
:1001C0000F900FBE0F901F90189580E091E099C599
:1001D00080E091E04DC584B7877F84BF88E10FB68A
:1001E000F89480936000109260000FBE80E090E071
:1001F00020E80FB6F89420936100809361000FBE51
:1002000087B18C6187B909D184E687BD92E094BD3E
:1002100081E085BD90936E000895DDDF80E091E080
:100220006AE171E087D478948AE191E0D7D5282FEC
:10023000207E8F71922F25FF02C08093170196FFB9
:1002400002C08093180127FF02C08093190180E04B
:1002500091E0B1D42AD4E8CFDA01923049F093305A
:1002600061F09130F9F4E8E9F0E022E130E01EC0FD
:10027000EAEAF0E02EE330E019C0813049F0813045
:1002800018F0823079F408C0E8EEF0E0849107C0FD
:10029000ECEEF0E0849103C0E6E0F1E08491282FD9
:1002A00030E004C0E0E0F0E020E030E0ED93FC93CB
:1002B000C90108958093E9008091EB0081608093EB
:1002C000EB001092ED006093EC004093ED00809104
:1002D000EE00881F8827881F089580912D018823AC
:1002E0009CF404C080912C018823B9F08091E8002F
:1002F00082FFF8CF8091E8008B778093E800089523
:1003000080912C01882349F08091E80080FFF8CF8C
:100310008091E8008E778093E80008954091E40092
:100320005091E50024E68091EC0080FF05C08091AB
:10033000E80080FF05C022C08091E80082FD1EC059
:1003400080912C01882311F482E00895853011F406
:1003500083E008958091EB0085FF02C081E008955D
:100360008091E4009091E50084179507E1F2222343
:1003700011F484E008952150AC01D5CF80E00895B8
:1003800055D05CD08091D800982F9F779093D8005B
:1003900080688093D8008CE089BD89B5826089BD72
:1003A00009B400FEFDCF8091D8008F7D8093D800E6
:1003B0008091D70080688093D70010922C01109212
:1003C0002A0110922901109228018091E0008B7F70
:1003D0008093E0008091D80081608093D80080E015
:1003E00060E042E067DF8091E1008E7F8093E10072
:1003F0008091E20081608093E2008091E200886059
:100400008093E2008091E0008E7F8093E0008091F5
:10041000D80080618093D8000895E7EDF0E08081F6
:100420008160808381E080932B01AACFE8EDF0E02A
:1004300080818C7F80831092E20008951092DA0010
:100440001092E10008951F920F920FB60F920BB613
:100450000F9211242F933F934F935F936F937F934A
:100460008F939F93AF93BF93EF93FF938091DA00A5
:1004700080FF15C08091D80080FF11C08091DA0004
:100480008E7F8093DA008091D90080FF05C081E0E3
:1004900080932C010AD203C010922C0106D28091C5
:1004A000E10080FF1DC08091E20080FF19C08091B3
:1004B000E1008E7F8093E1008091E2008E7F809347
:1004C000E2008091E20080618093E2008091D80098
:1004D00080628093D80019BC85E080932C01E5D11F
:1004E0008091E10084FF2EC08091E20084FF2AC049
:1004F0008CE089BD89B5826089BD09B400FEFDCF5D
:100500008091D8008F7D8093D8008091E1008F7E0C
:100510008093E1008091E2008F7E8093E2008091E1
:10052000E20081608093E20080912A01882331F407
:100530008091E30087FD02C081E001C084E08093E8
:100540002C01B3D18091E10083FF22C08091E200B1
:1005500083FF1EC08091E100877F8093E10082E0ED
:1005600080932C0110922A018091E1008E7F80936C
:10057000E1008091E2008E7F8093E2008091E200B2
:1005800080618093E20080E060E042E093DE8DD104
:100590008091E10082FF0AC08091E20082FF06C0E4
:1005A0008091E1008B7F8093E1007FD1FF91EF91FB
:1005B000BF91AF919F918F917F916F915F914F917B
:1005C0003F912F910F900BBE0F900FBE0F901F9079
:1005D00018950F931F93DF93CF93CDB7DEB7AC97EA
:1005E0000FB6F894DEBF0FBECDBFEDE2F1E0809113
:1005F000F100819321E0E533F207C9F7E6DD809150
:10060000E80083FF39C180912D0130912E013530F2
:1006100009F487C0363040F43130C9F1313070F020
:10062000333009F029C133C0383009F4F7C039300C
:1006300009F406C1363009F01FC199C0803821F095
:10064000823809F019C108C09091280180912901D0
:10065000882399F0926011C0809131018770809356
:10066000E9008091EB0090E025E0969587952A952A
:10067000E1F7982F91701092E9008091E800877F50
:100680008093E8009093F1001092F100D2C088238B
:1006900019F0823009F0F0C090E08F7190700097EF
:1006A00021F0029709F0E8C00CC080912F01813041
:1006B00009F0E2C010922901333069F580932901D5
:1006C0002AC080912F01882331F5209131012770B4
:1006D00009F4D2C02093E9008091EB0080FF1BC099
:1006E000333021F48091EB00806213C08091EB00E5
:1006F00080618093EB0081E090E002C0880F991F39
:100700002A95E2F78093EA001092EA008091EB00CC
:1007100088608093EB001092E9008091E800877F69
:100720008BC0882309F0A8C010912F011F770FB745
:10073000F8948091E800877F8093E800CEDD809177
:10074000E80080FFFCCF112311F482E001C083E0B8
:1007500080932C018091E3008078182B1093E300A4
:100760008091E30080688093E3000FBF85C08058CC
:10077000823008F081C080912F019091300123E0F8
:100780008C3D920799F57FB7F894DE0115966EE0DF
:1007900040E050E011E2E62FF0E010935700849122
:1007A00040FF03C082958F706F5F8F70282F30E0FD
:1007B0008A3018F0C901C79602C0C901C0968D934E
:1007C0009D934F5F5F4F4431510529F77FBF8AE208
:1007D0008B8383E08C838091E800877F8093E8009F
:1007E000CE0103966AE270E061D012C060913101DF
:1007F000AE014F5F5F4F30DDBC01009709F43CC094
:100800008091E800877F8093E80089819A81ACD04D
:100810008091E8008B778093E8002EC0803861F5E6
:100820008091E800877F8093E80080912A0180937F
:10083000F1008091E8008E778093E8004EDD1CC0C7
:100840008823D1F490912F019230B0F48091E80088
:10085000877F8093E80090932A013FDD80912A01F1
:10086000882331F48091E30087FD02C081E001C05C
:1008700084E080932C01ACDC8091E80083FF0AC007
:100880008091EB0080628093EB008091E800877F8D
:100890008093E800AC960FB6F894DEBF0FBECDBFD4
:1008A000CF91DF911F910F91089508959C01409180
:1008B0003301509134014617570718F4F90190E0BD
:1008C0003DC06115710511F0AB01F8CF8091E800D2
:1008D0008E778093E80040E050E0F0CF80912C01CB
:1008E0008823F1F18530F1F18091E80083FF02C0A7
:1008F00081E008958091E80082FD2CC08091E8009D
:1009000080FF1CC02091F2003091F30007C081915C
:100910008093F100415050402F5F3F4F41155105EA
:1009200019F02830310598F390E02830310509F4AA
:1009300091E08091E8008E778093E80041155105A1
:1009400069F6992359F606C080912C01882341F05D
:10095000853041F08091E80082FFF6CF80E0089575
:1009600082E0089583E008959C0140913301509105
:1009700034014617570710F460E040C06115710557
:1009800011F0AB01F9CF8091E8008E778093E800F9
:1009900040E050E0F1CF80912C01882309F440C061
:1009A000853009F43FC08091E80083FF02C081E0F8
:1009B00008958091E80082FD2DC08091E80080FFBD
:1009C0001DC08091F2009091F30009C0F9012F5FE2
:1009D0003F4FE491E093F1004150504001964115A2
:1009E000510519F08830910588F360E0089709F403
:1009F00061E08091E8008E778093E8004115510511
:100A000051F6662341F606C080912C01882341F0FF
:100A1000853041F08091E80082FFF6CF80E00895B4
:100A200082E0089583E008959C016115710529F421
:100A30008091E8008B778093E800F90122C08091D3
:100A40002C01882371F1853071F18091E80083FFDA
:100A500002C081E008958091E80082FFF0CF06C0D7
:100A60008091F10081936150704031F08091F200EB
:100A70009091F300892BA1F78091E8008B77809308
:100A8000E80061157105D9F606C080912C01882314
:100A900041F0853041F08091E80080FFF6CF80E0A2
:100AA000089582E0089583E008951F9380912C01BA
:100AB000882361F01091E9001092E9008091E8002C
:100AC00083FF01C086DD17701093E9001F91089520
:100AD0000895FC0180912C01843041F5878590892F
:100AE000A189B2890097A105B10501F185818093A3
:100AF000E9008091E80082FF19C08091F200909196
:100B0000F300892B19F42FEF3FEF04C08091F1001F
:100B1000282F30E08091F2009091F300892B41F46E
:100B20008091E8008B778093E80002C02FEF3FEFC1
:100B3000C9010895FB012EE0DB011D922A95E9F71A
:100B400023E0238329E236E0318720872BEE35E04E
:100B500033872287958784870895FC0180912C0133
:100B6000843021F587859089A189B2890097A105F4
:100B7000B105E1F081818093E9008091F2009091CC
:100B8000F300892BA9F09091E8008091E8008E771E
:100B90008093E80095FD0CC0C1DB982F882349F4B1
:100BA0008091E8008E778093E80003C092E001C056
:100BB00090E0892F0895FC0180912C01843051F43C
:100BC00087859089A189B2890097A105B10511F0A7
:100BD000CF01C3CF0895CF93DF93EC010BC0809179
:100BE0002C01882319F42EEF3FEF0AC08C859D85D8
:100BF000E2DF5BDF8C859D856CDF9C0197FDEFCF8D
:100C0000C901DF91CF9108951F93FC01162F8091A8
:100C10002C018430D9F487859089A189B289009705
:100C2000A105B10599F081818093E9008091E800E8
:100C300085FD08C08091E8008E778093E8006EDB28
:100C4000882329F41093F10080E001C082E01F9115
:100C50000895282FFB0184859585622FD5DF882391
:100C600019F420E030E002C02FEF3FEFC9010895F2
:100C70001F93CF93DF93EC010D96FC0189E0DF0118
:100C80001D928A95E9F711E08981181729F4EA8104
:100C9000FB818C8162E010C08D81181731F4EE81E8
:100CA000FF81888562E030E008C08985181709F562
:100CB000EA85FB858C8563E031E0882311F440E010
:100CC00001C044E020E088E090E003C02F5F880F7F
:100CD000991F8E179F07D0F36295660F660F607C91
:100CE000632B42602295207F422B812FE3DA8823F9
:100CF00021F01F5F173041F681E0DF91CF911F9106
:100D00000895CF93DF93EC018091E80083FF63C0E7
:100D1000888190E020913101309132012817390704
:100D200009F059C080912E01813261F0823220F4A5
:100D3000803209F050C01BC0823279F1833209F051
:100D40004AC03BC080912D01813A09F044C0809196
:100D5000E800877F8093E800CE010F9667E070E09F
:100D6000A5DD8091E8008B778093E80034C0809106
:100D70002D01813281F58091E800877F8093E80022
:100D8000CE010F9667E070E04FDE8091E8008E772D
:100D90008093E800CE019CDE1EC080912D0181323F
:100DA000D1F48091E800877F8093E80096DA809103
:100DB0002F018D87CE018CDE0EC080912D018132F6
:100DC00051F48091E800877F8093E80086DACE01B5
:100DD00060912F017DDEDF91CF910895CF93DF9356
:100DE000EC014B8140FF1AC046FF0AC04F7B4B838A
:100DF0008E819F8101969F838E838A81282F2BC0AD
:100E000042FF13C0E881F9818081282F332727FD15
:100E100030952115310529F440624B832FEF3FEFC8
:100E20001BC03196F983E88311C0EA85FB85CE01AA
:100E300009959C0197FF0AC09B812F5F3F4F11F0DE
:100E400080E201C080E1892B8B83E8CF8E819F8176
:100E500001969F838E8330E0C901DF91CF91089581
:040E6000F894FFCF34
:100E6400000310000004100000020800000000004D
:060E740000000000000078
:00000001FF
