:100000001DC200003AC2000038C2000036C2000023
:1000100034C2000032C2000030C200002EC2000014
:100020002CC200002AC200000C94A61226C20000B6
:1000300024C2000022C2000020C200001EC2000034
:100040001CC200001AC2000018C2000016C2000044
:1000500014C2000012C2000010C200000EC2000054
:100060000CC200000AC2000008C2000006C2000064
:1000700004C2000002C2000000C20000FEC1000075
:10008000FCC10000FAC10000F8C10000F6C1000088
:10009000F4C10000F2C1000028034C0055004600E6
:1000A0004100200052004E0044004900530020004F
:1000B0004300440043002000440065006D006F00D1
:1000C000000018034400650061006E00200043003A
:1000D00061006D0065007200610000000403090406
:1000E00009023E00020100C03209040000010202C0
:1000F000FF0005240010010424020005240600016D
:10010000070583030800FF09040100020A0000003C
:1001100007050202400005070581024000051201A3
:10012000100102000008EB034C2001000102000155
:1001300001010100020201000201010003010100AE
:100140000401010006010100110101000701010085
:100150000A0101000B0101000C0101000D01010069
:100160000E01010011010100140101000101020052
:100170000201020003010200040102000501020065
:100180000101010102010101030101010401010159
:100190000101020102010201030102014C55464125
:1001A00020524E44495320416461707465720002CC
:1001B00000020002003C68746D6C3E093C68656199
:1001C000643E09093C7469746C653E0909094C5523
:1001D0004641205765627365727665722044656D8D
:1001E0006F09093C2F7469746C653E093C2F686582
:1001F00061643E093C626F64793E09093C68313EA6
:1002000048656C6C6F2066726F6D20796F75722017
:1002100055534220415652213C2F68313E09093C3A
:10022000703E09090948656C6C6F212057656C6345
:100230006F6D6520746F20746865204C55464120B1
:10024000524E4449532044656D6F20576562736573
:1002500072766572207465737420706167652C20F6
:1002600072756E6E696E67206F6E20796F75722081
:1002700055534220415652207669612074686520AA
:100280004C554641206C6962726172792E20546827
:1002900069732064656D6F6E737472617465732029
:1002A000746865204854545020776562736572768F
:1002B00065722C205443502F495020737461636B36
:1002C00020616E6420524E4449532064656D6F2056
:1002D000616C6C2072756E6E696E672061746F70F0
:1002E00020746865204C5546412055534220737454
:1002F00061636B2E0909093C6272202F3E3C6272D9
:10030000202F3E0909093C736D616C6C3E50726F81
:100310006A65637420496E666F726D6174696F6E91
:100320003A203C6120687265663D22687474703AB8
:100330002F2F7777772E6C7566612D6C69622E6F23
:100340007267223E687474703A2F2F7777772E6C1D
:100350007566612D6C69622E6F72673C2F613E2E4F
:100360003C2F736D616C6C3E0909093C6872202F4B
:100370003E0909093C693E4C554641205665727359
:10038000696F6E3A203C2F693E3133303330330988
:10039000093C2F703E093C2F626F64793E3C2F6808
:1003A000746D6C3E00485454502F312E312034303F
:1003B00034204E6F7420466F756E640D0A5365725B
:1003C0007665723A204C55464120524E4449530DB1
:1003D0000A436F6E6E656374696F6E3A20636C6F6B
:1003E00073650D0A0D0A00485454502F312E3120E8
:1003F000323030204F4B0D0A5365727665723A20C9
:100400004C55464120524E4449530D0A436F6E7479
:10041000656E742D747970653A20746578742F68F0
:10042000746D6C0D0A436F6E6E656374696F6E3A1E
:1004300020636C6F73650D0A0D0A000011241FBE46
:10044000CFEFD0E2DEBFCDBF11E0A0E0B1E0EAE146
:10045000FBE200E00BBF02C007900D92A634B1078B
:10046000D9F71BBE13E1A6E4B1E001C01D92A53F80
:10047000B107E1F793D10C948B15C2CD9BB19F705E
:10048000982B9BB9089584B7877F84BF28E10FB666
:10049000F89420936000109260000FBE90E080E816
:1004A0000FB6F89480936100909361000FBE8AB1FB
:1004B000806F8AB98BB18F708BB983E390E0909392
:1004C000CD008093CC0086E08093CA001092C800D3
:1004D0002093C900539A5A9A0E948B1280E090E0B0
:1004E0000C94111580EACACF80E1C8CF1F93CF9337
:1004F000DF9381E061E842E30E94BD11182F82E0A2
:1005000060E842E30E94BD11C82FD0E0812F90E047
:10051000C823D92383E061EC42E00E94BD1190E042
:100520008C239D23009711F080E601C080E9A6DFAF
:10053000DF91CF911F9108958091DA13882321F0E4
:10054000813009F04BC018C08091D913813209F075
:1005500045C08091E800877F8093E8006091DF13B9
:100560007091E01389E09DE00E9417118091E800EE
:100570008E778093E800F0C18091D913813A71F5AC
:10058000E0912001F091210184819581A681B781BC
:100590000097A105B10551F41092090D81E090E09A
:1005A000A0E0B0E084839583A683B7838091E800C0
:1005B000877F8093E8006481758189E09DE00E94D7
:1005C000BB108091E8008B778093E800E0912001D8
:1005D000F0912101148215821682178208950F93DB
:1005E0001F93CF93DF93CDB7DEB7AC970FB6F894D8
:1005F000DEBF0FBECDBF83E08093E9008091E800AD
:1006000080FF1CC080914B018823C1F0DE01119650
:10061000E0E0F1E088E001900D928150E1F7CE0139
:10062000019668E070E040E050E00E941B1080916D
:10063000E8008E778093E80010924B0120914A01E8
:10064000223009F090C0E0912001F09121018481D5
:100650009581A681B7810097A105B10509F083C0F6
:100660002093E9008091E80082FF32C08091290741
:1006700090912A07009761F5CE0101966CE270E037
:1006800040E050E00E946B104D855E856F85788953
:100690004D3D85E0580780E0680780E0780730F03E
:1006A0008091EB0080628093EB005DC08DE491E06F
:1006B000BA0140E050E00E946B108091E8008B7717
:1006C0008093E8008D859E8590932A078093290763
:1006D00081E08093E9008091E80080FF44C0409170
:1006E000070D5091080D41155105E9F1CE01019614
:1006F0002CE2FC0111922A95E9F701E010E020E0DC
:1007000030E009831A832B833C838A01045D1F4FE9
:1007100020E030E00D831E832F83388704E210E051
:1007200020E030E009871A872B873C8760E070E083
:100730004D875E876F87788B6CE270E040E050E019
:100740000E941B106D857E858BE297E040E050E0B3
:100750000E941B108091E8008E778093E800109231
:10076000080D1092070DAC960FB6F894DEBF0FBEC1
:10077000CDBFDF91CF911F910F9108958091D81334
:10078000843059F48091290790912A07009729F025
:1007900080E274DE3CD080E671CE089574DEEAD546
:1007A0000E94151080E16ADE7894E8DF93D417DFA9
:1007B0000E94DA14FACF923029F0933041F0913050
:1007C000E9F417C08EE390E0E0EEF0E01BC081306A
:1007D00041F0813018F0823089F406C0ECEDF0E091
:1007E00005C0E2ECF0E002C0E8E9F0E0849190E0BE
:1007F00009C082E190E0EEE1F1E004C080E090E029
:10080000E0E0F0E0DA011196FC93EE9308958DE4B8
:1008100091E09BD08DE491E06AE171E046E050E028
:100820000E945615009759F08DE491E060E171E067
:1008300046E050E00E945615009709F04FC08091A5
:10084000290790912A07282F892F922F26E081309F
:10085000920708F443C08091590190915A01282FC2
:10086000892F922F28E08030920759F028E08630B7
:100870009207A1F58BE591E069E377E00E94460ECF
:1008800006C08BE591E069E377E00E94B60E18168A
:10089000190604F5A1E3B7E0EAE1F1E026E00190F2
:1008A0000D922150E1F7ABE2B7E0E3E5F1E026E09D
:1008B00001900D922150E1F72091590130915A0198
:1008C00030933807209337070E969093080D809346
:1008D000070D04C02FEF8F3F920721F010922A07D7
:1008E000109229070895CF93DF939B0136952795A2
:1008F000EC01E0E0F0E040E050E0BA0109C089918D
:100900009991A0E0B0E0480F591F6A1F7B1F3196F4
:10091000E217F307A1F70BC0DB01CA01A070B070AA
:10092000AB0166277727480F591F6A1F7B1FDB0122
:10093000CA01807090700097A105B10569F7CA01DE
:1009400080959095DF91CF91089508950895089529
:100950000895089508950895E0912001F0912101EE
:1009600080819181A281B38184309105A105B10577
:1009700009F4A3C085309105A105B10560F482306A
:100980009105A105B105D1F083309105A105B1050F
:1009900009F0D7C289C086309105A105B10509F4D7
:1009A00049C286309105A105B10508F4F1C188302E
:1009B0009105A105B10509F0C4C260C221E02093F0
:1009C0004B0182E090E0A0E0B0E88093090D9093A5
:1009D0000A0DA0930B0DB0930C0D84E390E0A0E002
:1009E000B0E080930D0D90930E0DA0930F0DB0937A
:1009F000100D1092150D1092160D1092170D1092E9
:100A0000180D81E090E0A0E0B0E08093190D909384
:100A10001A0DA0931B0DB0931C0D10921D0D10927A
:100A20001E0D10921F0D1092200D8093210D90939A
:100A3000220DA093230DB093240D1092250D10923A
:100A4000260D1092270D1092280D8093290D90935A
:100A50002A0DA0932B0DB0932C0D88E096E0A0E01A
:100A6000B0E080932D0D90932E0DA0932F0DB09399
:100A7000300D1092310D1092320D1092330D1092F4
:100A8000340D1092350D1092360D1092370D1092D4
:100A9000380D1092390D10923A0D10923B0D1092B4
:100AA0003C0D20934A01089510924B011482158247
:100AB0001682178210924A01089581E080934B01BB
:100AC0004091150D5091160D6091170D7091180DF4
:100AD000E9E0FDE084E090E0A0E0B0E88093090D5B
:100AE00090930A0DA0930B0DB0930C0D88E190E04C
:100AF000A0E0B0E080930D0D90930E0DA0930F0D2C
:100B0000B093100D4E3021E0520721E0620720E043
:100B1000720709F403C14F3081E0580781E068078C
:100B200080E0780708F064C0463021E0520721E0F9
:100B3000620720E0720709F4BFC0473081E0580720
:100B400081E0680780E0780728F5423021E052070D
:100B500021E0620720E0720709F4C6C0433081E05B
:100B6000580781E0680780E0780750F4413021E0C1
:100B7000520721E0620720E0720709F0ECC08CC048
:100B8000453081E0580781E0680780E0780708F089
:100B9000E2C0AAC04C3021E0520721E0620720E009
:100BA000720798F44A3081E0580781E0680780E0D6
:100BB000780708F081C0473021E0520721E0620742
:100BC00020E0720709F0C7C094C04C3081E058079C
:100BD00081E0680780E0780709F469C04D3021E0C2
:100BE000520721E0620720E0720709F0B4C071C02B
:100BF000463081E0580782E0680780E0780728F5F2
:100C0000413021E0520722E0620720E0720708F03D
:100C10008EC0443181E0580781E0680780E07807A2
:100C200009F462C0423022E0520721E0620720E06E
:100C3000720709F459C0413181E0580781E0680723
:100C400080E0780709F087C07BC0443021E052077C
:100C500021E0620721E0720709F45BC0453081E0C2
:100C6000580781E0680781E0780758F44150514007
:100C700061407140423051056105710508F06BC05B
:100C80003DC04150514062407140433051056105C3
:100C9000710508F060C04BC0CF01489660E371E079
:100CA0004CE650E00E942E154CE650E00BC18FEF51
:100CB0009FEFAFEFB0E048C08CED95E0A0E0B0E072
:100CC0008093210D9093220DA093230DB093240DBA
:100CD0003FC0CF0148966CE971E043E150E00E94CB
:100CE0002E1543E150E0EEC0108E118E128E138E41
:100CF0002FC080EA96E8A1E0B0E026C0CF01489678
:100D00006FEA71E046E050E00E942E1546E050E0A8
:100D1000D9C081E090E0A0E0B0E016C0809146012B
:100D200090914701A0914801B09149010DC01092E6
:100D3000210D1092220D1092230D1092240D08C047
:100D400080E696E0A0E0B0E0808F918FA28FB38F15
:100D500044E050E0B7C08BEB90E0A0E0B0EC8093B3
:100D6000150D9093160DA093170DB093180D1092BA
:100D7000190D10921A0D10921B0D10921C0D10924D
:100D80001D0D10921E0D10921F0D1092200D089532
:100D900081E080934B018091150D9091160DA091EB
:100DA000170DB091180D45E050E060E070E84093F9
:100DB000090D50930A0D60930B0D70930C0D40E1DB
:100DC00050E060E070E040930D0D50930E0D609385
:100DD0000F0D7093100D40911D0D50911E0D6091DF
:100DE0001F0D7091200D8E30E1E09E07E1E0AE070F
:100DF000E0E0BE0751F08330F1E09F07F1E0AF077C
:100E0000F1E0BF0709F091C054C0485F5F4F475FF2
:100E1000524FFA0180819181A281B3818093460172
:100E200090934701A0934801B093490182E08093D9
:100E30004A013FC081E080934B0186E090E0A0E052
:100E4000B0E88093090D90930A0DA0930B0DB09319
:100E50000C0D80E190E0A0E0B0E080930D0D909348
:100E60000E0DA0930F0DB093100D1092110D109256
:100E7000120D1092130D1092140D1BC081E080937F
:100E80004B0188E090E0A0E0B0E88093090D9093DA
:100E90000A0DA0930B0DB0930C0D80E190E0A0E043
:100EA000B0E080930D0D90930E0DA0930F0DB093B5
:100EB000100D1092150D1092160D1092170D109224
:100EC000180D08951092150D1092160D1092170D11
:100ED0001092180D60E070E080910D0D90910E0D54
:100EE000A0910F0DB091100D840F951FA61FB71F75
:100EF00080930D0D90930E0DA0930F0DB093100DD8
:100F00004093190D50931A0D60931B0D70931C0D97
:100F100080E190E0A0E0B0E080931D0D90931E0D65
:100F2000A0931F0DB093200D08958BEB90E0A0E0EF
:100F3000B0EC8093150D9093160DA093170DB09300
:100F4000180D0895EF92FF920F931F93CF93DF93A5
:100F50008C017B01FDDCF8018081883051F5F701BF
:100F60001082118213821282F80184819581F70127
:100F700095838483F80186819781F701978386831F
:100F8000C0912907D0912A07CB5BDE4FC01BD10B44
:100F9000B801685F7F4FC7010896AE010E946C15CB
:100FA0002896C701BE019FDCF70193838283CE019F
:100FB00002C080E090E0DF91CF911F910F91FF90F0
:100FC000EF9008959B01692F782F832F922F08951A
:100FD000282F892F922F0895AF92BF92CF92DF9240
:100FE000EF92FF920F931F93CF93DF935C01FB016E
:100FF000EA018901C280D380EE24FF24808191819F
:10100000A0E0B0E0C80ED91EEA1EFB1E88819981BF
:10101000A0E0B0E0C80ED91EEA1EFB1E8A819B81AB
:10102000A0E0B0E0C80ED91EEA1EFB1E86E090E0EC
:10103000CFDFA0E0B0E0C80ED91EEA1EFB1EC8013B
:10104000C7DFAC0160E070E04C0D5D1D6E1D7F1DC3
:10105000E801D695C795F50120E030E00AC08191FE
:101060009191A0E0B0E0480F591F6A1F7B1F2F5FCE
:101070003F4F2C173D0799F700FF16C0F901EE0FFF
:10108000FF1FEA0DFB1D8081480F511D611D711D61
:101090000BC0DB01CA01A070B070AB0166277727D7
:1010A000480F591F6A1F7B1FDB01CA0180709070B7
:1010B0000097A105B10569F7CA0180959095DF9168
:1010C000CF911F910F91FF90EF90DF90CF90BF9045
:1010D000AF9008956F927F928F929F92AF92BF923E
:1010E000CF92DF92EF92FF920F931F93CF93DF93F4
:1010F0000DE81DE0C0E0D0E086E1C82E82E0D82EE9
:101100001BC08091D113813089F4CC9DC001CD9D4D
:10111000900DDC9D900D1124BC016356724FE0913F
:10112000D213F091D3138357924F099521960A5EFB
:101130001D4FC330D10559F08091CF139091D0133A
:10114000F801208131818217930781F7DACF8091EE
:10115000070D9091080D009709F0FDC0E0EAFFE04F
:1011600066247724DF0111978C91882309F4E9C064
:101170008081882309F4E5C086E192E0689E5001F1
:10118000699EB00C789EB00C1124E501C357D24F74
:10119000888899888881998190934E0780934D071C
:1011A0008A819B819093500780934F07CC84DD8484
:1011B000EE84FF84C701B60105DFDC01CB0180931B
:1011C000510790935207A0935307B0935407688533
:1011D00079858A859B85F6DEDC01CB0180935507F6
:1011E00090935607A0935707B0935807009159075B
:1011F0000F70006580E092E0EBDE90935C078093D7
:101200005B0780E180935A071092600710925F0796
:1012100010925E0710925D07007F0093590701E668
:1012200017E0B5016156724FC801A4010E94631511
:10123000C401A0E0B0E08C0D9D1DAE1DBF1D8C87CC
:101240009D87AE87BF87A5014F56524F94012C5EF4
:101250003F4FC801449766E171E0BEDE90935E07A0
:1012600080935D07C4018896B3DE90933C0780931A
:101270003B0710923A0785E48093390710923F07A5
:101280001092400710923E0710923D0710924407BB
:101290001092430786E08093420780E880934107DD
:1012A0008091160190911701A0911801B091190138
:1012B0008093450790934607A0934707B09348074C
:1012C0008C819D81AE81BF818093490790934A07AD
:1012D000A0934B07B0934C07C801889764E170E076
:1012E00002DB9093440780934307D801D097EAE14B
:1012F000F1E086E001900D928150E1F7ABE2B7E0BA
:10130000E2E2F1E086E001900D928150E1F780E0A9
:1013100098E05EDE9093380780933707C401C69645
:101320009093080D8093070D86E192E0689EF0018E
:10133000699EF00D789EF00D1124E056F04F10825A
:101340000AC00894611C711CEA5EFD4F83E06816B8
:10135000710409F007CFDF91CF911F910F91FF909A
:10136000EF90DF90CF90BF90AF909F908F907F9045
:101370006F9008951092D1138AE08093A20F80930A
:10138000B8118093CE1308952091CF133091D013CC
:101390002817390751F0613071F42091D1132223BD
:1013A00061F49093D0138093CF136093D113509333
:1013B000D3134093D21381E0089580E008952091E3
:1013C000CF133091D0132817390719F48091D11316
:1013D000089580E008954F925F926F927F928F926E
:1013E0009F92AF92BF92DF92EF92FF920F931F9363
:1013F000CF93DF935C014B013A01D22ECDE8DDE0C3
:1014000000E010E026E1422E22E0522E88819981F0
:101410008A159B05D1F4049D7001059DF00C149D67
:10142000F00C1124C7018F56924FB40144E050E0F4
:101430000E945615009749F48A819B81861597056D
:1014400021F4F701EE55F04F33C00F5F1F4FCA5E16
:10145000DD4F03301105D1F68091A20F8A3051F093
:101460008091B8118A3041F08091CE138A3019F5FD
:1014700082E003C080E001C081E090E026E132E03C
:10148000829FF001839FF00D929FF00D1124E3578E
:10149000F24FB182A082E40188819981AA81BB8147
:1014A00084839583A683B78373826282EB5EFD4F4C
:1014B000D08281E001C080E0DF91CF911F910F9138
:1014C000FF90EF90DF90BF90AF909F908F907F90B4
:1014D0006F905F904F9008956F927F928F929F923E
:1014E000AF92BF92CF92DF92EF92FF920F931F9332
:1014F000CF93DF936C015B014A01CDE8DDE000E0B2
:1015000010E036E1632E32E0732E888199818C15CC
:101510009D05D9F4069D7001079DF00C169DF00CF9
:101520001124C7018F56924FB50144E050E00E944C
:101530005615009751F48A819B818815990529F4E5
:10154000F701EE55F04F808108C00F5F1F4FCA5E54
:10155000DD4F03301105C9F68AE0DF91CF911F916D
:101560000F91FF90EF90DF90CF90BF90AF909F9042
:101570008F907F906F9008956F927F928F929F923D
:10158000AF92BF92CF92DF92EF92FF920F931F9391
:10159000CF93DF936C015B014A01CDE8DDE000E011
:1015A00010E0E6E16E2EE2E07E2E888199818C15B6
:1015B0009D05D1F4069D7001079DF00C169DF00C61
:1015C0001124C7018F56924FB50144E050E00E94AC
:1015D0005615009749F48A819B818815990521F455
:1015E000C7018B56924F09C00F5F1F4FCA5EDD4F78
:1015F00003301105D1F680E090E0DF91CF911F918B
:101600000F91FF90EF90DF90CF90BF90AF909F90A1
:101610008F907F906F9008956F927F928F929F929C
:10162000AF92BF92CF92DF92EF92FF920F931F93F0
:10163000CF93DF933C015B014A01CB018AD9D501ED
:101640001296CD91DC911397CE01B9DE813009F06D
:101650008EC1F501858581FF08C0B301645F7F4FAE
:1016600040815181CE0120E0B6DED5011D96CC919E
:101670001D9712960D911C9113975CE0C52ED12CED
:10168000C60CD71CED90FC901197C801B601A701BC
:10169000C2FF07C02AE09FDE882309F496C184E1D7
:1016A00011C11ADF843009F425C1853048F4823035
:1016B00009F441C0833008F05EC0882359F085C129
:1016C000863009F44CC1863008F41EC1873009F019
:1016D0007CC1FBC0C23009F078C1C801B601A701C6
:1016E00022E079DE882329F182E1D4011D968C93D2
:1016F000F5014081518182819381B6013DDFEC018A
:10170000D50114966D917D918D919C9117975ADC1E
:10171000DC01CB010196A11DB11D88839983AA83A9
:10172000BB831C821D821E821F82C45FDD4F188214
:101730005DC184E0C7C0C03109F047C1C801B6012E
:10174000A70123E048DED5014D915C9111971296D7
:101750008D919C911397B6010FDFFC014481558157
:10176000668177814F5F5F4F6F4F7F4F4483558313
:10177000668377832AC1C13161F5F401C587D5013C
:101780004D915C91119712968D919C911397B60192
:1017900026E021DEF5014081518182819381B601ED
:1017A000EBDEFC0180819181A281B3810196A11DB4
:1017B000B11D80839183A283B38384819581A681A7
:1017C000B7810196A11DB11D84839583A683B7833C
:1017D0000DC1C03119F0C83109F0F7C0C801B60118
:1017E000A701CADEEC01DC01A45FBD4F2C91865F2E
:1017F0009D4F222361F4FE01E55FFD4F20812223EE
:1018000031F4FC01108221E02C9319861886DC014A
:101810008C91882309F0D6C0C884D984B0E0CB1657
:10182000B2E0DB0609F4CEC0F501048502950F7025
:1018300010E0000F111F000F111FD30112968D91A0
:101840009C911397C5DBF30120812F7030E0220FAC
:10185000331F220F331F7C01E21AF30AE01AF10A48
:10186000C6010A968C0F9D1FB501600F711FA7015D
:101870000E946315A70160E070E088819981AA81C8
:10188000BB81840F951FA61FB71F88839983AA83E6
:10189000BB83888599858E0D9F1D99878887F2E087
:1018A00080309F0731F0D5011D968C911D9783FFE5
:1018B0008CC0FE01E45FFD4F1082C55FDD4F81E00B
:1018C000888380E1F401858791C0C801B601A70132
:1018D00053DE21E1D4011D962C931D97FC01E45F9A
:1018E000FD4F1082F5014081518182819381B601C3
:1018F00024E033C0C13159F0C03109F066C0C801DD
:10190000B601A70125E031C0C13109F05EC0C801B0
:10191000B601A70131DEFC0180E1D4011D968C9354
:1019200080819181A281B3810196A11DB11D808327
:101930009183A283B38384819581A681B781019627
:10194000A11DB11D84839583A683B783F5014081D2
:10195000518182819381B6012AE03DDD47C0C031CB
:10196000A1F5C801B601A7012AE035DD2EC084E14A
:10197000D4011D968C931D9739C080E092E009C078
:10198000D80118962D913C91199780E092E0821B26
:10199000930B1EDBF40197878687138A128A118ABC
:1019A000108A8485807F8487B301605F7F4FC40184
:1019B000A70124E130E010DBF401918B808B84E1FE
:1019C00090E005C08FEF9FEF02C080E090E0DF91D4
:1019D000CF911F910F91FF90EF90DF90CF90BF902C
:1019E000AF909F908F907F906F900895D501129641
:1019F000CD91DC911397FCE0EF2EF12CE60CF71C57
:101A00004D915C91CE01B701B7DD8C01F401D1831A
:101A1000C083D5018D919C9193838283F801648169
:101A2000758186819781CEDADC01CB01F401848354
:101A30009583A683B783D8016D917D918D919C91FB
:101A4000C1DADC01CB01F40180879187A287B387DB
:101A500084858F7080658487F801E45FFD4F808105
:101A6000882309F48ACF8CCFEF92FF920F931F93B4
:101A7000CF93DF937C018B01EA01CB010E94AA0482
:101A8000F80182819381282F892F922F8334910529
:101A9000D1F4B801685F7F4FAE01485F5F4FC70167
:101AA0001BD0181619067CF4F80122813381398382
:101AB0002883208131813B832A831F821E820896DE
:101AC0009C838D8302C080E090E0DF91CF911F91D5
:101AD0000F91FF90EF9008958F929F92AF92BF92D7
:101AE000CF92DF92EF92FF920F931F93CF93DF93EA
:101AF0006C018B01EA0120EFE22EF12CE60EF71EBD
:101B0000CB010E94AB0480EFFE0111928A95E9F7A8
:101B1000F8018181898382E0888382818A831B82A4
:101B200084819581A681B7818C839D83AE83BF8399
:101B300019861886828593859B878A8780900801FD
:101B400090900901A0900A01B0900B01888A998AAF
:101B5000AA8ABB8AB801645E7F4FCE014C9646E0EC
:101B600050E0BAD7FE01E451FF4F83E692E8A3E5C7
:101B7000B3E680839183A283B383F601848695863E
:101B8000A686B7868091160190911701A091180141
:101B9000B0911901808B918BA28BB38B63C085337D
:101BA00009F055C0F7018281813019F0833009F0C6
:101BB00050C0FE01E051FF4F85E38083FE01EF50EE
:101BC000FF4F81E08083F7018281813011F482E050
:101BD00001C085E0FE01EE50FF4F8083FE01ED5015
:101BE000FF4F81E08083FE01EC50FF4F84E0808353
:101BF000FE01EB50FF4F2FEF2083FE01EA50FF4F15
:101C00002083FE01E950FF4F2083FE01E850FF4F83
:101C10001082FE01E750FF4F96E39083FE01E650ED
:101C2000FF4F8083FE01E550FF4F80911601909198
:101C30001701A0911801B091190180839183A283AB
:101C4000B383C150DF4F288380E091E012C0882326
:101C500029F0F701818190E0029602C081E090E0D6
:101C6000E80EF91EF70180818F3F09F098CF80E0E0
:101C700090E0DF91CF911F910F91FF90EF90DF9057
:101C8000CF90BF90AF909F908F9008950F931F9328
:101C9000CF93DF93EC018B010E94A6048A819B8184
:101CA000282F892F922F28E08030920709F057C003
:101CB0008E819F81282F892F922F8130910509F0E5
:101CC0004EC0CE01489666E171E044E050E0EED6A9
:101CD000009749F0CE0142966AE171E046E050E09B
:101CE000E5D60097E1F588819981F8019183808399
:101CF0008A819B81938382838C8184838D81858378
:101D000080E092E097838683D8015296FE01389650
:101D100086E001900D928150E1F78E859F85A8891C
:101D2000B989F801808F918FA28FB38FD80118964F
:101D3000EAE1F1E086E001900D928150E1F78091B7
:101D4000160190911701A0911801B0911901F801A5
:101D500086879787A08BB18B8CE190E002C080E0F2
:101D600090E0DF91CF911F910F910895DF92EF9254
:101D7000FF920F931F93CF93DF937C018B010E94FF
:101D8000A704F701D080FFE0DF22E7016096CE01D3
:101D900066E171E044E050E089D6009749F0CE0159
:101DA0006CE071E044E050E081D6009709F05CC03F
:101DB0006D2D70E0660F771F660F771FF701818525
:101DC000863071F08131A1F0813009F04DC0980169
:101DD0002C5E3F4FC701860F971FB901B3D80FC0C4
:101DE0006E0D7F1DA8014C5E5F4FC70115DC07C05B
:101DF0006E0D7F1DA8014C5E5F4FC70135DE1816C2
:101E00001906A4F5EC016496F801D283C38311820C
:101E100085E48083168217821582148213861286C7
:101E2000F7018185F801818780E88087F701808943
:101E30009189A289B389F80184879587A687B78796
:101E4000F70184859585A685B785F801808B918BF0
:101E5000A28BB38BC80164E170E00E947304F801A7
:101E600093878287CE0102C080E090E0DF91CF911E
:101E70001F910F91FF90EF90DF900895DB010D907F
:101E80000020E9F7AD0141505040461B570B35D6B5
:101E90009C0181E02115310509F080E00895AF92A1
:101EA000BF92CF92DF92EF92FF920F931F93CF9347
:101EB000DF935C017B018B010E5F1F4F23E0C22E7D
:101EC00022E0D22EC60ED71ED6018C91882309F4AB
:101ED00062C0EB01CE5FDD4F8881882309F09AC094
:101EE000C80168E271E0CADF8823F9F0C8016CE23A
:101EF00071E0C4DF882349F110924C01C80167EEFC
:101F000073E0B5D581E08883F80101900020E9F7FE
:101F10003197E01BF10BD7011196FC93EE93F6017C
:101F20008083F701EC5FFD4F74C0C80163E371E08B
:101F3000A5DF8823F1F0C80168E371E09FDF882303
:101F400021F0C80167EE73E003C0C80165EA73E0E1
:101F50008ED581E08883F80101900020E9F7319760
:101F6000E01BF10BD7011196FC93EE93F6018083F1
:101F70004CC0C80160E471E081DF882329F081E072
:101F80008883D6018C9341C0F6011082D701119647
:101F90001C921E923FC0FB01EC5FFD4F80818823A5
:101FA000C9F1FB01EE5FFD4F8081882399F1C0915B
:101FB0004C01D0E0D695DC2FCC27D795C795CB54D4
:101FC000DE4FCE015BD56C018138910518F080E8B9
:101FD000C82ED12CC801BE01A60159D5F701EE5F6C
:101FE000FD4F81E08083F701D182C082ED5FFD4F1C
:101FF000808380914C01982F9F5F90934C01833098
:1020000049F4F701EC5FFD4F1082F501EB5EFD4FE7
:1020100087E08083DF91CF911F910F91FF90EF9028
:10202000DF90CF90BF90AF90089580E090E561E0A1
:102030004FE45FE0A9C9AF92BF92CF92DF92EF92D7
:10204000FF921F93CF93DF93EC017B016A01EBD1E9
:10205000182F8823A9F5C114D10439F0F601208185
:102060003181E21AF30AC20FD31FAA24BB2423C072
:102070008091E80085FD16C08091E8008E778093FE
:10208000E80098D4C114D10449F0F601808191810F
:102090008A0D9B1D9183808315E012C0C4D18823D3
:1020A00051F00DC089918093F1000894E108F10886
:1020B0000894A11CB11CE114F104D1F601C0182F41
:1020C000812FDF91CF911F91FF90EF90DF90CF9004
:1020D000BF90AF900895AF92BF92CF92DF92EF92F0
:1020E000FF921F93CF93DF93EC017B016A019BD199
:1020F000182F8823A9F5C114D10439F0F6012081E5
:102100003181E21AF30AC20FD31FAA24BB2423C0D1
:102110008091E80085FD16C08091E8008B77809360
:10212000E80048D4C114D10449F0F60180819181BE
:102130008A0D9B1D9183808315E012C074D1882382
:1021400051F00DC08091F10089930894E108F108E5
:102150000894A11CB11CE114F104D1F601C0182FA0
:10216000812FDF91CF911F91FF90EF90DF90CF9063
:10217000BF90AF9008952091DF133091E0132617A0
:10218000370720F4B901FC0120E037C06115710563
:10219000D1F72091E8002E772093E800F4CF8091CA
:1021A000D813882309F43FC08530C9F18091E80035
:1021B00083FD37C08091E80082FD2BC08091E8004C
:1021C00080FF1BC08091F2009091F30006C0219126
:1021D0002093F1006150704001966115710519F06E
:1021E00088309105A0F321E08830910509F020E0C6
:1021F0008091E8008E778093E8006115710579F68B
:10220000222369F606C08091D813882361F08530B7
:1022100061F08091E80082FFF6CF80E0089583E0CE
:10222000089581E0089582E0089583E0089561159E
:10223000710529F42091E8002B772093E800382FCE
:10224000292F26C08091D8138823B1F1853081F1E0
:102250008091E80083FD2EC08091E80082FFF2CFDC
:10226000E32FF22F08C08091F10081933E2F2F2F92
:102270006150704041F03E2F2F2F8091F2009091DD
:10228000F300009781F78091E8008B778093E80056
:1022900061157105B9F606C08091D813882361F0E5
:1022A000853061F08091E80080FFF6CF80E00895EE
:1022B00083E0089581E0089582E0089583E0089521
:1022C0002091DF133091E0132617370720F4B9016E
:1022D000FC0120E038C061157105D1F72091E800BC
:1022E0002E772093E800F4CF8091D813882309F447
:1022F00040C08530D1F18091E80083FD38C08091E5
:10230000E80082FD2CC08091E80080FF1CC0809115
:10231000F2009091F30007C024912093F1003196D0
:102320006150704001966115710519F08830910572
:1023300098F321E08830910509F020E08091E800D1
:102340008E778093E8006115710571F6222361F69E
:1023500006C08091D813882361F0853061F08091A8
:10236000E80082FFF6CF80E0089583E0089581E0E1
:10237000089582E0089583E00895982F2AC09093ED
:10238000E900981739F07091EC002091ED00509120
:10239000F00003C0242F762F50E021FF19C03091A8
:1023A000EB003E7F3093EB003091ED003D7F3093AA
:1023B000ED003091EB0031603093EB007093EC0056
:1023C0002093ED005093F0002091EE0027FF08C00D
:1023D0009F5F9730A0F28F708093E90081E00895AD
:1023E00080E008958091D91387FF13C004C08091C5
:1023F000D8138823B9F08091E80082FFF8CF80914C
:10240000E8008B778093E80008958091D8138823A3
:1024100049F08091E80080FFF8CF8091E8008E7746
:102420008093E80008958091E4009091E50045E6EE
:1024300001C0C9012091EC0020FF23C02091E800D9
:1024400020FD15C02091D813222399F0253099F052
:102450002091EB0025FD11C02091E4003091E500B2
:102460002817390739F3415021F784E0089580E0B7
:10247000089582E0089583E0089581E0089580E062
:1024800008952091E80022FFDDCFF9CF0F931F932D
:10249000CF93DF934ED055D0C8EDD0E088818F77B1
:1024A000888388818068888388818F7D8883E7ED31
:1024B000F0E080818068808319BC1092D81310925C
:1024C000D4131092D6131092D51300EE10E0F80139
:1024D00080818B7F808388818160888380E060E059
:1024E00042E04BDFE1EEF0E080818E7F8083E2EE20
:1024F000F0E0808181608083808188608083F80142
:1025000080818E7F8083888180618883DF91CF91F5
:102510001F910F910895E8EDF0E080818F7E808318
:10252000E7EDF0E080818160808381E08093D713C4
:10253000ADCFE8EDF0E080818C7F80831092E200E7
:1025400008951092DA001092E10008951F920F9200
:102550000FB60F920BB60F9211242F933F934F9308
:102560005F936F937F938F939F93AF93BF93EF93FB
:10257000FF938091E10082FF0AC08091E20082FF18
:1025800006C08091E1008B7F8093E10012D28091A0
:10259000DA0080FF1FC08091D80080FF1BC08091AF
:1025A000DA008E7F8093DA008091D90080FF0DC021
:1025B0008CE089BD8EE089BD09B400FEFDCF81E0CD
:1025C0008093D8130E94720205C019BC1092D813D0
:1025D0000E9474028091E10080FF18C08091E200A7
:1025E00080FF14C08091E2008E7F8093E200809192
:1025F000E20080618093E2008091D8008062809345
:10260000D80019BC85E08093D813D3D18091E10024
:1026100084FF2DC08091E20084FF29C08CE089BD39
:102620008EE089BD09B400FEFDCF8091D8008F7D7A
:102630008093D8008091E1008F7E8093E1008091AB
:10264000E2008F7E8093E2008091E20081608093BF
:10265000E2008091D413882321F48091E30087FF66
:1026600002C084E001C081E08093D813A2D18091A0
:10267000E10083FF22C08091E20083FF1EC08091B1
:10268000E100877F8093E10082E08093D81310926D
:10269000D4138091E1008E7F8093E1008091E2006D
:1026A0008E7F8093E2008091E20080618093E2005F
:1026B00080E060E042E061DE7CD1FF91EF91BF916C
:1026C000AF919F918F917F916F915F914F913F91CA
:1026D0002F910F900BBE0F900FBE0F901F9018956B
:1026E0001F93CF93DF93CDB7DEB7AC970FB6F894B7
:1026F000DEBF0FBECDBF80E0E9EDF3E19091F100C8
:1027000091938F5F8830D1F70E949C028091E800FE
:1027100083FF37C18091D9132091DA13253009F452
:1027200084C0263040F42130A1F1213070F02330F4
:1027300009F027C12EC0283009F4F4C0293009F46B
:1027400003C1263009F01DC193C0803821F08238C2
:1027500009F017C108C08091D5139091D613992321
:1027600071F082600CC08091DD138F708093E9005E
:102770009091EB0081E095FF80E01092E90090914C
:10278000E800977F9093E8008093F1001092F100A9
:10279000D4C0882319F0823009F0F3C090E08F7123
:1027A0009070009729F08230910509F0EAC00BC0C3
:1027B0008091DB13813009F0E4C0233009F080E020
:1027C0008093D6132CC08091DB13882341F5209190
:1027D000DD132F7009F4D5C02093E9008091EB0040
:1027E00080FF1DC08091DA13833021F48091EB00CB
:1027F000806213C08091EB0080618093EB0081E0E8
:1028000090E002C0880F991F2A95E2F78093EA00B2
:102810001092EA008091EB0088608093EB001092A8
:10282000E9008091E800877F8BC0882309F0A9C068
:102830001091DB131F778091E3008078812B8093C8
:10284000E3008091E800877F8093E800CBDD8091F2
:10285000E80080FFFCCF8091E30080688093E30074
:10286000112311F083E001C082E08093D81389C066
:102870008058823008F085C08091DB139091DC1382
:1028800023E08C3D9207A9F583E08C838AE28B8359
:102890005FB7F894DE01139680E090E04EE061E2CD
:1028A000E42FF0E060935700E49180FF03C0E295CD
:1028B000EF704F5FEF702E2F30E0EA3018F0295C98
:1028C0003F4F02C0205D3F4F13963C932E931297CB
:1028D000019612968431910519F75FBF8091E80047
:1028E000877F8093E800CE0103966AE270E043DCC4
:1028F00013C06091DD13AE014F5F5F4F0E94DB0399
:10290000BC01009709F43DC08091E800877F809367
:10291000E80089819A81D4DC8091E8008B778093EC
:10292000E8002FC0803869F58091E800877F8093A8
:10293000E8008091D4138093F1008091E8008E77B5
:102940008093E8004FDD1DC08823D9F49091DB13FC
:102950009230B8F48091E800877F8093E8009093EC
:10296000D41340DD8091D413882321F48091E300B7
:1029700087FF02C084E001C081E08093D8130E94E9
:1029800076028091E80083FF0AC08091E800877F8B
:102990008093E8008091EB0080628093EB00AC961E
:1029A0000FB6F894DEBF0FBECDBFDF91CF911F9160
:1029B00008950895CF938091D8138823A9F080912A
:1029C000E9008F709091EC0090FF02C0C0E801C058
:1029D000C0E0C82B1092E9008091E80083FF01C09D
:1029E0007FDECF70C093E900CF9108959091C80029
:1029F00095FFFCCF8093CE0080E090E00895809119
:102A0000C80087FF08C08091C80087FF07C0809179
:102A1000CE0090E008958EEF9FEF08958FEF9FEF27
:102A20000895FC01009751F4E1EEF3E1F093F01307
:102A3000E093EF13F093F213E093F1138EE0DF01D4
:102A40001D928A95E9F783E0838386EF94E191876D
:102A500080878FEF94E1938782870895FB01DC01E3
:102A600002C005900D9241505040D8F70895FB01E7
:102A7000DC0105900D920020E1F70895FC0105901E
:102A80000020E9F7809590958E0F9F1F0895FB0118
:102A9000DC014150504048F005900D920020C9F7EC
:102AA00001C01D9241505040E0F70895FB01DC0148
:102AB00004C08D910190801921F441505040C8F715
:102AC000881B990B0895FB01DC0102C001900D9257
:102AD00041505040D8F708956817790768F4FB0112
:102AE000DC01E40FF51FA40FB51F02C002900E9287
:102AF00041505040D8F70895E6CFFB01DC0141502A
:102B0000504030F08D910190801919F40020B9F7F0
:0A2B1000881B990B0895F894FFCF7D
:102B1A00A1010000000000000A000001FFFFFFFF02
:102B2A00FFFFFFFFFFFF0A00000200010001000192
:102B3A00090D02000200020047455400474554208F
:102B4A002F2000484541440048454144202F200099
:062B5A0054524143450006
:00000001FF
