:100000002EC100004BC1000049C1000047C10000E3
:1000100045C1000043C1000041C100003FC10000D4
:100020003DC100003BC1000082C6000037C1000096
:1000300035C1000033C1000031C100002FC10000F4
:100040002DC100002BC1000029C1000027C1000004
:1000500025C1000023C1000021C100001FC1000014
:100060001DC100001BC1000019C1000017C1000024
:1000700015C1000013C1000011C100000FC1000034
:100080000DC100000BC1000009C1000007C1000044
:1000900005C1000003C100001B5B33366D47656E70
:1000A000657269632048494420486F737420446531
:1000B0006D6F2072756E6E696E672E0D0A1B5B3355
:1000C000376D001B5B33326D446576696365204193
:1000D000747461636865642E0D0A1B5B33376D00B1
:1000E0001B5B33326D44657669636520556E6174C0
:1000F0007461636865642E0D0A1B5B33376D0047BE
:10010000657474696E6720436F6E66696720446129
:1001100074612E0D0A001B5B33316D436F6E747278
:100120006F6C204572726F72202847657420436F90
:100130006E66696775726174696F6E292E0D0A00AB
:100140001B5B33316D496E76616C69642044657662
:100150006963652E0D0A00202D2D204572726F7285
:1001600020436F64653A2025640D0A1B5B33376DAD
:10017000001B5B33316D436F6E74726F6C20457280
:10018000726F72202853657420436F6E66696775BD
:10019000726174696F6E292E0D0A202D2D20457213
:1001A000726F7220436F64653A2025640D0A1B5BF1
:1001B00033376D00484944204465766963652045BE
:1001C0006E756D6572617465642E0D0A001B5B337C
:1001D000316D486F7374204D6F6465204572726F86
:1001E000720D0A202D2D204572726F7220436F64AC
:1001F000652025640D0A1B5B33376D001B5B3331B3
:100200006D44657620456E756D204572726F720D76
:100210000A202D2D204572726F7220436F64652075
:1002200025640D0A202D2D20537562204572726FB2
:100230007220436F64652025640D0A202D2D20490E
:100240006E2053746174652025640D0A1B5B33377F
:100250006D0030782530325820000D0A000011243E
:100260001FBECFEFD0E2DEBFCDBF11E0A0E0B1E016
:10027000E6E8F8E100E00BBF02C007900D92AA315A
:10028000B107D9F71BBE11E0AAE1B1E001C01D9290
:10029000AC33B107E1F74AD10C94410CB1CE9BB11C
:1002A0009F70982B9BB9089584B7877F84BF28E1FE
:1002B0000FB6F89420936000109260000FBE90E09B
:1002C00080E80FB6F89480936100909361000FBEB0
:1002D00083E390E09093CD008093CC0086E0809300
:1002E000CA001092C8002093C900539A5A9A8AB142
:1002F000806F8AB98BB18F708BB9FED480E090E0AB
:10030000BBC783EC90E0F4D780EAC9CF80EE90E0E1
:10031000EFD780E1C4CFCF938FEF90E0E9D727D11B
:10032000C82F8823F1F0813019F486E191E002C0F2
:1003300080E491E0DDD700D000D0EDB7FEB7319674
:1003400027E531E0ADB7BEB712963C932E931197D7
:10035000C2831382AED70F900F900F900F9080E959
:1003600017C081E03CD7882379F000D000D0EDB7EA
:10037000FEB7319621E731E0ADB7BEB712963C9398
:100380002E9311978283E5CF84EB91E0B1D780E67D
:1003900086DFCF910895CF93DF930F92CDB7DEB76D
:1003A000898342D400D000D0EDB7FEB731962DEC52
:1003B00031E0ADB7BEB712963C932E931197898169
:1003C0008283138276D70F900F900F900F9080E961
:1003D00066DFFFCF909127012DB73EB72850304000
:1003E0000FB6F8943EBF0FBE2DBFEDB7FEB73196E6
:1003F0002CEF31E0ADB7BEB712963C932E93119718
:1004000082831382648315829683178252D72DB715
:100410003EB7285F3F4F0FB6F8943EBF0FBE2DBFCB
:1004200080E93DCF6F927F928F929F92AF92BF9261
:10043000CF92DF92EF92FF920F931F93CF93DF93B0
:10044000CDB7DEB76DB67EB6809127018B3009F04F
:1004500059C081E08093A7008091A9008F7B809391
:10046000A9008091A60080FF48C08091A60085FF6A
:100470003FC09DB68EB6C090F600D090F7008DB705
:100480009EB78C199D090FB6F8949EBF0FBE8DBF05
:100490000DB71EB70F5F1F4FC801B60140E050E017
:1004A000C5D2780100E010E082E5A82E82E0B82EE7
:1004B00017C0D7018D917D0100D000D0EDB7FEB7F8
:1004C0003196ADB7BEB71296BC92AE9211978283A9
:1004D0001382EFD60F5F1F4F0F900F900F900F906A
:1004E0000C151D0531F78AE592E002D79DBE8EBE40
:1004F0008091A6008E778093A6008091A9008064E9
:100500008093A9000FB6F8947EBE0FBE6DBEDF913A
:10051000CF911F910F91FF90EF90DF90CF90BF9000
:10052000AF909F908F907F906F900895BDDE88E987
:1005300090E0DED680E1B3DE789474DF75D6FDCF2F
:10054000FC018181843019F48581833011F082E0CF
:10055000089580E00895FC018181853021F0843088
:1005600021F481E0089580E0089582E00895AF923B
:10057000BF92CF92DF92EF92FF920F931F93CF9390
:10058000DF93CDB7DEB7C450D2400FB6F894DEBFCC
:100590000FBECDBFAE014B5F5F4F5C834B8381E0ED
:1005A0008E010F5F1F4FB80120E032E053D4853039
:1005B00009F451C0863019F0882329F002C083E085
:1005C0004FC081E04DC0CC24DD24EE24FF24AA24BA
:1005D000BB24A114B10449F0C801BE016D5F7F4F77
:1005E0004BEA52E08ED4882389F0E114F104E1F45F
:1005F000C801BE016D5F7F4F40EA52E082D488237C
:1006000061F5AB80BC80CC24DD24E3CFEB81FC81A1
:10061000828187FF02C07F0101C06F01E114F104F4
:10062000C1F2C114D104A9F2F7012481358181E816
:1006300063E0428101E051D2F70186818093AD00F1
:10064000C114D10461F0F6012481358182E063E0B8
:10065000428143D204C082E003C084E001C080E054
:10066000CC5FDD4F0FB6F894DEBF0FBECDBFDF917C
:10067000CF911F910F91FF90EF90DF90CF90BF909F
:10068000AF90089580919E0090E0817090702091CD
:10069000A0002D7F2093A00020919E002260209337
:1006A0009E0020919E0021FDFCCF20919E002160A4
:1006B00020939E0010921D012091A00030E0207236
:1006C00030704091A0004F7D4093A00040919F006A
:1006D0004F7D40939F004AE050919F0055FF0BC013
:1006E00040919F004F7D40939F0040919F004D7F20
:1006F00040939F0008C0EFECF7E03197F1F700C09E
:100700000000415049F72115310529F02091A00042
:1007100020622093A000009729F480919E008E7F94
:1007200080939E008091A00082608093A000089535
:1007300040919E0050E0417050702091A00030E048
:10074000207230709091A0009F7D9093A0009091B6
:100750009F009F7D90939F0090919E009160909349
:100760009E0026C090919F0095FF06C090919F002B
:100770009F7D90939F008150909127019130D9F0F7
:100780009091A60094FF09C01092F5008091A600F8
:100790008F7E8093A60082E00FC09091A60091FF0B
:1007A00007C08091A6008D7F8093A60083E004C0DF
:1007B0008823C1F601C081E04115510529F49091CB
:1007C0009E009E7F90939E002115310529F0909107
:1007D000A00090629093A00008950F931F93CF9371
:1007E000DF93CDB7DEB728970FB6F894DEBF0FBE04
:1007F000CDBF80912701853009F499C0863068F417
:100800008230C1F1833018F48823A1F004C1833011
:10081000D9F1843009F0FFC062C0873009F49EC06E
:10082000873008F48FC0883009F4B8C0893009F0E7
:10083000F2C0D9C000911A0110911B0101151105D8
:1008400009F4E9C081E074DF682F882331F08091DA
:100850001C018093270181E0D2C001501040109309
:100860001B0100931A010115110509F0D4C08091F4
:100870001C0107C088EE93E090931B0180931A013E
:1008800083E080932701C7C080911A0190911B01DA
:100890009C012150304030931B0120931A01009796
:1008A00039F08FEC97E00197F1F700C00000B3C07A
:1008B00077988091D80080618093D8008091DD0086
:1008C0008B7F8093DD008091D70080618093D7007B
:1008D0008091DD0082608093DD0084E0D2CF809142
:1008E0009F0080FF98C080919F008E7F80939F0023
:1008F00080919F008D7F80939F008091DF008D7F8E
:100900008093DF008091DE0082608093DE00809122
:100910009E00816080939E0045D11092270184E65D
:1009200090E090931B0180931A0185E059C0AADEE4
:100930001092270188EC90E090931B0180931A019C
:1009400086E04EC080E060E040E020E430E001E07E
:10095000C4D0882309F44FC087E093CFAFE1B1E062
:10096000E0E0F1E088E001900D928150E1F7109213
:10097000A700CE01019635D3682F882309F03EC029
:100980008885809310017EDE1092270188EC90E02C
:1009900090931B0180931A0188E022C020911001DE
:1009A00080E060E040E030E001E097D0882319F17A
:1009B000AFE1B1E0E8E0F1E088E001900D92815014
:1009C000E1F780E090E00DD3682F8823B9F410920E
:1009D000270184E690E090931B0180931A0189E03F
:1009E00080931C0118C081E08093A1008AE080936D
:1009F000270191DC10C060E084E001C083E09091A9
:100A00002701913041F0E6DC8091DD008160809328
:100A1000DD007CDC21D128960FB6F894DEBF0FBE36
:100A2000CDBFDF91CF911F910F910895AF92BF92EB
:100A3000CF92DF92FF920F931F93CF93DF935C01CE
:100A4000EB016A018091AA008F7C80618093AA00EB
:100A5000BDD0F82E8823B1F5C114D10441F0F601C0
:100A600000811181C01BD10B0A0D1B1D01C0850126
:100A7000AA24BB2423C08091A60085FD16C08091C6
:100A8000A6008E778093A600C114D10451F0F60120
:100A9000808191818A0D9B1D9183808364E0F62E75
:100AA00011C094D0882351F00CC08091AF00F801A0
:100AB00081938F0121970894A11CB11C2097D9F62E
:100AC00001C0F82E8F2DDF91CF911F910F91FF90D4
:100AD000DF90CF90BF90AF9008950F93582F5F7025
:100AE00087FF02C080E101C080E2573008F057C0A4
:100AF000662309F480E04F706295660F660F607C94
:100B0000642B682B452F02604093A7004517A9F47A
:100B100004C07F5F880F991F03C088E090E070E0F9
:100B20008217930710F47530A1F7872F8295807F85
:100B3000802BF62F70E0E0E008C0F091AA008091D1
:100B4000AB00E091AD007091AE0081FF20C09091AC
:100B5000A9009E7F9093A9009091AB009D7F9093F8
:100B6000AB009091A90091609093A900F093AA0026
:100B70008093AB00E093AD007093AE008091A9002C
:100B800080628093A9008091AC0087FF08C04F5F0E
:100B9000473009F0B9CF5093A70081E001C080E051
:100BA0000F9108951092F80080E08093A7001092B2
:100BB000AE001092A6001092AB009091A9009E7F0B
:100BC0009093A9008F5F873081F708958091A200EC
:100BD0009091A30045E601C0C9012091AA002073AD
:100BE000203129F42091A60020FF05C017C02091D4
:100BF000A60022FD13C02091A60021FD11C0209166
:100C00002701213079F02091A2003091A30028170C
:100C1000390719F3415001F783E0089580E0089502
:100C200081E0089582E0089575D07CD0E0EEF0E098
:100C3000808181608083E8EDF0E080818F77808320
:100C400019BCA7EDB0E08C918E7F8C9380818F7E54
:100C5000808310921E0108955DD064D08091D800E9
:100C60008F778093D8008091D80080688093D800D7
:100C70008091D8008F7D8093D8008091D7008F77A6
:100C80008093D7008CE089BD8EE089BD09B400FE59
:100C9000FDCF81E08093270110921D0180E48093B5
:100CA00010018091D80080648093D8008091DD008D
:100CB00081608093DD008091DD0084608093DD00A1
:100CC0008091D7008F7E8093D7006F9A779A80911A
:100CD000DE0081608093DE008091DE00846080937E
:100CE000DE008091E0008E7F8093E0008091D8004C
:100CF00080618093D8000895E8EDF0E080818F7ED8
:100D00008083E7EDF0E080818160808381E08093E3
:100D10001E01A2CFE8EDF0E080818C7F80831092ED
:100D2000A00008951092DA0010929F0008951F927B
:100D30000F920FB60F920BB60F9211242F933F9381
:100D40004F935F936F937F938F939F93AF93BF93D3
:100D5000EF93FF9380919F0085FF0AC08091A000D0
:100D600085FF06C080919F008F7D80939F0010D1EA
:100D700080919F0081FF15C08091A00081FF11C06C
:100D800080919F008D7F80939F0080919F008E7F38
:100D900080939F008091A0008D7F8093A000B6DAA1
:100DA0005BDF8091DF0081FF15C08091DE0081FF55
:100DB00011C08091DF008D7F8093DF007798809154
:100DC000DD0081608093DD0080E0E5DA9FDA81E07C
:100DD000809327018091DF0080FF17C08091DE00A3
:100DE00080FF13C08091DF008E7F8093DF008091B1
:100DF000DE008E7F8093DE0084DA8091A000826026
:100E00008093A00082E0809327018091DF0082FF21
:100E10000EC08091DE0082FF0AC08091DF008B7FD0
:100E20008093DF0082E060E0D5DA70DA15DFFF91B1
:100E3000EF91BF91AF919F918F917F916F915F9152
:100E40004F913F912F910F900BBE0F900FBE0F90BF
:100E50001F901895CF92DF92EF92FF920F931F93FE
:100E6000CF93DF93CDB7DEB729970FB6F894DEBFE7
:100E70000FBECDBF6B018A01790190E890931F01ED
:100E800096E09093200190E0019792609093220168
:100E900080932101109224011092230189E090E0B7
:100EA00090932601809325011092A700CE01019610
:100EB00098D08823B9F48B819C81F601918380833B
:100EC000E816F90670F09093260180932501C80179
:100ED00088D0882339F4F8019181923019F086E0A6
:100EE00001C085E029960FB6F894DEBF0FBECDBFD6
:100EF000DF91CF911F910F91FF90EF90DF90CF90F6
:100F00000895AF92BF92CF92DF92EF92FF920F932C
:100F10001F93CF93DF937C018B015A0128C0F80106
:100F2000C080D180F601808190E09E018C179D07E2
:100F300008F49C01C601820F931FF80191838083FE
:100F4000F70180819181821B930B91838083F8014B
:100F500080819181F5010995823049F0813069F4F1
:100F6000F801D182C082F701D183C08306C0F701A6
:100F7000C081D181209799F682E0DF91CF911F91B6
:100F80000F91FF90EF90DF90CF90BF90AF900895BA
:100F900008951F93CF93DF93182FC9EED3E006C0B7
:100FA00081E0C6DB8823C9F42197B1F0112329F42D
:100FB0008091A60083FFF4CF0DC0113029F48091F9
:100FC000A60080FFEDCF06C0123051F78091A60039
:100FD00082FFE6CF80E001C084E0DF91CF911F91D6
:100FE0000895EF92FF920F931F93CF93DF93EC013D
:100FF000E0909E00FF2481E0E822FF24009125017B
:101000001091260180919E00816080939E0081E076
:101010008FDB882309F0CAC08091AA008F7C80935F
:10102000AA001092F5008091A6008F7E8093A60002
:101030008091A9008F7B8093A90088E0EFE1F1E027
:1010400091919093AF008150D9F78091A600877756
:101050008093A60080E09DDF882309F0A7C08091DF
:10106000A90080648093A90081E062DB882309F0F5
:101070009DC080911F0187FF4FC08091AA008F7C87
:1010800080618093AA00209761F52EC08091A9000D
:101090008F7B8093A90081E07CDF882309F086C0E4
:1010A0008091F6009091F700009741F400E010E085
:1010B00005C08091AF008993015010408091F600E7
:1010C0009091F700009719F00115110591F78091A3
:1010D000A90080648093A9008091A6008E778093F8
:1010E000A6000115110591F68091AA008F7C8062FF
:1010F0008093AA008091A9008F7B8093A90082E051
:1011000048DF882309F052C08091A6008B77809336
:10111000A60082E03EDF4AC02097A1F18091AA009C
:101120008F7C80628093AA008091A9008F7B80933E
:10113000A9001CC02EDF8823C9F5FE0107C08191DC
:10114000EF018093AF000150104059F0EF01209162
:10115000F6003091F7008091100190E028173907D0
:1011600070F38091A6008B778093A60082E0011532
:10117000110501F70EDF8823C9F48091A90080646E
:101180008093A9008091AA008F7C80618093AA003F
:101190008091A9008F7B8093A90081E0FADE8823EB
:1011A00029F49091A6009E779093A6009091A900B3
:1011B00090649093A900E114F10429F490919E00A9
:1011C0009E7F90939E0091E09093A8001092A800BB
:1011D000DF91CF911F910F91FF90EF900895CF93E2
:1011E000C82F10921F0189E080932001C093210134
:1011F00010922201109224011092230110922601D4
:10120000109225011092A70080E090E0EADE88238A
:1012100049F4C0931D01CC2311F09BE001C09AE07A
:1012200090932701CF910895CF93C091A700CF70DD
:101230008091AA001092A700D0DAC093A700CF91A6
:1012400008959091C80095FFFCCF8093CE0080E078
:1012500090E008958091C80087FF08C08091C80081
:1012600087FF07C08091CE0090E008958EEF9FEF3A
:1012700008958FEF9FEF0895FC01009751F4E8E285
:10128000F1E0F0933701E0933601F0933901E093F8
:1012900038018EE0DF011D928A95E9F783E08383B0
:1012A00081E299E0918780878AE299E0938782873B
:1012B0000895CF93DF93CDB7DEB7FE0135966191E8
:1012C00071918091380190913901DC0113962C9134
:1012D0001397286013962C93AF0139D0E091380111
:1012E000F09139012381277F2383DF91CF910895E6
:1012F0000F931F93CF93DF938C01E0913801F0910E
:101300003901838181FF1BC0C0E0D0E007C009958F
:10131000009711F0CFEFDFEF0F5F1F4FF8018491BF
:101320006091380170913901DB011896ED91FC91C3
:101330001997882361F78AE00995009711F0CFEF9C
:10134000DFEFCE01DF91CF911F910F9108952F9282
:101350003F924F925F926F927F928F929F92AF9245
:10136000BF92CF92DF92EF92FF920F931F93CF9392
:10137000DF93CDB7DEB72D970FB6F894DEBF0FBE63
:10138000CDBF3C017D876C875A01FC011782168214
:10139000838181FFBBC12E010894411C511CF301C4
:1013A0009381EC85FD8593FD859193FF8191FD8768
:1013B000EC87882309F4A6C1853241F493FD859119
:1013C00093FF8191FD87EC87853221F490E0B30192
:1013D000CED1E5CFFF24EE2410E01032B0F48B32F2
:1013E00069F08C3228F4803251F0833271F40BC0F2
:1013F0008D3239F0803349F411602CC012601460D2
:1014000029C0186027C0106125C017FD2EC0282FE5
:1014100020532A3098F416FF08C08F2D880FF82E1D
:10142000FF0CFF0CF80EF20E15C08E2D880FE82E63
:10143000EE0CEE0CE80EE20E10620CC08E3221F4BF
:1014400016FD60C1106406C08C3611F4106802C02D
:10145000883659F4EC85FD8593FD859193FF819144
:10146000FD87EC87882309F0B8CF982F95549330E7
:1014700018F09052933038F424E030E0A20EB31EFE
:101480003FE339830FC0833631F0833781F08335F2
:1014900009F056C021C0F5018081898322E030E047
:1014A000A20EB31E21E0C22ED12C420113C092E045
:1014B000292E312C2A0C3B1CF5018080918016FFCF
:1014C00003C06F2D70E002C06FEF7FEFC40144D105
:1014D0006C0151011F7714C082E0282E312C2A0C98
:1014E0003B1CF5018080918016FF03C06F2D70E0DA
:1014F00002C06FEF7FEFC40124D16C01106851016D
:1015000013FD1AC005C080E290E0B30130D1EA9427
:101510008E2D90E0C816D906B0F30EC0F40117FD69
:10152000859117FF81914F0190E0B30120D1E11027
:10153000EA940894C108D108C114D10479F7DFC036
:10154000843611F0893649F5F50117FF07C080810F
:101550009181A281B38124E030E008C08081918133
:10156000AA2797FDA095BA2F22E030E0A20EB31E65
:10157000012F0F76B7FF08C0B095A0959095819583
:101580009F4FAF4FBF4F0068BC01CD01A2012AE0C1
:1015900030E019D1D82ED4183EC0853721F41F7EF3
:1015A0002AE030E020C0197F8F36A9F0803720F480
:1015B000883509F0A7C00BC0803721F0883709F0C3
:1015C000A1C001C0106114FF09C0146007C014FF5E
:1015D00008C0166006C028E030E005C020E130E019
:1015E00002C020E132E0F50117FF07C06081718180
:1015F0008281938144E050E006C06081718180E087
:1016000090E042E050E0A40EB51EA201DCD0D82E3E
:10161000D418012F0F7706FF09C00E7FDF1430F4B6
:1016200004FF06C002FD04C00F7E02C01D2D01C0D4
:101630001F2D802F90E004FF0CC0FE01ED0DF11D69
:101640002081203311F4097E09C002FF06C01E5F0D
:1016500005C086789070009709F01F5F802E99244E
:1016600003FD11C000FF0CC0FD2C1E1548F4FE0C3C
:10167000F11A1E2D05C080E290E0B30178D01F5F03
:101680001E15C8F304C01E1510F4E11A01C0EE24A3
:1016900084FE0EC080E390E0B30169D082FE1DC0DD
:1016A00081FE03C088E590E010C088E790E00DC09F
:1016B000C40186789070009781F081FC02C080E2BE
:1016C00001C08BE207FD8DE290E0B30150D005C070
:1016D00080E390E0B3014BD0FA94DF14C8F3DA94BE
:1016E000F201ED0DF11D808190E0B30140D0DD20CD
:1016F000B1F705C080E290E0B30139D0EA94EE2062
:10170000C9F74DCEF3018681978102C08FEF9FEF1D
:101710002D960FB6F894DEBF0FBECDBFDF91CF91EF
:101720001F910F91FF90EF90DF90CF90BF90AF90FF
:101730009F908F907F906F905F904F903F902F90F1
:101740000895FC010590615070400110D8F7809514
:1017500090958E0F9F1F0895FC016150704001907D
:101760000110D8F7809590958E0F9F1F08950F93C5
:101770001F93CF93DF938C01EB018B8181FF1BC003
:1017800082FF0DC02E813F818C819D8128173907F2
:1017900064F4E881F9810193F983E88306C0E88560
:1017A000F985802F0995009731F48E819F810196EC
:1017B0009F838E8302C00FEF1FEFC801DF91CF918F
:1017C0001F910F910895FA01AA27283051F1203175
:1017D00081F1E8946F936E7F6E5F7F4F8F4F9F4FC5
:1017E000AF4FB1E03ED0B4E03CD0670F781F891F07
:1017F0009A1FA11D680F791F8A1F911DA11D6A0FD5
:10180000711D811D911DA11D20D009F468943F9187
:101810002AE0269F11243019305D3193DEF6CF0186
:101820000895462F4770405D4193B3E00FD0C9F74C
:10183000F6CF462F4F70405D4A3318F0495D31FDB9
:101840004052419302D0A9F7EACFB4E0A69597950C
:10185000879577956795BA95C9F7009761057105E2
:1018600008959B01AC010A2E06945795479537952C
:101870002795BA95C9F7620F731F841F951FA01D86
:061880000895F894FFCF6B
:1018860080060001000008000005010000000000BD
:0A189600408008000000000100007F
:00000001FF
