:10000000B9C00000D5C00000D3C00000D1C00000BE
:10001000CFC00000CDC00000CBC00000C9C00000B0
:10002000C7C00000C5C0000000C50000CBC500006F
:10003000BFC00000BDC00000BBC00000B9C00000D0
:10004000B7C00000B5C00000B3C00000B1C00000E0
:10005000AFC00000ADC00000ABC00000A9C00000F0
:10006000A7C00000A5C00000A3C00000A1C0000000
:100070009FC000009DC000009BC0000099C0000010
:1000800097C0000095C0000093C0000091C0000020
:100090008FC000008DC000001C034C0055004600BE
:1000A000410020004400750061006C002000430006
:1000B000440043002000440065006D006F00000014
:1000C00018034400650061006E00200043006100D9
:1000D0006D0065007200610000000403090409025C
:1000E0008300040100C032080B0002020201000973
:1000F0000400000102020100052400100104240292
:10010000060524060001070583030800FF09040112
:1001100000020A0000000705020210000507058121
:1001200002100005080B020202020100090402008D
:100130000102020100052400100104240206052426
:10014000060203070586030800FF09040300020AEC
:1001500000000007050502100005070584021000D5
:100160000512011001EF020108EB034E200100010E
:1001700002DC010011241FBECFEFD0E2DEBFCDBFF5
:1001800011E0A0E0B1E0ECE4FFE000E00BBF02C052
:1001900007900D92A036B107D9F71BBE11E0A0E67B
:1001A000B1E001C01D92AE36B107E1F781D1CCC6F6
:1001B00027CF9BB19F70982B9BB9089584B7877FF9
:1001C00084BF88E10FB6F8948093600010926000BD
:1001D0000FBE90E080E80FB6F89480936100909392
:1001E00061000FBE84B18F7184B98DB18F7C8DB9E0
:1001F00085B1806E85B98EB180638EB98AB1806F0A
:100200008AB98BB18F708BB9F5C380EAD2CF80E108
:10021000D0CF1F93CF93DF9381E061E842E11CD3FD
:10022000182F82E060E842E117D3C82FD0E0812F79
:1002300090E0C823D92383E061EC42E00DD390E045
:10024000C823D92384E061E842E106D390E0C823C3
:10025000D92385E060E842E1FFD290E0C823D923AA
:1002600086E061EC42E0F8D2109252011092530104
:1002700010925401109255011092590110925A0196
:1002800010925B0110925C0190E08C239D230097FB
:1002900011F080E601C080E98CDFDF91CF911F91E2
:1002A000089580916A0190916B01009719F482E59D
:1002B00091E002C089E591E020916701213229F0A7
:1002C000223229F1203269F510C020916601213ACD
:1002D00041F52091E800277F2093E80067E070E077
:1002E000B9D18091E8008B770FC02091660121324F
:1002F000C1F42091E800277F2093E80067E070E0D8
:1003000005D28091E8008E778093E800089580916F
:100310006601813231F48091E800877F8093E800A4
:10032000D0C2089523B18CB190916501943009F049
:100330005EC0809590E08073907095958795922F20
:100340009095907E982B97FD0BC094FD0CC096FD68
:100350000DC093FD0EC095FD0FC0109260013BC013
:1003600080E091E00BC08EE091E008C08EE191E06A
:1003700005C08EE291E002C08FE391E02091600120
:10038000222349F54091520150915301609154014B
:10039000709155014115510561057105E1F021E0AC
:1003A000209360012093E900DC010D900020E9F723
:1003B000BD0161507040681B790B40E050E0ACD04B
:1003C0008091E8008E778093E8009CD28091E800CD
:1003D0008E778093E80082E08093E9008091E800C6
:1003E00082FF05C08091E8008B778093E800089534
:1003F0008F929F92BF92CF92DF92EF92FF920F93D4
:100400001F93CF93DF93CDB7DEB78DB69EB6D09056
:10041000650124E0D216D9F585E08093E90080914A
:10042000E80082FF34C0BEB68091F2009091F300E4
:100430002DB73EB7281B390B0FB6F8943EBF0FBE41
:100440002DBF0DB71EB70F5F1F4FE090F200F09069
:10045000F300C801B70140E050E0ADD08091E80062
:100460008B778093E800D092E900C801B70140E0A3
:1004700050E052D08091E8008E778093E80042D21D
:100480008091E8008E778093E8008DBEBEBE0FB6E7
:10049000F8949EBE0FBE8DBEDF91CF911F910F913C
:1004A000FF90EF90DF90CF90BF909F908F90089536
:1004B00085DE80E17EDE789435DF9ADF29D5FCCFBA
:1004C000923029F0933041F09130E9F417C083E87D
:1004D00090E0EEEDF0E01BC0813041F0813018F08B
:1004E000823089F406C0EAEDF0E005C0E0ECF0E00F
:1004F00002C0E8E9F0E0849190E009C082E190E078
:10050000E1E6F1E004C080E090E0E0E0F0E0DA0154
:100510001196FC93EE930895AF92BF92CF92DF9223
:10052000EF92FF921F93CF93DF93EC017B016A015F
:10053000E9D1182F8823A1F5C114D10439F0F601AF
:1005400020813181E21AF30AC20FD31FAA24BB24EF
:1005500022C08091E80085FD15C08091E8008E776B
:100560008093E800C114D10449F0F60180819181A3
:100570008A0D9B1D9183808315E012C0C3D188230F
:1005800051F00DC089918093F1000894E108F108C1
:100590000894A11CB11CE114F104D9F601C0182F74
:1005A000812FDF91CF911F91FF90EF90DF90CF903F
:1005B000BF90AF900895AF92BF92CF92DF92EF922B
:1005C000FF921F93CF93DF93EC017B016A019AD1D5
:1005D000182F8823A1F5C114D10439F0F601208128
:1005E0003181E21AF30AC20FD31FAA24BB2422C00E
:1005F0008091E80085FD15C08091E8008B7780939D
:10060000E800C114D10449F0F601808191818A0D7E
:100610009B1D9183808315E012C074D1882351F013
:100620000DC08091F10089930894E108F1080894C5
:10063000A11CB11CE114F104D9F601C0182F812FBF
:10064000DF91CF911F91FF90EF90DF90CF90BF90FF
:10065000AF90089520916C0130916D0126173707F6
:1006600020F4B901FC0120E037C061157105D1F714
:100670002091E8002E772093E800F4CF8091650167
:10068000882309F43FC08530C9F18091E80083FDDB
:1006900037C08091E80082FD2BC08091E80080FF88
:1006A0001BC08091F2009091F30006C0219120932D
:1006B000F1006150704001966115710519F08830A4
:1006C0009105A0F321E08830910509F020E08091A8
:1006D000E8008E778093E8006115710579F6222392
:1006E00069F606C080916501882361F0853061F06C
:1006F0008091E80082FFF6CF80E0089583E00895BE
:1007000081E0089582E0089583E008956115710500
:1007100029F42091E8002B772093E800382F292F27
:1007200026C0809165018823B1F1853081F18091E7
:10073000E80083FD2EC08091E80082FFF2CFE32F16
:10074000F22F08C08091F10081933E2F2F2F61502E
:10075000704041F03E2F2F2F8091F2009091F300D6
:10076000009781F78091E8008B778093E80061150E
:100770007105B9F606C080916501882361F0853066
:1007800061F08091E80080FFF6CF80E0089583E07B
:10079000089581E0089582E0089583E0089520910E
:1007A0006C0130916D012617370720F4B901FC0167
:1007B00020E038C061157105D1F72091E8002E774F
:1007C0002093E800F4CF80916501882309F440C0AC
:1007D0008530D1F18091E80083FD38C08091E80038
:1007E00082FD2CC08091E80080FF1CC08091F20047
:1007F0009091F30007C024912093F100319661504D
:10080000704001966115710519F08830910598F3D3
:1008100021E08830910509F020E08091E8008E7792
:100820008093E8006115710571F6222361F606C018
:1008300080916501882361F0853061F08091E80046
:1008400082FFF6CF80E0089583E0089581E0089567
:1008500082E0089583E00895982F2AC09093E900DC
:10086000981739F07091EC002091ED005091F00054
:1008700003C0242F762F50E021FF19C03091EB00E8
:100880003E7F3093EB003091ED003D7F3093ED00E3
:100890003091EB0031603093EB007093EC002093CB
:1008A000ED005093F0002091EE0027FF08C09F5FFD
:1008B0009730A0F28F708093E90081E0089580E086
:1008C00008958091660187FF13C004C0809165017F
:1008D0008823B9F08091E80082FFF8CF8091E8008A
:1008E0008B778093E800089580916501882349F013
:1008F0008091E80080FFF8CF8091E8008E778093A8
:10090000E80008958091E4009091E50045E601C07B
:10091000C9012091EC0020FF23C02091E80020FDB8
:1009200015C020916501222399F0253099F020917E
:10093000EB0025FD11C02091E4003091E50028175F
:10094000390739F3415021F784E0089580E0089594
:1009500082E0089583E0089581E0089580E008959D
:100960002091E80022FFDDCFF9CF0F931F93CF93A3
:10097000DF934ED055D0C8EDD0E088818F77888343
:1009800088818068888388818F7D8883E7EDF0E0A7
:1009900080818068808319BC10926501109261018A
:1009A000109263011092620100EE10E0F801808164
:1009B0008B7F808388818160888380E060E042E073
:1009C0004BDFE1EEF0E080818E7F8083E2EEF0E0AD
:1009D000808181608083808188608083F80180814C
:1009E0008E7F8083888180618883DF91CF911F9182
:1009F0000F910895E8EDF0E080818F7E8083E7ED30
:100A0000F0E080818160808381E080936401ADCFDC
:100A1000E8EDF0E080818C7F80831092E200089501
:100A20001092DA001092E10008951F920F920FB613
:100A30000F920BB60F9211242F933F934F935F9316
:100A40006F937F938F939F93AF93BF93EF93FF9396
:100A50008091E10082FF0AC08091E20082FF06C01F
:100A60008091E1008B7F8093E10051D28091DA0088
:100A700080FF1DC08091D80080FF19C08091DA00EE
:100A80008E7F8093DA008091D90080FF0CC08CE0CB
:100A900089BD8EE089BD09B400FEFDCF81E0809361
:100AA0006501B3DB04C019BC10926501B0DB809115
:100AB000E10080FF18C08091E20080FF14C08091A7
:100AC000E2008E7F8093E2008091E200806180935B
:100AD000E2008091D80080628093D80019BC85E044
:100AE0008093650114D28091E10084FF2DC0809134
:100AF000E20084FF29C08CE089BD8EE089BD09B485
:100B000000FEFDCF8091D8008F7D8093D80080912A
:100B1000E1008F7E8093E1008091E2008F7E8093E0
:100B2000E2008091E20081608093E20080916101A7
:100B3000882321F48091E30087FF02C084E001C094
:100B400081E080936501E3D18091E10083FF27C0BC
:100B50008091E20083FF23C08091E100877F809332
:100B6000E10082E080936501109261018091E100D3
:100B70008E7F8093E1008091E2008E7F8093E2007F
:100B80008091E20080618093E20080E060E042E0DA
:100B900063DE8091F00088608093F000B8D1FF910F
:100BA000EF91BF91AF919F918F917F916F915F91E5
:100BB0004F913F912F910F900BBE0F900FBE0F9052
:100BC0001F9018951F920F920FB60F920BB60F92AF
:100BD00011242F933F934F935F936F937F938F9342
:100BE0009F93AF93BF93CF93EF93FF93C091E9008F
:100BF000CF708091EC001092E9008091F000877F27
:100C00008093F00078941DD01092E9008091F0005C
:100C100088608093F000C093E900FF91EF91CF913D
:100C2000BF91AF919F918F917F916F915F914F9104
:100C30003F912F910F900BBE0F900FBE0F901F9002
:100C400018951F93CF93DF93CDB7DEB7AC970FB650
:100C5000F894DEBF0FBECDBF80E0E6E6F1E09091F4
:100C6000F10091938F5F8830D1F71BDB8091E80012
:100C700083FF35C18091660120916701253009F419
:100C800084C0263040F42130A1F1213070F02330AF
:100C900009F025C12EC0283009F4F3C0293009F429
:100CA00002C1263009F01BC193C0803821F0823880
:100CB00009F015C108C080916201909163019923E8
:100CC00071F082600CC080916A018F708093E9009E
:100CD0009091EB0081E095FF80E01092E900909107
:100CE000E800977F9093E8008093F1001092F10064
:100CF000D3C0882319F0823009F0F1C090E08F71E1
:100D00009070009729F08230910509F0E8C00BC07F
:100D100080916801813009F0E2C0233009F080E061
:100D2000809363012CC080916801882341F5209154
:100D30006A012F7009F4D3C02093E9008091EB0081
:100D400080FF1DC080916701833021F48091EB000A
:100D5000806213C08091EB0080618093EB0081E0A2
:100D600090E002C0880F991F2A95E2F78093EA006D
:100D70001092EA008091EB0088608093EB00109263
:100D8000E9008091E800877F8AC0882309F0A7C026
:100D9000109168011F778091E3008078812B809308
:100DA000E3008091E800877F8093E8008ADD8091EE
:100DB000E80080FFFCCF8091E30080688093E3002F
:100DC000112311F083E001C082E08093650187C0A8
:100DD0008058823008F083C0809168019091690149
:100DE00023E08C3D9207A9F583E08C838AE28B8314
:100DF0005FB7F894DE01139680E090E04EE061E288
:100E0000E42FF0E060935700E49180FF03C0E29587
:100E1000EF704F5FEF702E2F30E0EA3018F0295C52
:100E20003F4F02C0205D3F4F13963C932E93129785
:100E3000019612968431910519F75FBF8091E80001
:100E4000877F8093E800CE0103966AE270E002DCBF
:100E500012C060916A01AE014F5F5F4F31DBBC0190
:100E6000009709F43CC08091E800877F8093E800F8
:100E700089819A8194DC8091E8008B778093E800E7
:100E80002EC0803861F58091E800877F8093E8006C
:100E9000809161018093F1008091E8008E778093CA
:100EA000E8000FDD1CC08823D1F4909168019230D6
:100EB000B0F48091E800877F8093E800909361010F
:100EC00000DD80916101882321F48091E30087FF98
:100ED00002C084E001C081E0809365019AD98091CD
:100EE000E80083FF0AC08091E800877F8093E800D4
:100EF0008091EB0080628093EB00AC960FB6F89483
:100F0000DEBF0FBECDBFDF91CF911F910895089531
:100F1000CF93809165018823A9F08091E9008F70BB
:100F20009091EC0090FF02C0C0E801C0C0E0C82B67
:100F30001092E9008091E80083FF01C082DECF704B
:0C0F4000C093E900CF910895F894FFCF12
:100F4C004A6F79737469636B2055700D0A004A6F90
:100F5C0079737469636B20446F776E0D0A004A6F66
:100F6C0079737469636B204C6566740D0A004A6F63
:100F7C0079737469636B2052696768740D0A004A4F
:100F8C006F79737469636B20507265737365640D4C
:100F9C000A0000000000000008000000000000082B
:00000001FF
