:1000000045C1000062C1000060C100005EC1000087
:100010005CC100005AC1000058C1000056C1000078
:1000200054C1000052C10000A6C500004EC100002E
:100030004CC100004AC1000048C1000046C1000098
:1000400044C1000042C1000040C100003EC10000A8
:100050003CC100003AC1000038C1000036C10000B8
:1000600034C1000032C1000030C100002EC10000C8
:100070002CC100002AC1000028C1000026C10000D8
:1000800024C1000022C1000020C100001EC10000E8
:100090001CC100001AC100001B5B33366D416E6449
:1000A000726F6964204163636573736F727920486E
:1000B0006F73742044656D6F2072756E6E696E6724
:1000C0002E0D0A1B5B33376D00446576696365202E
:1000D00041747461636865642E0D0A000D0A4465FD
:1000E0007669636520556E61747461636865642E1A
:1000F0000D0A004572726F722052657472696576DE
:10010000696E672044657669636520446573637230
:100110006970746F722E0D0A004E6F7420616E202C
:10012000416E64726F6964206465766963652E0D43
:100130000A004E6F7420696E204163636573736FAC
:100140007279206D6F64652C2073776974636869B8
:100150006E672E2E2E0D0A004572726F7220526548
:100160007472696576696E6720436F6E666967753C
:10017000726174696F6E2044657363726970746F25
:10018000722E0D0A004174746163686564204465D1
:1001900076696365204E6F7420612056616C6964D6
:1001A00020416E64726F6964204163636573736F8D
:1001B000727920436C617373204465766963652EA0
:1001C0000D0A004572726F722053657474696E6710
:1001D0002044657669636520436F6E666967757252
:1001E0006174696F6E2E0D0A00416E64726F6964EE
:1001F0002044657669636520456E756D657261742E
:1002000065642E0D0A001B5B33316D486F737420DB
:100210004D6F6465204572726F720D0A202D2D207E
:100220004572726F7220436F64652025640D0A1B4E
:100230005B33376D001B5B33316D44657620456E53
:10024000756D204572726F720D0A202D2D2045723A
:10025000726F7220436F64652025640D0A202D2D76
:1002600020537562204572726F7220436F6465205F
:1002700025640D0A202D2D20496E2053746174656C
:100280002025640D0A1B5B33376D000011241FBE4F
:10029000CFEFD0E2DEBFCDBF11E0A0E0B1E0E8EFEC
:1002A000FAE100E00BBF02C007900D92A039B10740
:1002B000D9F71BBE11E0A0E9B1E001C01D92A23B3D
:1002C000B107E1F74DD00C947A0D9ACE9BB19F7097
:1002D000982B9BB9089584B7877F84BF28E10FB618
:1002E000F89420936000109260000FBE90E080E8C8
:1002F0000FB6F89480936100909361000FBE83E382
:1003000090E09093CD008093CC0086E08093CA006B
:100310001092C8002093C900539A5A9A8AB1806FEC
:100320008AB98BB18F708BB90BD480E090E00C94BC
:10033000750A80919D018B3091F48BE491E00E94CD
:10034000AB09009761F08BE491E00E94E10997FD11
:1003500006C06091AE017091AF010C94920A0895AD
:10036000BADF88E990E00E94DD0A80E1AFDF78948F
:10037000E0DF8BE491E00E94500A96D6F9CF89EC39
:1003800090E00E94DD0A80EAA1CF8CED90E00E940F
:10039000DD0A80E19BCFCF93DF93CDB7DEB7C551A8
:1003A000D2400FB6F894DEBF0FBECDBF80EA8EDF1D
:1003B00081E060E0AE014C5F5F4F22E159D68823B7
:1003C00019F083EF90E03BC08BE491E0BE016C5FDD
:1003D0007F4FAE014F5F5F4F9AD6882319F489E1B2
:1003E00091E02DC08981882341F082E391E00E9451
:1003F000DD0A8BE491E03DD72CC081E0BE016E5F49
:100400007F4FAE014A5E5F4F20E032E047D4882341
:1004100019F088E591E013C06A817B818BE491E05B
:10042000AE014A5E5F4F86D6882319F085E891E0D9
:1004300006C081E0F8D5882331F083EC91E00E947A
:10044000DD0A80E905C089EE91E00E94DD0A80E6C0
:100450003DDFCB5EDD4F0FB6F894DEBF0FBECDBFE4
:10046000DF91CF910895CF93DF930F92CDB7DEB791
:100470008983FED200D000D0EDB7FEB7319626E0DA
:1004800032E0ADB7BEB712963C932E931197898197
:10049000828313820E94BE0A0F900F900F900F90DC
:1004A00080E914DFFFCF90919D012DB73EB7285012
:1004B00030400FB6F8943EBF0FBE2DBFEDB7FEB76C
:1004C000319625E332E0ADB7BEB712963C932E933A
:1004D00011978283138264831582968317820E9408
:1004E000BE0A2DB73EB7285F3F4F0FB6F8943EBF08
:1004F0000FBE2DBF80E9EACE80919E0090E0817012
:1005000090702091A0002D7F2093A00020919E004C
:10051000226020939E0020919E0021FDFCCF20911F
:100520009E00216020939E00109293012091A000D4
:1005300030E0207230704091A0004F7D4093A000C9
:1005400040919F004F7D40939F004AE050919F0053
:1005500055FF0BC040919F004F7D40939F004091FD
:100560009F004D7F40939F0008C0EFECF7E031976C
:10057000F1F700C00000415049F72115310529F07D
:100580002091A00020622093A000009729F4809180
:100590009E008E7F80939E008091A0008260809359
:1005A000A000089540919E0050E04170507020914D
:1005B000A00030E0207230709091A0009F7D909359
:1005C000A00090919F009F7D90939F0090919E002E
:1005D000916090939E0026C090919F0095FF06C069
:1005E00090919F009F7D90939F00815090919D01DD
:1005F0009130D9F09091A60094FF09C01092F500B7
:100600008091A6008F7E8093A60082E00FC090911B
:10061000A60091FF07C08091A6008D7F8093A60061
:1006200083E004C08823C1F601C081E04115510573
:1006300029F490919E009E7F90939E002115310594
:1006400029F09091A00090629093A00008950F93DC
:100650001F93CF93DF93CDB7DEB728970FB6F894EB
:10066000DEBF0FBECDBF80919D01853009F497C0DC
:10067000863068F48230C1F1833018F48823A1F009
:1006800002C18330C9F1843009F0FDC060C08730F9
:1006900009F49CC0873008F48DC0883009F4B6C0D6
:1006A000893009F0F0C0D7C00091900110919101FC
:1006B0000115110509F4E7C081E074DF682F882374
:1006C00031F08091920180939D0181E0D0C0015072
:1006D000104010939101009390010115110509F04C
:1006E000D2C08091920105C01092910110929001A8
:1006F00083E080939D01C7C080919001909191010A
:100700009C0121503040309391012093900100973B
:1007100039F08FEC97E00197F1F700C00000B3C00B
:1007200077988091D80080618093D8008091DD0017
:100730008B7F8093DD008091D70080618093D7000C
:100740008091DD0082608093DD0084E0D2CF8091D3
:100750009F0080FF98C080919F008E7F80939F00B4
:1007600080919F008D7F80939F008091DF008D7F1F
:100770008093DF008091DE0082608093DE008091B4
:100780009E00816080939E000FD110929D0184E6AF
:1007900090E0909391018093900185E059C0ACDE88
:1007A00010929D0188EC90E09093910180939001CC
:1007B00086E04EC080E060E040E020E430E001E010
:1007C0006DD0882309F44FC087E093CFA5E9B1E04D
:1007D000E5E6F1E088E001900D928150E1F710929A
:1007E000A700CE01019621D3682F882309F03EC0CF
:1007F00088858093750180DE10929D0188EC90E0E1
:10080000909391018093900188E022C0209175011E
:1008100080E060E040E030E001E040D0882319F162
:10082000A5E9B1E0EDE6F1E088E001900D9281509C
:10083000E1F780E090E0F9D2682F8823B9F41092B4
:100840009D0184E690E0909391018093900189E06E
:100850008093920118C081E08093A1008AE0809388
:100860009D0199DD10C060E084E001C083E09091BB
:100870009D01913041F017DE8091DD008160809311
:10088000DD0083DD0DD128960FB6F894DEBF0FBED4
:10089000CDBFDF91CF911F910F9108950F93582FE6
:1008A0005F7087FF02C080E101C080E2573008F02E
:1008B00057C0662309F480E04F706295660F660F9B
:1008C000607C642B682B452F02604093A70045177E
:1008D000A9F404C07F5F880F991F03C088E090E0EF
:1008E00070E08217930710F47530A1F7872F829577
:1008F000807F802BF62F70E0E0E008C0F091AA0026
:100900008091AB00E091AD007091AE0081FF20C0FE
:100910009091A9009E7F9093A9009091AB009D7F3C
:100920009093AB009091A90091609093A900F093EF
:10093000AA008093AB00E093AD007093AE0080916D
:10094000A90080628093A9008091AC0087FF08C055
:100950004F5F473009F0B9CF5093A70081E001C045
:1009600080E00F910895FF920F931F93CF93DF9331
:10097000162FEC01FF240DC08881882341F02981C6
:100980003A816C814B810D8189DF882331F0F394AA
:100990002696F11689F781E001C080E0DF91CF91C2
:1009A0001F910F91FF9008951092F80080E08093BE
:1009B000A7001092AE001092A6001092AB0090918A
:1009C000A9009E7F9093A9008F5F873081F70895DB
:1009D0004091A7009091AA0090E09093A7002091E9
:1009E000AC0027FF0CC03091AA00532F5F7030FF7E
:1009F00002C020E001C020E8252B281749F09F5FA6
:100A0000973059F7842F8F708093A70080E0089566
:100A100081E008958091A2009091A30045E601C075
:100A2000C9012091AA002073203129F42091A60049
:100A300020FF05C017C02091A60022FD13C0209101
:100A4000A60021FD11C020919D01213079F0209157
:100A5000A2003091A3002817390719F3415001F77C
:100A600083E0089580E0089581E0089582E008958C
:100A700075D07CD0E0EEF0E0808181608083E8ED8D
:100A8000F0E080818F77808319BCA7EDB0E08C9176
:100A90008E7F8C9380818F7E808310929401089545
:100AA0005DD064D08091D8008F778093D8008091FA
:100AB000D80080688093D8008091D8008F7D809383
:100AC000D8008091D7008F778093D7008CE089BDC4
:100AD0008EE089BD09B400FEFDCF81E080939D01C9
:100AE0001092930180E4809375018091D800806416
:100AF0008093D8008091DD0081608093DD0080913B
:100B0000DD0084608093DD008091D7008F7E80932C
:100B1000D7006F9A779A8091DE0081608093DE0023
:100B20008091DE0084608093DE008091E0008E7F03
:100B30008093E0008091D80080618093D800089570
:100B4000E8EDF0E080818F7E8083E7EDF0E080814A
:100B50008160808381E080939401A2CFE8EDF0E092
:100B600080818C7F80831092A00008951092DA001B
:100B700010929F0008951F920F920FB60F920BB61E
:100B80000F9211242F933F934F935F936F937F9313
:100B90008F939F93AF93BF93EF93FF9380919F00A9
:100BA00085FF0AC08091A00085FF06C080919F004C
:100BB0008F7D80939F0010D180919F0081FF15C091
:100BC0008091A00081FF11C080919F008D7F809354
:100BD0009F0080919F008E7F80939F008091A00056
:100BE0008D7F8093A000D1DB5BDF8091DF0081FFF0
:100BF00015C08091DE0081FF11C08091DF008D7FE4
:100C00008093DF0077988091DD0081608093DD0024
:100C100080E029DCBADB81E080939D018091DF00D8
:100C200080FF17C08091DE0080FF13C08091DF003D
:100C30008E7F8093DF008091DE008E7F8093DE00C8
:100C40009EDB8091A00082608093A00082E0809370
:100C50009D018091DF0082FF0EC08091DE0082FF47
:100C60000AC08091DF008B7F8093DF0082E060E02C
:100C70001ADC8BDB15DFFF91EF91BF91AF919F9154
:100C80008F917F916F915F914F913F912F910F9035
:100C90000BBE0F900FBE0F901F901895CF92DF9252
:100CA000EF92FF920F931F93CF93DF93CDB7DEB7F1
:100CB00029970FB6F894DEBF0FBECDBF6B018A0136
:100CC000790190E89093950196E09093960190E0D9
:100CD00001979260909398018093970110929A01E6
:100CE0001092990189E090E090939C0180939B0180
:100CF0001092A700CE01019698D08823B9F48B8179
:100D00009C81F60191838083E816F90670F0909338
:100D10009C0180939B01C80188D0882339F4F80195
:100D20009181923019F086E001C085E029960FB6D6
:100D3000F894DEBF0FBECDBFDF91CF911F910F9111
:100D4000FF90EF90DF90CF900895AF92BF92CF9237
:100D5000DF92EF92FF920F931F93CF93DF937C016B
:100D60008B015A0128C0F801C080D180F601808132
:100D700090E09E018C179D0708F49C01C601820F2C
:100D8000931FF80191838083F70180819181821BF9
:100D9000930B91838083F80180819181F5010995FE
:100DA000823049F0813069F4F801D182C082F701C4
:100DB000D183C08306C0F701C081D181209799F605
:100DC00082E0DF91CF911F910F91FF90EF90DF9024
:100DD000CF90BF90AF90089508951F93CF93DF9366
:100DE000182FC9EED3E006C081E0DCDB8823C9F40C
:100DF0002197B1F0112329F48091A60083FFF4CF4D
:100E00000DC0113029F48091A60080FFEDCF06C0FF
:100E1000123051F78091A60082FFE6CF80E001C03A
:100E200084E0DF91CF911F910895EF92FF920F938D
:100E30001F93CF93DF93EC01E0909E00FF2481E0AD
:100E4000E822FF2400919B0110919C0180919E005B
:100E5000816080939E0081E0A5DB882309F0CAC0F1
:100E60008091AA008F7C8093AA001092F500809157
:100E7000A6008F7E8093A6008091A9008F7B80932F
:100E8000A90088E0E5E9F1E091919093AF008150ED
:100E9000D9F78091A60087778093A60080E09DDF38
:100EA000882309F0A7C08091A90080648093A900DD
:100EB00081E078DB882309F09DC08091950187FF50
:100EC0004FC08091AA008F7C80618093AA002097F8
:100ED00061F52EC08091A9008F7B8093A90081E0ED
:100EE0007CDF882309F086C08091F6009091F7009E
:100EF000009741F400E010E005C08091AF008993B5
:100F0000015010408091F6009091F700009719F081
:100F10000115110591F78091A90080648093A900C3
:100F20008091A6008E778093A6000115110591F699
:100F30008091AA008F7C80628093AA008091A90092
:100F40008F7B8093A90082E048DF882309F052C09C
:100F50008091A6008B778093A60082E03EDF4AC096
:100F60002097A1F18091AA008F7C80628093AA00D3
:100F70008091A9008F7B8093A9001CC02EDF88235D
:100F8000C9F5FE0107C08191EF018093AF000150C8
:100F9000104059F0EF012091F6003091F700809158
:100FA000750190E02817390770F38091A6008B77C0
:100FB0008093A60082E00115110501F70EDF88235A
:100FC000C9F48091A90080648093A9008091AA004F
:100FD0008F7C80618093AA008091A9008F7B809391
:100FE000A90081E0FADE882329F49091A6009E777B
:100FF0009093A6009091A90090649093A900E114A9
:10100000F10429F490919E009E7F90939E0091E0C0
:101010009093A8001092A800DF91CF911F910F919B
:10102000FF90EF900895CF93C82F1092950189E01B
:1010300080939601C09397011092980110929A01A3
:101040001092990110929C0110929B011092A7009E
:1010500080E090E0EADE882349F4C0939301CC233A
:1010600011F09BE001C09AE090939D01CF9108950B
:10107000FA0190E89093950196E09093960170E0C4
:10108000582F40E0642B752B709398016093970163
:1010900010929A011092990120939B0110929C0149
:1010A0001092A700CF01C1CECF93C091A700CF70FF
:1010B0008091AA001092A700CADAC093A700CF912E
:1010C0000895FC018181843049F485818F3F31F49A
:1010D00086818F3F19F48781882311F082E008957B
:1010E00080E00895FC018181853049F4838183701B
:1010F000823039F482816CDC882319F404C0843096
:1011000021F082E0089580E0089581E00895FB01D8
:101110008181813069F48285938580509D4221E0F0
:101120008230910508F420E0FA01208381E00895DF
:1011300080E008954F925F927F928F929F92AF923C
:10114000BF92CF92DF92EF92FF920F931F93CF93B4
:10115000DF9300D000D0CDB7DEB78C017A836983EE
:10116000FA015C834B83DC0159961C921E925897BE
:101170008181823009F064C083E0A82EB12CAC0ECE
:10118000BD1E4E010894811C911CC401B50141E6AD
:1011900058E0DBDD882309F055C04B805C80CC240F
:1011A000DD24EE24FF247A2CA92C882D9A2D672D7E
:1011B0007B2D42E758E0C9DD882309F043C0EB816D
:1011C000FC81828187FF02C07F0101C06F01E114B1
:1011D000F10459F3C114D10441F3F70184819581DD
:1011E000D80112969C938E931197828113968C93BB
:1011F000139722E014962C931497F601848195811D
:1012000018969C938E931797828119968C931997B1
:101210001A962C93C80161E0A6DB8823A9F0C801C7
:10122000069661E0A0DB882379F081E0D80158962A
:101230008C935897F201828159968C93599704C0E8
:1012400081E003C082E001C080E00F900F900F901A
:101250000F90DF91CF911F910F91FF90EF90DF9052
:10126000CF90BF90AF909F908F907F905F904F9066
:101270000895CF92DF92EF92FF920F931F93CF9337
:10128000DF9300D0CDB7DEB7D82E092FA5E9B1E0A6
:10129000EFE7F1E088E001900D928150E1F71092C4
:1012A000A700CE010196C1DD882309F049C08981DC
:1012B0009A818130910509F042C0ED2CF02E00E0BA
:1012C00010E090E4D92E24E3C22EF70184859585A1
:1012D000009711F48EE791E0FC0101900020E9F7FE
:1012E000D0929501C09296011092980110929701A8
:1012F00010939A0100939901E81BF90BF0939C015C
:10130000E0939B011092A70090DD8823C9F40F5F42
:101310001F4F82E090E0E80EF91E06301105A9F695
:10132000A5E9B1E0E7E8F1E088E001900D92815095
:10133000E1F71092A70080E090E077DD01C080E83F
:101340000F900F90DF91CF911F910F91FF90EF9031
:10135000DF90CF900895FC0180919D018B3059F56D
:10136000808D882359F180818F708093A7008091B0
:10137000A9008F7B8093A9008091A60080FF16C0F2
:101380008091F6009091F700009731F48091A600CB
:101390008E778093A6000AC08091A9008064809314
:1013A000A9008091F6009091F70008958091A9001E
:1013B00080648093A90080E090E0089580E090E050
:1013C0000895FC0180919D018B3089F5808D8823E3
:1013D00089F180818F708093A7008091A9008F7B15
:1013E0008093A9008091A60080FF19C08091F6002B
:1013F0009091F700009721F08091AF0090E002C03B
:101400008FEF9FEF2091F6003091F7002115310505
:1014100041F42091A6002E772093A60002C08FEF02
:101420009FEF2091A90020642093A90008958FEFD9
:101430009FEF08958FEF9FEF0895FC0180919D012C
:101440008B3051F5808D882339F186818F708093A0
:10145000A7008091A9008F7B8093A9008091F6005E
:101460009091F7000097D1F09091A6008091A6008E
:101470008B778093A60095FD08C0CCDA882379F499
:101480008091A6008B778093A6008091A90080644C
:101490008093A90080E0089582E0089580E0089597
:1014A00020919D012B3029F4FC01208D222309F08D
:1014B000C4CF08959091C80095FFFCCF8093CE00D3
:1014C00080E090E008958091C80087FF08C0809177
:1014D000C80087FF07C08091CE0090E008958EEF8E
:1014E0009FEF08958FEF9FEF0895FC01009751F44F
:1014F000EEE9F1E0F093AD01E093AC01F093AF01C0
:10150000E093AE018EE0DF011D928A95E9F783E05A
:1015100083838AE59AE09187808783E69AE09387C0
:10152000828708950F931F93CF93DF938C01EB0174
:101530008B8181FF1BC082FF0DC02E813F818C817A
:101540009D812817390764F4E881F9810193F983B3
:10155000E88306C0E885F985802F0995009731F466
:101560008E819F8101969F838E8302C00FEF1FEFB4
:10157000C801DF91CF911F910F910895CF93DF9311
:10158000CDB7DEB7FE013596619171918091AE01C4
:101590009091AF01DC0113962C911397286013965C
:1015A0002C93AF0139D0E091AE01F091AF012381CE
:1015B000277F2383DF91CF9108950F931F93CF93BC
:1015C000DF938C01E091AE01F091AF01838181FF47
:1015D0001BC0C0E0D0E007C00995009711F0CFEF25
:1015E000DFEF0F5F1F4FF80184916091AE017091A2
:1015F000AF01DB011896ED91FC911997882361F7F3
:101600008AE00995009711F0CFEFDFEFCE01DF916F
:10161000CF911F910F9108952F923F924F925F9219
:101620006F927F928F929F92AF92BF92CF92DF92F2
:10163000EF92FF920F931F93CF93DF93CDB7DEB757
:101640002D970FB6F894DEBF0FBECDBF3C017D874E
:101650006C875A01FC0117821682838181FFBBC10E
:101660002E010894411C511CF3019381EC85FD85EA
:1016700093FD859193FF8191FD87EC87882309F481
:10168000A6C1853241F493FD859193FF8191FD8739
:10169000EC87853221F490E0B30144DFE5CFFF24ED
:1016A000EE2410E01032B0F48B3269F08C3228F462
:1016B000803251F0833271F40BC08D3239F08033B7
:1016C00049F411602CC01260146029C0186027C052
:1016D000106125C017FD2EC0282F20532A3098F402
:1016E00016FF08C08F2D880FF82EFF0CFF0CF80E88
:1016F000F20E15C08E2D880FE82EEE0CEE0CE80EC3
:10170000E20E10620CC08E3221F416FD60C110642E
:1017100006C08C3611F4106802C0883659F4EC8586
:10172000FD8593FD859193FF8191FD87EC8788234B
:1017300009F0B8CF982F9554933018F09052933009
:1017400038F424E030E0A20EB31E3FE339830FC02B
:10175000833631F0833781F0833509F056C021C0DC
:10176000F5018081898322E030E0A20EB31E21E0E2
:10177000C22ED12C420113C092E0292E312C2A0C0A
:101780003B1CF5018080918016FF03C06F2D70E037
:1017900002C06FEF7FEFC40144D16C0151011F778C
:1017A00014C082E0282E312C2A0C3B1CF5018080CD
:1017B000918016FF03C06F2D70E002C06FEF7FEFC6
:1017C000C40124D16C011068510113FD1AC005C079
:1017D00080E290E0B301A6DEEA948E2D90E0C81678
:1017E000D906B0F30EC0F40117FD859117FF819162
:1017F0004F0190E0B30196DEE110EA940894C1082D
:10180000D108C114D10479F7DFC0843611F08936CC
:1018100049F5F50117FF07C080819181A281B3814D
:1018200024E030E008C080819181AA2797FDA0952F
:10183000BA2F22E030E0A20EB31E012F0F76B7FFC1
:1018400008C0B095A095909581959F4FAF4FBF4F21
:101850000068BC01CD01A2012AE030E0EDD0D82E15
:10186000D4183EC0853721F41F7E2AE030E020C026
:10187000197F8F36A9F0803720F4883509F0A7C08A
:101880000BC0803721F0883709F0A1C001C010617A
:1018900014FF09C0146007C014FF08C0166006C01A
:1018A00028E030E005C020E130E002C020E132E075
:1018B000F50117FF07C0608171818281938144E047
:1018C00050E006C06081718180E090E042E050E02D
:1018D000A40EB51EA201B0D0D82ED418012F0F77B8
:1018E00006FF09C00E7FDF1430F404FF06C002FDBE
:1018F00004C00F7E02C01D2D01C01F2D802F90E05F
:1019000004FF0CC0FE01ED0DF11D2081203311F408
:10191000097E09C002FF06C01E5F05C08678907070
:10192000009709F01F5F802E992403FD11C000FF6E
:101930000CC0FD2C1E1548F4FE0CF11A1E2D05C01E
:1019400080E290E0B301EEDD1F5F1E15C8F304C016
:101950001E1510F4E11A01C0EE2484FE0EC080E3CF
:1019600090E0B301DFDD82FE1DC081FE03C088E58B
:1019700090E010C088E790E00DC0C40186789070B8
:10198000009781F081FC02C080E201C08BE207FD7C
:101990008DE290E0B301C6DD05C080E390E0B301C5
:1019A000C1DDFA94DF14C8F3DA94F201ED0DF11DF4
:1019B000808190E0B301B6DDDD20B1F705C080E2A3
:1019C00090E0B301AFDDEA94EE20C9F74DCEF3010C
:1019D0008681978102C08FEF9FEF2D960FB6F89406
:1019E000DEBF0FBECDBFDF91CF911F910F91FF9052
:1019F000EF90DF90CF90BF90AF909F908F907F90AF
:101A00006F905F904F903F902F900895FC0105904C
:101A1000615070400110D8F7809590958E0F9F1FF0
:101A20000895FC016150704001900110D8F7809535
:101A300090958E0F9F1F0895FA01AA27283051F123
:101A4000203181F1E8946F936E7F6E5F7F4F8F4FEF
:101A50009F4FAF4FB1E03ED0B4E03CD0670F781F4E
:101A6000891F9A1FA11D680F791F8A1F911DA11D33
:101A70006A0F711D811D911DA11D20D009F468946C
:101A80003F912AE0269F11243019305D3193DEF614
:101A9000CF010895462F4770405D4193B3E00FD0CA
:101AA000C9F7F6CF462F4F70405D4A3318F0495DB5
:101AB00031FD4052419302D0A9F7EACFB4E0A69598
:101AC0009795879577956795BA95C9F700976105BA
:101AD000710508959B01AC010A2E06945795479510
:101AE00037952795BA95C9F7620F731F841F951F05
:081AF000A01D0895F894FFCF3A
:101AF8004465616E2043616D657261004C554641D5
:101B080020416E64726F69642044656D6F00312EE8
:101B18003000687474703A2F2F7777772E6C75665B
:101B2800612D6C69622E6F72670030303030303052
:101B38003030313233343536373800810000000018
:101B48000102000000000100010C010C011E01222D
:101B5800013A0100008006000100000800000501AC
:101B6800000000000040800800000000010000C0E4
:101B780033000000000200403500000000000000B3
:00000001FF
