:100000004BC0000067C0000065C0000063C0000076
:1000100061C000005FC000005DC000005BC0000068
:1000200059C0000057C0000057C5000053C0000071
:1000300051C000004FC000004DC000004BC0000088
:1000400049C0000047C0000045C0000043C0000098
:1000500041C000003FC000003DC000003BC00000A8
:1000600039C0000037C0000035C0000033C00000B8
:1000700031C000002FC000002DC000002BC00000C8
:1000800029C0000027C0000025C0000023C00000D8
:1000900021C000001FC0000011241FBECFEFD0E21E
:1000A000DEBFCDBF11E0A0E0B1E0EAEEFFE000E08E
:1000B0000BBF02C007900D92AA36B107D9F71BBE3D
:1000C00011E0AAE6B1E001C01D92A93BB107E1F73A
:1000D0000AD189C795CF9BB19F70982B9BB9089582
:1000E00084B7877F84BF88E10FB6F894809360005F
:1000F000109260000FBE90E080E80FB6F8948093F5
:100100006100909361000FBE8AB1806F8AB98BB194
:100110008F708BB9C6D484B18F7184B98DB18F7C47
:100120008DB985B1806E85B98EB180638EB96A98BC
:10013000729A089580EACFCF80E1CDCF80EACBDFFD
:10014000F7D0882321F481E01DD7882311F080E9BE
:1001500001C080E6C0CF3ED480E9BDDFFFCF80E99B
:10016000BACF8EB38B30E1F481E08093A700809109
:10017000A9008F7B8093A9008091A60080FD06C016
:100180008091A90080648093A90008958091A600C1
:100190008E778093A6008091A90080648093A90047
:1001A00008952EB32B30B9F522E02093A7002091BB
:1001B000AC0027FF17C02091A9002F7B2093A90036
:1001C0002091A60022FF08C040E050E006D38091B5
:1001D000A6008B778093A6008091A900806480930D
:1001E000A900089521E22093B10129E02093B201F2
:1001F00022E030E03093B4012093B30121E030E0FD
:100200003093B6012093B5017093B8016093B701A4
:100210001092A700B9C50895ECE6F1E0DC0188E092
:100220000D9001928150E1F78CE691E0BACFCF9327
:10023000DF93EC0180916A0190916B0121E08030A5
:10024000920721F4C817D90729F414C081E0C030FF
:10025000D80781F480E489B980E391E068E070E038
:10026000DBDF88E391E068E070E0D6DFCE0160E498
:1002700070E0D2DFD0936B01C0936A01DF91CF9120
:10028000089523B18CB19CB192FD03C088E091E048
:100290001DC0809590E08073907095958795922F02
:1002A0009095907E982B97FF03C080E191E00EC05F
:1002B00094FF03C088E191E009C096FF03C080E28B
:1002C00091E004C093FF03C088E291E0B0CF809139
:1002D0006A0190916B0121E08030920719F080E073
:1002E00091E0A5CF0895FCDE80E091E090936B0152
:1002F00080936A0180E1EFDE7894C3DF32DF66D657
:10030000FCCFFC018181843019F48581833011F0A8
:1003100082E0089580E00895FC018181853021F01C
:10032000843021F481E0089580E0089582E008950A
:10033000AF92BF92CF92DF92EF92FF920F931F93F3
:10034000CF93DF93CDB7DEB7C450D2400FB6F89449
:10035000DEBF0FBECDBFAE014B5F5F4F5C834B83F3
:1003600081E08E010F5F1F4FB80120E032E045D4DD
:10037000853009F451C0863019F0882329F002C075
:1003800083E04FC081E04DC0CC24DD24EE24FF2467
:10039000AA24BB24A114B10449F0C801BE016D5FB9
:1003A0007F4F4CE851E080D4882389F0E114F104B8
:1003B000E1F4C801BE016D5F7F4F41E851E074D4A4
:1003C000882361F5AB80BC80CC24DD24E3CFEB81B6
:1003D000FC81828187FF02C07F0101C06F01E114AF
:1003E000F104C1F2C114D104A9F2F70124813581CD
:1003F00081E863E0428101E047D2F7018681809382
:10040000AD00C114D10461F0F6012481358182E090
:1004100063E0428139D204C082E003C084E001C0BD
:1004200080E0CC5FDD4F0FB6F894DEBF0FBECDBFCE
:10043000DF91CF911F910F91FF90EF90DF90CF90C0
:10044000BF90AF90089580919E0090E08170907071
:100450002091A0002D7F2093A00020919E0022607B
:1004600020939E0020919E0021FDFCCF20919E00B4
:10047000216020939E001092AF012091A00030E0F7
:10048000207230704091A0004F7D4093A0004091B9
:100490009F004F7D40939F004AE050919F0055FF81
:1004A0000BC040919F004F7D40939F0040919F0063
:1004B0004D7F40939F0008C0EFECF7E03197F1F7D4
:1004C00000C00000415049F72115310529F0209165
:1004D000A00020622093A000009729F480919E0044
:1004E0008E7F80939E008091A00082608093A00008
:1004F000089540919E0050E0417050702091A000FE
:1005000030E0207230709091A0009F7D9093A00009
:1005100090919F009F7D90939F0090919E0091608D
:1005200090939E0025C090919F0095FF06C09091EA
:100530009F009F7D90939F0081509EB39130D9F092
:100540009091A60094FF09C01092F5008091A6003A
:100550008F7E8093A60082E00FC09091A60091FF4D
:1005600007C08091A6008D7F8093A60083E004C021
:100570008823C9F601C081E04115510529F4909105
:100580009E009E7F90939E002115310529F0909149
:10059000A00090629093A00008950F931F93CF93B3
:1005A000DF93CDB7DEB728970FB6F894DEBF0FBE46
:1005B000CDBF8EB3853009F496C0863068F48230A2
:1005C000B9F1833018F48823A1F0FCC08330C9F15D
:1005D000843009F0F7C060C0873009F49AC08730D2
:1005E00008F48BC0883009F4B3C0893009F0EAC040
:1005F000D3C00091AC011091AD010115110509F4B2
:10060000E1C081E076DF682F882329F08091AE0178
:100610008EBB81E0CCC0015010401093AD0100931F
:10062000AC010115110509F0CDC08091AE0107C0E4
:1006300088EE93E09093AD018093AC0183E08EBB94
:10064000C1C08091AC019091AD019C01215030401E
:100650003093AD012093AC01009739F08FEC97E017
:100660000197F1F700C00000ADC077988091D800E5
:1006700080618093D8008091DD008B7F8093DD00C6
:100680008091D70080618093D7008091DD008260E7
:100690008093DD0084E0D3CF80919F0080FF92C0E3
:1006A00080919F008E7F80939F0080919F008D7F1F
:1006B00080939F008091DF008D7F8093DF00809189
:1006C000DE0082608093DE0080919E0081608093D6
:1006D0009E003FD11EBA84E690E09093AD018093D6
:1006E000AC0185E056C0AFDE1EBA88EC90E0909376
:1006F000AD018093AC0186E04CC080E060E040E05A
:1007000020E430E001E0C0D0882309F44CC087E049
:1007100096CFA1EBB1E0E0E4F1E088E001900D922A
:100720008150E1F71092A700CE0101962DD3682FDA
:10073000882309F03BC088858093500184DE1EBA6F
:1007400088EC90E09093AD018093AC0188E021C0EB
:100750002091500180E060E040E030E001E094D082
:10076000882309F1A1EBB1E0E8E4F1E088E0019031
:100770000D928150E1F780E090E006D3682F882346
:10078000A9F41EBA84E690E09093AD018093AC0189
:1007900089E08093AE0116C081E08093A1008AE0D9
:1007A0008EBBCCDC0FC060E084E001C083E09EB370
:1007B000913041F0D4DC8091DD0081608093DD00D8
:1007C000BBDC20D128960FB6F894DEBF0FBECDBF9C
:1007D000DF91CF911F910F910895AF92BF92CF9269
:1007E000DF92FF920F931F93CF93DF935C01EB0196
:1007F0006A018091AA008F7C80628093AA00BDD09C
:10080000F82E8823B1F5C114D10441F0F60100811E
:100810001181C01BD10B0A0D1B1D01C08501AA242B
:10082000BB2423C08091A60085FD16C08091A60040
:100830008B778093A600C114D10451F0F60180811A
:1008400091818A0D9B1D9183808344E0F42E11C019
:1008500094D0882351F00CC0F80181918F018093CE
:10086000AF0021970894A11CB11C2097D9F601C0B4
:10087000F82E8F2DDF91CF911F910F91FF90DF9078
:10088000CF90BF90AF9008950F93582F5F7087FF60
:1008900002C080E101C080E2573008F057C06623F3
:1008A00009F480E04F706295660F660F607C642BE0
:1008B000682B452F02604093A7004517A9F404C098
:1008C0007F5F880F991F03C088E090E070E0821777
:1008D000930710F47530A1F7872F8295807F802BC6
:1008E000F62F70E0E0E008C0F091AA008091AB0024
:1008F000E091AD007091AE0081FF20C09091A90001
:100900009E7F9093A9009091AB009D7F9093AB0048
:100910009091A90091609093A900F093AA00809310
:10092000AB00E093AD007093AE008091A9008062AF
:100930008093A9008091AC0087FF08C04F5F4730CB
:1009400009F0B9CF5093A70081E001C080E00F917A
:1009500008951092F80080E08093A7001092AE00F6
:100960001092A6001092AB009091A9009E7F9093E8
:10097000A9008F5F873081F708958091A200909140
:10098000A30045E601C0C9012091AA0020732031CF
:1009900029F42091A60020FF05C016C02091A600D2
:1009A00022FD12C02091A60021FD10C02EB32130DF
:1009B00079F02091A2003091A3002817390721F384
:1009C000415009F783E0089580E0089581E008959B
:1009D00082E0089574D07BD0E0EEF0E08081816009
:1009E0008083E8EDF0E080818F77808319BCA7EDEC
:1009F000B0E08C918E7F8C9380818F7E808310926B
:100A0000B00108955CD063D08091D8008F77809337
:100A1000D8008091D80080688093D8008091D80059
:100A20008F7D8093D8008091D7008F778093D700F7
:100A30008CE089BD8EE089BD09B400FEFDCF81E068
:100A40008EBB1092AF0180E4809350018091D8005A
:100A500080648093D8008091DD0081608093DD0008
:100A60008091DD0084608093DD008091D7008F7ECF
:100A70008093D7006F9A779A8091DE00816080938F
:100A8000DE008091DE0084608093DE008091E000D3
:100A90008E7F8093E0008091D80080618093D800A1
:100AA0000895E8EDF0E080818F7E8083E7EDF0E04F
:100AB00080818160808381E08093B001A3CFE8EDE5
:100AC000F0E080818C7F80831092A00008951092C6
:100AD000DA0010929F0008951F920F920FB60F92A6
:100AE0000BB60F9211242F933F934F935F936F9305
:100AF0007F938F939F93AF93BF93EF93FF938091D7
:100B00009F0085FF0AC08091A00085FF06C08091EC
:100B10009F008F7D80939F000ED180919F0081FF69
:100B200015C08091A00081FF11C080919F008D7F32
:100B300080939F0080919F008E7F80939F00809183
:100B4000A0008D7F8093A000F7DA5CDF8091DF004A
:100B500081FF14C08091DE0081FF10C08091DF0012
:100B60008D7F8093DF0077988091DD008160809396
:100B7000DD0080E0F0DAE0DA81E08EBB8091DF001A
:100B800080FF16C08091DE0080FF12C08091DF00E0
:100B90008E7F8093DF008091DE008E7F8093DE0069
:100BA000C9DA8091A00082608093A00082E08EBBB1
:100BB0008091DF0082FF0EC08091DE0082FF0AC0BC
:100BC0008091DF008B7F8093DF0082E060E0C7DAF6
:100BD000B3DA18DFFF91EF91BF91AF919F918F91A1
:100BE0007F916F915F914F913F912F910F900BBE2D
:100BF0000F900FBE0F901F901895CF92DF92EF923B
:100C0000FF920F931F93CF93DF93CDB7DEB7299752
:100C10000FB6F894DEBF0FBECDBF6B018A0179011C
:100C200090E89093B10196E09093B20190E0019723
:100C300092609093B4018093B3011092B601109228
:100C4000B50189E090E09093B8018093B7011092CC
:100C5000A700CE01019698D08823B9F48B819C819E
:100C6000F60191838083E816F90670F09093B8013D
:100C70008093B701C80188D0882339F4F8019181A5
:100C8000923019F086E001C085E029960FB6F894FD
:100C9000DEBF0FBECDBFDF91CF911F910F91FF90AF
:100CA000EF90DF90CF900895AF92BF92CF92DF92F6
:100CB000EF92FF920F931F93CF93DF937C018B01F1
:100CC0005A0128C0F801C080D180F601808190E0EF
:100CD0009E018C179D0708F49C01C601820F931F8B
:100CE000F80191838083F70180819181821B930BAE
:100CF00091838083F80180819181F501099582308B
:100D000049F0813069F4F801D182C082F701D183C2
:100D1000C08306C0F701C081D181209799F682E097
:100D2000DF91CF911F910F91FF90EF90DF90CF90C7
:100D3000BF90AF90089508951F93CF93DF93182F1E
:100D4000C9EED3E006C081E0D4DB8823C9F4219743
:100D5000B1F0112329F48091A60083FFF4CF0DC0D8
:100D6000113029F48091A60080FFEDCF06C012302B
:100D700051F78091A60082FFE6CF80E001C084E0B9
:100D8000DF91CF911F910895EF92FF920F931F93E0
:100D9000CF93DF93EC01E0909E00FF2481E0E822F6
:100DA000FF240091B7011091B80180919E008160ED
:100DB00080939E0081E09DDB882309F0CAC080916A
:100DC000AA008F7C8093AA001092F5008091A60063
:100DD0008F7E8093A6008091A9008F7B8093A900CD
:100DE00088E0E1EBF1E091919093AF008150D9F769
:100DF0008091A60087778093A60080E09DDF8823FE
:100E000009F0A7C08091A90080648093A90081E0C7
:100E100070DB882309F09DC08091B10187FF4FC02E
:100E20008091AA008F7C80618093AA00209761F551
:100E30002EC08091A9008F7B8093A90081E07CDF88
:100E4000882309F086C08091F6009091F700009702
:100E500041F400E010E005C08091AF00899301509B
:100E600010408091F6009091F700009719F001155D
:100E7000110591F78091A90080648093A900809169
:100E8000A6008E778093A6000115110591F680913A
:100E9000AA008F7C80628093AA008091A9008F7B3A
:100EA0008093A90082E048DF882309F052C0809136
:100EB000A6008B778093A60082E03EDF4AC0209791
:100EC000A1F18091AA008F7C80628093AA0080911A
:100ED000A9008F7B8093A9001CC02EDF8823C9F551
:100EE000FE0107C08191EF018093AF0001501040D7
:100EF00059F0EF012091F6003091F70080915001F8
:100F000090E02817390770F38091A6008B778093C3
:100F1000A60082E00115110501F70EDF8823C9F450
:100F20008091A90080648093A9008091AA008F7CA1
:100F300080618093AA008091A9008F7B8093A90093
:100F400081E0FADE882329F49091A6009E779093A1
:100F5000A6009091A90090649093A900E114F10477
:100F600029F490919E009E7F90939E0091E0909333
:100F7000A8001092A800DF91CF911F910F91FF90D0
:100F8000EF900895CF93C82F1092B10189E080931C
:100F9000B201C093B3011092B4011092B601109245
:100FA000B5011092B8011092B7011092A70080E02D
:100FB00090E0EADE882341F4C093AF01CC2311F026
:100FC0009BE001C09AE09EBBCF910895CF93C09162
:100FD000A700CF708091AA001092A700DEDAC0931C
:0A0FE000A700CF910895F894FFCF09
:100FEA0000000000000008080000000000010808D6
:100FFA0000000001000008080000000001000808C5
:10100A0000010000000008080000010000000808B4
:10101A005553424300000400555342430040020026
:10102A008006000100000800000501000000000021
:10103A0040800800000000010000C03300000000EA
:0A104A000200403500000000000025
:00000001FF
