:10000000C4C00000E1C00000DFC00000DDC000008F
:10001000DBC00000D9C00000D7C00000D5C0000080
:10002000D3C00000D1C000000C94DB090C94AB0AD3
:10003000CBC00000C9C00000C7C00000C5C00000A0
:10004000C3C00000C1C00000BFC00000BDC00000B0
:10005000BBC00000B9C00000B7C00000B5C00000C0
:10006000B3C00000B1C00000AFC00000ADC00000D0
:10007000ABC00000A9C00000A7C00000A5C00000E0
:10008000A3C00000A1C000009FC000009DC00000F0
:100090009BC0000099C0000048034C00550046007A
:1000A000410020004D0061007300730020005300E8
:1000B00074006F007200610067006500200061003D
:1000C0006E00640020004B006500790062006F0044
:1000D0006100720064002000440065006D006F0044
:1000E000000018034400650061006E00200043001A
:1000F00061006D00650072006100000004030904E6
:1001000009023900020100803209040000020806D9
:100110005000070583024000050705040240000562
:10012000090401000103010100092111010001225C
:100130003F000705810308000512011001000000BF
:1001400008EB03612001000102DC0105010906A1A1
:1001500001050719E029E7150025017501950881BA
:100160000295017508810105081901290595057594
:10017000019102950175039101150025FF050719ED
:100180000029FF950675088100C011241FBECFEF1E
:10019000D0E2DEBFCDBF11E0A0E0B1E0E6E4F0E2E6
:1001A00000E00BBF02C007900D92A039B107D9F74C
:1001B0001BBE11E0A0E9B1E001C01D92A53AB10754
:1001C000E1F74CD00C9421101BCF9BB19F70982B62
:1001D0009BB9089584B7877F84BF88E10FB6F894F0
:1001E00080936000109260000FBE90E080E80FB630
:1001F000F89480936100909361000FBE8AB1806F84
:100200008AB98BB18F708BB984B18F7184B98DB17C
:100210008F7C8DB985B1806E85B98EB180638EB9C2
:100220006A98729A209A289A84B1866084B9239831
:100230002B9A8DB581608DBD20988CE58CBD8DB1DC
:1002400083608DB98EB183608EB90E94C009BCD322
:10025000882319F480E9B9DFFFCF68C3BBDF80E1F1
:10026000B4DF789480E191E00E94DE0E80E091E0BE
:100270000E94BE0D0E94540CF5CF80EAA6CF80E10B
:10028000A4CFCF9380E091E00E94A50DC82F80E11C
:1002900091E00E94C20E9091E20094609093E2007F
:1002A000282F30E08C2F90E02823392321153105A9
:1002B00011F080E601C080E988DFCF91089580E1E8
:1002C00091E00E94850E80E091E00C94700CCF9339
:1002D000DF93EC0180E279DFCE01E6D3C82F80E620
:1002E00074DF8C2FDF91CF91089580910E01909152
:1002F0000F01009729F0019790930F0180930E0151
:1003000008950F931F93F901D80123B18CB1809503
:1003100090E080739070959587952095207E282B8E
:100320008CB18095847092E0908327FF02C094E0A6
:1003300003C024FF02C095E0928326FF02C096E02E
:1003400003C023FF02C097E0928325FF02C098E01C
:100350009283882311F089E0828388E090E01196EF
:100360009C938E9380E01F910F910895F9019081E5
:1003700090FF02C080E101C080E091FD806892FDA5
:10038000806423CF933089F0943028F4913049F180
:10039000923061F505C09132D1F0923239F51CC02E
:1003A00089E390E0E0E0F1E025C0813041F0813068
:1003B00018F08230D9F406C0ECEFF0E005C0E2EEB0
:1003C000F0E002C0E8E9F0E0849190E013C089E039
:1003D00090E0E9E2F1E00EC08FE390E0EBE4F1E0C1
:1003E00009C082E190E0E9E3F1E004C080E090E040
:1003F000E0E0F0E0DA011196FC93EE9308958EB1FF
:100400009EB193609EB99EB18C6F936089238EB923
:100410000895F5DF87ED8EBD0DB407FEFDCF1EBC40
:100420000DB407FEFDCF0EB407FEF9CFE8CF9C0157
:100430003695279556E0969587955A95E1F78EBDA6
:100440000DB407FEFDCF220F220F220F272B2EBD4A
:100450000DB407FEFDCF6EBD0DB407FEFDCF0895B0
:100460002EB123602EB920E48030920758F480FF2B
:1004700005C08EB183608D7F8EB908958EB1836083
:100480008E7F8EB908953F924F925F926F927F92C6
:100490008F929F92AF92BF92CF92DF92EF92FF9294
:1004A0000F931F93CF93DF930F92CDB7DEB72C013D
:1004B000B22EC32EDB01CA01F9E0880F991FAA1FD3
:1004C000BB1FFA95D1F71AE0B695A7959795879532
:1004D0001A95D1F77C018A01102F0027110F137094
:1004E000BFDF83E58EBD0DB407FEFDCFC70160E021
:1004F00070E09DDF8EDF84E88EBD0DB407FEFDCF7A
:1005000080E090E0B80193DFC3D6882309F0F3C000
:10051000A80174E0569547957A95E1F70B2D1C2DAF
:10052000CC24DD2433243801E5E0660C771CEA9501
:10053000E1F7BB24B394C0C060E2A62E4601860C4E
:10054000971C8091E80085FD0BC08091E8008B77B7
:100550008093E80049839CD64981882309F0CBC069
:10056000403409F03BC055DF332011F086E801C06C
:1005700083E88EBD0DB407FEFDCFC70160E070E0DB
:1005800056DF0894E11CF11C8EB180958370823097
:1005900009F43B24C70164DF80E48816910478F4F1
:1005A00038DF332011F085E501C083E58EBD0DB441
:1005B00007FEFDCFC70160E070E039DF2ADF33209E
:1005C00011F087E801C084E88EBD0DB407FEFDCFB1
:1005D00080E090E060E070E02ADF40E08091F10090
:1005E0008EBD0DB407FEFDCF8091F1008EBD0DB420
:1005F00007FEFDCF8091F1008EBD0DB407FEFDCF4B
:100600008091F1008EBD0DB407FEFDCF8091F10009
:100610008EBD0DB407FEFDCF8091F1008EBD0DB4EF
:1006200007FEFDCF8091F1008EBD0DB407FEFDCF1A
:100630008091F1008EBD0DB407FEFDCF8091F100D9
:100640008EBD0DB407FEFDCF8091F1008EBD0DB4BF
:1006500007FEFDCF8091F1008EBD0DB407FEFDCFEA
:100660008091F1008EBD0DB407FEFDCF8091F100A9
:100670008EBD0DB407FEFDCF8091F1008EBD0DB48F
:1006800007FEFDCF8091F1008EBD0DB407FEFDCFBA
:100690008091F1008EBD0DB407FEFDCFF20180AD5B
:1006A000882349F54F5FAA9409F04BCF01501040C1
:1006B00080EE9FEFC80ED91E0115110509F03CCF41
:1006C000A8DE332011F086E801C083E88EBD0DB4AA
:1006D00007FEFDCFC70160E070E0A9DE9ADE8091E1
:1006E000E80085FD05C08091E8008B778093E800E5
:1006F0008EB183608EB90F90DF91CF911F910F91D2
:10070000FF90EF90DF90CF90BF90AF909F908F9031
:100710007F906F905F904F903F900895BF92CF92DF
:10072000DF92EF92FF920F931F93CF93DF936C01B1
:100730007901DB01CA01E9E0880F991FAA1FBB1FDD
:10074000EA95D1F7FAE0B695A79597958795FA952A
:10075000D1F78C01EA01DC2FCC27DD0FD37080DECE
:1007600082ED8EBD0DB407FEFDCFC801BE015FDE78
:100770001EBC0DB407FEFDCF1EBC0DB407FEFDCFA1
:100780001EBC0DB407FEFDCF1EBC0DB407FEFDCF91
:100790007FD5882309F0C0C034E0D695C7953A9537
:1007A000E1F742EDB42EA8C0D0E28091E80085FDCB
:1007B00009C08091E8008E778093E80069D588238E
:1007C00009F0AAC0C034E9F40F5F1F4FC80148DE2A
:1007D000BEBC0DB407FEFDCFC80160E070E027DEAF
:1007E0001EBC0DB407FEFDCF1EBC0DB407FEFDCF31
:1007F0001EBC0DB407FEFDCF1EBC0DB407FEFDCF21
:10080000C0E01EBC0DB407FEFDCF8EB58093F10095
:100810001EBC0DB407FEFDCF8EB58093F1001EBC4B
:100820000DB407FEFDCF8EB58093F1001EBC0DB454
:1008300007FEFDCF8EB58093F1001EBC0DB407FE00
:10084000FDCF8EB58093F1001EBC0DB407FEFDCF29
:100850008EB58093F1001EBC0DB407FEFDCF8EB5A2
:100860008093F1001EBC0DB407FEFDCF8EB58093C2
:10087000F1001EBC0DB407FEFDCF8EB58093F100D4
:100880001EBC0DB407FEFDCF8EB58093F1001EBCDB
:100890000DB407FEFDCF8EB58093F1001EBC0DB4E4
:1008A00007FEFDCF8EB58093F1001EBC0DB407FE90
:1008B000FDCF8EB58093F1001EBC0DB407FEFDCFB9
:1008C0008EB58093F1001EBC0DB407FEFDCF8EB532
:1008D0008093F1001EBC0DB407FEFDCF8EB5809352
:1008E000F100F60180AD8823B9F4CF5FD15009F053
:1008F0005CCF0894E108F108E114F10409F054CF49
:100900008091E80085FD05C08091E8008E77809396
:10091000E8008EB183608EB9DF91CF911F910F9166
:10092000FF90EF90DF90CF90BF9008958EB18360DD
:100930008E7F8EB987ED8EBD0DB407FEFDCF1EBC38
:100940000DB407FEFDCF0EB401FE15C058DD8DE3DA
:100950008EBD0DB407FEFDCF8AE28EBD0DB407FE3D
:10096000FDCF8FE78EBD0DB407FEFDCF8AE98EBDAA
:100970000DB407FEFDCF8EB183608D7F8EB987EDFC
:100980008EBD0DB407FEFDCF1EBC0DB407FEFDCF1E
:100990000EB401FE15C033DD8DE38EBD0DB407FE30
:1009A000FDCF8AE28EBD0DB407FEFDCF8FE78EBD71
:1009B0000DB407FEFDCF8AE98EBD0DB407FEFDCF55
:1009C0008EB183608EB908958EB183608E7F8EB9AB
:1009D0008FE98EBD0DB407FEFDCF1EBC0DB407FE22
:1009E000FDCF9EB58EB183608EB99F31B1F48EB1CB
:1009F00083608D7F8EB98FE98EBD0DB407FEFDCF6C
:100A00001EBC0DB407FEFDCF9EB58EB183608EB9BE
:100A100081E09F3119F080E0089580E008950F9300
:100A20001F93CF93DF93EC01862F48A15F8D6E8DCE
:100A30007D8D0BA11AA1403090E8590790E069071D
:100A400090E0790768F080914B01807F856080930A
:100A50004B0181E2809355011092560180E01FC046
:100A6000882321F0CE01980159DE03C0CE01980100
:100A70000ADD20E030E089E0000F111F221F331F44
:100A80008A95D1F78C899D89AE89BF89801B910B8E
:100A9000A20BB30B8C8B9D8BAE8BBF8B81E0DF9158
:100AA000CF911F910F910895CF92DF92EF92FF9215
:100AB0000F931F93CF93DF93CDB7DEB728970FB671
:100AC000F894DEBF0FBECDBF8C01FC01838D8D314C
:100AD00009F4A9C08E3178F4833009F453C084300E
:100AE00020F4882309F4DCC0E1C08231B9F08A31F6
:100AF00009F0DCC0BBC0883209F4B2C0893238F4D6
:100B00008E3109F4CDC0853209F0D0C060C08A3280
:100B100009F4A3C08F3209F0C9C0C2C0F801C78C64
:100B2000D68C848D90E083709070009709F07FC020
:100B3000858D882309F07BC07601F5E2CF16D104BC
:100B400018F024E2E22EF12C8BE591E0B70140E0B1
:100B500050E016D1C6018E199F0960E070E0CBD03D
:100B60008091E8008E778093E800A70160E070E054
:100B7000F80184899589A689B789841B950BA60BF2
:100B8000B70B89C0F801C78CEC2CF2E1FC1510F40E
:100B900092E1E92E89E491E06E2D70E040E050E0B2
:100BA000EFD08C2D90E08E19910960E070E0A3D019
:100BB0008091E8008E778093E800F8018489958918
:100BC000A689B7898E199109A109B10964C08FEF6F
:100BD0009FE7A0E0B0E08D839E83AF83B88780E07D
:100BE00092E0A0E0B0E089839A83AB83BC83CE011E
:100BF000059664E070E040E050E011D1CE0101962E
:100C000064E070E040E050E00AD18091E8008E7727
:100C10008093E800F80184899589A689B7890897A7
:100C2000A109B10938C0F801848D82FD08C0809106
:100C30004B01807F856080934B0184E23EC0C4DE1F
:100C4000882371F580914B01807F846080934B01F4
:100C500010925501109256013EC0C80160E002C0DA
:100C6000C80161E0DCDE8823B1F12AC01092F100F6
:100C70001092F1001092F1001092F1008091E800C2
:100C80008E778093E800F80184899589A689B789D1
:100C90000497A109B109848B958BA68BB78B10C0E3
:100CA000F801148A158A168A178A0AC080914B01A6
:100CB000807F856080934B0180E280935501CACF8D
:100CC00080914B01807F80934B01109255011092CF
:100CD000560181E001C080E028960FB6F894DEBF8F
:100CE0000FBECDBFDF91CF911F910F91FF90EF907D
:100CF000DF90CF900895DF92EF92FF920F931F93B2
:100D0000CF93DF93EC018B01C3D2D82E882379F5E2
:100D10000115110529F0F80120813181C21BD30B87
:100D2000EE24FF2420C08091E80085FD16C080914C
:100D3000E8008E778093E8000115110551F0F80165
:100D4000808191818E0D9F1D9183808335E0D32E0C
:100D50000EC09ED2882339F009C01092F10021976D
:100D60000894E11CF11C2097F1F601C0D82E8D2DBE
:100D7000DF91CF911F910F91FF90EF90DF90089539
:100D8000AF92BF92CF92DF92EF92FF921F93CF93D9
:100D9000DF93EC017B016A017BD2182F8823A1F538
:100DA000C114D10439F0F60120813181E21AF30A2D
:100DB000C20FD31FAA24BB2422C08091E80085FD66
:100DC00015C08091E8008E778093E800C114D104AB
:100DD00049F0F601808191818A0D9B1D918380836A
:100DE00015E012C055D2882351F00DC0899180932F
:100DF000F1000894E108F1080894A11CB11CE11469
:100E0000F104D9F601C0182F812FDF91CF911F91E6
:100E1000FF90EF90DF90CF90BF90AF900895AF928A
:100E2000BF92CF92DF92FF920F931F93CF93DF93E6
:100E3000EC016B015A012CD2F82E8823D9F58601DA
:100E4000015010400C0F1D1FA114B10439F0F50121
:100E500020813181C21AD30A021B130BC0E0D0E0FB
:100E600024C08091E80085FD16C08091E8008E774F
:100E70008093E800A114B10451F0F50180819181C3
:100E80008C0F9D1F9183808345E0F42E13C000D208
:100E9000882359F00EC0F80180818093F100015041
:100EA00010400894C108D1082196C114D104C9F694
:100EB00001C0F82E8F2DDF91CF911F910F91FF90E0
:100EC000DF90CF90BF90AF900895AF92BF92CF9236
:100ED000DF92EF92FF921F93CF93DF93EC017B01A0
:100EE0006A01D6D1182F8823A1F5C114D10439F095
:100EF000F60120813181E21AF30AC20FD31FAA241E
:100F0000BB2422C08091E80085FD15C08091E800D7
:100F10008B778093E800C114D10449F0F6018081F9
:100F200091818A0D9B1D9183808315E012C0B0D101
:100F3000882351F00DC08091F10089930894E10855
:100F4000F1080894A11CB11CE114F104D9F601C008
:100F5000182F812FDF91CF911F91FF90EF90DF909D
:100F6000CF90BF90AF9008952091A3013091A4013C
:100F70002617370720F4B901FC0120E037C06115BE
:100F80007105D1F72091E8002E772093E800F4CF87
:100F900080919C01882309F43FC08530C9F180917C
:100FA000E80083FD37C08091E80082FD2BC080916E
:100FB000E80080FF1BC08091F2009091F30006C012
:100FC00021912093F10061507040019661157105E7
:100FD00019F088309105A0F321E08830910509F0DF
:100FE00020E08091E8008E778093E800611571051C
:100FF00079F6222369F606C080919C01882361F06E
:10100000853061F08091E80082FFF6CF80E008959E
:1010100083E0089581E0089582E0089583E00895D3
:101020006115710529F42091E8002B772093E800E1
:10103000382F292F26C080919C018823B1F185305B
:1010400081F18091E80083FD2EC08091E80082FF4D
:10105000F2CFE32FF22F08C08091F10081933E2F51
:101060002F2F6150704041F03E2F2F2F8091F200C2
:101070009091F300009781F78091E8008B7780933F
:10108000E80061157105B9F606C080919C018823BE
:1010900061F0853061F08091E80080FFF6CF80E05C
:1010A000089583E0089581E0089582E0089583E043
:1010B00008952091A3013091A4012617370720F449
:1010C000B901FC0120E038C061157105D1F720910C
:1010D000E8002E772093E800F4CF80919C018823CC
:1010E00009F440C08530D1F18091E80083FD38C01B
:1010F0008091E80082FD2CC08091E80080FF1CC038
:101100008091F2009091F30007C024912093F100A8
:1011100031966150704001966115710519F0883063
:10112000910598F321E08830910509F020E0809145
:10113000E8008E778093E8006115710571F622232F
:1011400061F606C080919C01882361F0853061F0D2
:101150008091E80082FFF6CF80E0089583E0089553
:1011600081E0089582E0089583E00895982F2AC0D1
:101170009093E900981739F07091EC002091ED0000
:101180005091F00003C0242F762F50E021FF19C0AA
:101190003091EB003E7F3093EB003091ED003D7FCE
:1011A0003093ED003091EB0031603093EB007093A1
:1011B000EC002093ED005093F0002091EE0027FF0B
:1011C00008C09F5F9730A0F28F708093E90081E0A4
:1011D000089580E008950F931F93CF93DF93162F08
:1011E000EC0100E02AC09881992329F16B81E98103
:1011F000FA812C81892F8F70873018F56295660FE0
:10120000660F607C991F9927991F692B223010F077
:1012100096E001C092E028E030E040E003C04F5F7C
:10122000220F331F2E173F07D0F34295407F492BE3
:101230009DDF882331F00F5F25960117A1F681E02D
:1012400001C080E0DF91CF911F910F9108958091AF
:101250009D0187FF13C004C080919C018823B9F0D1
:101260008091E80082FFF8CF8091E8008B7780932F
:10127000E800089580919C01882349F08091E8005E
:1012800080FFF8CF8091E8008E778093E800089582
:101290008091E4009091E50045E601C0C9012091EC
:1012A000EC0020FF23C02091E80020FD15C0209114
:1012B0009C01222399F0253099F02091EB0025FD27
:1012C00011C02091E4003091E5002817390739F367
:1012D000415021F784E0089580E0089582E0089568
:1012E00083E0089581E0089580E008952091E8006A
:1012F00022FFDDCFF9CF0F931F93CF93DF934ED013
:1013000055D0C8EDD0E088818F7788838881806848
:10131000888388818F7D8883E7EDF0E08081806815
:10132000808319BC10929C011092980110929A012E
:101330001092990100EE10E0F80180818B7F80838C
:1013400088818160888380E060E042E00FDFE1EE29
:10135000F0E080818E7F8083E2EEF0E0808181602A
:101360008083808188608083F80180818E7F808384
:10137000888180618883DF91CF911F910F910895BB
:10138000E8EDF0E080818F7E8083E7EDF0E0808102
:101390008160808381E080939B01ADCFE8EDF0E038
:1013A00080818C7F80831092E20008951092DA0091
:1013B0001092E10008951F920F920FB60F920BB694
:1013C0000F9211242F933F934F935F936F937F93CB
:1013D0008F939F93AF93BF93EF93FF938091E1001F
:1013E00082FF0BC08091E20082FF07C08091E10084
:1013F0008B7F8093E1000E9475018091DA0080FF6D
:101400001FC08091D80080FF1BC08091DA008E7FC2
:101410008093DA008091D90080FF0DC08CE089BDF7
:101420008EE089BD09B400FEFDCF81E080939C0170
:101430000E943D0105C019BC10929C010E943F0111
:101440008091E10080FF18C08091E20080FF14C00D
:101450008091E2008E7F8093E2008091E2008061C3
:101460008093E2008091D80080628093D80019BCFC
:1014700085E080939C0117D28091E10084FF2DC00C
:101480008091E20084FF29C08CE089BD8EE089BD97
:1014900009B400FEFDCF8091D8008F7D8093D800E5
:1014A0008091E1008F7E8093E1008091E2008F7E49
:1014B0008093E2008091E20081608093E20080915D
:1014C0009801882321F48091E30087FF02C084E023
:1014D00001C081E080939C01E6D18091E10083FF0F
:1014E00027C08091E20083FF23C08091E100877FC5
:1014F0008093E10082E080939C011092980180919A
:10150000E1008E7F8093E1008091E2008E7F8093E6
:10151000E2008091E20080618093E20080E060E080
:1015200042E024DE8091F00088608093F000BBD11F
:10153000FF91EF91BF91AF919F918F917F916F91AB
:101540005F914F913F912F910F900BBE0F900FBE67
:101550000F901F9018951F920F920FB60F920BB617
:101560000F9211242F933F934F935F936F937F9329
:101570008F939F93AF93BF93CF93EF93FF93C091BC
:10158000E900CF708091EC001092E9008091F000AA
:10159000877F8093F00078941DD01092E9008091AD
:1015A000F00088608093F000C093E900FF91EF9114
:1015B000CF91BF91AF919F918F917F916F915F91EB
:1015C0004F913F912F910F900BBE0F900FBE0F9038
:1015D0001F9018951F93CF93DF93CDB7DEB7AC97CD
:1015E0000FB6F894DEBF0FBECDBF80E0EDE9F1E0AD
:1015F0009091F10091938F5F8830D1F70E945F0145
:101600008091E80083FF37C180919D0120919E0168
:10161000253009F484C0263040F42130A1F1213076
:1016200070F0233009F027C12EC0283009F4F4C02F
:10163000293009F403C1263009F01DC193C0803858
:1016400021F0823809F017C108C08091990190916A
:101650009A01992371F082600CC08091A1018F7072
:101660008093E9009091EB0081E095FF80E010927B
:10167000E9009091E800977F9093E8008093F10053
:101680001092F100D4C0882319F0823009F0F3C021
:1016900090E08F719070009729F08230910509F0E9
:1016A000EAC00BC080919F01813009F0E4C0233073
:1016B00009F080E080939A012CC080919F018823DB
:1016C00041F52091A1012F7009F4D5C02093E900C4
:1016D0008091EB0080FF1DC080919E01833021F43A
:1016E0008091EB00806213C08091EB008061809359
:1016F000EB0081E090E002C0880F991F2A95E2F785
:101700008093EA001092EA008091EB008860809359
:10171000EB001092E9008091E800877F8BC088235E
:1017200009F0A9C010919F011F778091E300807894
:10173000812B8093E3008091E800877F8093E8000D
:1017400086DD8091E80080FFFCCF8091E300806817
:101750008093E300112311F083E001C082E08093C5
:101760009C0189C08058823008F085C080919F011B
:101770009091A00123E08C3D9207A9F583E08C8332
:101780008AE28B835FB7F894DE01139680E090E0E5
:101790004EE061E2E42FF0E060935700E49180FFB7
:1017A00003C0E295EF704F5FEF702E2F30E0EA300C
:1017B00018F0295C3F4F02C0205D3F4F13963C93C9
:1017C0002E931297019612968431910519F75FBFF7
:1017D0008091E800877F8093E800CE0103966AE25B
:1017E00070E0C2DB13C06091A101AE014F5F5F4F9B
:1017F0000E94C201BC01009709F43DC08091E8003D
:10180000877F8093E80089819A8153DC8091E8008A
:101810008B778093E8002FC0803869F58091E800CD
:10182000877F8093E800809198018093F1008091F8
:10183000E8008E778093E8000ADD1DC08823D9F484
:1018400090919F019230B8F48091E800877F809357
:10185000E80090939801FBDC80919801882321F4A3
:101860008091E30087FF02C084E001C081E08093A3
:101870009C010E9441018091E80083FF0AC0809191
:10188000E800877F8093E8008091EB00806280937E
:10189000EB00AC960FB6F894DEBF0FBECDBFDF9164
:1018A000CF911F9108950895CF9380919C01882333
:1018B000A9F08091E9008F709091EC0090FF02C038
:1018C000C0E801C0C0E0C82B1092E9008091E80098
:1018D00083FF01C07FDECF70C093E900CF910895F0
:1018E0006F927F928F929F92AF92BF92CF92DF9230
:1018F000EF92FF920F931F93CF93DF9300D00F923D
:10190000CDB7DEB77C016DB67EB68091E80083FF6F
:1019100005C1F701808190E02091A1013091A201E1
:101920002817390709F0FAC080919E01833009F425
:101930009CC0843030F4813071F0823009F0EEC008
:10194000D1C08A3009F4B6C08B3009F49FC0893009
:1019500009F0E4C04CC080919D01813A09F0DEC0DD
:101960009DB68EB61B821A8280919F010091A001C4
:101970008983F70140858DB79EB7841B91090FB607
:10198000F8949EBF0FBE8DBFCDB6DEB60894C11CC5
:10199000D11CBC2CAD2CC60160E070E050E04AD3F5
:1019A000402F4150C701BE016F5F7F4F96018E01EE
:1019B0000E5F1F4F0E948101F7018681978100977A
:1019C00021F04085B60150E02CD31092E9008091BF
:1019D000E800877F8093E8006A817B818B2D9A2DB8
:1019E000C3DA8091E8008B778093E8003BC0809158
:1019F0009D01813209F092C09DB68EB60091A3017F
:101A00001091A401C0909F01D090A0018DB79EB706
:101A1000801B910B0FB6F8949EBF0FBE8DBFADB665
:101A2000BEB60894A11CB11C8091E800877F80930A
:101A3000E800C501B801F4DA8091E8008E77809360
:101A4000E80081E090E0CC2011F480E090E04D2DA2
:101A500041509501280F391F081B190BC7016C2D28
:101A60000E94B6019DBE8EBE59C080919D01813AF3
:101A700009F054C08091E800877F8093E80080914E
:101A8000E80080FFFCCFF701818540C080919D0177
:101A9000813209F043C08091E800877F8093E8009D
:101AA000D6DB90919F0181E0992309F480E0F70152
:101AB000818734C080919D01813281F58091E80059
:101AC000877F8093E800C3DB80919F019091A00104
:101AD000807036E0969587953A95E1F7F7019587FE
:101AE00084871CC080919D01813AC1F48091E800F7
:101AF000877F8093E8008091E80080FFFCCFF701AA
:101B00008485958596958795969587958093F10020
:101B10008091E8008E778093E80099DB0FB6F89407
:101B20007EBE0FBE6DBE0F900F900F90DF91CF91D4
:101B30001F910F91FF90EF90DF90CF90BF90AF90EB
:101B40009F908F907F906F900895CF93DF93FC01CB
:101B50000996DC0187E0ED0119928A95E9F781E0A9
:101B6000818784EF91E09587848783E08483CF0128
:101B7000019661E030DBDF91CF9108954F925F9243
:101B80006F927F928F929F92AF92BF92CF92DF928D
:101B9000EF92FF920F931F93CF93DF9300D00F929A
:101BA000CDB7DEB77C014DB65EB680919C01843026
:101BB00009F092C08091E4009091E500F701228540
:101BC00033852817390709F487C081818F70809386
:101BD000E9008091E80085FF7FC07DB66EB6408544
:101BE0008DB79EB7841B91090FB6F8949EBF0FBEA8
:101BF0008DBF0DB71EB70F5F1F4F19821B821A8250
:101C0000B02EA12EC80160E070E050E013D2C701F1
:101C1000BE016F5F7F4F40E098018E010E5F1F4F46
:101C20000E948101182FF70184859585009759F04E
:101C300081E090E0268537852115310511F080E09F
:101C400090E04C0102C088249924F701C680D78017
:101C5000C114D10491F04A815B818B2D9A2DB6017C
:101C6000D3D101E0009709F400E0F7014085C601F7
:101C70006B2D7A2D50E0D5D101C000E08A819B8187
:101C8000009709F1112329F4002319F48114910418
:101C9000D1F0F701848595859787868781818F703C
:101CA0008093E9008981882311F08093F1006A8193
:101CB0007B818B2D9A2D40E050E062D88091E80026
:101CC0008E778093E8008091E4009091E500F70121
:101CD000938782877DBE6EBE0FB6F8945EBE0FBE40
:101CE0004DBE0F900F900F90DF91CF911F910F91EC
:101CF000FF90EF90DF90CF90BF90AF909F908F902C
:101D00007F906F905F904F900895CF93DF93EC0199
:101D10008091E80083FF33C0888190E02091A10189
:101D20003091A2012817390751F580919E018E3F0D
:101D300079F08F3F21F580919D01813201F58091ED
:101D4000E800877F8093E80082DA81E088AF17C0DF
:101D500080919D01813A99F48091E800877F80937A
:101D6000E8008091E80080FFFCCF8B858150809354
:101D7000F1008091E8008E778093E80068DADF91C7
:101D8000CF910895CF93DF93EC010C96FC018DE287
:101D9000DF011D928A95E9F782E08C838987CE0165
:101DA000019661E018DA882329F0CE01069661E0F9
:101DB00012DA01C080E0DF91CF910895EF92FF9297
:101DC0000F931F93CF93DF9300D0CDB7DEB78C0175
:101DD00080919C01843009F00EC1F80186818F70DA
:101DE0008093E9008091E80082FFCBC086818F70EC
:101DF0008093E9001A8219822CE0E22EF12CE00E89
:101E0000F11E04C080AD882309F0BBC0C7016FE09C
:101E100070E0AE014F5F5F4F58D8F801853091F305
:101E200084859585A685B7858535F3E59F07F2E41A
:101E3000AF07F3E4BF0781F4F801918D838598170C
:101E400058F4808D90E08F719070009729F4828D06
:101E5000882311F0813180F08091EB0080628093C3
:101E6000EB00F80181818F708093E9008091EB0095
:101E700080628093EB0085C01A8219829BE1E92E73
:101E8000F12CE00EF11E05C0F80180AD882309F0A9
:101E900078C0F801628DC70170E0AE014F5F5F4FFF
:101EA00014D8853089F38091E8008B778093E8001F
:101EB000F801808D87FF04C081818F708093E900D5
:101EC000C8010E94670191E09827F80197AB45E5AA
:101ED00053E562E473E543A754A765A776A7408955
:101EE00051896289738947A750AB61AB72AB448952
:101EF00055896689778943AB54AB65AB76AB88234C
:101F000051F4411551056105710529F08091EB00EF
:101F100080628093EB00F80186818F708093E900E6
:101F200003C080AD882369F58091EB00F80185FD41
:101F3000F8CF81818F708093E90004C0F80180ADF3
:101F40008823F9F48091EB0085FDF8CF1A8219827D
:101F50008BE2E82EF12CE00EF11E04C0F80180ADFA
:101F6000882379F4C7016DE070E0AE014F5F5F4FE9
:101F70000E94C006853091F38091E8008E778093AF
:101F8000E800F80180AD8823B1F126812F7081E04F
:101F900090E0AC0102C0440F551F2A95E2F7409330
:101FA000EA001092EA0021812F7002C0880F991F69
:101FB0002A95E2F78093EA001092EA0086818F70FA
:101FC0008093E9008091EB0080618093EB00809129
:101FD000EB0088608093EB0081818F708093E90033
:101FE0008091EB0080618093EB008091EB00886032
:101FF0008093EB0010AE0F900F90DF91CF911F9167
:102000000F91FF90EF900895FB01DC0104C08D91CA
:102010000190801921F441505040C8F7881B990B5A
:102020000895FB01DC0102C001900D924150504027
:10203000D8F70895DC0101C06D9341505040E0F79E
:062040000895F894FFCFA3
:102046000181080000019001080000000000000066
:102056000083400000010440000001010000000070
:10206600000000000000000000000000000000006A
:10207600000000000000000000000000000000005A
:1020860000000000000000000070000000000000DA
:102096000A00000000000000000000008000021F8F
:1020A6000000004C55464100000000446174616622
:1020B6006C617368204469736B0000302E3030A168
:1020C60020000000000200A1010000000000000046
:00000001FF
