:100000009AC00000B6C00000B4C00000B2C000003A
:10001000B0C00000AEC00000ACC00000AAC000002C
:10002000A8C00000A6C0000004C40000CAC40000AC
:10003000A0C000009EC000009CC000009AC000004C
:1000400098C0000096C0000094C0000092C000005C
:1000500090C000008EC000008CC000008AC000006C
:1000600088C0000074C1000084C0000082C000008D
:1000700080C000007EC000007CC000007AC000008C
:1000800078C0000076C0000074C0000072C000009C
:1000900070C000006EC000002E034C0055004600EA
:1000A000410020005500530042002D005200530033
:1000B0003200330032002000410064006100700013
:1000C00074006500720000001803440065006100C0
:1000D0006E002000430061006D0065007200610049
:1000E00000000403090409023E00020100C03209B5
:1000F0000400000102020100052400100104240292
:10010000060524060001070582030800FF09040113
:1001100000020A000000070504021000050705831D
:10012000021000051201100102000008EB034B2031
:1001300001000102DC0111241FBECFEFD0E2DEBFBF
:10014000CDBF11E0A0E0B1E0EAE6F0E100E00BBFD6
:1001500002C007900D92AE32B107D9F71BBE12E074
:10016000AEE2B1E001C01D92A235B107E1F756D071
:100170007AC746CF9BB19F70982B9BB90895FC011D
:10018000A081B1816C93808191810196918380835C
:10019000268137818217930721F484819581918389
:1001A00080832FB7F8948285938501969387828701
:1001B0002FBF0895FC01A281B3818D91B383A283E7
:1001C00026813781A217B30721F424813581338337
:1001D00022839FB7F894228533852150304033879E
:1001E00022879FBF089584B7877F84BF88E10FB6B9
:1001F000F89480936000109260000FBE90E080E859
:100200000FB6F89480936100909361000FBE8AB19D
:10021000806F8AB98BB18F708BB9F0C2E4DFEEE2E8
:10022000F1E02FB7F8948AE391E091838083938380
:100230008283958384838AEB91E09783868380E829
:1002400090E091878087138612862FBFEAEBF1E05A
:100250004FB7F89426EC31E0318320833383228337
:100260003583248326E432E0378326839187808791
:10027000138612864FBF80E17DDF78948FB7F894A4
:1002800020913801309139018FBF809136019091D2
:1002900037012817390749F080E091E08DD6BC017D
:1002A00097FD03C08EE291E06ADF2FB7F89480914A
:1002B000C4019091C5012FBF009711F12091010158
:1002C0002F702093E9002091E80020FF19C08031B1
:1002D000910510F08FE090E0182FC0E0D0E00EC044
:1002E000E091BC01F091BD0180E091E06081F8D522
:1002F0002196882329F48AEB91E05CDF1C1781F7B3
:100300002FB7F89480913801909139012FBF009751
:1003100049F08EE291E04EDF9091C80095FFFCCF4E
:100320008093CE0080E091E030D6EFD4A7CF80EA72
:1003300021CF80E11FCF80E091E0AED5882311F07E
:1003400080E601C080E916CF80E091E0F9C41F92F9
:100350000F920FB60F920BB60F9211242F933F936B
:100360004F935F936F937F938F939F93AF93BF93BD
:10037000EF93FF936091CE008EB3843019F48AEB33
:1003800091E0FDDEFF91EF91BF91AF919F918F9131
:100390007F916F915F914F913F912F910F900BBE85
:1003A0000F900FBE0F901F901895CF93FC01A18D59
:1003B000A150A23028F4B0E0A55EBE4FCC9101C0A0
:1003C000C0E0808D823009F4C860828D873031F0C2
:1003D000883031F0863029F4C26003C0C46001C0A7
:1003E000C6601092C9001092C8001092CA002489F9
:1003F000358946895789DA01C901B695A795979538
:100400008795805C9D4BA04FBF4FBC01CD0109D6A5
:10041000215030403093CD002093CC00C093CA00CF
:1004200082E08093C80088E98093C900CF91089545
:10043000923029F0933041F09130E9F417C08EE307
:1004400090E0E6EEF0E01BC0813041F0813018F022
:10045000823089F406C0E2EEF0E005C0E8ECF0E09E
:1004600002C0E8E9F0E0849190E009C082E190E008
:10047000E4E2F1E004C080E090E0E0E0F0E0DA01E6
:100480001196FC93EE930895209150023091510201
:100490002617370720F4B901FC0120E035C06115AB
:1004A0007105D1F72091E8002E772093E800F4CF72
:1004B0008EB38823F1F18530C1F18091E80083FD8E
:1004C00036C08091E80082FD2AC08091E80080FF5C
:1004D0001BC08091F2009091F30006C021912093FF
:1004E000F1006150704001966115710519F0883076
:1004F0009105A0F321E08830910509F020E080917A
:10050000E8008E778093E8006115710589F6222353
:1005100079F605C08EB3882361F0853061F0809153
:10052000E80082FFF7CF80E0089583E0089581E03E
:10053000089582E0089583E008952091500230915B
:1005400051022617370720F4B901FC0120E037C01B
:1005500061157105D1F72091E8002E772093E8000E
:10056000F4CF8EB3882309F43FC08530C9F1809160
:10057000E80083FD37C08091E80082FD2BC08091A8
:10058000E80080FF1CC08091F2009091F30007C04A
:1005900024912093F10031966150704001966115CD
:1005A000710519F08830910598F321E088309105A4
:1005B00009F020E08091E8008E778093E8006115D3
:1005C000710579F6222369F605C08EB3882361F0A0
:1005D000853061F08091E80082FFF7CF80E00895D8
:1005E00083E0089581E0089582E0089583E008950E
:1005F000982F2AC09093E900981739F07091EC0079
:100600002091ED005091F00003C0242F762F50E090
:1006100021FF19C03091EB003E7F3093EB00309109
:10062000ED003D7F3093ED003091EB003160309371
:10063000EB007093EC002093ED005093F0002091BC
:10064000EE0027FF08C09F5F9730A0F28F70809365
:10065000E90081E0089580E008950F931F93CF9300
:10066000DF93162FEC0100E02AC09881992329F12D
:100670006B81E981FA812C81892F8F70873018F581
:100680006295660F660F607C991F9927991F692BE9
:10069000223010F096E001C092E028E030E040E027
:1006A00003C04F5F220F331F2E173F07D0F3429531
:1006B000407F492B9DDF882331F00F5F259601177E
:1006C000A1F681E001C080E0DF91CF911F910F91F1
:1006D000089580914A0287FF11C003C08EB388231A
:1006E000B1F08091E80082FFF9CF8091E8008B772C
:1006F0008093E80008958EB3882349F08091E80044
:1007000080FFF9CF8091E8008E778093E80008950C
:100710008091E4009091E50045E601C0C901209177
:10072000EC0020FF22C02091E80020FD14C02EB371
:10073000222399F0253099F02091EB0025FD11C07E
:100740002091E4003091E5002817390741F341502A
:1007500029F784E0089580E0089582E0089583E019
:10076000089581E0089580E008952091E80022FF37
:10077000DECFF9CF0F931F93CF93DF934DD054D09B
:10078000C8EDD0E088818F778883888180688883EE
:1007900088818F7D8883E7EDF0E0808180688083A9
:1007A00019BC1EBA109246021092480210924702DB
:1007B00000EE10E0F80180818B7F8083888181606A
:1007C000888380E060E042E013DFE1EEF0E08081CA
:1007D0008E7F8083E2EEF0E0808181608083808183
:1007E00088608083F80180818E7F8083888180612A
:1007F0008883DF91CF911F910F910895E8EDF0E08C
:1008000080818F7E8083E7EDF0E08081816080834E
:1008100081E080934902AECFE8EDF0E080818C7FEB
:1008200080831092E20008951092DA001092E100A5
:1008300008951F920F920FB60F920BB60F921124CC
:100840002F933F934F935F936F937F938F939F93D8
:10085000AF93BF93EF93FF938091E10082FF0AC0B3
:100860008091E20082FF06C08091E1008B7F80933F
:10087000E1004AD28091DA0080FF1BC08091D8004D
:1008800080FF17C08091DA008E7F8093DA0080911C
:10089000D90080FF0BC08CE089BD8EE089BD09B412
:1008A00000FEFDCF81E08EBB42DD03C019BC1EBA45
:1008B00040DD8091E10080FF17C08091E20080FF61
:1008C00013C08091E2008E7F8093E2008091E2006D
:1008D00080618093E2008091D80080628093D8008C
:1008E00019BC85E08EBB10D28091E10084FF2CC042
:1008F0008091E20084FF28C08CE089BD8EE089BD34
:1009000009B400FEFDCF8091D8008F7D8093D80080
:100910008091E1008F7E8093E1008091E2008F7EE4
:100920008093E2008091E20081608093E2008091F8
:100930004602882321F48091E30087FF02C084E00F
:1009400001C081E08EBBE0D18091E10083FF26C031
:100950008091E20083FF22C08091E100877F809335
:10096000E10082E08EBB109246028091E1008E7F12
:100970008093E1008091E2008E7F8093E20080917D
:10098000E20080618093E20080E060E042E030DEDF
:100990008091F00088608093F000B6D1FF91EF91D4
:1009A000BF91AF919F918F917F916F915F914F9187
:1009B0003F912F910F900BBE0F900FBE0F901F9085
:1009C00018951F920F920FB60F920BB60F9211242B
:1009D0002F933F934F935F936F937F938F939F9347
:1009E000AF93BF93CF93EF93FF93C091E900CF7084
:1009F0008091EC001092E9008091F000877F809355
:100A0000F00078941DD01092E9008091F000886089
:100A10008093F000C093E900FF91EF91CF91BF91D7
:100A2000AF919F918F917F916F915F914F913F9186
:100A30002F910F900BBE0F900FBE0F901F90189527
:100A40001F93CF93DF93CDB7DEB7AC970FB6F89473
:100A5000DEBF0FBECDBF80E0EAE4F2E09091F1008E
:100A600091938F5F8830D1F76FDC8091E80083FF2E
:100A700033C180914A0220914B02253009F484C091
:100A8000263040F42130A1F1213070F0233009F0FC
:100A900023C12EC0283009F4F2C0293009F401C165
:100AA000263009F019C192C0803821F0823809F04F
:100AB00013C108C08091470290914802992371F0B8
:100AC00082600CC080914E028F708093E9009091FB
:100AD000EB0081E095FF80E01092E9009091E80042
:100AE000977F9093E8008093F1001092F100D2C0BC
:100AF000882319F0823009F0EFC090E08F71907078
:100B0000009729F08230910509F0E6C00BC0809172
:100B10004C02813009F0E0C0233009F080E080937E
:100B200048022CC080914C02882341F520914E024E
:100B30002F7009F4D1C02093E9008091EB0080FF71
:100B40001DC080914B02833021F48091EB008062C4
:100B500013C08091EB0080618093EB0081E090E016
:100B600002C0880F991F2A95E2F78093EA0010923D
:100B7000EA008091EB0088608093EB001092E9001E
:100B80008091E800877F89C0882309F0A5C0109173
:100B90004C021F778091E3008078812B8093E300E3
:100BA0008091E800877F8093E80093DD8091E800E2
:100BB00080FFFCCF8091E30080688093E3001123E5
:100BC00011F083E001C082E08EBB86C08058823085
:100BD00008F082C080914C0290914D0223E08C3D40
:100BE0009207A9F583E08C838AE28B835FB7F89440
:100BF000DE01139680E090E04EE061E2E42FF0E049
:100C000060935700E49180FF03C0E295EF704F5F5F
:100C1000EF702E2F30E0EA3018F0295C3F4F02C011
:100C2000205D3F4F13963C932E9312970196129698
:100C30008431910519F75FBF8091E800877F809329
:100C4000E800CE0103966AE270E01EDC12C06091FB
:100C50004E02AE014F5F5F4FEBDBBC01009709F422
:100C60003BC08091E800877F8093E80089819A816A
:100C700064DC8091E8008B778093E8002DC0803899
:100C800059F58091E800877F8093E80080914602C3
:100C90008093F1008091E8008E778093E80019DD61
:100CA0001BC08823C9F490914C029230A8F4809123
:100CB000E800877F8093E800909346020ADD8091E8
:100CC0004602882321F48091E30087FF02C084E07C
:100CD00001C081E08EBB2FDB8091E80083FF0AC05A
:100CE0008091E800877F8093E8008091EB0080622C
:100CF0008093EB00AC960FB6F894DEBF0FBECDBF6D
:100D0000DF91CF911F9108950895CF938EB38823DB
:100D1000A9F08091E9008F709091EC0090FF02C0E3
:100D2000C0E801C0C0E0C82B1092E9008091E80043
:100D300083FF01C085DECF70C093E900CF91089595
:100D4000CF93DF93EC018091E80083FFA2C08881FC
:100D500090E020914E0230914F022817390709F098
:100D600098C080914B02813269F0823220F4803247
:100D700009F08FC03CC0823209F46AC0833209F0A6
:100D800088C079C080914A02813A09F082C080917E
:100D9000E800877F8093E8008091E80080FFFCCF27
:100DA0008C899D89AE89BF898093F100492F5A2F84
:100DB0006B2F77274093F100AD016627772740938B
:100DC000F1008B2F9927AA27BB278093F100888DEC
:100DD0008093F100898D8093F1008A8D8093F100DA
:100DE0008091E8008E778093E80073DC52C0809198
:100DF0004A02813209F04DC08091E800877F8093DC
:100E0000E80004C08EB3882309F443C08091E80051
:100E100082FFF8CF3091F1002091F1009091F10024
:100E20008091F1003C8B2D8B9E8B8F8B8091F100FC
:100E3000888F8091F100898F8091F1008A8F809155
:100E4000E8008B778093E80044DCCE01AEDA21C065
:100E500080914A028132E9F48091E800877F809393
:100E6000E80037DC80914C0290914D02998B888B81
:100E7000CE01D6D00EC080914A02813251F48091C9
:100E8000E800877F8093E80024DCCE0160914C026B
:100E9000C7D0DF91CF910895CF93DF93EC014096B7
:100EA000FC018BE0DF011D928A95E9F782E08C83DB
:100EB000898783E08E87CE01019661E0CEDB8823AF
:100EC00059F0CE01069661E0C8DB882329F0CE01F7
:100ED0000B9661E0C2DB01C080E0DF91CF91089505
:100EE000CF93FC01C62F8EB38430E9F44489558931
:100EF000668977894115510561057105A1F08181E8
:100F00008F708093E9008091E80085FD08C0809192
:100F1000E8008E778093E800FBDB882329F4C093F8
:100F2000F10080E001C082E0CF910895FC018EB312
:100F3000843029F544895589668977894115510599
:100F400061057105E1F081818F708093E9008091E6
:100F5000F2009091F3000097A1F09091E800809149
:100F6000E8008E778093E80095FD0DC0D1DB8823E3
:100F700059F49091E8009E779093E800089582E0FC
:100F8000089580E0089580E008952EB3243099F408
:100F9000FC014489558966897789411551056105A8
:100FA000710549F021812F702093E9002091E8001C
:100FB00020FF01C0BBCF0895FC018EB3843051F5F2
:100FC00044895589668977894115510561057105FF
:100FD00009F186818F708093E9008091E80082FF9B
:100FE0001CC08091F2009091F300009721F0809155
:100FF000F10090E002C08FEF9FEF2091F20030915E
:10100000F3002115310559F42091E8002B77209346
:10101000E80008958FEF9FEF08958FEF9FEF0895F9
:101020000895A1E21A2EAA1BBB1BFD010DC0AA1F29
:10103000BB1FEE1FFF1FA217B307E407F50720F041
:10104000A21BB30BE40BF50B661F771F881F991FBC
:101050001A9469F760957095809590959B01AC0105
:0A106000BD01CF010895F894FFCF01
:10106A000083100000010410000001820800000142
:10107A0000000000000000000000003020A1200055
:0E108A000000000200A10100000000000000B4
:00000001FF
