:10000000B2C00000CFC00000CDC00000CBC00000D7
:10001000C9C00000C7C00000C5C00000C3C00000C8
:10002000C1C00000BFC000000C9458090C94270AFE
:10003000B9C00000B7C00000B5C00000B3C00000E8
:10004000B1C00000AFC00000ADC00000ABC00000F8
:10005000A9C00000A7C00000A5C00000A3C0000008
:10006000A1C000009FC000009DC000009BC0000018
:1000700099C0000097C0000095C0000093C0000028
:1000800091C000008FC000008DC000008BC0000038
:1000900089C0000087C000003E034C0055004600A8
:1000A00041002000430044004300200061006E0036
:1000B000640020004D0061007300730020005300B5
:1000C00074006F007200610067006500200044004A
:1000D00065006D006F0000001803440065006100BA
:1000E0006E002000430061006D0065007200610039
:1000F00000000403090409025D00030100C0320886
:100100000B000202020100090400000102020100CA
:100110000524001001042402060524060001070539
:1001200081030800FF09040100020A00000007051E
:1001300003021000050705820210000509040200F1
:100140000208065000070584024000050705050265
:1001500040000512011001EF020108EB03682001C5
:10016000000102DC010011241FBECFEFD0E2DEBF90
:10017000CDBF11E0A0E0B1E0E6E6FEE100E00BBF9C
:1001800002C007900D92AC3EB107D9F71BBE12E03A
:10019000ACEEB1E001C01D92A830B107E1F77CD010
:1001A0000C94310F2DCF9BB19F70982B9BB9089564
:1001B00084B7877F84BF88E10FB6F894809360008E
:1001C000109260000FBE90E080E80FB6F894809324
:1001D0006100909361000FBE8AB1806F8AB98BB1C4
:1001E0008F708BB984B18F7184B98DB18F7C8DB9CB
:1001F00085B1806E85B98EB180638EB9209A289AB8
:1002000084B1866084B923982B9A8DB581608DBDA9
:1002100020988CE58CBD8DB183608DB98EB18360E3
:100220008EB90E943D0996D3882319F480E9BBDF7B
:10023000FFCF42C323B18CB1809590E08073907062
:10024000959587952095207E282B27FD0BC024FDB2
:100250000CC026FD0DC023FD0EC025FD0FC0109261
:10026000FA01089580E091E00BC08EE091E008C0B3
:100270008EE191E005C08EE291E002C08FE391E053
:100280002091FA01222339F421E02093FA016CEE47
:1002900071E00C940B0F08958BDF8BE891E06CEE0E
:1002A00071E00E94780D80E17EDF7894C3DF8BE8F7
:1002B00091E00E943A0D8BE891E00E94220D82E5C8
:1002C00091E00E94E50D0E94D00BF0CF80EA6BCF49
:1002D00080E169CFCF938BE891E00E94990CC82F01
:1002E00082E591E00E94C90D282F30E08C2F90E02C
:1002F000282339232115310511F080E601C080E95A
:1003000052DFCF9108958BE891E00E94EC0B82E5DB
:1003100091E00C948C0DCF93DF93EC0180E243DFEE
:10032000CE0188D3C82F80E63EDF8C2FDF91CF919E
:100330000895923029F0933041F09130E9F417C0DC
:100340008DE590E0E6EFF0E01BC0813041F08130B8
:1003500018F0823089F406C0E2EFF0E005C0E8ED65
:10036000F0E002C0E8E9F0E0849190E009C082E1A9
:1003700090E0E3E5F1E004C080E090E0E0E0F0E050
:10038000DA011196FC93EE9308958EB19EB19360BD
:100390009EB99EB18C6F936089238EB90895F5DF65
:1003A00087ED8EBD0DB407FEFDCF1EBC0DB407FE5C
:1003B000FDCF0EB407FEF9CFE8CF9C013695279507
:1003C00056E0969587955A95E1F78EBD0DB407FED8
:1003D000FDCF220F220F220F272B2EBD0DB407FEBB
:1003E000FDCF6EBD0DB407FEFDCF08952EB1236085
:1003F0002EB920E48030920758F480FF05C08EB1FA
:1004000083608D7F8EB908958EB183608E7F8EB9A3
:1004100008953F924F925F926F927F928F929F9238
:10042000AF92BF92CF92DF92EF92FF920F931F9302
:10043000CF93DF930F92CDB7DEB72C01B22EC32E30
:10044000DB01CA01F9E0880F991FAA1FBB1FFA95AB
:10045000D1F71AE0B695A795979587951A95D1F794
:100460007C018A01102F0027110F1370BFDF83E575
:100470008EBD0DB407FEFDCFC70160E070E09DDFCB
:100480008EDF84E88EBD0DB407FEFDCF80E090E0E6
:10049000B80193DF7AD6882309F0F3C0A80174E08D
:1004A000569547957A95E1F70B2D1C2DCC24DD242C
:1004B00033243801E5E0660C771CEA95E1F7BB24AC
:1004C000B394C0C060E2A62E4601860C971C8091B2
:1004D000E80085FD0BC08091E8008B778093E800F1
:1004E000498353D64981882309F0CBC0403409F0B1
:1004F0003BC055DF332011F086E801C083E88EBD94
:100500000DB407FEFDCFC70160E070E056DF089430
:10051000E11CF11C8EB180958370823009F43B247C
:10052000C70164DF80E48816910478F438DF332053
:1005300011F085E501C083E58EBD0DB407FEFDCF4A
:10054000C70160E070E039DF2ADF332011F087E86F
:1005500001C084E88EBD0DB407FEFDCF80E090E0C1
:1005600060E070E02ADF40E08091F1008EBD0DB4C4
:1005700007FEFDCF8091F1008EBD0DB407FEFDCFCB
:100580008091F1008EBD0DB407FEFDCF8091F1008A
:100590008EBD0DB407FEFDCF8091F1008EBD0DB470
:1005A00007FEFDCF8091F1008EBD0DB407FEFDCF9B
:1005B0008091F1008EBD0DB407FEFDCF8091F1005A
:1005C0008EBD0DB407FEFDCF8091F1008EBD0DB440
:1005D00007FEFDCF8091F1008EBD0DB407FEFDCF6B
:1005E0008091F1008EBD0DB407FEFDCF8091F1002A
:1005F0008EBD0DB407FEFDCF8091F1008EBD0DB410
:1006000007FEFDCF8091F1008EBD0DB407FEFDCF3A
:100610008091F1008EBD0DB407FEFDCF8091F100F9
:100620008EBD0DB407FEFDCFF20180AD882349F5E4
:100630004F5FAA9409F04BCF0150104080EE9FEF1E
:10064000C80ED91E0115110509F03CCFA8DE3320D4
:1006500011F086E801C083E88EBD0DB407FEFDCF22
:10066000C70160E070E0A9DE9ADE8091E80085FDB8
:1006700005C08091E8008B778093E8008EB183609D
:100680008EB90F90DF91CF911F910F91FF90EF9056
:10069000DF90CF90BF90AF909F908F907F906F90A2
:1006A0005F904F903F900895BF92CF92DF92EF926C
:1006B000FF920F931F93CF93DF936C017901DB01BE
:1006C000CA01E9E0880F991FAA1FBB1FEA95D1F75D
:1006D000FAE0B695A79597958795FA95D1F78C018D
:1006E000EA01DC2FCC27DD0FD37080DE82ED8EBDDA
:1006F0000DB407FEFDCFC801BE015FDE1EBC0DB408
:1007000007FEFDCF1EBC0DB407FEFDCF1EBC0DB411
:1007100007FEFDCF1EBC0DB407FEFDCF36D58823E6
:1007200009F0C0C034E0D695C7953A95E1F742ED9F
:10073000B42EA8C0D0E28091E80085FD09C0809168
:10074000E8008E778093E80020D5882309F0AAC0BE
:10075000C034E9F40F5F1F4FC80148DEBEBC0DB4C2
:1007600007FEFDCFC80160E070E027DE1EBC0DB4BF
:1007700007FEFDCF1EBC0DB407FEFDCF1EBC0DB4A1
:1007800007FEFDCF1EBC0DB407FEFDCFC0E01EBCB2
:100790000DB407FEFDCF8EB58093F1001EBC0DB4E5
:1007A00007FEFDCF8EB58093F1001EBC0DB407FE91
:1007B000FDCF8EB58093F1001EBC0DB407FEFDCFBA
:1007C0008EB58093F1001EBC0DB407FEFDCF8EB533
:1007D0008093F1001EBC0DB407FEFDCF8EB5809353
:1007E000F1001EBC0DB407FEFDCF8EB58093F10065
:1007F0001EBC0DB407FEFDCF8EB58093F1001EBC6C
:100800000DB407FEFDCF8EB58093F1001EBC0DB474
:1008100007FEFDCF8EB58093F1001EBC0DB407FE20
:10082000FDCF8EB58093F1001EBC0DB407FEFDCF49
:100830008EB58093F1001EBC0DB407FEFDCF8EB5C2
:100840008093F1001EBC0DB407FEFDCF8EB58093E2
:10085000F1001EBC0DB407FEFDCF8EB58093F100F4
:100860001EBC0DB407FEFDCF8EB58093F100F601DE
:1008700080AD8823B9F4CF5FD15009F05CCF0894E4
:10088000E108F108E114F10409F054CF8091E80087
:1008900085FD05C08091E8008E778093E8008EB1D9
:1008A00083608EB9DF91CF911F910F91FF90EF90F0
:1008B000DF90CF90BF9008958EB183608E7F8EB908
:1008C00087ED8EBD0DB407FEFDCF1EBC0DB407FE37
:1008D000FDCF0EB401FE15C058DD8DE38EBD0DB405
:1008E00007FEFDCF8AE28EBD0DB407FEFDCF8FE778
:1008F0008EBD0DB407FEFDCF8AE98EBD0DB407FE97
:10090000FDCF8EB183608D7F8EB987ED8EBD0DB426
:1009100007FEFDCF1EBC0DB407FEFDCF0EB401FED9
:1009200015C033DD8DE38EBD0DB407FEFDCF8AE229
:100930008EBD0DB407FEFDCF8FE78EBD0DB407FE53
:10094000FDCF8AE98EBD0DB407FEFDCF8EB1836069
:100950008EB908958EB183608E7F8EB98FE98EBD7A
:100960000DB407FEFDCF1EBC0DB407FEFDCF9EB536
:100970008EB183608EB99F31B1F48EB183608D7F6B
:100980008EB98FE98EBD0DB407FEFDCF1EBC0DB430
:1009900007FEFDCF9EB58EB183608EB981E09F3199
:1009A00019F080E0089580E008950F931F93CF938E
:1009B000DF93EC01862F48A15F8D6E8D7D8D0BA19D
:1009C0001AA1403090E8590790E0690790E0790754
:1009D00068F08091A801807F85608093A80181E202
:1009E0008093B2011092B30180E01FC0882321F0F0
:1009F000CE01980159DE03C0CE0198010ADD20E046
:100A000030E089E0000F111F221F331F8A95D1F7B4
:100A10008C899D89AE89BF89801B910BA20BB30B7A
:100A20008C8B9D8BAE8BBF8B81E0DF91CF911F9123
:100A30000F910895CF92DF92EF92FF920F931F9341
:100A4000CF93DF93CDB7DEB728970FB6F894DEBF0C
:100A50000FBECDBF8C01FC01838D8D3109F4A9C07F
:100A60008E3178F4833009F453C0843020F4882325
:100A700009F4DCC0E1C08231B9F08A3109F0DCC090
:100A8000BBC0883209F4B2C0893238F48E3109F41F
:100A9000CDC0853209F0D0C060C08A3209F4A3C04D
:100AA0008F3209F0C9C0C2C0F801C78CD68C848DC2
:100AB00090E083709070009709F07FC0858D882347
:100AC00009F07BC07601F5E2CF16D10418F024E2DC
:100AD000E22EF12C88EB91E0B70140E050E016D116
:100AE000C6018E199F0960E070E0CBD08091E800CC
:100AF0008E778093E800A70160E070E0F8018489B8
:100B00009589A689B789841B950BA60BB70B89C05D
:100B1000F801C78CEC2CF2E1FC1510F492E1E92EFF
:100B200086EA91E06E2D70E040E050E0EFD08C2D31
:100B300090E08E19910960E070E0A3D08091E80008
:100B40008E778093E800F80184899589A689B78912
:100B50008E199109A109B10964C08FEF9FE7A0E048
:100B6000B0E08D839E83AF83B88780E092E0A0E001
:100B7000B0E089839A83AB83BC83CE01059664E0A1
:100B800070E040E050E011D1CE01019664E070E0E9
:100B900040E050E00AD18091E8008E778093E80031
:100BA000F80184899589A689B7890897A109B109AF
:100BB00038C0F801848D82FD08C08091A801807F33
:100BC00085608093A80184E23EC0C4DE882371F56D
:100BD0008091A801807F84608093A8011092B20167
:100BE0001092B3013EC0C80160E002C0C80161E0DC
:100BF000DCDE8823B1F12AC01092F1001092F100DE
:100C00001092F1001092F1008091E8008E778093AD
:100C1000E800F80184899589A689B7890497A10914
:100C2000B109848B958BA68BB78B10C0F801148A01
:100C3000158A168A178A0AC08091A801807F85606C
:100C40008093A80180E28093B201CACF8091A8016D
:100C5000807F8093A8011092B2011092B30181E0CD
:100C600001C080E028960FB6F894DEBF0FBECDBF5E
:100C7000DF91CF911F910F91FF90EF90DF90CF9078
:100C80000895DF92EF92FF920F931F93CF93DF931C
:100C9000EC018B017AD2D82E882379F50115110544
:100CA00029F0F80120813181C21BD30BEE24FF24EF
:100CB00020C08091E80085FD16C08091E8008E7705
:100CC0008093E8000115110551F0F80180819181B0
:100CD0008E0D9F1D9183808335E0D32E0EC055D29B
:100CE000882339F009C01092F10021970894E11C83
:100CF000F11C2097F1F601C0D82E8D2DDF91CF91F8
:100D00001F910F91FF90EF90DF900895AF92BF92E7
:100D1000CF92DF92EF92FF921F93CF93DF93EC017C
:100D20007B016A0132D2182F8823A1F5C114D104A6
:100D300039F0F60120813181E21AF30AC20FD31F84
:100D4000AA24BB2422C08091E80085FD15C08091B3
:100D5000E8008E778093E800C114D10449F0F601D1
:100D6000808191818A0D9B1D9183808315E012C043
:100D70000CD2882351F00DC089918093F100089422
:100D8000E108F1080894A11CB11CE114F104D9F6A2
:100D900001C0182F812FDF91CF911F91FF90EF900D
:100DA000DF90CF90BF90AF900895AF92BF92CF9257
:100DB000DF92FF920F931F93CF93DF93EC016B01B0
:100DC0005A01E3D1F82E8823D9F58601015010404D
:100DD0000C0F1D1FA114B10439F0F50120813181E0
:100DE000C21AD30A021B130BC0E0D0E024C08091CA
:100DF000E80085FD16C08091E8008E778093E800BA
:100E0000A114B10451F0F501808191818C0F9D1FD7
:100E10009183808345E0F42E13C0B7D1882359F025
:100E20000EC0F80180818093F100015010400894B9
:100E3000C108D1082196C114D104C9F601C0F82E09
:100E40008F2DDF91CF911F910F91FF90DF90CF9069
:100E5000BF90AF900895AF92BF92CF92DF92EF9282
:100E6000FF921F93CF93DF93EC017B016A018DD139
:100E7000182F8823A1F5C114D10439F0F60120817F
:100E80003181E21AF30AC20FD31FAA24BB2422C065
:100E90008091E80085FD15C08091E8008B778093F4
:100EA000E800C114D10449F0F601808191818A0DD6
:100EB0009B1D9183808315E012C067D1882351F078
:100EC0000DC08091F10089930894E108F10808941D
:100ED000A11CB11CE114F104D9F601C0182F812F17
:100EE000DF91CF911F91FF90EF90DF90CF90BF9057
:100EF000AF90089520910602309107022617370718
:100F000020F4B901FC0120E037C061157105D1F76B
:100F10002091E8002E772093E800F4CF8091FF0124
:100F2000882309F43FC08530C9F18091E80083FD32
:100F300037C08091E80082FD2BC08091E80080FFDF
:100F40001BC08091F2009091F30006C02191209384
:100F5000F1006150704001966115710519F08830FB
:100F60009105A0F321E08830910509F020E08091FF
:100F7000E8008E778093E8006115710579F62223E9
:100F800069F606C08091FF01882361F0853061F029
:100F90008091E80082FFF6CF80E0089583E0089515
:100FA00081E0089582E0089583E00895209106028B
:100FB000309107022617370720F4B901FC0120E021
:100FC00038C061157105D1F72091E8002E77209384
:100FD000E800F4CF8091FF01882309F440C08530F8
:100FE000D1F18091E80083FD38C08091E80082FD56
:100FF0002CC08091E80080FF1CC08091F20090918D
:10100000F30007C024912093F100319661507040A5
:1010100001966115710519F08830910598F321E06A
:101020008830910509F020E08091E8008E77809368
:10103000E8006115710571F6222361F606C0809102
:10104000FF01882361F0853061F08091E80082FF24
:10105000F6CF80E0089583E0089581E0089582E06E
:10106000089583E00895982F2AC09093E900981777
:1010700039F07091EC002091ED005091F00003C028
:10108000242F762F50E021FF19C03091EB003E7FD6
:101090003093EB003091ED003D7F3093ED003091C7
:1010A000EB0031603093EB007093EC002093ED0087
:1010B0005093F0002091EE0027FF08C09F5F97300B
:1010C000A0F28F708093E90081E0089580E0089598
:1010D0000F931F93CF93DF93162FEC0100E02AC0EC
:1010E0009881992329F16B81E981FA812C81892FDB
:1010F0008F70873018F56295660F660F607C991FB8
:101100009927991F692B223010F096E001C092E0D8
:1011100028E030E040E003C04F5F220F331F2E175E
:101120003F07D0F34295407F492B9DDF882331F064
:101130000F5F25960117A1F681E001C080E0DF91E5
:10114000CF911F910F9108958091000287FF13C0E6
:1011500004C08091FF018823B9F08091E80082FFEC
:10116000F8CF8091E8008B778093E8000895809114
:10117000FF01882349F08091E80080FFF8CF80913B
:10118000E8008E778093E80008958091E4009091C4
:10119000E50045E601C0C9012091EC0020FF23C015
:1011A0002091E80020FD15C02091FF01222399F035
:1011B000253099F02091EB0025FD11C02091E4002D
:1011C0003091E5002817390739F3415021F784E0C1
:1011D000089580E0089582E0089583E0089581E015
:1011E000089580E008952091E80022FFDDCFF9CF37
:1011F0000F931F93CF93DF934ED055D0C8EDD0E01F
:1012000088818F77888388818068888388818F7DB3
:101210008883E7EDF0E080818068808319BC1092BC
:10122000FF011092FB011092FD011092FC0100EEF3
:1012300010E0F80180818B7F8083888181608883C2
:1012400080E060E042E00FDFE1EEF0E080818E7F41
:101250008083E2EEF0E0808181608083808188601D
:101260008083F80180818E7F80838881806188837C
:10127000DF91CF911F910F910895E8EDF0E080810B
:101280008F7E8083E7EDF0E080818160808381E064
:101290008093FE01ADCFE8EDF0E080818C7F80830C
:1012A0001092E20008951092DA001092E100089581
:1012B0001F920F920FB60F920BB60F9211242F931D
:1012C0003F934F935F936F937F938F939F93AF93CE
:1012D000BF93EF93FF938091E10082FF0AC080915A
:1012E000E20082FF06C08091E1008B7F8093E100E5
:1012F00056D28091DA0080FF1FC08091D80080FF15
:101300001BC08091DA008E7F8093DA008091D90033
:1013100080FF0DC08CE089BD8EE089BD09B400FE60
:10132000FDCF81E08093FF010E94660105C019BCDA
:101330001092FF010E9468018091E10080FF18C0B7
:101340008091E20080FF14C08091E2008E7F809344
:10135000E2008091E20080618093E2008091D800F9
:1013600080628093D80019BC85E08093FF0117D27A
:101370008091E10084FF2DC08091E20084FF29C0AC
:101380008CE089BD8EE089BD09B400FEFDCF80915F
:10139000D8008F7D8093D8008091E1008F7E80936C
:1013A000E1008091E2008F7E8093E2008091E20074
:1013B00081608093E2008091FB01882321F4809179
:1013C000E30087FF02C084E001C081E08093FF0159
:1013D000E6D18091E10083FF27C08091E20083FF86
:1013E00023C08091E100877F8093E10082E08093B9
:1013F000FF011092FB018091E1008E7F8093E1005C
:101400008091E2008E7F8093E2008091E200806113
:101410008093E20080E060E042E025DE8091F00011
:1014200088608093F000BBD1FF91EF91BF91AF91A5
:101430009F918F917F916F915F914F913F912F91EC
:101440000F900BBE0F900FBE0F901F9018951F921C
:101450000F920FB60F920BB60F9211242F933F935A
:101460004F935F936F937F938F939F93AF93BF93AC
:10147000CF93EF93FF93C091E900CF708091EC0080
:101480001092E9008091F000877F8093F0007894BB
:101490001DD01092E9008091F00088608093F000E8
:1014A000C093E900FF91EF91CF91BF91AF919F91D0
:1014B0008F917F916F915F914F913F912F910F90FD
:1014C0000BBE0F900FBE0F901F9018951F93CF93D8
:1014D000DF93CDB7DEB7AC970FB6F894DEBF0FBE83
:1014E000CDBF80E0E0E0F2E09091F10091938F5F5A
:1014F0008830D1F70E9483018091E80083FF37C1D3
:101500008091000220910102253009F484C0263028
:1015100040F42130A1F1213070F0233009F027C1CF
:101520002EC0283009F4F4C0293009F403C1263054
:1015300009F01DC193C0803821F0823809F017C12D
:1015400008C08091FC019091FD01992371F08260A7
:101550000CC0809104028F708093E9009091EB00A1
:1015600081E095FF80E01092E9009091E800977F7C
:101570009093E8008093F1001092F100D4C088238A
:1015800019F0823009F0F3C090E08F7190700097ED
:1015900029F08230910509F0EAC00BC08091020267
:1015A000813009F0E4C0233009F080E08093FD0130
:1015B0002CC080910202882341F5209104022F70F3
:1015C00009F4D5C02093E9008091EB0080FF1DC095
:1015D00080910102833021F48091EB00806213C07E
:1015E0008091EB0080618093EB0081E090E002C08D
:1015F000880F991F2A95E2F78093EA001092EA007B
:101600008091EB0088608093EB001092E90080915C
:10161000E800877F8BC0882309F0A9C010910202DF
:101620001F778091E3008078812B8093E300809185
:10163000E800877F8093E80087DD8091E80080FFE5
:10164000FCCF8091E30080688093E300112311F0C8
:1016500083E001C082E08093FF0189C0805882301E
:1016600008F085C0809102029091030223E08C3D36
:101670009207A9F583E08C838AE28B835FB7F894A5
:10168000DE01139680E090E04EE061E2E42FF0E0AE
:1016900060935700E49180FF03C0E295EF704F5FC5
:1016A000EF702E2F30E0EA3018F0295C3F4F02C077
:1016B000205D3F4F13963C932E93129701961296FE
:1016C0008431910519F75FBF8091E800877F80938F
:1016D000E800CE0103966AE270E00CDC13C0609172
:1016E0000402AE014F5F5F4F0E949901BC01009759
:1016F00009F43DC08091E800877F8093E8008981EC
:101700009A8154DC8091E8008B778093E8002FC0A9
:10171000803869F58091E800877F8093E8008091A8
:10172000FB018093F1008091E8008E778093E800C0
:101730000BDD1DC08823D9F4909102029230B8F4D9
:101740008091E800877F8093E8009093FB01FCDCA8
:101750008091FB01882321F48091E30087FF02C080
:1017600084E001C081E08093FF010E946A018091C2
:10177000E80083FF0AC08091E800877F8093E8003B
:101780008091EB0080628093EB00AC960FB6F894EA
:10179000DEBF0FBECDBFDF91CF911F910895089599
:1017A000CF938091FF018823A9F08091E9008F7089
:1017B0009091EC0090FF02C0C0E801C0C0E0C82BCF
:1017C0001092E9008091E80083FF01C07FDECF70B6
:1017D000C093E900CF910895CF93DF93EC018091FE
:1017E000E80083FFA3C0888190E02091040230913B
:1017F00005022817390709F099C08091010281324A
:1018000069F0823220F4803209F090C03CC082320C
:1018100009F46BC0833209F089C07AC0809100025C
:10182000813A09F083C08091E800877F8093E800C7
:101830008091E80080FFFCCF8C899D89AE89BF89AB
:101840008093F100492F5A2F6B2F77274093F10097
:10185000AD01662777274093F1008B2F9927AA27A0
:10186000BB278093F100888D8093F100898D809350
:10187000F1008A8D8093F1008091E8008E7780934B
:10188000E80062DC53C080910002813209F04EC052
:101890008091E800877F8093E80005C08091FF0178
:1018A000882309F443C08091E80082FFF7CF30918C
:1018B000F1002091F1009091F1008091F1003C8BBA
:1018C0002D8B9E8B8F8B8091F100888F8091F10002
:1018D000898F8091F1008A8F8091E8008B778093C7
:1018E000E80032DCCE0117D121C0809100028132A4
:1018F000E9F48091E800877F8093E80025DC8091FF
:10190000020290910302998B888BCE0104D10EC004
:1019100080910002813251F48091E800877F8093AA
:10192000E80012DCCE0160910202F5D0DF91CF9188
:101930000895CF93DF93EC014096FC018BE0DF012B
:101940001D928A95E9F782E08C83898783E08E87F0
:10195000CE01019661E0BCDB882359F0CE010696EA
:1019600061E0B6DB882329F0CE010B9661E0B0DBA5
:1019700001C080E0DF91CF910895CF93FC01C62F85
:101980008091FF018430E9F444895589668977891B
:101990004115510561057105A1F081818F7080931A
:1019A000E9008091E80085FD08C08091E8008E770D
:1019B0008093E800EADB882329F4C093F10080E0FB
:1019C00001C082E0CF910895282FFB018485958581
:1019D000622FD3DF882319F08FEF9FEF089580E007
:1019E00090E00895FC018091FF01843029F544893D
:1019F0005589668977894115510561057105E1F0C1
:101A000081818F708093E9008091F2009091F300C2
:101A10000097A1F09091E8008091E8008E77809384
:101A2000E80095FD0DC0B1DB882359F49091E800E2
:101A30009E779093E800089582E0089580E00895ED
:101A400080E008952091FF01243099F4FC0144893D
:101A5000558966897789411551056105710549F0F8
:101A600021812F702093E9002091E80020FF01C020
:101A7000B9CF0895FC018091FF01843051F544896C
:101A8000558966897789411551056105710509F107
:101A900086818F708093E9008091E80082FF1CC0EE
:101AA0008091F2009091F300009721F08091F10075
:101AB00090E002C08FEF9FEF2091F2003091F30091
:101AC0002115310559F42091E8002B772093E80087
:101AD00008958FEF9FEF08958FEF9FEF0895FC011A
:101AE00084859585C7DF97FF02C08EEF9FEF08952D
:101AF000FB012EE0DB011D922A95E9F723E0238309
:101B000024EE3CE0318720872FE63DE033872287B3
:101B10009587848708950895CF93DF93EC01809192
:101B2000E80083FF33C0888190E020910402309167
:101B300005022817390751F5809101028E3F79F08F
:101B40008F3F21F580910002813201F58091E800FC
:101B5000877F8093E800F8DA81E088AF17C0809132
:101B60000002813A99F48091E800877F8093E80031
:101B70008091E80080FFFCCF8B8581508093F1003D
:101B80008091E8008E778093E800DEDADF91CF91D4
:101B90000895CF93DF93EC010C96FC018DE2DF01F9
:101BA0001D928A95E9F782E08C838987CE010196A0
:101BB00061E08EDA882329F0CE01069661E088DAAA
:101BC00001C080E0DF91CF910895EF92FF920F93D3
:101BD0001F93CF93DF9300D0CDB7DEB78C018091F8
:101BE000FF01843009F00EC1F80186818F70809367
:101BF000E9008091E80082FFCBC086818F708093DE
:101C0000E9001A8219822CE0E22EF12CE00EF11E7E
:101C100004C080AD882309F0BBC0C7016FE070E04D
:101C2000AE014F5F5F4F17D9F801853091F384857E
:101C30009585A685B7858535F3E59F07F2E4AF075F
:101C4000F3E4BF0781F4F801918D8385981758F468
:101C5000808D90E08F719070009729F4828D882399
:101C600011F0813180F08091EB0080628093EB0075
:101C7000F80181818F708093E9008091EB00806290
:101C80008093EB0085C01A8219829BE1E92EF12C2A
:101C9000E00EF11E05C0F80180AD882309F078C080
:101CA000F801628DC70170E0AE014F5F5F4FD3D87E
:101CB000853089F38091E8008B778093E800F80104
:101CC000808D87FF04C081818F708093E900C801F7
:101CD0000E948B0191E09827F80197AB45E553E509
:101CE00062E473E543A754A765A776A740895189A5
:101CF0006289738947A750AB61AB72AB4489558940
:101D00006689778943AB54AB65AB76AB882351F4D6
:101D1000411551056105710529F08091EB00806244
:101D20008093EB00F80186818F708093E90003C0F7
:101D300080AD882369F58091EB00F80185FDF8CF2F
:101D400081818F708093E90004C0F80180AD882301
:101D5000F9F48091EB0085FDF8CF1A8219828BE2AD
:101D6000E82EF12CE00EF11E04C0F80180AD8823AE
:101D700079F4C7016DE070E0AE014F5F5F4F0E94E4
:101D80008606853091F38091E8008E778093E80095
:101D9000F80180AD8823B1F126812F7081E090E0B9
:101DA000AC0102C0440F551F2A95E2F74093EA00A8
:101DB0001092EA0021812F7002C0880F991F2A9586
:101DC000E2F78093EA001092EA0086818F70809398
:101DD000E9008091EB0080618093EB008091EB0043
:101DE00088608093EB0081818F708093E9008091FF
:101DF000EB0080618093EB008091EB008860809322
:101E0000EB0010AE0F900F90DF91CF911F910F91CB
:101E1000FF90EF900895EF92FF920F931F93CF934F
:101E2000DF937C01EB018B8181FF11C000E010E0AA
:101E300008C0E885F985BE010995009711F00FEFFC
:101E40001FEFF70181917F01882399F702C00FEFFF
:101E50001FEFC801DF91CF911F910F91FF90EF907D
:061E60000895F894FFCF85
:101E66004A6F79737469636B2055700D0A004A6F67
:101E760079737469636B20446F776E0D0A004A6F3D
:101E860079737469636B204C6566740D0A004A6F3A
:101E960079737469636B2052696768740D0A004A26
:101EA6006F79737469636B20507265737365640D23
:101EB6000A00028440000001054000000101000004
:101EC600000000000000000000000000000000000C
:101ED60000000000000000000000000000000000FC
:101EE600000000000000000000000000821000005A
:101EF600010310000001810800000100000000003D
:101F0600000000000000700000000000000A000051
:101F16000000000000000000008000021F0000001A
:101F26004C5546410000000044617461666C617363
:101F360068204469736B0000302E3030A120000009
:0C1F460000000200A101000000000000EB
:00000001FF
