:100000001FC100003BC1000039C1000037C1000022
:1000100035C1000033C1000031C100002FC1000014
:100020002DC100002BC10000B2C5000027C1000097
:1000300025C1000023C1000021C100001FC1000034
:100040001DC100001BC1000019C1000017C1000044
:1000500015C1000013C1000011C100000FC1000054
:100060000DC100000BC1000009C1000007C1000064
:1000700005C1000003C1000001C10000FFC0000075
:10008000FDC00000FBC00000F9C00000F7C0000088
:10009000F5C00000F3C000001B5B33316D44657692
:1000A00020456E756D204572726F720D0A202D2DE0
:1000B000204572726F7220436F64652025640D0ABB
:1000C000202D2D20537562204572726F7220436F70
:1000D00064652025640D0A202D2D20496E2053745F
:1000E0006174652025640D0A1B5B33376D001B5B53
:1000F00033316D486F7374204D6F646520457272A3
:100100006F720D0A202D2D204572726F7220436F81
:1001100064652025640D0A1B5B33376D000D0A44AE
:10012000657669636520556E6174746163686564A2
:100130002E0D0A004465766963652041747461631D
:100140006865642E0D0A004B6579626F61726420E8
:10015000456E756D6572617465642E0D0A00457299
:10016000726F722053657474696E67205265706F88
:1001700072742050726F746F636F6C204D6F646582
:10018000206F72204E6F7420612056616C6964206C
:100190004B6579626F6172642E0D0A004572726F51
:1001A000722053657474696E67204465766963656F
:1001B00020436F6E66696775726174696F6E2E0D8C
:1001C0000A004174746163686564204465766963FC
:1001D00065204E6F7420612056616C6964204B6508
:1001E00079626F6172642E0D0A004572726F72201F
:1001F00052657472696576696E6720436F6E6669D1
:100200006775726174696F6E20446573637269709B
:10021000746F722E0D0A001B5B33366D4B6579626D
:100220006F61726420486F73742044656D6F207233
:10023000756E6E696E672E0D0A1B5B33376D00009D
:1002400011241FBECFEFD0E2DEBFCDBF11E0A0E092
:10025000B1E0E4E4F4E200E00BBF02C007900D92CD
:10026000AA33B107D9F715E0AAE3B1E001C01D92A6
:10027000A632B107E1F7A1D00C942012C1CE8BB108
:100280008F7080668BB9089520E0FC01818592858E
:10029000079709F421E0822F089590911F052DB74B
:1002A0003EB7285030400FB6F8943EBF0FBE2DBF6A
:1002B000EDB7FEB7319628E930E0ADB7BEB712967C
:1002C0003C932E93119782831382648315829683C5
:1002D00017820E945C0F8BB18F7080698BB92DB72C
:1002E0003EB7285F3F4F0FB6F8943EBF0FBE2DBFFD
:1002F00008951F93182F26D400D000D0EDB7FEB775
:1003000031968EEE90E0ADB7BEB712969C938E9369
:100310001197128313820E945C0F8BB18F708069DA
:100320008BB90F900F900F900F90FFCF8DE191E060
:100330000E947E0F8BB18F7080618BB9089584E32A
:1003400091E00E947E0F8BB18F70806A8BB9089507
:1003500084B7877F84BF38E10FB6F894309360008C
:10036000109260000FBE80E090E020E80FB6F89495
:1003700020936100809361000FBE83E390E090932F
:10038000CD008093CC0086E08093CA001092C80014
:100390003093C900539A5A9A8CE291E090932305C6
:1003A0008093220590932105809320058AB1806F68
:1003B0008AB98BB18F708BB9BCC34F925F926F9229
:1003C0007F928F929F92AF92BF92CF92DF92EF92E5
:1003D000FF920F931F93DF93CF93CDB7DEB7C25039
:1003E000D2400FB6F894DEBF0FBECDBFB1DF87E1BC
:1003F00092E00E947E0F8BB18F7080618BB97894F0
:1004000033E0832E912C8C0E9D1E3E010894611CBE
:10041000711C2CE0A22E9AE2592E80E2482E809187
:100420001F058B3021F08C3009F0AFC03EC08BB17E
:100430008F70806A8BB981E0B301A40120E032E0C3
:100440007AD4882319F08AEE91E00BC069817A8111
:1004500080E091E0A4010E940C0E882359F082EC08
:1004600091E00E947E0F8BB18F7080698BB91092E2
:100470001F058BC081E026D1882319F08CE991E01B
:10048000F0CF80E091E00E94230D882319F08EE5E3
:1004900091E0E7CF87E491E00E947E0F8BB18F70EF
:1004A00080668BB9A0921F0570C080E091E00E9429
:1004B000070D882309F469C0CDB6BEB6809112013C
:1004C0002DB73EB7281B31090FB6F8943EBF0FBEBB
:1004D0002DBF0DB71EB70F5F1F4F80E091E0B80131
:1004E0000E94C00DD02EE12EFF2442C0F59C800159
:1004F0001124025C1E4F8D2D9E2DB801F5D5882349
:10050000B1F1F80181859285079789F5808588305A
:1005100071F586899789A08DB18D0297A105B105E6
:1005200030F18281882319F562A1662331F18BB104
:1005300084258BB9862F84508A3110F48F5B0DC0CF
:10054000862F8E518A3010F4805D07C06C3211F412
:1005500080E205C0683289F41AC0882371F0609186
:1005600022057091230590E00E94300F06C0F3949D
:1005700080913D01F81608F4B9CF8C2D9B2D9C017C
:100580000FB6F8943EBF0FBE2DBF9CD548CF8AE072
:10059000E6CF982F20919E003091A0008091A0007E
:1005A0008F7D8093A00080919F008F7D80939F001E
:1005B00080919E00816080939E0026C080919F0064
:1005C00085FF06C080919F008F7D80939F00915092
:1005D00080911F05823011F491E018C08091A6002F
:1005E00084FF07C08091A6008F7E8093A60092E0D2
:1005F0000DC08091A60081FF07C08091A6008D7F6D
:100600008093A60093E002C09923C1F620FD05C0A7
:1006100080919E008E7F80939E0035FF05C0809163
:10062000A00080628093A000892F089560919E00B1
:100630008091A0008D7F8093A00080919E008260B9
:1006400080939E0080919E0081FDFCCF80919E0052
:10065000816080939E003091A0008091A0008F7DEA
:100660008093A00080919F008F7D80939F002AE05F
:1006700040ED57E080919F0085FF0BC080919F0067
:100680008F7D80939F0080919F008D7F80939F003E
:1006900005C0CA010197F1F7215061F735FF05C088
:1006A0008091A00080628093A00060FD05C08091D1
:1006B0009E008E7F80939E008091A0008260809338
:1006C000A00008951092170599E090931805809363
:1006D000190510921A0510921C0510921B05109214
:1006E0001E0510921D051092A70080E090E0A7C3A0
:1006F000EF920F931F93DF93CF93CDB7DEB7289779
:100700000FB6F894DEBF0FBECDBF80911F058630B7
:1007100009F494C0873070F48330C1F1843020F440
:10072000813009F007C113C08430C1F1853009F070
:1007300001C15BC0883009F49BC0883008F48AC0CE
:10074000893009F4B4C08A3009F0F4C0D9C00091EE
:100750003B0110913C010115110509F4EBC081E04A
:1007600018DF682F882331F080913A0180931F05AC
:1007700091E0DCC0C801019790933C0180933B015C
:10078000892B09F0D7C080913A01BFC088EE93E071
:1007900090933C0180933B0184E0B7C080913B0182
:1007A00090913C01019790933C0180933B0101960D
:1007B00029F080ED97E00197F1F7BCC07798809120
:1007C000D80080618093D8008091DD008B7F80937A
:1007D000DD008091D70080618093D7008091DD009B
:1007E00082608093DD0085E090C080919F0080FF53
:1007F000A1C080919F008E7F80939F0080919F0079
:100800008D7F80939F008091DF008D7F8093DF003C
:100810008091DE0082608093DE0080919E00816086
:1008200080939E00C9D081E080931F0584E690E00C
:1008300090933C0180933B0186E05FC0F7DE81E04E
:1008400080931F0588EC90E090933C0180933B01DE
:1008500087E053C080E060E040E020E000E410E08A
:10086000EE2474D08091AC0087FF5EC088E04DC05C
:10087000A7E1B5E0E3E2F1E088E001900D9281505C
:10088000E1F7CE010196DBD2682F882309F04AC038
:10089000888580932B01CADE81E080931F0588EC58
:1008A00090E090933C0180933B0189E026C0009149
:1008B0002B0180E060E040E020E010E0EE2446D034
:1008C0008091AC0087FF30C0A7E1B5E0EBE1F1E03B
:1008D00088E001900D928150E1F780E090E0AFD286
:1008E000682F8823F9F481E080931F0584E690E067
:1008F00090933C0180933B018AE080933A011AC0B7
:1009000081E08093A100BBDC8BE080931F0512C0C7
:10091000892FC3DC8091DD0081608093DD0006DDDE
:10092000BAD008C093E002C094E060E080911F0557
:10093000823071F728960FB6F894DEBF0FBECDBF98
:10094000CF91DF911F910F91EF900895EF920F9348
:100950001F939E2D8093A7008091A90081608093B2
:10096000A9001092AB006295660F660F607C642B45
:100970002F70622B6093AA0028E030E080E003C073
:100980008F5F220F331F2017310710F48530C1F716
:1009900092608295807F892B8093AB008091A90023
:1009A00080628093A9008091AC00881F8827881FEF
:1009B0001F910F91EF9008951092F80090E090939E
:1009C000A7001092AE001092A6001092AB0080918A
:1009D000A9008E7F8093A9009F5F973081F70895CB
:1009E000E82F7091A70060E0482F50E04F705070E2
:1009F0006093A7008091AC0087FF18C08091AA0087
:100A0000807359F0E7FD03C020E230E002C020E12E
:100A100030E090E08217930749F48091AA008F702C
:100A200090E08417950711F481E008956F5F6730B7
:100A3000F9F677707093A70080E008954091A200C6
:100A40005091A30024E68091AA008073803129F49C
:100A50008091A60080FF05C01CC08091A60082FD89
:100A600018C08091A60081FF02C081E008958091A6
:100A70001F05823079F08091A2009091A300841725
:100A8000950709F3222311F483E008952150AC0166
:100A9000DACF80E008956ED075D08091D800982F7D
:100AA0009F779093D80080688093D8008CE089BDB0
:100AB00089B5826089BD09B400FEFDCF8091D80060
:100AC0008F7D8093D8008091D7008F778093D70057
:100AD00082E080931F0580E480932B018091D800F1
:100AE00080648093D8008091DD0081608093DD0078
:100AF0008091DD0084608093DD008091D7008F7E3F
:100B00008093D7006F9A779A8091DE0081608093FE
:100B1000DE008091DE0084608093DE008091E00042
:100B20008E7F8093E0008091D80080618093D80010
:100B30000895E7EDF0E080818160808381E080931B
:100B40001605A9CF17D01ED0E0EEF0E080818160BD
:100B50008083A8EDB0E08C918F778C9319BCE7ED82
:100B6000F0E080818E7F80838C918F7E8C931092B9
:100B700016050895E8EDF0E080818C7F8083109267
:100B8000A00008951092DA0010929F0008951F921D
:100B90000F920FB60F920BB60F9211242F933F9323
:100BA0004F935F936F937F938F939F93AF93BF9375
:100BB000EF93FF9380919F0081FF15C08091A0006B
:100BC00081FF11C080919F008D7F80939F00809155
:100BD0009F008E7F80939F008091A0008D7F8093E7
:100BE000A000A4DB58DF8091DF0081FF15C0809159
:100BF000DE0081FF11C08091DF008D7F8093DF00D8
:100C000077988091DD0081608093DD0080E071DB6A
:100C10008DDB82E080931F058091DF0080FF17C08D
:100C20008091DE0080FF13C08091DF008E7F809373
:100C3000DF008091DE008E7F8093DE0080DB80917C
:100C4000A00082608093A00083E080931F058091C4
:100C5000DF0082FF0EC08091DE0082FF0AC080911B
:100C6000DF008B7F8093DF0082E060E016DB5EDBDD
:100C700012DF80919F0085FF0AC08091A00085FF50
:100C800006C080919F008F7D80939F00AED0FF9122
:100C9000EF91BF91AF919F918F917F916F915F91F4
:100CA0004F913F912F910F900BBE0F900FBE0F9061
:100CB0001F901895AF92BF92CF92DF92EF92FF9262
:100CC0000F931F93CF93DF937C018B015A0121C0B7
:100CD000F801C081D181888190E09E01280F391FE1
:100CE00031832083F70120813181281B390B318327
:100CF0002083F80180819181F5010995823049F0C6
:100D0000813071F4F801C083D183F701D182C082B0
:100D100007C0F701C080D180C114D104C9F682E0B8
:100D2000DF91CF911F910F91FF90EF90DF90CF90C7
:100D3000BF90AF900895CF92DF92EF92FF920F9302
:100D40001F93DF93CF93CDB7DEB729970FB6F894F3
:100D5000DEBF0FBECDBF6B018A01790190E8909391
:100D6000170596E09093180590E001979260909394
:100D70001A058093190510921C0510921B0589E035
:100D800090E090931E0580931D051092A700CE0160
:100D9000019655D0282F8823C1F48B819C81F601C0
:100DA00091838083E816F90610F425E00EC0909335
:100DB0001E0580931D05C80142D0282F882329F4E1
:100DC000F8018181823009F026E0822F29960FB642
:100DD000F894DEBF0FBECDBFCF91DF911F910F9171
:100DE000FF90EF90DF90CF90089508951F93CF93D9
:100DF000DF93182FC8EED3E009C081E0CADB882357
:100E0000D1F4209711F484E016C02197112329F41E
:100E10008091A60083FFF1CF0DC0113029F480919D
:100E2000A60080FFEACF06C0123039F78091A600F5
:100E300082FFE3CF80E0DF91CF911F910895FF9271
:100E40000F931F93CF93DF93182F092FF0909E00DD
:100E5000C0911D05D0911E0580919E0081608093F8
:100E60009E0081E096DB982F882309F0D2C0809104
:100E7000AA008F7C8093AA001092F5008091A900AF
:100E80008F7B8093A900E7E1F5E081918093AF002B
:100E900085E0EF31F807C9F78091A6008777809346
:100EA000A60080E0A3DF982F882309F0B2C08091CC
:100EB000A90080648093A90081E06BDB982F8823D0
:100EC00009F0A7C0212F302FC9018C01809117058F
:100ED00087FF52C08091AA008F7C80618093AA0016
:100EE0000115110569F52EC08091A9008F7B8093B3
:100EF000A90081E07BDF982F882309F08AC08091C8
:100F0000F6009091F700892B49F4C0E0D0E006C0CC
:100F10008091AF00F80181938F0121978091F600B5
:100F20009091F700892B11F0209791F78091A900FB
:100F300080648093A9008091A6008E778093A6009C
:100F4000209791F68091AA008F7C80628093AA00FE
:100F50008091A9008F7B8093A90082E047DF982FC2
:100F6000882309F056C08091A6008B778093A60055
:100F700082E03CDF982F4DC001151105A9F1809149
:100F8000AA008F7C80628093AA008091A9008F7B49
:100F90008093A9001DC082E029DF982F8823C9F51E
:100FA00080912B01282F30E007C0F80181918F013B
:100FB0008093AF00219739F08091F6009091F7006F
:100FC0008217930790F38091A6008B778093A600F9
:100FD000209709F782E00ADF982F8823D1F48091C7
:100FE000A90080648093A9008091AA008F7C806111
:100FF0008093AA008091A9008F7B8093A90081E053
:10100000F5DE982F882329F48091A6008E778093AF
:10101000A6008091A90080648093A900F0FC05C01F
:1010200080919E008E7F80939E0081E08093A80037
:101030001092A800892FDF91CF911F910F91FF90FF
:101040000895DF92EF92FF920F931F93CF93DF9358
:10105000182F092FEB017A018091AA008F7C806103
:101060008093AA00EBDCD82E882319F5812F902FCE
:101070009C0189011CC08091A60085FD12C0809151
:10108000A6008E778093A600E114F10431F0F701F9
:101090000995813011F484E00DC0D0DC882339F04B
:1010A00009C08091AF00F80181938F0121972097AB
:1010B00011F78D2DDF91CF911F910F91FF90EF9040
:1010C000DF900895FF920F931F9307EA10E0F80155
:1010D000F080F7E0FF22F80110820ADBF801F082CD
:1010E0001F910F91FF900895CF92DF92EF92FF92A0
:1010F0000F931F93CF93DF936C01EB012885E8805A
:10110000F9809D81992349F0F6018081981711F0AB
:1011100080E043C00894C11CD11C022F10E08AA1BA
:101120009BA1ACA1BDA18EA39FA3A8A7B9A71AA2FA
:101130001BA21CA21DA241E050E060E070E029C0AB
:10114000F70193E0F695E7959A95E1F7EC0DFD1D13
:10115000808190E097012770307002C09595879547
:101160002A95E2F780FF0CC08AA19BA1ACA1BDA18A
:10117000842B952BA62BB72B8AA39BA3ACA3BDA333
:101180000894E11CF11C440F551F661F771F015086
:10119000104001151105A1F681E0DF91CF911F915B
:1011A0000F91FF90EF90DF90CF900895E42FF0E043
:1011B000EE0FFF1FEF56FC4FE80FF91FDC01A057A1
:1011C000BC4F90E0208131818C91861789F440E0FA
:1011D00050E0C90187709070892B11F041E050E018
:1011E00063E0369527956A95E1F7240F351F07C010
:1011F0009F5F379617969A3029F720E030E0C901B3
:1012000008952F923F924F925F926F927F928F92AA
:101210009F92AF92BF92CF92DF92EF92FF920F9385
:101220001F93DF93CF93CDB7DEB7C559D0400FB62C
:10123000F894DEBF0FBECDBFCF57DF4F99838883B1
:10124000C158D040CD57DF4F79836883C358D04011
:101250001A0180E9482E83E0582E440E551E89ED70
:1012600093E0DA01FC011D923197E9F7FE01FB964C
:101270008CE1DF011D928A95E9F787E0D2011D928A
:101280008A95E9F7DA01A157BC4F81E08C939A0166
:10129000275B3C4FE7963FAF2EAFE797405B5C4F35
:1012A000E5965FAF4EAFE597C10188579C4FEF962B
:1012B0009FAF8EAFEF976F01AA24BB24ED961FAEB0
:1012C000ED97EB961CAE1DAE1EAE1FAEEB976624DF
:1012D00077244301F101EA52FC4FC657DF4FF983EF
:1012E000E883CA58D040CC56DF4FD982C882C4594F
:1012F000D0409601245E3F4FC457DF4F3983288387
:10130000CC58D040A10148525C4FC257DF4F59839F
:101310004883CE58D040C057DF4FB983A883C05907
:10132000D040C201CE56DF4F4882C259D040CD5680
:10133000DF4F9883C359D04029C3CF57DF4FA881CF
:10134000B981C158D0402D91CF57DF4FB983A883C1
:10135000C158D040CD57DF4FE881F981C358D04004
:101360003197CD57DF4FF983E883C358D040422FE0
:1013700050E0C158DF4F59834883CF57D040CA014E
:10138000837090708230910509F18330910531F0BE
:101390000197A9F1EE24FF2487014FC0CF57DF4FFB
:1013A000A881B981C158D040ED90FD900D911D915B
:1013B000CF57DF4FB983A883C158D040CD57DF4FF7
:1013C000E881F981C358D040349731C0CF57DF4FFF
:1013D000A881B981C158D0408D919D91CF57DF4FE1
:1013E000B983A883C158D0407C0100E010E0CD57FC
:1013F000DF4FE881F981C358D040329718C0CF57EA
:10140000DF4FA881B981C158D0408D91CF57DF4FB0
:10141000B983A883C158D040E82EFF2400E010E033
:10142000CD57DF4FE881F981C358D0403197CD5770
:10143000DF4FF983E883C358D040C158DF4F88811C
:101440009981CF57D0408C7F90708436910509F4F4
:10145000D2C08536910574F58432910509F4B2C085
:10146000853291059CF48830910509F42EC18930AC
:10147000910524F4049709F071C298C08431910554
:1014800009F49AC0489709F069C247C084339105AE
:1014900009F4A0C08533910524F4889709F05EC251
:1014A0002FC18434910509F49BC08435910509F05E
:1014B00055C29EC08439910509F4A8C085399105AB
:1014C000A4F48038910569F1813891052CF48437B2
:1014D000910509F043C297C08438910509F49AC078
:1014E0008039910509F03AC21CC0803B9105C9F0D2
:1014F000813B91054CF4803A910509F409C1843A85
:10150000910509F02BC22AC0843B910509F43EC025
:10151000803C910509F022C25AC1F501370148010A
:101520001EC2CB57DF4FC882C558D040CA57DF4FC5
:10153000D882C658D040EC961FAEEC97207FC95792
:10154000DF4F2883C758D040970121703070C857AB
:10155000DF4F39832883C858D040F7C1C457DF4FC5
:1015600048815981CC58D040C416D50611F481E089
:101570001DC2D6015C96F6018AE201900D9281505F
:10158000E1F78CE190E0C80ED91EE8C1CC56DF4FE0
:10159000A881B981C459D040CA16DB0611F482E093
:1015A00005C2E4EEFFEFCE0EDF1ED8C1D6011296C3
:1015B000FC92EE921197D2C1F601E286F38604877F
:1015C0001587CCC1D6011E96ED92FD920D931C930A
:1015D0005197C4C1F601E28AF38A048B158BBEC110
:1015E000D6015696ED92FD920D931C935997B6C174
:1015F000F601E186B3C1D6011596ED92FD920D93E9
:101600001C931897ABC1F601E082A8C1D6015A9687
:10161000EC92A4C13E2DF601E38EC257DF4FA881A4
:10162000B981CE58D0408C91882309F440C0C0576E
:10163000DF4FE881F981C059D0402081CE56DF4F7D
:101640008881C259D040CD56DF4F9881C359D040D0
:10165000DC01E0E010C08C911796831759F487E005
:10166000E89F2001112420E933E0420E531E420C72
:10167000531C1DC0EF5FE21770F32A3011F487E0AE
:1016800095C187E0289F2001112440E953E0440ED2
:10169000551E420C531C2F5FC057DF4FA881B981E4
:1016A000C059D0402C93F20111928A95E9F7E1E0FC
:1016B000C257DF4FA881B981CE58D040EC93D601F4
:1016C0005B968C91F201808349C1ED96FFADED9759
:1016D000F83011F486E06AC1ED962FADED97E22F58
:1016E000F0E0EE0FFF1F41E050E04C0F5D1FE40FF4
:1016F000F51FF182E0822F5FED962FAFED972EC19F
:10170000F501EB96ECAEFDAE0EAF1FAFEB9727C128
:10171000A114B10429F4E796EEADFFADE79715C02B
:10172000E596EEADFFADE5970AC0EF968EAD9FADA5
:10173000EF97E817F90711F485E038C137968581EE
:101740009681892B91F7B682A582E082D601119607
:101750008D919C91129792838183ED96BFADED9709
:10176000BB2309F189819A8194838383DE011196D9
:10177000ED964FADED97242F30E0220F331F2A0F47
:101780003B1F06C012968D919C9113978D939D934C
:10179000A217B307B9F7ED969FADED979150ED966F
:1017A0009FAFED97DCC0EB962CAD3DAD4EAD5FAD80
:1017B000EB97261537054805590508F4D0C0748203
:1017C00063820894611C711C811C911CC8C0A11407
:1017D000B10411F484E0EAC0D5011596ED91FC91B5
:1017E0001697BDC0DE015996CB57DF4F8881C5588B
:1017F000D040CA57DF4F9881C658D0409C01F901AC
:101800008AE101900D928150E1F7FD8AEC8AB88E51
:10181000AF8AF601838D8E8BED96FFADED97FF239A
:10182000F9F049815A81FE013196ED968FADED9721
:10183000282F30E0220F331F2E0F3F1F04C082815C
:10184000938181939193E217F307C9F75D8F4C8FD2
:10185000ED96BFADED97B150ED96BFAFED9712C0CD
:10186000EB962CAD3DAD4EAD5FADEB972615370534
:101870004805590538F07D8E6C8E0894611C711CEA
:10188000811C911CC957DF4F3881C758D040303870
:1018900011F41B8A0CC0C957DF4F4881C758D0408C
:1018A000403919F451E05B8B02C082E08B8BEB89ED
:1018B000F0E0EE0FFF1FE40DF51D818192819A8B00
:1018C000898BD6012C9181819281820F911D928307
:1018D000818329893A89C657DF4FE881F981CA583F
:1018E000D040808191818217930710F43183208347
:1018F000C857DF4F28813981C858D040232BF1F4D5
:10190000CE0141960E9444018823C1F0D1018C91FF
:10191000843111F483E04AC0BAE28B9FF0011124B4
:101920003196E20DF31DDE0151968AE20D9001928F
:101930008150E1F7F10180818F5F8083EC96FFADEC
:10194000EC97FF5FEC96FFAFEC97D6015A968C911F
:10195000EC96BFADEC97B81708F444CFF501C15829
:10196000DF4F28813981CF57D0402C703070232B26
:1019700061F4ED961FAEED97EB961CAE1DAE1EAE5C
:101980001FAEEB976624772443015F01CD57DF4FED
:1019900048815981C358D040452B09F0CECCD101A4
:1019A0008C91882311F080E001C088E0CB56DF4F96
:1019B0000FB6F894DEBF0FBECDBFCF91DF911F9160
:1019C0000F91FF90EF90DF90CF90BF90AF909F90DE
:1019D0008F907F906F905F904F903F902F900895E1
:1019E000FC018181843029F48581833011F480E009
:1019F000089582E00895FC018181813211F480E034
:101A00000895843011F082E0089581E00895FC018A
:101A100080911F058C30A1F48781882389F0808113
:101A20008093A7008091A9008F7B8093A90090915B
:101A3000A60091708091A90080648093A90001C0E4
:101A400090E0892F0895CF92DF92EF92FF920F934B
:101A50001F93DF93CF93CDB7DEB78C01CDB6DEB643
:101A6000DC0150964D915C915197EDB7FEB7E41BA8
:101A7000F50B0FB6F894FEBF0FBEEDBF2DB73EB706
:101A80002F5F3F4F18966C9181E88093170586E091
:101A90008093180580E092E290931A0580931905CF
:101AA00060931B0510921C0550931E0540931D0565
:101AB0001092A700F22EE32EC901C1D9282F882346
:101AC00009F04FC0D8011F968C911F978823F1F021
:101AD00018962C9181E2809317058BE0809318056E
:101AE00081E090E090931A058093190520931B05DF
:101AF00010921C0510921E0510921D0580E090E0CA
:101B00009ED9282F882369F5F8011786D8011596E4
:101B10004D915C9116974115510511F420E821C0B3
:101B2000F801608971898F2D9E2D6BDB282F88230A
:101B300011F0206816C0D8011596ED91FC9116970A
:101B4000EA52FC4FE08130E08E2F90E08770907079
:101B5000892B09F031E0E695E695E6953E0FF80110
:101B6000328B822F0FB6F894DEBE0FBECDBECF9162
:101B7000DF911F910F91FF90EF90DF90CF9008952C
:101B8000CF93DF93DC0180911F058C3009F03FC0BB
:101B900017968C9117978823D1F18C918093A70089
:101BA0008091A9008F7B8093A900EB011F968C91F7
:101BB0001F978823B1F41596ED91FC911697E85282
:101BC000FC4F8081882311F460E003C06091AF0076
:101BD000699315968D919C91169740E0E7DABC01C8
:101BE00004C06091F6007091F700CE0140E050E033
:101BF00028DA982F882361F48091A6008E7780934D
:101C0000A6008091A90080648093A90001C092E0A1
:101C1000892FDF91CF9108953F924F925F926F92FB
:101C20007F928F929F92AF92BF92CF92DF92EF926C
:101C3000FF920F931F93DF93CF9300D000D0CDB7C7
:101C4000DEB76C017A8369835C834B830796FC0162
:101C50008CE0DF011D928A95E9F7EB81FC8181819F
:101C6000823011F081E0BBC088249924AA24BB24CF
:101C7000662477244424552493E0E92EF12CEC0EBD
:101C8000FD1E8E010F5F1F4F6114710439F0C801F2
:101C9000B70145E05FE00ED8882329F18114910453
:101CA00081F5A114B10469F5C801B70140EF5CE00A
:101CB00001D8882309F092C06B807C80F601948162
:101CC000992329F0D30117968C91891769F7C801D8
:101CD000B7014BEF5CE00E945A06882309F07EC0F2
:101CE0004B805C80D1CFEB81FC81828187FD02C07B
:101CF0005F0101C04F018114910431F2A114B104BC
:101D000019F2FF24F39433243394F6018081F816FA
:101D100001F5D40112962C91129714960D911C91F5
:101D200015978181882311F490E001C094E08F2DF4
:101D300063E040E1E92E0E94A604F40186818093CD
:101D4000AD0084819581D6011A969C938E93199744
:101D500025C0F6018281F81609F5D50112962C915D
:101D6000129714960D911C9115978381882311F475
:101D700090E001C094E08F2D63E040E2E92E0E94E4
:101D8000A604F50186818093AD0084819581D601FA
:101D90001C969C938E931B971E963C92F394B7E0EF
:101DA000FB1609F0B2CFF3018281D60118968C930D
:101DB0001897F2018781908551969C938E93509746
:101DC00090E0D30116968C91811191E0F6019587F0
:101DD00088E0828B81E0878380E001C082E00F9001
:101DE0000F900F900F90CF91DF911F910F91FF9067
:101DF000EF90DF90CF90BF90AF909F908F907F90AB
:101E00006F905F904F903F900895FC0181818530E5
:101E100031F482810E94F004882329F408958430EB
:101E200011F481E0089582E00895982F8091C80010
:101E300085FFFCCF9093CE0080E090E008958091E4
:101E4000C80087FD03C02EEF3FEF08C08091C80097
:101E500087FFFCCF8091CE00282F30E0C901089584
:101E60000F931F93CF93DF938C01EB018B8181FF45
:101E70001BC082FF0DC02E813F818C819D81281760
:101E8000390764F4E881F9810193F983E88306C096
:101E9000E885F985802F0995892B31F48E819F8102
:101EA00001969F838E8302C00FEF1FEFC801DF9161
:101EB000CF911F910F910895DF93CF93CDB7DEB7E8
:101EC000FE01359661917191A0912205B091230593
:101ED00013968C911397886013968C9380912205AA
:101EE00090912305AF013FD0E0912205F0912305A9
:101EF0002381277F2383CF91DF9108950F931F9331
:101F0000CF93DF93EC01E0912205F09123058381CB
:101F100081FF21C000E010E00EC0E0912205F091A9
:101F2000230520853185BF01F9010995892B11F021
:101F30000FEF1FEF2196FE018491882371F7E09146
:101F40002205F0912305208531858AE0BF01F90142
:101F50000995892B11F00FEF1FEFC801DF91CF9189
:101F60001F910F9108952F923F924F925F926F921F
:101F70007F928F929F92AF92BF92CF92DF92EF9219
:101F8000FF920F931F93DF93CF93CDB7DEB72B97BD
:101F90000FB6F894DEBF0FBECDBF3C012B015A0136
:101FA000FC0117821682838181FD03C06FEF7FEFF2
:101FB000B9C19AE0892E1E010894211C311CF3013D
:101FC0002381F20123FD859123FF81912F01882335
:101FD00009F4A5C1853239F423FD859123FF819150
:101FE0002F01853221F490E0B3013ADFE8CF982F3A
:101FF000FF24EE249924FFE1FF15D0F09B3269F015
:102000009C3228F4903259F0933291F40EC09D32F4
:1020100049F0903369F441E024C052E0F52A84E0AD
:10202000F82A28C098E0F92A25C0E0E1FE2A22C05B
:10203000F7FC29C0892F80538A3070F4F6FE05C062
:10204000989C902C1124980E15C0E89CE02C11242B
:10205000E80EF0E2FF2A0EC09E3229F4F6FC5FC1C2
:1020600040E4F42A07C09C3619F450E8F52A02C06F
:10207000983649F4F20123FD959123FF91912F01A8
:10208000992309F0B8CF892F8554833018F08052F6
:10209000833038F444E050E0A40EB51E5FE359836A
:1020A0000FC0933631F0933779F0933509F052C071
:1020B0001FC0F5018081898342E050E0A40EB51E67
:1020C000610101E010E011C0F501C080D180F6FC93
:1020D00003C06FEF7FEF02C0692D70E042E050E077
:1020E000A40EB51EC60143D18C015FE7F52213C0D3
:1020F000F501C080D180F6FC03C06FEF7FEF02C016
:10210000692D70E042E050E0A40EB51EC60124D156
:102110008C0150E8F52AF3FE06C018C080E290E07A
:10212000B3019EDEEA948E2D90E008171907B0F3F4
:102130000DC0F601F7FC8591F7FE81916F0190E0EB
:10214000B3018EDEE110EA94015010400115110533
:1021500081F7E2C0943611F0993661F5F7FE08C0B8
:10216000F501208131814281538184E090E00AC0F1
:10217000F501808191819C01442737FD4095542FC2
:1021800082E090E0A80EB91E9FE6F92257FF09C031
:1021900050954095309521953F4F4F4F5F4FE0E868
:1021A000FE2ACA01B901A1012AE030E0EBD0D82E05
:1021B000D2183FC0953729F41F2D1F7E2AE030E04A
:1021C0001DC01F2D197F9F3661F0903720F4983580
:1021D00009F0A5C00FC0903739F0983709F09FC0BB
:1021E00004C028E030E00AC0106114FD146020E152
:1021F00030E004C014FD166020E132E017FF08C093
:10220000F501608171818281938144E050E008C0D2
:10221000F50180819181BC0180E090E042E050E0D6
:10222000A40EB51EA101AED0D82ED2188FE7F82E7D
:10223000F122F6FE0BC05EEFF522D91438F4F4FE5D
:1022400007C0F2FC05C08FEEF82202C01D2D01C0B0
:10225000192DF4FE0DC0FE01ED0DF11D80818033BE
:1022600019F499EEF92208C01F5FF2FE05C003C001
:102270008F2D867809F01F5F0F2DF3FC13C0F0FE41
:102280000EC01E1510F09D2C0AC09D2C9E0C911A9C
:102290001E2D05C080E290E0B301E2DD1F5F1E1538
:1022A000C8F304C01E1510F4E11A01C0EE2404FFA7
:1022B0000EC080E390E0B301D3DD02FF1BC001FD3F
:1022C00003C088E790E00EC088E590E00BC0802F47
:1022D000867881F001FF02C08BE201C080E2F7FC4A
:1022E0008DE290E0B301BCDD05C080E390E0B30176
:1022F000B7DD9A94D914C8F3DA94F101ED0DF11D0C
:10230000808190E0B301ACDDDD20B1F705C080E253
:1023100090E0B301A5DDEA94EE20C9F750CEF301B9
:1023200066817781CB012B960FB6F894DEBF0FBE86
:10233000CDBFCF91DF911F910F91FF90EF90DF9074
:10234000CF90BF90AF909F908F907F906F905F9055
:102350004F903F902F900895FC0105906150704080
:102360000110D8F7809590958E0F9F1F0895FC015E
:102370006150704001900110D8F7809590958E0FB4
:102380009F1F0895FA01AA27283051F1203181F1C9
:10239000E8946F936E7F6E5F7F4F8F4F9F4FAF4F6D
:1023A000B1E03ED0B4E03CD0670F781F891F9A1F80
:1023B000A11D680F791F8A1F911DA11D6A0F711D34
:1023C000811D911DA11D20D009F468943F912AE040
:1023D000269F11243019305D3193DEF6CF01089528
:1023E000462F4770405D4193B3E00FD0C9F7F6CF59
:1023F000462F4F70405D4A3318F0495D31FD405221
:10240000419302D0A9F7EACFB4E0A69597958795B6
:1024100077956795BA95C9F7009761057105089595
:102420009B01AC010A2E0694579547953795279541
:10243000BA95C9F7620F731F841F951FA01D0895D9
:04244000F894FFCF3E
:1024440001000200003D0100000000000000000047
:1024540000000080060001000012000005010000D9
:102464000000008006000100000800400000000396
:0A24740000000000150F1F0F00000C
:00000001FF
