:1000000047C1000063C1000061C100005FC1000082
:100010005DC100005BC1000059C1000057C1000074
:1000200055C1000053C1000017C600004FC10000B9
:100030004DC100004BC1000049C1000047C1000094
:1000400045C1000043C1000041C100003FC10000A4
:100050003DC100003BC1000039C1000037C10000B4
:1000600035C1000033C1000031C100002FC10000C4
:100070002DC100002BC1000029C1000027C10000D4
:1000800025C1000023C1000021C100001FC10000E4
:100090001DC100001BC100004B6579626F61726475
:1000A00020456E756D6572617465642E0D0A001BC6
:1000B0005B33316D436F6E74726F6C204572726F7B
:1000C0007220285365742050726F746F636F6C29AF
:1000D0002E0D0A202D2D204572726F7220436F6401
:1000E000653A2025640D0A1B5B33376D001B5B33BB
:1000F000316D436F6E74726F6C204572726F722037
:100100002853657420436F6E666967757261746900
:100110006F6E292E0D0A202D2D204572726F7220D0
:10012000436F64653A2025640D0A1B5B33376D000D
:10013000202D2D204572726F7220436F64653A2026
:1001400025640D0A1B5B33376D001B5B33316D4932
:100150006E76616C6964204465766963652E0D0A6C
:10016000001B5B33316D436F6E74726F6C20457290
:10017000726F72202847657420436F6E66696775D9
:10018000726174696F6E292E0D0A00476574746977
:100190006E6720436F6E66696720446174612E0D3F
:1001A0000A001B5B33316D44657620456E756D200A
:1001B0004572726F720D0A202D2D204572726F727A
:1001C00020436F64652025640D0A202D2D20537572
:1001D00062204572726F7220436F64652025640D42
:1001E0000A202D2D20496E205374617465202564EA
:1001F0000D0A1B5B33376D001B5B33316D486F732A
:1002000074204D6F6465204572726F720D0A202D47
:100210002D204572726F7220436F64652025640D36
:100220000A1B5B33376D001B5B33326D44657669A7
:10023000636520556E61747461636865642E0D0A90
:100240001B5B33376D001B5B33326D44657669632E
:10025000652041747461636865642E0D0A1B5B330D
:10026000376D001B5B33366D4B6579626F6172646D
:100270002048494420486F73742044656D6F207294
:10028000756E6E696E672E0D0A1B5B33376D00004D
:1002900011241FBECFEFD0E2DEBFCDBF11E0A0E042
:1002A000B1E0E0EBF7E100E00BBF02C007900D9278
:1002B000A033B107D9F711E0A0E3B1E001C01D926E
:1002C000A334B107E1F75ED10C94D60B99CE8BB174
:1002D0008F7080668BB9089587E292E0C5D78BB1A5
:1002E0008F7080618BB9089586E492E0BDD78BB1A1
:1002F0008F70806A8BB9089590913C012DB73EB7FD
:10030000285030400FB6F8943EBF0FBE2DBFEDB75A
:10031000FEB7319622EA31E0ADB7BEB712963C93F4
:100320002E9311978283138264831582968317829A
:1003300079D78BB18F7080698BB92DB73EB7285FA5
:100340003F4F0FB6F8943EBF0FBE2DBF0895DF9309
:10035000CF93CDB7DEB728970FB6F894DEBF0FBEA8
:10036000CDBF81E08093A7008091A9008F7B80930F
:10037000A9008091A60080FF3AC08091A60085FF69
:1003800031C0CE01019668E070E0C0D68981882333
:1003900011F490E001C090E18BB18F7E982B9BB956
:1003A0002B812223F9F08BB190E289278BB9822F20
:1003B00084508A3110F48F5B0DC0822F8E518A30A9
:1003C00010F4805D07C02C3211F480E205C02832A1
:1003D00049F41BC0882331F060913F0170914001C6
:1003E00090E0F4D68091A6008E778093A60080914D
:1003F000A90080648093A90028960FB6F894DEBF08
:100400000FBECDBFCF91DF9108958AE0E5CF1F9356
:1004100080913C018B3021F08C3009F060C05EC0CF
:100420008BE891E021D7D4D0182F8823B9F0813000
:1004300019F481E691E002C08AE491E015D700D07A
:1004400000D0EDB7FEB7319680E391E0ADB7BEB70F
:1004500012969C938E93119712832CC081E0C5D184
:10046000282F882341F000D000D0EDB7FEB7319699
:100470008DEE90E018C0A4E3B1E0E0E0F1E088E0A8
:1004800001900D928150E1F71092A70080E090E07A
:100490003BD5282F8823D9F000D000D0EDB7FEB788
:1004A00031968FEA90E0ADB7BEB712969C938E93CB
:1004B000119722831382B6D68BB18F7080698BB966
:1004C00010923C010F900F900F900F9008C088E998
:1004D00090E0CAD68CE080933C0101C038DF1F91C8
:1004E00008951F93182F93D300D000D0EDB7FEB717
:1004F000319688EF91E0ADB7BEB712969C938E937C
:100500001197128313828ED68BB18F7080698BB94D
:100510000F900F900F900F90FFCF84B7877F84BF0D
:1005200038E10FB6F89430936000109260000FBE6F
:1005300080E090E020E80FB6F8942093610080936B
:1005400061000FBE83E390E09093CD008093CC00D8
:1005500086E08093CA001092C8003093C900539A75
:100560005A9A81E291E09093400180933F019093E9
:100570003E0180933D018AB1806F8AB98BB18F7043
:100580008BB93CC3CADF83E692E06ED68BB18F7025
:1005900080618BB978943BDFECD5FDCFFC01818184
:1005A000843041F48581833029F48781813011F4CE
:1005B00080E0089582E00895FC018181853011F486
:1005C00080E00895843011F082E0089581E008957C
:1005D000AF92BF92CF92DF92EF92FF920F931F9351
:1005E000DF93CF93CDB7DEB7C450D2400FB6F894A7
:1005F000DEBF0FBECDBFAE014B5F5F4F5A83498355
:1006000083E0C82ED12CCC0EDD1E81E0B60120E0A7
:1006100032E0F6D3853029F0863069F0882319F06E
:100620000CC082E037C000E010E056017E01089463
:10063000E11CF11C04C083E02DC081E02BC001153A
:10064000110539F0C501B7014CED52E098D388236C
:1006500061F0C501B7014EEC52E091D3882311F04F
:1006600084E018C009811A81EACFC980DA80F601D6
:10067000228127FFE4CFC114D10409F3048115813D
:1006800081E063E040E1EE24F4D1F60186818093BD
:10069000AD0080E0CC5FDD4F0FB6F894DEBF0FBE3B
:1006A000CDBFCF91DF911F910F91FF90EF90DF9021
:1006B000CF90BF90AF900895982F20919E003091D9
:1006C000A0008091A0008F7D8093A00080919F006A
:1006D0008F7D80939F0080919E00816080939E001B
:1006E00026C080919F0085FF06C080919F008F7D6E
:1006F00080939F00915080913C01823011F491E0F1
:1007000018C08091A60084FF07C08091A6008F7E4C
:100710008093A60092E00DC08091A60081FF07C0E3
:100720008091A6008D7F8093A60093E002C099235C
:10073000C1F620FD05C080919E008E7F80939E00B3
:1007400035FF05C08091A00080628093A000892FB2
:10075000089560919E008091A0008D7F8093A000FD
:1007600080919E00826080939E0080919E0081FD1A
:10077000FCCF80919E00816080939E003091A0000C
:100780008091A0008F7D8093A00080919F008F7D3D
:1007900080939F002AE040ED57E080919F0085FF05
:1007A0000BC080919F008F7D80939F0080919F0060
:1007B0008D7F80939F0005C0CA010197F1F72150FA
:1007C00061F735FF05C08091A00080628093A00092
:1007D00060FD05C080919E008E7F80939E00809179
:1007E000A00082608093A00008951092340199E0E7
:1007F00090933501809336011092370110923901A0
:100800001092380110923B0110923A011092A70009
:1008100080E090E079C3EF920F931F93DF93CF9323
:10082000CDB7DEB728970FB6F894DEBF0FBECDBFA9
:1008300080913C01863009F494C0873070F4833095
:10084000C1F1843020F4813009F007C113C0843035
:10085000C1F1853009F001C15BC0883009F49BC04B
:10086000883008F48AC0893009F4B4C08A3009F0AD
:10087000F4C0D9C000913101109132010115110568
:1008800009F4EBC081E018DF682F882331F08091F4
:10089000300180933C0191E0DCC0C8010197909346
:1008A000320180933101892B09F0D7C0809130014A
:1008B000BFC088EE93E0909332018093310184E0D1
:1008C000B7C080913101909132010197909332012C
:1008D00080933101019629F080ED97E00197F1F7BF
:1008E000BCC077988091D80080618093D8008091B7
:1008F000DD008B7F8093DD008091D7008061809345
:10090000D7008091DD0082608093DD0085E090C09B
:1009100080919F0080FFA1C080919F008E7F809377
:100920009F0080919F008D7F80939F008091DF00CA
:100930008D7F8093DF008091DE0082608093DE00F7
:1009400080919E00816080939E00C9D081E0809359
:100950003C0184E690E0909332018093310186E07F
:100960005FC0F7DE81E080933C0188EC90E09093DB
:1009700032018093310187E053C080E060E040E0C5
:1009800020E000E410E0EE2474D08091AC0087FFFA
:100990005EC088E04DC0A4E3B1E0E8E1F1E088E0AA
:1009A00001900D928150E1F7CE010196ADD2682FF2
:1009B000882309F04AC0888580932001CADE81E03F
:1009C00080933C0188EC90E0909332018093310158
:1009D00089E026C00091200180E060E040E020E056
:1009E00010E0EE2446D08091AC0087FF30C0A4E335
:1009F000B1E0E0E1F1E088E001900D928150E1F793
:100A000080E090E081D2682F8823F9F481E0809320
:100A10003C0184E690E090933201809331018AE0BA
:100A2000809330011AC081E08093A10050DC8BE0FC
:100A300080933C0112C0892F5FDC8091DD008160D2
:100A40008093DD0049DC8CD008C093E002C094E0C4
:100A500060E080913C01823071F728960FB6F894DF
:100A6000DEBF0FBECDBFCF91DF911F910F91EF90F1
:100A70000895EF920F931F939E2D8093A70080916E
:100A8000A90081608093A9001092AB006295660F67
:100A9000660F607C642B2F70622B6093AA0028E0A5
:100AA00030E080E003C08F5F220F331F2017310733
:100AB00010F48530C1F792608295807F892B8093F6
:100AC000AB008091A90080628093A9008091AC0066
:100AD000881F8827881F1F910F91EF90089510920B
:100AE000F80090E09093A7001092AE001092A6003C
:100AF0001092AB008091A9008E7F8093A9009F5F28
:100B0000973081F708954091A2005091A30024E608
:100B10008091AA008073803129F48091A60080FF23
:100B200005C01CC08091A60082FD18C08091A6005F
:100B300081FF02C081E0089580913C01823079F00C
:100B40008091A2009091A3008417950709F32223B6
:100B500011F483E008952150AC01DACF80E00895CC
:100B60006ED075D08091D800982F9F779093D80041
:100B700080688093D8008CE089BD89B5826089BD8A
:100B800009B400FEFDCF8091D8008F7D8093D800FE
:100B90008091D7008F778093D70082E080933C01CB
:100BA00080E4809320018091D80080648093D800F5
:100BB0008091DD0081608093DD008091DD008460A4
:100BC0008093DD008091D7008F7E8093D7006F9A4D
:100BD000779A8091DE0081608093DE008091DE0054
:100BE00084608093DE008091E0008E7F8093E0003F
:100BF0008091D80080618093D8000895E7EDF0E0FF
:100C000080818160808381E080933301A9CF17D0F8
:100C10001ED0E0EEF0E0808181608083A8EDB0E03E
:100C20008C918F778C9319BCE7EDF0E080818E7FFB
:100C300080838C918F7E8C93109233010895E8ED20
:100C4000F0E080818C7F80831092A0000895109244
:100C5000DA0010929F0008951F920F920FB60F9224
:100C60000BB60F9211242F933F934F935F936F9383
:100C70007F938F939F93AF93BF93EF93FF93809155
:100C80009F0081FF15C08091A00081FF11C080915D
:100C90009F008D7F80939F0080919F008E7F809327
:100CA0009F008091A0008D7F8093A00015DB58DF0E
:100CB0008091DF0081FF15C08091DE0081FF11C0AF
:100CC0008091DF008D7F8093DF0077988091DD0039
:100CD00081608093DD0080E004DCFEDA82E08093B6
:100CE0003C018091DF0080FF17C08091DE0080FF13
:100CF00013C08091DF008E7F8093DF008091DE0043
:100D00008E7F8093DE00F0DA8091A0008260809375
:100D1000A00083E080933C018091DF0082FF0EC041
:100D20008091DE0082FF0AC08091DF008B7F80937C
:100D3000DF0082E060E0E0DACFDA12DF80919F002E
:100D400085FF0AC08091A00085FF06C080919F00AA
:100D50008F7D80939F00AED0FF91EF91BF91AF91B7
:100D60009F918F917F916F915F914F913F912F91C3
:100D70000F900BBE0F900FBE0F901F901895AF9263
:100D8000BF92CF92DF92EF92FF920F931F93CF9378
:100D9000DF937C018B015A0121C0F801C081D18110
:100DA000888190E09E01280F391F31832083F7014D
:100DB00020813181281B390B31832083F801808108
:100DC0009181F5010995823049F0813071F4F80183
:100DD000C083D183F701D182C08207C0F701C080F0
:100DE000D180C114D104C9F682E0DF91CF911F9167
:100DF0000F91FF90EF90DF90CF90BF90AF9008954C
:100E0000CF92DF92EF92FF920F931F93DF93CF93D6
:100E1000CDB7DEB729970FB6F894DEBF0FBECDBFB2
:100E20006B018A01790190E89093340196E09093E8
:100E3000350190E0019792609093370180933601DD
:100E4000109239011092380189E090E090933B01B3
:100E500080933A011092A700CE01019655D0282F19
:100E60008823C1F48B819C81F60191838083E816ED
:100E7000F90610F425E00EC090933B0180933A01EF
:100E8000C80142D0282F882329F4F80181818230BB
:100E900009F026E0822F29960FB6F894DEBF0FBE28
:100EA000CDBFCF91DF911F910F91FF90EF90DF9019
:100EB000CF90089508951F93CF93DF93182FC8EE16
:100EC000D3E009C081E0F8DB8823D1F4209711F446
:100ED00084E016C02197112329F48091A60083FF96
:100EE000F1CF0DC0113029F48091A60080FFEACF28
:100EF00006C0123039F78091A60082FFE3CF80E070
:100F0000DF91CF911F910895FF920F931F93CF937D
:100F1000DF93182F092FF0909E00C0913A01D091D5
:100F20003B0180919E00816080939E0081E0C4DB44
:100F3000982F882309F0D2C08091AA008F7C8093DB
:100F4000AA001092F5008091A9008F7B8093A900E0
:100F5000E4E3F1E081918093AF0081E0EC33F807A6
:100F6000C9F78091A60087778093A60080E0A3DF71
:100F7000982F882309F0B2C08091A90080648093E3
:100F8000A90081E099DB982F882309F0A7C0212FC1
:100F9000302FC9018C018091340187FF52C08091AC
:100FA000AA008F7C80618093AA000115110569F564
:100FB0002EC08091A9008F7B8093A90081E07BDF08
:100FC000982F882309F08AC08091F6009091F7004D
:100FD000892B49F4C0E0D0E006C08091AF00F80151
:100FE00081938F0121978091F6009091F700892BD2
:100FF00011F0209791F78091A90080648093A90057
:101000008091A6008E778093A600209791F680911C
:10101000AA008F7C80628093AA008091A9008F7BB8
:101020008093A90082E047DF982F882309F056C0FB
:101030008091A6008B778093A60082E03CDF982FFA
:101040004DC001151105A9F18091AA008F7C806225
:101050008093AA008091A9008F7B8093A9001DC076
:1010600082E029DF982F8823C9F580912001282F5D
:1010700030E007C0F80181918F018093AF00219784
:1010800039F08091F6009091F7008217930790F362
:101090008091A6008B778093A600209709F782E0C5
:1010A0000ADF982F8823D1F48091A900806480936F
:1010B000A9008091AA008F7C80618093AA00809112
:1010C000A9008F7B8093A90081E0F5DE982F88230B
:1010D00029F48091A6008E778093A6008091A900C4
:1010E00080648093A900F0FC05C080919E008E7FF3
:1010F00080939E0081E08093A8001092A800892F21
:10110000DF91CF911F910F91FF900895FF920F9360
:101110001F93CF93DF93182F092FEB018091AA0023
:101120008F7C80618093AA00EEDCF82E8823D1F4B6
:10113000812F902F9C01890113C08091A60085FD0D
:1011400009C08091A6008E778093A600DCDC8823FE
:1011500039F009C08091AF00F80181938F01219788
:10116000209759F78F2DDF91CF911F910F91FF900D
:101170000895FF920F931F9307EA10E0F801F080A3
:10118000F7E0FF22F801108246DBF801F0821F91A0
:101190000F91FF900895982F8091C80085FFFCCF94
:1011A0009093CE0080E090E008958091C80087FD84
:1011B00003C02EEF3FEF08C08091C80087FFFCCF2F
:1011C0008091CE00282F30E0C90108950F931F931E
:1011D000CF93DF938C01EB018B8181FF1BC082FFDA
:1011E0000DC02E813F818C819D812817390764F4C1
:1011F000E881F9810193F983E88306C0E885F985E0
:10120000802F0995892B31F48E819F8101969F83D0
:101210008E8302C00FEF1FEFC801DF91CF911F91A6
:101220000F910895DF93CF93CDB7DEB7FE013596CA
:1012300061917191A0913F01B091400113968C9101
:101240001397886013968C9380913F019091400191
:10125000AF013FD0E0913F01F09140012381277F12
:101260002383CF91DF9108950F931F93CF93DF9343
:10127000EC01E0913F01F0914001838181FF21C0A9
:1012800000E010E00EC0E0913F01F09140012085A8
:101290003185BF01F9010995892B11F00FEF1FEF7F
:1012A0002196FE018491882371F7E0913F01F0912E
:1012B0004001208531858AE0BF01F9010995892B1C
:1012C00011F00FEF1FEFC801DF91CF911F910F9128
:1012D00008952F923F924F925F926F927F928F92DA
:1012E0009F92AF92BF92CF92DF92EF92FF920F93B5
:1012F0001F93DF93CF93CDB7DEB72B970FB6F8943C
:10130000DEBF0FBECDBF3C012B015A01FC0117828D
:101310001682838181FD03C06FEF7FEFB9C19AE030
:10132000892E1E010894211C311CF3012381F20136
:1013300023FD859123FF81912F01882309F4A5C105
:10134000853239F423FD859123FF81912F01853268
:1013500021F490E0B3013ADFE8CF982FFF24EE2488
:101360009924FFE1FF15D0F09B3269F09C3228F4FC
:10137000903259F0933291F40EC09D3249F090337F
:1013800069F441E024C052E0F52A84E0F82A28C03C
:1013900098E0F92A25C0E0E1FE2A22C0F7FC29C026
:1013A000892F80538A3070F4F6FE05C0989C902CEB
:1013B0001124980E15C0E89CE02C1124E80EF0E2F0
:1013C000FF2A0EC09E3229F4F6FC5FC140E4F42AE5
:1013D00007C09C3619F450E8F52A02C0983649F443
:1013E000F20123FD959123FF91912F01992309F09B
:1013F000B8CF892F8554833018F08052833038F469
:1014000044E050E0A40EB51E5FE359830FC093364D
:1014100031F0933779F0933509F052C01FC0F501D0
:101420008081898342E050E0A40EB51E610101E095
:1014300010E011C0F501C080D180F6FC03C06FEF51
:101440007FEF02C0692D70E042E050E0A40EB51EAF
:10145000C60143D18C015FE7F52213C0F501C080BE
:10146000D180F6FC03C06FEF7FEF02C0692D70E002
:1014700042E050E0A40EB51EC60124D18C0150E814
:10148000F52AF3FE06C018C080E290E0B3019EDEAC
:10149000EA948E2D90E008171907B0F30DC0F601FD
:1014A000F7FC8591F7FE81916F0190E0B3018EDE2C
:1014B000E110EA94015010400115110581F7E2C0D6
:1014C000943611F0993661F5F7FE08C0F5012081D8
:1014D00031814281538184E090E00AC0F50180812E
:1014E00091819C01442737FD4095542F82E090E084
:1014F000A80EB91E9FE6F92257FF09C050954095E6
:10150000309521953F4F4F4F5F4FE0E8FE2ACA01CB
:10151000B901A1012AE030E0EBD0D82ED2183FC0AB
:10152000953729F41F2D1F7E2AE030E01DC01F2DA6
:10153000197F9F3661F0903720F4983509F0A5C0E7
:101540000FC0903739F0983709F09FC004C028E0E9
:1015500030E00AC0106114FD146020E130E004C0E6
:1015600014FD166020E132E017FF08C0F50160812C
:1015700071818281938144E050E008C0F50180814F
:101580009181BC0180E090E042E050E0A40EB51EE5
:10159000A101AED0D82ED2188FE7F82EF122F6FE98
:1015A0000BC05EEFF522D91438F4F4FE07C0F2FC4C
:1015B00005C08FEEF82202C01D2D01C0192DF4FECA
:1015C0000DC0FE01ED0DF11D8081803319F499EEFF
:1015D000F92208C01F5FF2FE05C003C08F2D867878
:1015E00009F01F5F0F2DF3FC13C0F0FE0EC01E1597
:1015F00010F09D2C0AC09D2C9E0C911A1E2D05C02A
:1016000080E290E0B301E2DD1F5F1E15C8F304C065
:101610001E1510F4E11A01C0EE2404FF0EC080E391
:1016200090E0B301D3DD02FF1BC001FD03C088E7DA
:1016300090E00EC088E590E00BC0802F867881F0A6
:1016400001FF02C08BE201C080E2F7FC8DE290E076
:10165000B301BCDD05C080E390E0B301B7DD9A942F
:10166000D914C8F3DA94F101ED0DF11D808190E0F9
:10167000B301ACDDDD20B1F705C080E290E0B3013D
:10168000A5DDEA94EE20C9F750CEF301668177819B
:10169000CB012B960FB6F894DEBF0FBECDBFCF9116
:1016A000DF911F910F91FF90EF90DF90CF90BF904F
:1016B000AF909F908F907F906F905F904F903F90F2
:1016C0002F900895FC010590615070400110D8F7EB
:1016D000809590958E0F9F1F0895FC01615070407A
:1016E00001900110D8F7809590958E0F9F1F089557
:1016F000FA01AA27283051F1203181F1E8946F9343
:101700006E7F6E5F7F4F8F4F9F4FAF4FB1E03ED0E8
:10171000B4E03CD0670F781F891F9A1FA11D680F86
:10172000791F8A1F911DA11D6A0F711D811D911DB9
:10173000A11D20D009F468943F912AE0269F11242E
:101740003019305D3193DEF6CF010895462F477092
:10175000405D4193B3E00FD0C9F7F6CF462F4F70ED
:10176000405D4A3318F0495D31FD4052419302D04B
:10177000A9F7EACFB4E0A6959795879577956795F1
:10178000BA95C9F700976105710508959B01AC01F1
:101790000A2E06945795479537952795BA95C9F718
:1017A000620F731F841F951FA01D0895F894FFCF2B
:1017B000210B000000000000800600010000120064
:1017C0000005010000000000800600010000080084
:1017D000400000000300000000CB08D50800000016
:00000001FF
